{
  "_format": "hh-sol-artifact-1",
  "contractName": "HSMKeyManager",
  "sourceName": "contracts/HSMKeyManager.sol",
  "abi": [
    {
      "inputs": [],
      "stateMutability": "nonpayable",
      "type": "constructor"
    },
    {
      "inputs": [
        {
          "internalType": "address",
          "name": "validator",
          "type": "address"
        }
      ],
      "name": "HSMKeyNotActive",
      "type": "error"
    },
    {
      "inputs": [
        {
          "internalType": "bytes32",
          "name": "operationHash",
          "type": "bytes32"
        }
      ],
      "name": "InsufficientAdminApprovals",
      "type": "error"
    },
    {
      "inputs": [
        {
          "internalType": "address",
          "name": "oracle",
          "type": "address"
        }
      ],
      "name": "InvalidHSMOracle",
      "type": "error"
    },
    {
      "inputs": [
        {
          "internalType": "bytes32",
          "name": "operationHash",
          "type": "bytes32"
        }
      ],
      "name": "KeyRotationNotApproved",
      "type": "error"
    },
    {
      "inputs": [
        {
          "internalType": "address",
          "name": "owner",
          "type": "address"
        }
      ],
      "name": "OwnableInvalidOwner",
      "type": "error"
    },
    {
      "inputs": [
        {
          "internalType": "address",
          "name": "account",
          "type": "address"
        }
      ],
      "name": "OwnableUnauthorizedAccount",
      "type": "error"
    },
    {
      "inputs": [],
      "name": "ReentrancyGuardReentrantCall",
      "type": "error"
    },
    {
      "inputs": [
        {
          "internalType": "bytes32",
          "name": "requestId",
          "type": "bytes32"
        }
      ],
      "name": "SigningAlreadyRequested",
      "type": "error"
    },
    {
      "inputs": [
        {
          "internalType": "address",
          "name": "validator",
          "type": "address"
        }
      ],
      "name": "ValidatorNotRegistered",
      "type": "error"
    },
    {
      "anonymous": false,
      "inputs": [
        {
          "indexed": true,
          "internalType": "address",
          "name": "validator",
          "type": "address"
        },
        {
          "indexed": false,
          "internalType": "string",
          "name": "keyId",
          "type": "string"
        },
        {
          "indexed": false,
          "internalType": "enum HSMKeyManager.HSMProvider",
          "name": "provider",
          "type": "uint8"
        },
        {
          "indexed": false,
          "internalType": "bytes32",
          "name": "publicKeyHash",
          "type": "bytes32"
        }
      ],
      "name": "HSMKeyRegistered",
      "type": "event"
    },
    {
      "anonymous": false,
      "inputs": [
        {
          "indexed": false,
          "internalType": "address",
          "name": "oracle",
          "type": "address"
        }
      ],
      "name": "HSMOracleAdded",
      "type": "event"
    },
    {
      "anonymous": false,
      "inputs": [
        {
          "indexed": false,
          "internalType": "address",
          "name": "oracle",
          "type": "address"
        }
      ],
      "name": "HSMOracleRemoved",
      "type": "event"
    },
    {
      "anonymous": false,
      "inputs": [
        {
          "indexed": true,
          "internalType": "address",
          "name": "validator",
          "type": "address"
        },
        {
          "indexed": false,
          "internalType": "bytes32",
          "name": "operationHash",
          "type": "bytes32"
        },
        {
          "indexed": false,
          "internalType": "string",
          "name": "newKeyId",
          "type": "string"
        }
      ],
      "name": "KeyRotationInitiated",
      "type": "event"
    },
    {
      "anonymous": false,
      "inputs": [
        {
          "indexed": true,
          "internalType": "address",
          "name": "previousOwner",
          "type": "address"
        },
        {
          "indexed": true,
          "internalType": "address",
          "name": "newOwner",
          "type": "address"
        }
      ],
      "name": "OwnershipTransferred",
      "type": "event"
    },
    {
      "anonymous": false,
      "inputs": [
        {
          "indexed": true,
          "internalType": "bytes32",
          "name": "requestId",
          "type": "bytes32"
        },
        {
          "indexed": false,
          "internalType": "bytes",
          "name": "signature",
          "type": "bytes"
        },
        {
          "indexed": false,
          "internalType": "uint256",
          "name": "timestamp",
          "type": "uint256"
        }
      ],
      "name": "SigningCompleted",
      "type": "event"
    },
    {
      "anonymous": false,
      "inputs": [
        {
          "indexed": true,
          "internalType": "bytes32",
          "name": "requestId",
          "type": "bytes32"
        },
        {
          "indexed": true,
          "internalType": "address",
          "name": "validator",
          "type": "address"
        },
        {
          "indexed": false,
          "internalType": "bytes32",
          "name": "messageHash",
          "type": "bytes32"
        }
      ],
      "name": "SigningRequested",
      "type": "event"
    },
    {
      "inputs": [],
      "name": "ADMIN_THRESHOLD",
      "outputs": [
        {
          "internalType": "uint256",
          "name": "",
          "type": "uint256"
        }
      ],
      "stateMutability": "view",
      "type": "function"
    },
    {
      "inputs": [
        {
          "internalType": "address",
          "name": "oracle",
          "type": "address"
        }
      ],
      "name": "addHSMOracle",
      "outputs": [],
      "stateMutability": "nonpayable",
      "type": "function"
    },
    {
      "inputs": [
        {
          "internalType": "bytes32",
          "name": "",
          "type": "bytes32"
        },
        {
          "internalType": "address",
          "name": "",
          "type": "address"
        }
      ],
      "name": "adminApprovals",
      "outputs": [
        {
          "internalType": "bool",
          "name": "",
          "type": "bool"
        }
      ],
      "stateMutability": "view",
      "type": "function"
    },
    {
      "inputs": [
        {
          "internalType": "bytes32",
          "name": "",
          "type": "bytes32"
        }
      ],
      "name": "approvalCounts",
      "outputs": [
        {
          "internalType": "uint256",
          "name": "",
          "type": "uint256"
        }
      ],
      "stateMutability": "view",
      "type": "function"
    },
    {
      "inputs": [
        {
          "internalType": "bytes32",
          "name": "operationHash",
          "type": "bytes32"
        }
      ],
      "name": "approveKeyRotation",
      "outputs": [],
      "stateMutability": "nonpayable",
      "type": "function"
    },
    {
      "inputs": [
        {
          "internalType": "address",
          "name": "validator",
          "type": "address"
        }
      ],
      "name": "emergencyDeactivateKey",
      "outputs": [],
      "stateMutability": "nonpayable",
      "type": "function"
    },
    {
      "inputs": [
        {
          "internalType": "address",
          "name": "validator",
          "type": "address"
        },
        {
          "internalType": "string",
          "name": "newKeyId",
          "type": "string"
        },
        {
          "internalType": "bytes32",
          "name": "newPublicKeyHash",
          "type": "bytes32"
        },
        {
          "internalType": "bytes32",
          "name": "operationHash",
          "type": "bytes32"
        }
      ],
      "name": "executeKeyRotation",
      "outputs": [],
      "stateMutability": "nonpayable",
      "type": "function"
    },
    {
      "inputs": [
        {
          "internalType": "address",
          "name": "validator",
          "type": "address"
        }
      ],
      "name": "getHSMKey",
      "outputs": [
        {
          "components": [
            {
              "internalType": "string",
              "name": "keyId",
              "type": "string"
            },
            {
              "internalType": "enum HSMKeyManager.HSMProvider",
              "name": "provider",
              "type": "uint8"
            },
            {
              "internalType": "bytes32",
              "name": "publicKeyHash",
              "type": "bytes32"
            },
            {
              "internalType": "bool",
              "name": "active",
              "type": "bool"
            },
            {
              "internalType": "uint256",
              "name": "createdAt",
              "type": "uint256"
            },
            {
              "internalType": "address",
              "name": "validator",
              "type": "address"
            }
          ],
          "internalType": "struct HSMKeyManager.HSMKey",
          "name": "",
          "type": "tuple"
        }
      ],
      "stateMutability": "view",
      "type": "function"
    },
    {
      "inputs": [
        {
          "internalType": "address",
          "name": "validator",
          "type": "address"
        }
      ],
      "name": "getKeyId",
      "outputs": [
        {
          "internalType": "string",
          "name": "",
          "type": "string"
        }
      ],
      "stateMutability": "view",
      "type": "function"
    },
    {
      "inputs": [
        {
          "internalType": "bytes32",
          "name": "requestId",
          "type": "bytes32"
        }
      ],
      "name": "getSigningRequest",
      "outputs": [
        {
          "components": [
            {
              "internalType": "bytes32",
              "name": "requestId",
              "type": "bytes32"
            },
            {
              "internalType": "address",
              "name": "validator",
              "type": "address"
            },
            {
              "internalType": "bytes32",
              "name": "messageHash",
              "type": "bytes32"
            },
            {
              "internalType": "string",
              "name": "hsmKeyId",
              "type": "string"
            },
            {
              "internalType": "bool",
              "name": "completed",
              "type": "bool"
            },
            {
              "internalType": "bytes",
              "name": "signature",
              "type": "bytes"
            },
            {
              "internalType": "uint256",
              "name": "timestamp",
              "type": "uint256"
            }
          ],
          "internalType": "struct HSMKeyManager.SigningRequest",
          "name": "",
          "type": "tuple"
        }
      ],
      "stateMutability": "view",
      "type": "function"
    },
    {
      "inputs": [
        {
          "internalType": "address",
          "name": "",
          "type": "address"
        }
      ],
      "name": "hsmOracles",
      "outputs": [
        {
          "internalType": "bool",
          "name": "",
          "type": "bool"
        }
      ],
      "stateMutability": "view",
      "type": "function"
    },
    {
      "inputs": [
        {
          "internalType": "address",
          "name": "validator",
          "type": "address"
        },
        {
          "internalType": "string",
          "name": "newKeyId",
          "type": "string"
        },
        {
          "internalType": "bytes32",
          "name": "newPublicKeyHash",
          "type": "bytes32"
        }
      ],
      "name": "initiateKeyRotation",
      "outputs": [
        {
          "internalType": "bytes32",
          "name": "operationHash",
          "type": "bytes32"
        }
      ],
      "stateMutability": "nonpayable",
      "type": "function"
    },
    {
      "inputs": [
        {
          "internalType": "address",
          "name": "oracle",
          "type": "address"
        }
      ],
      "name": "isHSMOracle",
      "outputs": [
        {
          "internalType": "bool",
          "name": "",
          "type": "bool"
        }
      ],
      "stateMutability": "view",
      "type": "function"
    },
    {
      "inputs": [],
      "name": "owner",
      "outputs": [
        {
          "internalType": "address",
          "name": "",
          "type": "address"
        }
      ],
      "stateMutability": "view",
      "type": "function"
    },
    {
      "inputs": [
        {
          "internalType": "address",
          "name": "validator",
          "type": "address"
        },
        {
          "internalType": "string",
          "name": "keyId",
          "type": "string"
        },
        {
          "internalType": "enum HSMKeyManager.HSMProvider",
          "name": "provider",
          "type": "uint8"
        },
        {
          "internalType": "bytes32",
          "name": "publicKeyHash",
          "type": "bytes32"
        }
      ],
      "name": "registerHSMKey",
      "outputs": [],
      "stateMutability": "nonpayable",
      "type": "function"
    },
    {
      "inputs": [
        {
          "internalType": "address",
          "name": "oracle",
          "type": "address"
        }
      ],
      "name": "removeHSMOracle",
      "outputs": [],
      "stateMutability": "nonpayable",
      "type": "function"
    },
    {
      "inputs": [],
      "name": "renounceOwnership",
      "outputs": [],
      "stateMutability": "nonpayable",
      "type": "function"
    },
    {
      "inputs": [
        {
          "internalType": "bytes32",
          "name": "messageHash",
          "type": "bytes32"
        }
      ],
      "name": "requestSigning",
      "outputs": [
        {
          "internalType": "bytes32",
          "name": "requestId",
          "type": "bytes32"
        }
      ],
      "stateMutability": "nonpayable",
      "type": "function"
    },
    {
      "inputs": [
        {
          "internalType": "bytes32",
          "name": "",
          "type": "bytes32"
        }
      ],
      "name": "signingRequests",
      "outputs": [
        {
          "internalType": "bytes32",
          "name": "requestId",
          "type": "bytes32"
        },
        {
          "internalType": "address",
          "name": "validator",
          "type": "address"
        },
        {
          "internalType": "bytes32",
          "name": "messageHash",
          "type": "bytes32"
        },
        {
          "internalType": "string",
          "name": "hsmKeyId",
          "type": "string"
        },
        {
          "internalType": "bool",
          "name": "completed",
          "type": "bool"
        },
        {
          "internalType": "bytes",
          "name": "signature",
          "type": "bytes"
        },
        {
          "internalType": "uint256",
          "name": "timestamp",
          "type": "uint256"
        }
      ],
      "stateMutability": "view",
      "type": "function"
    },
    {
      "inputs": [
        {
          "internalType": "bytes32",
          "name": "requestId",
          "type": "bytes32"
        },
        {
          "internalType": "bytes",
          "name": "signature",
          "type": "bytes"
        }
      ],
      "name": "submitSignature",
      "outputs": [],
      "stateMutability": "nonpayable",
      "type": "function"
    },
    {
      "inputs": [
        {
          "internalType": "address",
          "name": "newOwner",
          "type": "address"
        }
      ],
      "name": "transferOwnership",
      "outputs": [],
      "stateMutability": "nonpayable",
      "type": "function"
    },
    {
      "inputs": [
        {
          "internalType": "address",
          "name": "",
          "type": "address"
        }
      ],
      "name": "validatorKeys",
      "outputs": [
        {
          "internalType": "string",
          "name": "keyId",
          "type": "string"
        },
        {
          "internalType": "enum HSMKeyManager.HSMProvider",
          "name": "provider",
          "type": "uint8"
        },
        {
          "internalType": "bytes32",
          "name": "publicKeyHash",
          "type": "bytes32"
        },
        {
          "internalType": "bool",
          "name": "active",
          "type": "bool"
        },
        {
          "internalType": "uint256",
          "name": "createdAt",
          "type": "uint256"
        },
        {
          "internalType": "address",
          "name": "validator",
          "type": "address"
        }
      ],
      "stateMutability": "view",
      "type": "function"
    }
  ],
  "bytecode": "0x608060405234801561001057600080fd5b50338061003757604051631e4fbdf760e01b81526000600482015260240160405180910390fd5b6100408161006a565b5060017f9b779b17422d0df92223018b32b4d1fa46e071723d6817e2486d003becc55f00556100ba565b600080546001600160a01b038381166001600160a01b0319831681178455604051919092169283917f8be0079c531659141344cd1fd0a4f28419497f9722a3daafe3b4186f6b6457e09190a35050565b611bdd806100c96000396000f3fe608060405234801561001057600080fd5b50600436106101425760003560e01c8063715018a6116100b8578063b0a135c01161007c578063b0a135c0146102f2578063b93f4a1f14610318578063bc48a7401461032b578063cda4b8581461034b578063df6158ba14610377578063f2fde38b1461038a57600080fd5b8063715018a61461026e57806382eb6ce2146102765780638abed32b146102895780638da5cb5b146102a9578063a015c18d146102c457600080fd5b8063546717071161010a57806354671707146101bd5780635523d365146101dd5780635c0569f81461021057806363168c7d14610235578063649ad2b3146102485780636af948421461025b57600080fd5b806306088e97146101475780630e39bff11461016d5780631dd3e7071461018d578063246d4dc6146101a25780633782339e146101b5575b600080fd5b61015a6101553660046113cb565b61039d565b6040519081526020015b60405180910390f35b61018061017b3660046113cb565b610670565b6040516101649190611434565b6101a061019b36600461151c565b610833565b005b6101a06101b03660046113cb565b610a29565b61015a600281565b6101d06101cb36600461158e565b610ad0565b60405161016491906115e8565b6102006101eb36600461158e565b60036020526000908152604090205460ff1681565b6040519015158152602001610164565b61022361021e36600461158e565b610c2d565b60405161016496959493929190611655565b6101a061024336600461158e565b610cf9565b6101a061025636600461158e565b610d25565b61015a6102693660046116a4565b610d85565b6101a0610e0d565b6101a061028436600461158e565b610e21565b61015a6102973660046113cb565b60056020526000908152604090205481565b6000546040516001600160a01b039091168152602001610164565b6102006102d23660046116fe565b600460209081526000928352604080842090915290825290205460ff1681565b6103056103003660046113cb565b610e7d565b604051610164979695949392919061172a565b6101a0610326366004611786565b610fdc565b61033e61033936600461158e565b611062565b60405161016491906117eb565b61020061035936600461158e565b6001600160a01b031660009081526003602052604090205460ff1690565b6101a06103853660046117fe565b61110e565b6101a061039836600461158e565b6112a0565b3360008181526001602052604081206003015490919060ff166103e35760405163994fe5c160e01b81526001600160a01b03821660048201526024015b60405180910390fd5b33600090815260016020526040808220815160c0810190925280548290829061040b9061184a565b80601f01602080910402602001604051908101604052809291908181526020018280546104379061184a565b80156104845780601f1061045957610100808354040283529160200191610484565b820191906000526020600020905b81548152906001019060200180831161046757829003601f168201915b5050509183525050600182015460209091019060ff1660038111156104ab576104ab6115b0565b60038111156104bc576104bc6115b0565b81526002820154602080830191909152600383015460ff161515604080840191909152600484015460608401526005909301546001600160a01b03166080909201919091528251915192935061051a9233928892909142910161187e565b60408051601f1981840301815291815281516020928301206000818152600290935291206006015490935015610566576040516306e396ff60e41b8152600481018490526024016103da565b6040805160e0810182528481523360208083019182528284018881528551606085019081526000608086018190528651808501885281815260a08701524260c0870152898152600293849052959095208451815592516001840180546001600160a01b0319166001600160a01b039092169190911790555190820155915190919060038201906105f69082611928565b50608082015160048201805460ff191691151591909117905560a082015160058201906106239082611928565b5060c09190910151600690910155604051848152339084907f0581962ea5171e097cb6b389587fc77e7ac49a09da92c04e15eaa2bf5e3e28589060200160405180910390a3505b50919050565b6040805160e08101825260008082526020820181905291810182905260608082018190526080820183905260a082015260c0810191909152600082815260026020818152604092839020835160e0810185528154815260018201546001600160a01b03169281019290925291820154928101929092526003810180546060840191906106fb9061184a565b80601f01602080910402602001604051908101604052809291908181526020018280546107279061184a565b80156107745780601f1061074957610100808354040283529160200191610774565b820191906000526020600020905b81548152906001019060200180831161075757829003601f168201915b5050509183525050600482015460ff16151560208201526005820180546040909201916107a09061184a565b80601f01602080910402602001604051908101604052809291908181526020018280546107cc9061184a565b80156108195780601f106107ee57610100808354040283529160200191610819565b820191906000526020600020905b8154815290600101906020018083116107fc57829003601f168201915b505050505081526020016006820154815250509050919050565b61083b6112de565b826108795760405162461bcd60e51b815260206004820152600e60248201526d125b9d985b1a59081ad95e48125160921b60448201526064016103da565b806108c65760405162461bcd60e51b815260206004820152601760248201527f496e76616c6964207075626c6963206b6579206861736800000000000000000060448201526064016103da565b6040518060c0016040528085858080601f01602080910402602001604051908101604052809392919081815260200183838082843760009201919091525050509082525060200183600381111561091f5761091f6115b0565b81526020808201849052600160408084018290524260608501526001600160a01b038a166080909401849052600093845291529020815181906109629082611928565b50602082015160018083018054909160ff199091169083600381111561098a5761098a6115b0565b02179055506040828101516002830155606083015160038301805460ff19169115159190911790556080830151600483015560a090920151600590910180546001600160a01b0319166001600160a01b039283161790559051908616907fc853fa390e39d04ae3d6e3c91a40ae3daa403d659d1410e4d0d9526c848c7a2690610a1a908790879087908790611a11565b60405180910390a25050505050565b610a316112de565b600081815260046020908152604080832033845290915290205460ff1615610a8e5760405162461bcd60e51b815260206004820152601060248201526f105b1c9958591e48185c1c1c9bdd995960821b60448201526064016103da565b60008181526004602090815260408083203384528252808320805460ff1916600117905583835260059091528120805491610ac883611a43565b919050555050565b610b0a6040805160c08101909152606081526020810160008152600060208201819052604082018190526060820181905260809091015290565b6001600160a01b03821660009081526001602052604090819020815160c08101909252805482908290610b3c9061184a565b80601f0160208091040260200160405190810160405280929190818152602001828054610b689061184a565b8015610bb55780601f10610b8a57610100808354040283529160200191610bb5565b820191906000526020600020905b815481529060010190602001808311610b9857829003601f168201915b5050509183525050600182015460209091019060ff166003811115610bdc57610bdc6115b0565b6003811115610bed57610bed6115b0565b815260028201546020820152600382015460ff1615156040820152600482015460608201526005909101546001600160a01b031660809091015292915050565b600160205260009081526040902080548190610c489061184a565b80601f0160208091040260200160405190810160405280929190818152602001828054610c749061184a565b8015610cc15780601f10610c9657610100808354040283529160200191610cc1565b820191906000526020600020905b815481529060010190602001808311610ca457829003601f168201915b5050506001840154600285015460038601546004870154600590970154959660ff93841696929550921692506001600160a01b031686565b610d016112de565b6001600160a01b03166000908152600160205260409020600301805460ff19169055565b610d2d6112de565b6001600160a01b038116600081815260036020908152604091829020805460ff1916905590519182527f991e0fa945d5ee4d7275fb1518a04e03282af636dc3865c642694cb64045e73891015b60405180910390a150565b6000610d8f6112de565b8484848442604051602001610da8959493929190611a6a565b604051602081830303815290604052805190602001209050846001600160a01b03167f3d9bc305064bb162f5ef0e26506907fa6e92787b3633447697b81a1f98416418828686604051610dfd93929190611a9f565b60405180910390a2949350505050565b610e156112de565b610e1f600061130b565b565b610e296112de565b6001600160a01b038116600081815260036020908152604091829020805460ff1916600117905590519182527fcb9c59c01ab47e4a59714194ff0860ec0f8426ef5fe3c873e51b23bcd8b457ec9101610d7a565b6002602081905260009182526040909120805460018201549282015460038301805492946001600160a01b0316939192610eb69061184a565b80601f0160208091040260200160405190810160405280929190818152602001828054610ee29061184a565b8015610f2f5780601f10610f0457610100808354040283529160200191610f2f565b820191906000526020600020905b815481529060010190602001808311610f1257829003601f168201915b5050506004840154600585018054949560ff909216949193509150610f539061184a565b80601f0160208091040260200160405190810160405280929190818152602001828054610f7f9061184a565b8015610fcc5780601f10610fa157610100808354040283529160200191610fcc565b820191906000526020600020905b815481529060010190602001808311610faf57829003601f168201915b5050505050908060060154905087565b610fe46112de565b600081815260056020526040902054600211156110175760405163d89fd72d60e01b8152600481018290526024016103da565b6001600160a01b03851660009081526001602052604090208061103b858783611ac2565b50600281019290925542600490920191909155600090815260056020526040812055505050565b6001600160a01b03811660009081526001602052604090208054606091906110899061184a565b80601f01602080910402602001604051908101604052809291908181526020018280546110b59061184a565b80156111025780601f106110d757610100808354040283529160200191611102565b820191906000526020600020905b8154815290600101906020018083116110e557829003601f168201915b50505050509050919050565b3360009081526003602052604090205460ff1661116d5760405162461bcd60e51b815260206004820152601960248201527f4e6f7420617574686f72697a65642048534d206f7261636c650000000000000060448201526064016103da565b61117561135b565b600083815260026020526040812060068101549091036111cb5760405162461bcd60e51b815260206004820152601160248201527014995c5d595cdd081b9bdd08199bdd5b99607a1b60448201526064016103da565b600481015460ff16156112145760405162461bcd60e51b8152602060048201526011602482015270105b1c9958591e4818dbdb5c1b195d1959607a1b60448201526064016103da565b60058101611223838583611ac2565b5060048101805460ff1916600117905560405184907f9e3c9aa5cb4b49142c96bac5447d973b487e13116b4db01582b61cc08fe6992b9061126990869086904290611b83565b60405180910390a25061129b60017f9b779b17422d0df92223018b32b4d1fa46e071723d6817e2486d003becc55f0055565b505050565b6112a86112de565b6001600160a01b0381166112d257604051631e4fbdf760e01b8152600060048201526024016103da565b6112db8161130b565b50565b6000546001600160a01b03163314610e1f5760405163118cdaa760e01b81523360048201526024016103da565b600080546001600160a01b038381166001600160a01b0319831681178455604051919092169283917f8be0079c531659141344cd1fd0a4f28419497f9722a3daafe3b4186f6b6457e09190a35050565b611363611389565b60027f9b779b17422d0df92223018b32b4d1fa46e071723d6817e2486d003becc55f0055565b7f9b779b17422d0df92223018b32b4d1fa46e071723d6817e2486d003becc55f0054600203610e1f57604051633ee5aeb560e01b815260040160405180910390fd5b6000602082840312156113dd57600080fd5b5035919050565b60005b838110156113ff5781810151838201526020016113e7565b50506000910152565b600081518084526114208160208601602086016113e4565b601f01601f19169290920160200192915050565b602081528151602082015260018060a01b036020830151166040820152604082015160608201526000606083015160e06080840152611477610100840182611408565b90506080840151151560a084015260a0840151601f198483030160c08501526114a08282611408565b91505060c084015160e08401528091505092915050565b80356001600160a01b03811681146114ce57600080fd5b919050565b60008083601f8401126114e557600080fd5b50813567ffffffffffffffff8111156114fd57600080fd5b60208301915083602082850101111561151557600080fd5b9250929050565b60008060008060006080868803121561153457600080fd5b61153d866114b7565b9450602086013567ffffffffffffffff81111561155957600080fd5b611565888289016114d3565b90955093505060408601356004811061157d57600080fd5b949793965091946060013592915050565b6000602082840312156115a057600080fd5b6115a9826114b7565b9392505050565b634e487b7160e01b600052602160045260246000fd5b600481106115e457634e487b7160e01b600052602160045260246000fd5b9052565b602081526000825160c0602084015261160460e0840182611408565b9050602084015161161860408501826115c6565b5060408401516060840152606084015115156080840152608084015160a084015260018060a01b0360a08501511660c08401528091505092915050565b60c08152600061166860c0830189611408565b905061167760208301886115c6565b6040820195909552921515606084015260808301919091526001600160a01b031660a09091015292915050565b600080600080606085870312156116ba57600080fd5b6116c3856114b7565b9350602085013567ffffffffffffffff8111156116df57600080fd5b6116eb878288016114d3565b9598909750949560400135949350505050565b6000806040838503121561171157600080fd5b82359150611721602084016114b7565b90509250929050565b87815260018060a01b038716602082015285604082015260e06060820152600061175760e0830187611408565b851515608084015282810360a08401526117718186611408565b9150508260c083015298975050505050505050565b60008060008060006080868803121561179e57600080fd5b6117a7866114b7565b9450602086013567ffffffffffffffff8111156117c357600080fd5b6117cf888289016114d3565b9699909850959660408101359660609091013595509350505050565b6020815260006115a96020830184611408565b60008060006040848603121561181357600080fd5b83359250602084013567ffffffffffffffff81111561183157600080fd5b61183d868287016114d3565b9497909650939450505050565b600181811c9082168061185e57607f821691505b60208210810361066a57634e487b7160e01b600052602260045260246000fd5b6bffffffffffffffffffffffff198560601b168152836014820152600083516118ae8160348501602088016113e4565b6034920191820192909252605401949350505050565b634e487b7160e01b600052604160045260246000fd5b601f82111561129b57600081815260208120601f850160051c810160208610156119015750805b601f850160051c820191505b818110156119205782815560010161190d565b505050505050565b815167ffffffffffffffff811115611942576119426118c4565b61195681611950845461184a565b846118da565b602080601f83116001811461198b57600084156119735750858301515b600019600386901b1c1916600185901b178555611920565b600085815260208120601f198616915b828110156119ba5788860151825594840194600190910190840161199b565b50858210156119d85787850151600019600388901b60f8161c191681555b5050505050600190811b01905550565b81835281816020850137506000828201602090810191909152601f909101601f19169091010190565b606081526000611a256060830186886119e8565b9050611a3460208301856115c6565b82604083015295945050505050565b600060018201611a6357634e487b7160e01b600052601160045260246000fd5b5060010190565b6bffffffffffffffffffffffff198660601b168152838560148301376014930192830191909152603482015260540192915050565b838152604060208201526000611ab96040830184866119e8565b95945050505050565b67ffffffffffffffff831115611ada57611ada6118c4565b611aee83611ae8835461184a565b836118da565b6000601f841160018114611b225760008515611b0a5750838201355b600019600387901b1c1916600186901b178355611b7c565b600083815260209020601f19861690835b82811015611b535786850135825560209485019460019092019101611b33565b5086821015611b705760001960f88860031b161c19848701351681555b505060018560011b0183555b5050505050565b604081526000611b976040830185876119e8565b905082602083015294935050505056fea2646970667358221220eced2726d6c147245b5367ea23f9e76e959239b7eae040744602cba68dddf52864736f6c63430008140033",
  "linkReferences": {},
  "deployedLinkReferences": {}
}