{"abi":[{"type":"constructor","inputs":[],"stateMutability":"nonpayable"},{"type":"function","name":"ADMIN_THRESHOLD","inputs":[],"outputs":[{"name":"","type":"uint256","internalType":"uint256"}],"stateMutability":"view"},{"type":"function","name":"addHSMOracle","inputs":[{"name":"oracle","type":"address","internalType":"address"}],"outputs":[],"stateMutability":"nonpayable"},{"type":"function","name":"adminApprovals","inputs":[{"name":"","type":"bytes32","internalType":"bytes32"},{"name":"","type":"address","internalType":"address"}],"outputs":[{"name":"","type":"bool","internalType":"bool"}],"stateMutability":"view"},{"type":"function","name":"approvalCounts","inputs":[{"name":"","type":"bytes32","internalType":"bytes32"}],"outputs":[{"name":"","type":"uint256","internalType":"uint256"}],"stateMutability":"view"},{"type":"function","name":"approveKeyRotation","inputs":[{"name":"operationHash","type":"bytes32","internalType":"bytes32"}],"outputs":[],"stateMutability":"nonpayable"},{"type":"function","name":"emergencyDeactivateKey","inputs":[{"name":"validator","type":"address","internalType":"address"}],"outputs":[],"stateMutability":"nonpayable"},{"type":"function","name":"executeKeyRotation","inputs":[{"name":"validator","type":"address","internalType":"address"},{"name":"newKeyId","type":"string","internalType":"string"},{"name":"newPublicKeyHash","type":"bytes32","internalType":"bytes32"},{"name":"operationHash","type":"bytes32","internalType":"bytes32"}],"outputs":[],"stateMutability":"nonpayable"},{"type":"function","name":"getHSMKey","inputs":[{"name":"validator","type":"address","internalType":"address"}],"outputs":[{"name":"","type":"tuple","internalType":"struct HSMKeyManager.HSMKey","components":[{"name":"keyId","type":"string","internalType":"string"},{"name":"provider","type":"uint8","internalType":"enum HSMKeyManager.HSMProvider"},{"name":"publicKeyHash","type":"bytes32","internalType":"bytes32"},{"name":"active","type":"bool","internalType":"bool"},{"name":"createdAt","type":"uint256","internalType":"uint256"},{"name":"validator","type":"address","internalType":"address"}]}],"stateMutability":"view"},{"type":"function","name":"getKeyId","inputs":[{"name":"validator","type":"address","internalType":"address"}],"outputs":[{"name":"","type":"string","internalType":"string"}],"stateMutability":"view"},{"type":"function","name":"getSigningRequest","inputs":[{"name":"requestId","type":"bytes32","internalType":"bytes32"}],"outputs":[{"name":"","type":"tuple","internalType":"struct HSMKeyManager.SigningRequest","components":[{"name":"requestId","type":"bytes32","internalType":"bytes32"},{"name":"validator","type":"address","internalType":"address"},{"name":"messageHash","type":"bytes32","internalType":"bytes32"},{"name":"hsmKeyId","type":"string","internalType":"string"},{"name":"completed","type":"bool","internalType":"bool"},{"name":"signature","type":"bytes","internalType":"bytes"},{"name":"timestamp","type":"uint256","internalType":"uint256"}]}],"stateMutability":"view"},{"type":"function","name":"hsmOracles","inputs":[{"name":"","type":"address","internalType":"address"}],"outputs":[{"name":"","type":"bool","internalType":"bool"}],"stateMutability":"view"},{"type":"function","name":"initiateKeyRotation","inputs":[{"name":"validator","type":"address","internalType":"address"},{"name":"newKeyId","type":"string","internalType":"string"},{"name":"newPublicKeyHash","type":"bytes32","internalType":"bytes32"}],"outputs":[{"name":"operationHash","type":"bytes32","internalType":"bytes32"}],"stateMutability":"nonpayable"},{"type":"function","name":"isHSMOracle","inputs":[{"name":"oracle","type":"address","internalType":"address"}],"outputs":[{"name":"","type":"bool","internalType":"bool"}],"stateMutability":"view"},{"type":"function","name":"owner","inputs":[],"outputs":[{"name":"","type":"address","internalType":"address"}],"stateMutability":"view"},{"type":"function","name":"registerHSMKey","inputs":[{"name":"validator","type":"address","internalType":"address"},{"name":"keyId","type":"string","internalType":"string"},{"name":"provider","type":"uint8","internalType":"enum HSMKeyManager.HSMProvider"},{"name":"publicKeyHash","type":"bytes32","internalType":"bytes32"}],"outputs":[],"stateMutability":"nonpayable"},{"type":"function","name":"removeHSMOracle","inputs":[{"name":"oracle","type":"address","internalType":"address"}],"outputs":[],"stateMutability":"nonpayable"},{"type":"function","name":"renounceOwnership","inputs":[],"outputs":[],"stateMutability":"nonpayable"},{"type":"function","name":"requestSigning","inputs":[{"name":"messageHash","type":"bytes32","internalType":"bytes32"}],"outputs":[{"name":"requestId","type":"bytes32","internalType":"bytes32"}],"stateMutability":"nonpayable"},{"type":"function","name":"signingRequests","inputs":[{"name":"","type":"bytes32","internalType":"bytes32"}],"outputs":[{"name":"requestId","type":"bytes32","internalType":"bytes32"},{"name":"validator","type":"address","internalType":"address"},{"name":"messageHash","type":"bytes32","internalType":"bytes32"},{"name":"hsmKeyId","type":"string","internalType":"string"},{"name":"completed","type":"bool","internalType":"bool"},{"name":"signature","type":"bytes","internalType":"bytes"},{"name":"timestamp","type":"uint256","internalType":"uint256"}],"stateMutability":"view"},{"type":"function","name":"submitSignature","inputs":[{"name":"requestId","type":"bytes32","internalType":"bytes32"},{"name":"signature","type":"bytes","internalType":"bytes"}],"outputs":[],"stateMutability":"nonpayable"},{"type":"function","name":"transferOwnership","inputs":[{"name":"newOwner","type":"address","internalType":"address"}],"outputs":[],"stateMutability":"nonpayable"},{"type":"function","name":"validatorKeys","inputs":[{"name":"","type":"address","internalType":"address"}],"outputs":[{"name":"keyId","type":"string","internalType":"string"},{"name":"provider","type":"uint8","internalType":"enum HSMKeyManager.HSMProvider"},{"name":"publicKeyHash","type":"bytes32","internalType":"bytes32"},{"name":"active","type":"bool","internalType":"bool"},{"name":"createdAt","type":"uint256","internalType":"uint256"},{"name":"validator","type":"address","internalType":"address"}],"stateMutability":"view"},{"type":"event","name":"HSMKeyRegistered","inputs":[{"name":"validator","type":"address","indexed":true,"internalType":"address"},{"name":"keyId","type":"string","indexed":false,"internalType":"string"},{"name":"provider","type":"uint8","indexed":false,"internalType":"enum HSMKeyManager.HSMProvider"},{"name":"publicKeyHash","type":"bytes32","indexed":false,"internalType":"bytes32"}],"anonymous":false},{"type":"event","name":"HSMOracleAdded","inputs":[{"name":"oracle","type":"address","indexed":false,"internalType":"address"}],"anonymous":false},{"type":"event","name":"HSMOracleRemoved","inputs":[{"name":"oracle","type":"address","indexed":false,"internalType":"address"}],"anonymous":false},{"type":"event","name":"KeyRotationInitiated","inputs":[{"name":"validator","type":"address","indexed":true,"internalType":"address"},{"name":"operationHash","type":"bytes32","indexed":false,"internalType":"bytes32"},{"name":"newKeyId","type":"string","indexed":false,"internalType":"string"}],"anonymous":false},{"type":"event","name":"OwnershipTransferred","inputs":[{"name":"previousOwner","type":"address","indexed":true,"internalType":"address"},{"name":"newOwner","type":"address","indexed":true,"internalType":"address"}],"anonymous":false},{"type":"event","name":"SigningCompleted","inputs":[{"name":"requestId","type":"bytes32","indexed":true,"internalType":"bytes32"},{"name":"signature","type":"bytes","indexed":false,"internalType":"bytes"},{"name":"timestamp","type":"uint256","indexed":false,"internalType":"uint256"}],"anonymous":false},{"type":"event","name":"SigningRequested","inputs":[{"name":"requestId","type":"bytes32","indexed":true,"internalType":"bytes32"},{"name":"validator","type":"address","indexed":true,"internalType":"address"},{"name":"messageHash","type":"bytes32","indexed":false,"internalType":"bytes32"}],"anonymous":false},{"type":"error","name":"HSMKeyNotActive","inputs":[{"name":"validator","type":"address","internalType":"address"}]},{"type":"error","name":"InsufficientAdminApprovals","inputs":[{"name":"operationHash","type":"bytes32","internalType":"bytes32"}]},{"type":"error","name":"InvalidHSMOracle","inputs":[{"name":"oracle","type":"address","internalType":"address"}]},{"type":"error","name":"KeyRotationNotApproved","inputs":[{"name":"operationHash","type":"bytes32","internalType":"bytes32"}]},{"type":"error","name":"OwnableInvalidOwner","inputs":[{"name":"owner","type":"address","internalType":"address"}]},{"type":"error","name":"OwnableUnauthorizedAccount","inputs":[{"name":"account","type":"address","internalType":"address"}]},{"type":"error","name":"ReentrancyGuardReentrantCall","inputs":[]},{"type":"error","name":"SigningAlreadyRequested","inputs":[{"name":"requestId","type":"bytes32","internalType":"bytes32"}]},{"type":"error","name":"ValidatorNotRegistered","inputs":[{"name":"validator","type":"address","internalType":"address"}]}],"bytecode":{"object":"0x608060405234801561000f575f5ffd5b50335f73ffffffffffffffffffffffffffffffffffffffff168173ffffffffffffffffffffffffffffffffffffffff1603610081575f6040517f1e4fbdf700000000000000000000000000000000000000000000000000000000815260040161007891906101ec565b60405180910390fd5b610090816100ba60201b60201c565b5060016100af6100a461017b60201b60201c565b6101a460201b60201c565b5f0181905550610205565b5f5f5f9054906101000a900473ffffffffffffffffffffffffffffffffffffffff169050815f5f6101000a81548173ffffffffffffffffffffffffffffffffffffffff021916908373ffffffffffffffffffffffffffffffffffffffff1602179055508173ffffffffffffffffffffffffffffffffffffffff168173ffffffffffffffffffffffffffffffffffffffff167f8be0079c531659141344cd1fd0a4f28419497f9722a3daafe3b4186f6b6457e060405160405180910390a35050565b5f7f9b779b17422d0df92223018b32b4d1fa46e071723d6817e2486d003becc55f005f1b905090565b5f819050919050565b5f73ffffffffffffffffffffffffffffffffffffffff82169050919050565b5f6101d6826101ad565b9050919050565b6101e6816101cc565b82525050565b5f6020820190506101ff5f8301846101dd565b92915050565b613082806102125f395ff3fe608060405234801561000f575f5ffd5b5060043610610140575f3560e01c8063715018a6116100b6578063b0a135c01161007a578063b0a135c01461039b578063b93f4a1f146103d1578063bc48a740146103ed578063cda4b8581461041d578063df6158ba1461044d578063f2fde38b1461046957610140565b8063715018a6146102f757806382eb6ce2146103015780638abed32b1461031d5780638da5cb5b1461034d578063a015c18d1461036b57610140565b8063546717071161010857806354671707146101fa5780635523d3651461022a5780635c0569f81461025a57806363168c7d1461028f578063649ad2b3146102ab5780636af94842146102c757610140565b806306088e97146101445780630e39bff1146101745780631dd3e707146101a4578063246d4dc6146101c05780633782339e146101dc575b5f5ffd5b61015e60048036038101906101599190611c39565b610485565b60405161016b9190611c73565b60405180910390f35b61018e60048036038101906101899190611c39565b6108a9565b60405161019b9190611e6e565b60405180910390f35b6101be60048036038101906101b99190611f3c565b610a80565b005b6101da60048036038101906101d59190611c39565b610d03565b005b6101e4610e31565b6040516101f19190611fcf565b60405180910390f35b610214600480360381019061020f9190611fe8565b610e36565b604051610221919061210c565b60405180910390f35b610244600480360381019061023f9190611fe8565b610fd9565b604051610251919061213b565b60405180910390f35b610274600480360381019061026f9190611fe8565b610ff6565b604051610286969594939291906121ba565b60405180910390f35b6102a960048036038101906102a49190611fe8565b6110eb565b005b6102c560048036038101906102c09190611fe8565b61114d565b005b6102e160048036038101906102dc9190612220565b6111e3565b6040516102ee9190611c73565b60405180910390f35b6102ff611277565b005b61031b60048036038101906103169190611fe8565b61128a565b005b61033760048036038101906103329190611c39565b611321565b6040516103449190611fcf565b60405180910390f35b610355611336565b6040516103629190612291565b60405180910390f35b610385600480360381019061038091906122aa565b61135d565b604051610392919061213b565b60405180910390f35b6103b560048036038101906103b09190611c39565b611387565b6040516103c89796959493929190612330565b60405180910390f35b6103eb60048036038101906103e691906123ab565b6114fc565b005b61040760048036038101906104029190611fe8565b6115de565b604051610414919061242f565b60405180910390f35b61043760048036038101906104329190611fe8565b6116ad565b604051610444919061213b565b60405180910390f35b610467600480360381019061046291906124a4565b6116ff565b005b610483600480360381019061047e9190611fe8565b6118b5565b005b5f3360015f8273ffffffffffffffffffffffffffffffffffffffff1673ffffffffffffffffffffffffffffffffffffffff1681526020019081526020015f206003015f9054906101000a900460ff1661051557806040517f994fe5c100000000000000000000000000000000000000000000000000000000815260040161050c9190612291565b60405180910390fd5b5f60015f3373ffffffffffffffffffffffffffffffffffffffff1673ffffffffffffffffffffffffffffffffffffffff1681526020019081526020015f206040518060c00160405290815f8201805461056d9061252e565b80601f01602080910402602001604051908101604052809291908181526020018280546105999061252e565b80156105e45780601f106105bb576101008083540402835291602001916105e4565b820191905f5260205f20905b8154815290600101906020018083116105c757829003601f168201915b50505050508152602001600182015f9054906101000a900460ff16600381111561061157610610612013565b5b600381111561062357610622612013565b5b815260200160028201548152602001600382015f9054906101000a900460ff1615151515815260200160048201548152602001600582015f9054906101000a900473ffffffffffffffffffffffffffffffffffffffff1673ffffffffffffffffffffffffffffffffffffffff1673ffffffffffffffffffffffffffffffffffffffff168152505090503384825f0151426040516020016106c6949392919061261d565b6040516020818303038152906040528051906020012092505f60025f8581526020019081526020015f20600601541461073657826040517f6e396ff000000000000000000000000000000000000000000000000000000000815260040161072d9190611c73565b60405180910390fd5b6040518060e001604052808481526020013373ffffffffffffffffffffffffffffffffffffffff168152602001858152602001825f015181526020015f1515815260200160405180602001604052805f81525081526020014281525060025f8581526020019081526020015f205f820151815f01556020820151816001015f6101000a81548173ffffffffffffffffffffffffffffffffffffffff021916908373ffffffffffffffffffffffffffffffffffffffff1602179055506040820151816002015560608201518160030190816108109190612844565b506080820151816004015f6101000a81548160ff02191690831515021790555060a08201518160050190816108459190612978565b5060c082015181600601559050503373ffffffffffffffffffffffffffffffffffffffff16837f0581962ea5171e097cb6b389587fc77e7ac49a09da92c04e15eaa2bf5e3e28588660405161089a9190611c73565b60405180910390a35050919050565b6108b1611b53565b60025f8381526020019081526020015f206040518060e00160405290815f8201548152602001600182015f9054906101000a900473ffffffffffffffffffffffffffffffffffffffff1673ffffffffffffffffffffffffffffffffffffffff1673ffffffffffffffffffffffffffffffffffffffff168152602001600282015481526020016003820180546109459061252e565b80601f01602080910402602001604051908101604052809291908181526020018280546109719061252e565b80156109bc5780601f10610993576101008083540402835291602001916109bc565b820191905f5260205f20905b81548152906001019060200180831161099f57829003601f168201915b50505050508152602001600482015f9054906101000a900460ff161515151581526020016005820180546109ef9061252e565b80601f0160208091040260200160405190810160405280929190818152602001828054610a1b9061252e565b8015610a665780601f10610a3d57610100808354040283529160200191610a66565b820191905f5260205f20905b815481529060010190602001808311610a4957829003601f168201915b505050505081526020016006820154815250509050919050565b610a88611939565b5f8484905011610acd576040517f08c379a0000000000000000000000000000000000000000000000000000000008152600401610ac490612a91565b60405180910390fd5b5f5f1b8103610b11576040517f08c379a0000000000000000000000000000000000000000000000000000000008152600401610b0890612af9565b60405180910390fd5b6040518060c0016040528085858080601f0160208091040260200160405190810160405280939291908181526020018383808284375f81840152601f19601f820116905080830192505050505050508152602001836003811115610b7857610b77612013565b5b81526020018281526020016001151581526020014281526020018673ffffffffffffffffffffffffffffffffffffffff1681525060015f8773ffffffffffffffffffffffffffffffffffffffff1673ffffffffffffffffffffffffffffffffffffffff1681526020019081526020015f205f820151815f019081610bfc9190612844565b506020820151816001015f6101000a81548160ff02191690836003811115610c2757610c26612013565b5b0217905550604082015181600201556060820151816003015f6101000a81548160ff0219169083151502179055506080820151816004015560a0820151816005015f6101000a81548173ffffffffffffffffffffffffffffffffffffffff021916908373ffffffffffffffffffffffffffffffffffffffff1602179055509050508473ffffffffffffffffffffffffffffffffffffffff167fc853fa390e39d04ae3d6e3c91a40ae3daa403d659d1410e4d0d9526c848c7a2685858585604051610cf49493929190612b51565b60405180910390a25050505050565b610d0b611939565b60045f8281526020019081526020015f205f3373ffffffffffffffffffffffffffffffffffffffff1673ffffffffffffffffffffffffffffffffffffffff1681526020019081526020015f205f9054906101000a900460ff1615610da4576040517f08c379a0000000000000000000000000000000000000000000000000000000008152600401610d9b90612bd9565b60405180910390fd5b600160045f8381526020019081526020015f205f3373ffffffffffffffffffffffffffffffffffffffff1673ffffffffffffffffffffffffffffffffffffffff1681526020019081526020015f205f6101000a81548160ff02191690831515021790555060055f8281526020019081526020015f205f815480929190610e2990612c24565b919050555050565b600281565b610e3e611ba3565b60015f8373ffffffffffffffffffffffffffffffffffffffff1673ffffffffffffffffffffffffffffffffffffffff1681526020019081526020015f206040518060c00160405290815f82018054610e959061252e565b80601f0160208091040260200160405190810160405280929190818152602001828054610ec19061252e565b8015610f0c5780601f10610ee357610100808354040283529160200191610f0c565b820191905f5260205f20905b815481529060010190602001808311610eef57829003601f168201915b50505050508152602001600182015f9054906101000a900460ff166003811115610f3957610f38612013565b5b6003811115610f4b57610f4a612013565b5b815260200160028201548152602001600382015f9054906101000a900460ff1615151515815260200160048201548152602001600582015f9054906101000a900473ffffffffffffffffffffffffffffffffffffffff1673ffffffffffffffffffffffffffffffffffffffff1673ffffffffffffffffffffffffffffffffffffffff16815250509050919050565b6003602052805f5260405f205f915054906101000a900460ff1681565b6001602052805f5260405f205f91509050805f0180546110159061252e565b80601f01602080910402602001604051908101604052809291908181526020018280546110419061252e565b801561108c5780601f106110635761010080835404028352916020019161108c565b820191905f5260205f20905b81548152906001019060200180831161106f57829003601f168201915b505050505090806001015f9054906101000a900460ff1690806002015490806003015f9054906101000a900460ff1690806004015490806005015f9054906101000a900473ffffffffffffffffffffffffffffffffffffffff16905086565b6110f3611939565b5f60015f8373ffffffffffffffffffffffffffffffffffffffff1673ffffffffffffffffffffffffffffffffffffffff1681526020019081526020015f206003015f6101000a81548160ff02191690831515021790555050565b611155611939565b5f60035f8373ffffffffffffffffffffffffffffffffffffffff1673ffffffffffffffffffffffffffffffffffffffff1681526020019081526020015f205f6101000a81548160ff0219169083151502179055507f991e0fa945d5ee4d7275fb1518a04e03282af636dc3865c642694cb64045e738816040516111d89190612291565b60405180910390a150565b5f6111ec611939565b8484848442604051602001611205959493929190612c8f565b6040516020818303038152906040528051906020012090508473ffffffffffffffffffffffffffffffffffffffff167f3d9bc305064bb162f5ef0e26506907fa6e92787b3633447697b81a1f9841641882868660405161126793929190612cda565b60405180910390a2949350505050565b61127f611939565b6112885f6119c0565b565b611292611939565b600160035f8373ffffffffffffffffffffffffffffffffffffffff1673ffffffffffffffffffffffffffffffffffffffff1681526020019081526020015f205f6101000a81548160ff0219169083151502179055507fcb9c59c01ab47e4a59714194ff0860ec0f8426ef5fe3c873e51b23bcd8b457ec816040516113169190612291565b60405180910390a150565b6005602052805f5260405f205f915090505481565b5f5f5f9054906101000a900473ffffffffffffffffffffffffffffffffffffffff16905090565b6004602052815f5260405f20602052805f5260405f205f915091509054906101000a900460ff1681565b6002602052805f5260405f205f91509050805f015490806001015f9054906101000a900473ffffffffffffffffffffffffffffffffffffffff16908060020154908060030180546113d79061252e565b80601f01602080910402602001604051908101604052809291908181526020018280546114039061252e565b801561144e5780601f106114255761010080835404028352916020019161144e565b820191905f5260205f20905b81548152906001019060200180831161143157829003601f168201915b505050505090806004015f9054906101000a900460ff16908060050180546114759061252e565b80601f01602080910402602001604051908101604052809291908181526020018280546114a19061252e565b80156114ec5780601f106114c3576101008083540402835291602001916114ec565b820191905f5260205f20905b8154815290600101906020018083116114cf57829003601f168201915b5050505050908060060154905087565b611504611939565b600260055f8381526020019081526020015f2054101561155b57806040517fd89fd72d0000000000000000000000000000000000000000000000000000000081526004016115529190611c73565b60405180910390fd5b5f60015f8773ffffffffffffffffffffffffffffffffffffffff1673ffffffffffffffffffffffffffffffffffffffff1681526020019081526020015f2090508484825f0191826115ad929190612d14565b508281600201819055504281600401819055505f60055f8481526020019081526020015f2081905550505050505050565b606060015f8373ffffffffffffffffffffffffffffffffffffffff1673ffffffffffffffffffffffffffffffffffffffff1681526020019081526020015f205f01805461162a9061252e565b80601f01602080910402602001604051908101604052809291908181526020018280546116569061252e565b80156116a15780601f10611678576101008083540402835291602001916116a1565b820191905f5260205f20905b81548152906001019060200180831161168457829003601f168201915b50505050509050919050565b5f60035f8373ffffffffffffffffffffffffffffffffffffffff1673ffffffffffffffffffffffffffffffffffffffff1681526020019081526020015f205f9054906101000a900460ff169050919050565b60035f3373ffffffffffffffffffffffffffffffffffffffff1673ffffffffffffffffffffffffffffffffffffffff1681526020019081526020015f205f9054906101000a900460ff16611788576040517f08c379a000000000000000000000000000000000000000000000000000000000815260040161177f90612e2b565b60405180910390fd5b611790611a81565b5f60025f8581526020019081526020015f2090505f8160060154036117ea576040517f08c379a00000000000000000000000000000000000000000000000000000000081526004016117e190612e93565b60405180910390fd5b806004015f9054906101000a900460ff161561183b576040517f08c379a000000000000000000000000000000000000000000000000000000000815260040161183290612efb565b60405180910390fd5b828282600501918261184e929190612f23565b506001816004015f6101000a81548160ff021916908315150217905550837f9e3c9aa5cb4b49142c96bac5447d973b487e13116b4db01582b61cc08fe6992b84844260405161189f9392919061301c565b60405180910390a2506118b0611aa3565b505050565b6118bd611939565b5f73ffffffffffffffffffffffffffffffffffffffff168173ffffffffffffffffffffffffffffffffffffffff160361192d575f6040517f1e4fbdf70000000000000000000000000000000000000000000000000000000081526004016119249190612291565b60405180910390fd5b611936816119c0565b50565b611941611abd565b73ffffffffffffffffffffffffffffffffffffffff1661195f611336565b73ffffffffffffffffffffffffffffffffffffffff16146119be57611982611abd565b6040517f118cdaa70000000000000000000000000000000000000000000000000000000081526004016119b59190612291565b60405180910390fd5b565b5f5f5f9054906101000a900473ffffffffffffffffffffffffffffffffffffffff169050815f5f6101000a81548173ffffffffffffffffffffffffffffffffffffffff021916908373ffffffffffffffffffffffffffffffffffffffff1602179055508173ffffffffffffffffffffffffffffffffffffffff168173ffffffffffffffffffffffffffffffffffffffff167f8be0079c531659141344cd1fd0a4f28419497f9722a3daafe3b4186f6b6457e060405160405180910390a35050565b611a89611ac4565b6002611a9b611a96611b05565b611b2e565b5f0181905550565b6001611ab5611ab0611b05565b611b2e565b5f0181905550565b5f33905090565b611acc611b37565b15611b03576040517f3ee5aeb500000000000000000000000000000000000000000000000000000000815260040160405180910390fd5b565b5f7f9b779b17422d0df92223018b32b4d1fa46e071723d6817e2486d003becc55f005f1b905090565b5f819050919050565b5f6002611b4a611b45611b05565b611b2e565b5f015414905090565b6040518060e001604052805f81526020015f73ffffffffffffffffffffffffffffffffffffffff1681526020015f8152602001606081526020015f15158152602001606081526020015f81525090565b6040518060c00160405280606081526020015f6003811115611bc857611bc7612013565b5b81526020015f81526020015f151581526020015f81526020015f73ffffffffffffffffffffffffffffffffffffffff1681525090565b5f5ffd5b5f5ffd5b5f819050919050565b611c1881611c06565b8114611c22575f5ffd5b50565b5f81359050611c3381611c0f565b92915050565b5f60208284031215611c4e57611c4d611bfe565b5b5f611c5b84828501611c25565b91505092915050565b611c6d81611c06565b82525050565b5f602082019050611c865f830184611c64565b92915050565b611c9581611c06565b82525050565b5f73ffffffffffffffffffffffffffffffffffffffff82169050919050565b5f611cc482611c9b565b9050919050565b611cd481611cba565b82525050565b5f81519050919050565b5f82825260208201905092915050565b8281835e5f83830152505050565b5f601f19601f8301169050919050565b5f611d1c82611cda565b611d268185611ce4565b9350611d36818560208601611cf4565b611d3f81611d02565b840191505092915050565b5f8115159050919050565b611d5e81611d4a565b82525050565b5f81519050919050565b5f82825260208201905092915050565b5f611d8882611d64565b611d928185611d6e565b9350611da2818560208601611cf4565b611dab81611d02565b840191505092915050565b5f819050919050565b611dc881611db6565b82525050565b5f60e083015f830151611de35f860182611c8c565b506020830151611df66020860182611ccb565b506040830151611e096040860182611c8c565b5060608301518482036060860152611e218282611d12565b9150506080830151611e366080860182611d55565b5060a083015184820360a0860152611e4e8282611d7e565b91505060c0830151611e6360c0860182611dbf565b508091505092915050565b5f6020820190508181035f830152611e868184611dce565b905092915050565b611e9781611cba565b8114611ea1575f5ffd5b50565b5f81359050611eb281611e8e565b92915050565b5f5ffd5b5f5ffd5b5f5ffd5b5f5f83601f840112611ed957611ed8611eb8565b5b8235905067ffffffffffffffff811115611ef657611ef5611ebc565b5b602083019150836001820283011115611f1257611f11611ec0565b5b9250929050565b60048110611f25575f5ffd5b50565b5f81359050611f3681611f19565b92915050565b5f5f5f5f5f60808688031215611f5557611f54611bfe565b5b5f611f6288828901611ea4565b955050602086013567ffffffffffffffff811115611f8357611f82611c02565b5b611f8f88828901611ec4565b94509450506040611fa288828901611f28565b9250506060611fb388828901611c25565b9150509295509295909350565b611fc981611db6565b82525050565b5f602082019050611fe25f830184611fc0565b92915050565b5f60208284031215611ffd57611ffc611bfe565b5b5f61200a84828501611ea4565b91505092915050565b7f4e487b71000000000000000000000000000000000000000000000000000000005f52602160045260245ffd5b6004811061205157612050612013565b5b50565b5f81905061206182612040565b919050565b5f61207082612054565b9050919050565b61208081612066565b82525050565b5f60c083015f8301518482035f8601526120a08282611d12565b91505060208301516120b56020860182612077565b5060408301516120c86040860182611c8c565b5060608301516120db6060860182611d55565b5060808301516120ee6080860182611dbf565b5060a083015161210160a0860182611ccb565b508091505092915050565b5f6020820190508181035f8301526121248184612086565b905092915050565b61213581611d4a565b82525050565b5f60208201905061214e5f83018461212c565b92915050565b5f82825260208201905092915050565b5f61216e82611cda565b6121788185612154565b9350612188818560208601611cf4565b61219181611d02565b840191505092915050565b6121a581612066565b82525050565b6121b481611cba565b82525050565b5f60c0820190508181035f8301526121d28189612164565b90506121e1602083018861219c565b6121ee6040830187611c64565b6121fb606083018661212c565b6122086080830185611fc0565b61221560a08301846121ab565b979650505050505050565b5f5f5f5f6060858703121561223857612237611bfe565b5b5f61224587828801611ea4565b945050602085013567ffffffffffffffff81111561226657612265611c02565b5b61227287828801611ec4565b9350935050604061228587828801611c25565b91505092959194509250565b5f6020820190506122a45f8301846121ab565b92915050565b5f5f604083850312156122c0576122bf611bfe565b5b5f6122cd85828601611c25565b92505060206122de85828601611ea4565b9150509250929050565b5f82825260208201905092915050565b5f61230282611d64565b61230c81856122e8565b935061231c818560208601611cf4565b61232581611d02565b840191505092915050565b5f60e0820190506123435f83018a611c64565b61235060208301896121ab565b61235d6040830188611c64565b818103606083015261236f8187612164565b905061237e608083018661212c565b81810360a083015261239081856122f8565b905061239f60c0830184611fc0565b98975050505050505050565b5f5f5f5f5f608086880312156123c4576123c3611bfe565b5b5f6123d188828901611ea4565b955050602086013567ffffffffffffffff8111156123f2576123f1611c02565b5b6123fe88828901611ec4565b9450945050604061241188828901611c25565b925050606061242288828901611c25565b9150509295509295909350565b5f6020820190508181035f8301526124478184612164565b905092915050565b5f5f83601f84011261246457612463611eb8565b5b8235905067ffffffffffffffff81111561248157612480611ebc565b5b60208301915083600182028301111561249d5761249c611ec0565b5b9250929050565b5f5f5f604084860312156124bb576124ba611bfe565b5b5f6124c886828701611c25565b935050602084013567ffffffffffffffff8111156124e9576124e8611c02565b5b6124f58682870161244f565b92509250509250925092565b7f4e487b71000000000000000000000000000000000000000000000000000000005f52602260045260245ffd5b5f600282049050600182168061254557607f821691505b60208210810361255857612557612501565b5b50919050565b5f8160601b9050919050565b5f6125748261255e565b9050919050565b5f6125858261256a565b9050919050565b61259d61259882611cba565b61257b565b82525050565b5f819050919050565b6125bd6125b882611c06565b6125a3565b82525050565b5f81905092915050565b5f6125d782611cda565b6125e181856125c3565b93506125f1818560208601611cf4565b80840191505092915050565b5f819050919050565b61261761261282611db6565b6125fd565b82525050565b5f612628828761258c565b60148201915061263882866125ac565b60208201915061264882856125cd565b91506126548284612606565b60208201915081905095945050505050565b7f4e487b71000000000000000000000000000000000000000000000000000000005f52604160045260245ffd5b5f819050815f5260205f209050919050565b5f6020601f8301049050919050565b5f82821b905092915050565b5f600883026126ef7fffffffffffffffffffffffffffffffffffffffffffffffffffffffffffffffff826126b4565b6126f986836126b4565b95508019841693508086168417925050509392505050565b5f819050919050565b5f61273461272f61272a84611db6565b612711565b611db6565b9050919050565b5f819050919050565b61274d8361271a565b6127616127598261273b565b8484546126c0565b825550505050565b5f5f905090565b612778612769565b612783818484612744565b505050565b5f5b828110156127a95761279e5f828401612770565b60018101905061278a565b505050565b601f8211156127fc57828211156127fb576127c881612693565b6127d1836126a5565b6127da856126a5565b60208610156127e7575f90505b8083016127f682840382612788565b505050505b5b505050565b5f82821c905092915050565b5f61281c5f1984600802612801565b1980831691505092915050565b5f612834838361280d565b9150826002028217905092915050565b61284d82611cda565b67ffffffffffffffff81111561286657612865612666565b5b612870825461252e565b61287b8282856127ae565b5f60209050601f8311600181146128ac575f841561289a578287015190505b6128a48582612829565b86555061290b565b601f1984166128ba86612693565b5f5b828110156128e1578489015182556001820191506020850194506020810190506128bc565b868310156128fe57848901516128fa601f89168261280d565b8355505b6001600288020188555050505b505050505050565b5f819050815f5260205f209050919050565b601f82111561297357828211156129725761293f81612913565b612948836126a5565b612951856126a5565b602086101561295e575f90505b80830161296d82840382612788565b505050505b5b505050565b61298182611d64565b67ffffffffffffffff81111561299a57612999612666565b5b6129a4825461252e565b6129af828285612925565b5f60209050601f8311600181146129e0575f84156129ce578287015190505b6129d88582612829565b865550612a3f565b601f1984166129ee86612913565b5f5b82811015612a15578489015182556001820191506020850194506020810190506129f0565b86831015612a325784890151612a2e601f89168261280d565b8355505b6001600288020188555050505b505050505050565b7f496e76616c6964206b65792049440000000000000000000000000000000000005f82015250565b5f612a7b600e83612154565b9150612a8682612a47565b602082019050919050565b5f6020820190508181035f830152612aa881612a6f565b9050919050565b7f496e76616c6964207075626c6963206b657920686173680000000000000000005f82015250565b5f612ae3601783612154565b9150612aee82612aaf565b602082019050919050565b5f6020820190508181035f830152612b1081612ad7565b9050919050565b828183375f83830152505050565b5f612b308385612154565b9350612b3d838584612b17565b612b4683611d02565b840190509392505050565b5f6060820190508181035f830152612b6a818688612b25565b9050612b79602083018561219c565b612b866040830184611c64565b95945050505050565b7f416c726561647920617070726f766564000000000000000000000000000000005f82015250565b5f612bc3601083612154565b9150612bce82612b8f565b602082019050919050565b5f6020820190508181035f830152612bf081612bb7565b9050919050565b7f4e487b71000000000000000000000000000000000000000000000000000000005f52601160045260245ffd5b5f612c2e82611db6565b91507fffffffffffffffffffffffffffffffffffffffffffffffffffffffffffffffff8203612c6057612c5f612bf7565b5b600182019050919050565b5f612c7683856125c3565b9350612c83838584612b17565b82840190509392505050565b5f612c9a828861258c565b601482019150612cab828688612c6b565b9150612cb782856125ac565b602082019150612cc78284612606565b6020820191508190509695505050505050565b5f604082019050612ced5f830186611c64565b8181036020830152612d00818486612b25565b9050949350505050565b5f82905092915050565b612d1e8383612d0a565b67ffffffffffffffff811115612d3757612d36612666565b5b612d41825461252e565b612d4c8282856127ae565b5f601f831160018114612d79575f8415612d67578287013590505b612d718582612829565b865550612dd8565b601f198416612d8786612693565b5f5b82811015612dae57848901358255600182019150602085019450602081019050612d89565b86831015612dcb5784890135612dc7601f89168261280d565b8355505b6001600288020188555050505b50505050505050565b7f4e6f7420617574686f72697a65642048534d206f7261636c65000000000000005f82015250565b5f612e15601983612154565b9150612e2082612de1565b602082019050919050565b5f6020820190508181035f830152612e4281612e09565b9050919050565b7f52657175657374206e6f7420666f756e640000000000000000000000000000005f82015250565b5f612e7d601183612154565b9150612e8882612e49565b602082019050919050565b5f6020820190508181035f830152612eaa81612e71565b9050919050565b7f416c726561647920636f6d706c657465640000000000000000000000000000005f82015250565b5f612ee5601183612154565b9150612ef082612eb1565b602082019050919050565b5f6020820190508181035f830152612f1281612ed9565b9050919050565b5f82905092915050565b612f2d8383612f19565b67ffffffffffffffff811115612f4657612f45612666565b5b612f50825461252e565b612f5b828285612925565b5f601f831160018114612f88575f8415612f76578287013590505b612f808582612829565b865550612fe7565b601f198416612f9686612913565b5f5b82811015612fbd57848901358255600182019150602085019450602081019050612f98565b86831015612fda5784890135612fd6601f89168261280d565b8355505b6001600288020188555050505b50505050505050565b5f612ffb83856122e8565b9350613008838584612b17565b61301183611d02565b840190509392505050565b5f6040820190508181035f830152613035818587612ff0565b90506130446020830184611fc0565b94935050505056fea264697066735822122095e8607cecf66740b98072220fe7554b5ab8c213ca4974f62305093d83341b6c64736f6c63430008230033","linkReferences":{}},"methodIdentifiers":{"ADMIN_THRESHOLD()":"3782339e","addHSMOracle(address)":"82eb6ce2","adminApprovals(bytes32,address)":"a015c18d","approvalCounts(bytes32)":"8abed32b","approveKeyRotation(bytes32)":"246d4dc6","emergencyDeactivateKey(address)":"63168c7d","executeKeyRotation(address,string,bytes32,bytes32)":"b93f4a1f","getHSMKey(address)":"54671707","getKeyId(address)":"bc48a740","getSigningRequest(bytes32)":"0e39bff1","hsmOracles(address)":"5523d365","initiateKeyRotation(address,string,bytes32)":"6af94842","isHSMOracle(address)":"cda4b858","owner()":"8da5cb5b","registerHSMKey(address,string,uint8,bytes32)":"1dd3e707","removeHSMOracle(address)":"649ad2b3","renounceOwnership()":"715018a6","requestSigning(bytes32)":"06088e97","signingRequests(bytes32)":"b0a135c0","submitSignature(bytes32,bytes)":"df6158ba","transferOwnership(address)":"f2fde38b","validatorKeys(address)":"5c0569f8"},"id":0}