{"abi":[{"type":"constructor","inputs":[],"stateMutability":"nonpayable"},{"type":"function","name":"DOMAIN_SEPARATOR","inputs":[],"outputs":[{"name":"","type":"bytes32","internalType":"bytes32"}],"stateMutability":"view"},{"type":"function","name":"MAX_INFLATION_BPS","inputs":[],"outputs":[{"name":"","type":"uint256","internalType":"uint256"}],"stateMutability":"view"},{"type":"function","name":"MAX_SUPPLY","inputs":[],"outputs":[{"name":"","type":"uint256","internalType":"uint256"}],"stateMutability":"view"},{"type":"function","name":"UPGRADE_INTERFACE_VERSION","inputs":[],"outputs":[{"name":"","type":"string","internalType":"string"}],"stateMutability":"view"},{"type":"function","name":"allowance","inputs":[{"name":"owner","type":"address","internalType":"address"},{"name":"spender","type":"address","internalType":"address"}],"outputs":[{"name":"","type":"uint256","internalType":"uint256"}],"stateMutability":"view"},{"type":"function","name":"approve","inputs":[{"name":"spender","type":"address","internalType":"address"},{"name":"value","type":"uint256","internalType":"uint256"}],"outputs":[{"name":"","type":"bool","internalType":"bool"}],"stateMutability":"nonpayable"},{"type":"function","name":"balanceOf","inputs":[{"name":"account","type":"address","internalType":"address"}],"outputs":[{"name":"","type":"uint256","internalType":"uint256"}],"stateMutability":"view"},{"type":"function","name":"burn","inputs":[{"name":"value","type":"uint256","internalType":"uint256"}],"outputs":[],"stateMutability":"nonpayable"},{"type":"function","name":"burn","inputs":[{"name":"account","type":"address","internalType":"address"},{"name":"amount","type":"uint256","internalType":"uint256"}],"outputs":[],"stateMutability":"nonpayable"},{"type":"function","name":"burnFrom","inputs":[{"name":"account","type":"address","internalType":"address"},{"name":"value","type":"uint256","internalType":"uint256"}],"outputs":[],"stateMutability":"nonpayable"},{"type":"function","name":"decimals","inputs":[],"outputs":[{"name":"","type":"uint8","internalType":"uint8"}],"stateMutability":"view"},{"type":"function","name":"eip712Domain","inputs":[],"outputs":[{"name":"fields","type":"bytes1","internalType":"bytes1"},{"name":"name","type":"string","internalType":"string"},{"name":"version","type":"string","internalType":"string"},{"name":"chainId","type":"uint256","internalType":"uint256"},{"name":"verifyingContract","type":"address","internalType":"address"},{"name":"salt","type":"bytes32","internalType":"bytes32"},{"name":"extensions","type":"uint256[]","internalType":"uint256[]"}],"stateMutability":"view"},{"type":"function","name":"executeDynamicBurn","inputs":[{"name":"totalApiFee","type":"uint256","internalType":"uint256"},{"name":"burnRatioBps","type":"uint256","internalType":"uint256"},{"name":"user","type":"address","internalType":"address"}],"outputs":[],"stateMutability":"nonpayable"},{"type":"function","name":"initialize","inputs":[{"name":"initialOwner","type":"address","internalType":"address"},{"name":"_mlOracle","type":"address","internalType":"address"}],"outputs":[],"stateMutability":"nonpayable"},{"type":"function","name":"lastMintTimestamp","inputs":[],"outputs":[{"name":"","type":"uint256","internalType":"uint256"}],"stateMutability":"view"},{"type":"function","name":"mint","inputs":[{"name":"account","type":"address","internalType":"address"},{"name":"amount","type":"uint256","internalType":"uint256"}],"outputs":[],"stateMutability":"nonpayable"},{"type":"function","name":"mlOracle","inputs":[],"outputs":[{"name":"","type":"address","internalType":"address"}],"stateMutability":"view"},{"type":"function","name":"name","inputs":[],"outputs":[{"name":"","type":"string","internalType":"string"}],"stateMutability":"view"},{"type":"function","name":"nonces","inputs":[{"name":"owner","type":"address","internalType":"address"}],"outputs":[{"name":"","type":"uint256","internalType":"uint256"}],"stateMutability":"view"},{"type":"function","name":"nttManager","inputs":[],"outputs":[{"name":"","type":"address","internalType":"address"}],"stateMutability":"view"},{"type":"function","name":"owner","inputs":[],"outputs":[{"name":"","type":"address","internalType":"address"}],"stateMutability":"view"},{"type":"function","name":"permit","inputs":[{"name":"owner","type":"address","internalType":"address"},{"name":"spender","type":"address","internalType":"address"},{"name":"value","type":"uint256","internalType":"uint256"},{"name":"deadline","type":"uint256","internalType":"uint256"},{"name":"v","type":"uint8","internalType":"uint8"},{"name":"r","type":"bytes32","internalType":"bytes32"},{"name":"s","type":"bytes32","internalType":"bytes32"}],"outputs":[],"stateMutability":"nonpayable"},{"type":"function","name":"proxiableUUID","inputs":[],"outputs":[{"name":"","type":"bytes32","internalType":"bytes32"}],"stateMutability":"view"},{"type":"function","name":"renounceOwnership","inputs":[],"outputs":[],"stateMutability":"nonpayable"},{"type":"function","name":"setMinter","inputs":[{"name":"newNttManager","type":"address","internalType":"address"}],"outputs":[],"stateMutability":"nonpayable"},{"type":"function","name":"setMlOracle","inputs":[{"name":"newOracle","type":"address","internalType":"address"}],"outputs":[],"stateMutability":"nonpayable"},{"type":"function","name":"symbol","inputs":[],"outputs":[{"name":"","type":"string","internalType":"string"}],"stateMutability":"view"},{"type":"function","name":"totalSupply","inputs":[],"outputs":[{"name":"","type":"uint256","internalType":"uint256"}],"stateMutability":"view"},{"type":"function","name":"transfer","inputs":[{"name":"to","type":"address","internalType":"address"},{"name":"value","type":"uint256","internalType":"uint256"}],"outputs":[{"name":"","type":"bool","internalType":"bool"}],"stateMutability":"nonpayable"},{"type":"function","name":"transferFrom","inputs":[{"name":"from","type":"address","internalType":"address"},{"name":"to","type":"address","internalType":"address"},{"name":"value","type":"uint256","internalType":"uint256"}],"outputs":[{"name":"","type":"bool","internalType":"bool"}],"stateMutability":"nonpayable"},{"type":"function","name":"transferOwnership","inputs":[{"name":"newOwner","type":"address","internalType":"address"}],"outputs":[],"stateMutability":"nonpayable"},{"type":"function","name":"treasuryMint","inputs":[{"name":"to","type":"address","internalType":"address"},{"name":"amount","type":"uint256","internalType":"uint256"}],"outputs":[],"stateMutability":"nonpayable"},{"type":"function","name":"upgradeToAndCall","inputs":[{"name":"newImplementation","type":"address","internalType":"address"},{"name":"data","type":"bytes","internalType":"bytes"}],"outputs":[],"stateMutability":"payable"},{"type":"event","name":"Approval","inputs":[{"name":"owner","type":"address","indexed":true,"internalType":"address"},{"name":"spender","type":"address","indexed":true,"internalType":"address"},{"name":"value","type":"uint256","indexed":false,"internalType":"uint256"}],"anonymous":false},{"type":"event","name":"DynamicBurnExecuted","inputs":[{"name":"totalFee","type":"uint256","indexed":false,"internalType":"uint256"},{"name":"amountBurned","type":"uint256","indexed":false,"internalType":"uint256"},{"name":"amountRecycled","type":"uint256","indexed":false,"internalType":"uint256"}],"anonymous":false},{"type":"event","name":"EIP712DomainChanged","inputs":[],"anonymous":false},{"type":"event","name":"Initialized","inputs":[{"name":"version","type":"uint64","indexed":false,"internalType":"uint64"}],"anonymous":false},{"type":"event","name":"NewMlOracle","inputs":[{"name":"mlOracle","type":"address","indexed":false,"internalType":"address"}],"anonymous":false},{"type":"event","name":"NewNttManager","inputs":[{"name":"nttManager","type":"address","indexed":false,"internalType":"address"}],"anonymous":false},{"type":"event","name":"OwnershipTransferred","inputs":[{"name":"previousOwner","type":"address","indexed":true,"internalType":"address"},{"name":"newOwner","type":"address","indexed":true,"internalType":"address"}],"anonymous":false},{"type":"event","name":"Transfer","inputs":[{"name":"from","type":"address","indexed":true,"internalType":"address"},{"name":"to","type":"address","indexed":true,"internalType":"address"},{"name":"value","type":"uint256","indexed":false,"internalType":"uint256"}],"anonymous":false},{"type":"event","name":"Upgraded","inputs":[{"name":"implementation","type":"address","indexed":true,"internalType":"address"}],"anonymous":false},{"type":"error","name":"AddressEmptyCode","inputs":[{"name":"target","type":"address","internalType":"address"}]},{"type":"error","name":"CallerNotMinterOrOracle","inputs":[{"name":"caller","type":"address","internalType":"address"}]},{"type":"error","name":"ECDSAInvalidSignature","inputs":[]},{"type":"error","name":"ECDSAInvalidSignatureLength","inputs":[{"name":"length","type":"uint256","internalType":"uint256"}]},{"type":"error","name":"ECDSAInvalidSignatureS","inputs":[{"name":"s","type":"bytes32","internalType":"bytes32"}]},{"type":"error","name":"ERC1967InvalidImplementation","inputs":[{"name":"implementation","type":"address","internalType":"address"}]},{"type":"error","name":"ERC1967NonPayable","inputs":[]},{"type":"error","name":"ERC20InsufficientAllowance","inputs":[{"name":"spender","type":"address","internalType":"address"},{"name":"allowance","type":"uint256","internalType":"uint256"},{"name":"needed","type":"uint256","internalType":"uint256"}]},{"type":"error","name":"ERC20InsufficientBalance","inputs":[{"name":"sender","type":"address","internalType":"address"},{"name":"balance","type":"uint256","internalType":"uint256"},{"name":"needed","type":"uint256","internalType":"uint256"}]},{"type":"error","name":"ERC20InvalidApprover","inputs":[{"name":"approver","type":"address","internalType":"address"}]},{"type":"error","name":"ERC20InvalidReceiver","inputs":[{"name":"receiver","type":"address","internalType":"address"}]},{"type":"error","name":"ERC20InvalidSender","inputs":[{"name":"sender","type":"address","internalType":"address"}]},{"type":"error","name":"ERC20InvalidSpender","inputs":[{"name":"spender","type":"address","internalType":"address"}]},{"type":"error","name":"ERC2612ExpiredSignature","inputs":[{"name":"deadline","type":"uint256","internalType":"uint256"}]},{"type":"error","name":"ERC2612InvalidSigner","inputs":[{"name":"signer","type":"address","internalType":"address"},{"name":"owner","type":"address","internalType":"address"}]},{"type":"error","name":"ExceedsInflationCap","inputs":[]},{"type":"error","name":"FailedCall","inputs":[]},{"type":"error","name":"InvalidAccountNonce","inputs":[{"name":"account","type":"address","internalType":"address"},{"name":"currentNonce","type":"uint256","internalType":"uint256"}]},{"type":"error","name":"InvalidInitialization","inputs":[]},{"type":"error","name":"InvalidZeroAddress","inputs":[]},{"type":"error","name":"NotInitializing","inputs":[]},{"type":"error","name":"OwnableInvalidOwner","inputs":[{"name":"owner","type":"address","internalType":"address"}]},{"type":"error","name":"OwnableUnauthorizedAccount","inputs":[{"name":"account","type":"address","internalType":"address"}]},{"type":"error","name":"UUPSUnauthorizedCallContext","inputs":[]},{"type":"error","name":"UUPSUnsupportedProxiableUUID","inputs":[{"name":"slot","type":"bytes32","internalType":"bytes32"}]}],"bytecode":{"object":"0x60a06040523073ffffffffffffffffffffffffffffffffffffffff1660809073ffffffffffffffffffffffffffffffffffffffff16815250348015610042575f5ffd5b5061005161005660201b60201c565b6101d1565b5f61006561015460201b60201c565b9050805f0160089054906101000a900460ff16156100af576040517ff92ee8a900000000000000000000000000000000000000000000000000000000815260040160405180910390fd5b67ffffffffffffffff8016815f015f9054906101000a900467ffffffffffffffff1667ffffffffffffffff16146101515767ffffffffffffffff815f015f6101000a81548167ffffffffffffffff021916908367ffffffffffffffff1602179055507fc7f505b2f371ae2175ee4913f4499e1f2633a7b5936321eed1cdaeb6115181d267ffffffffffffffff60405161014891906101b8565b60405180910390a15b50565b5f5f61016461016d60201b60201c565b90508091505090565b5f7ff0c57e16840df040f15088dc2f81fe391c3923bec73e23a9662efc9c229c6a005f1b905090565b5f67ffffffffffffffff82169050919050565b6101b281610196565b82525050565b5f6020820190506101cb5f8301846101a9565b92915050565b608051613a026101f75f395f818161194c015281816119a10152611b5b0152613a025ff3fe6080604052600436106101ed575f3560e01c8063715018a61161010c578063a9059cbb1161009f578063d505accf1161006e578063d505accf146106b7578063dd62ed3e146106df578063e37d54b41461071b578063f2fde38b14610745578063fca3b5aa1461076d576101ed565b8063a9059cbb146105ff578063aa35cca31461063b578063ad3cb1cc14610663578063b05330841461068d576101ed565b80638da5cb5b116100db5780638da5cb5b146105595780638e80ff5d1461058357806395d89b41146105ad5780639dc29fac146105d7576101ed565b8063715018a6146104af57806379cc6790146104c55780637ecebe00146104ed57806384b0196e14610529576101ed565b80633f416638116101845780634f1ef286116101535780634f1ef2861461040557806352d1902d146104215780635d52c1de1461044b57806370a0823114610473576101ed565b80633f4166381461036557806340c10f191461038d57806342966c68146103b5578063485cc955146103dd576101ed565b806324fb21db116101c057806324fb21db146102bd578063313ce567146102e757806332cb6b0c146103115780633644e5151461033b576101ed565b806306fdde03146101f1578063095ea7b31461021b57806318160ddd1461025757806323b872dd14610281575b5f5ffd5b3480156101fc575f5ffd5b50610205610795565b6040516102129190612bff565b60405180910390f35b348015610226575f5ffd5b50610241600480360381019061023c9190612cbd565b610833565b60405161024e9190612d15565b60405180910390f35b348015610262575f5ffd5b5061026b610855565b6040516102789190612d3d565b60405180910390f35b34801561028c575f5ffd5b506102a760048036038101906102a29190612d56565b61086c565b6040516102b49190612d15565b60405180910390f35b3480156102c8575f5ffd5b506102d161089a565b6040516102de9190612db5565b60405180910390f35b3480156102f2575f5ffd5b506102fb6108be565b6040516103089190612de9565b60405180910390f35b34801561031c575f5ffd5b506103256108c6565b6040516103329190612d3d565b60405180910390f35b348015610346575f5ffd5b5061034f6108d6565b60405161035c9190612e1a565b60405180910390f35b348015610370575f5ffd5b5061038b60048036038101906103869190612e33565b6108e4565b005b348015610398575f5ffd5b506103b360048036038101906103ae9190612cbd565b610a55565b005b3480156103c0575f5ffd5b506103db60048036038101906103d69190612e83565b610af3565b005b3480156103e8575f5ffd5b5061040360048036038101906103fe9190612eae565b610b07565b005b61041f600480360381019061041a9190613018565b610da0565b005b34801561042c575f5ffd5b50610435610dbf565b6040516104429190612e1a565b60405180910390f35b348015610456575f5ffd5b50610471600480360381019061046c9190613072565b610df0565b005b34801561047e575f5ffd5b5061049960048036038101906104949190613072565b610ed7565b6040516104a69190612d3d565b60405180910390f35b3480156104ba575f5ffd5b506104c3610f2a565b005b3480156104d0575f5ffd5b506104eb60048036038101906104e69190612cbd565b610f3d565b005b3480156104f8575f5ffd5b50610513600480360381019061050e9190613072565b610f5d565b6040516105209190612d3d565b60405180910390f35b348015610534575f5ffd5b5061053d610f6e565b604051610550979695949392919061318e565b60405180910390f35b348015610564575f5ffd5b5061056d611013565b60405161057a9190612db5565b60405180910390f35b34801561058e575f5ffd5b50610597611048565b6040516105a49190612d3d565b60405180910390f35b3480156105b8575f5ffd5b506105c161104e565b6040516105ce9190612bff565b60405180910390f35b3480156105e2575f5ffd5b506105fd60048036038101906105f89190612cbd565b6110ec565b005b34801561060a575f5ffd5b5061062560048036038101906106209190612cbd565b61118a565b6040516106329190612d15565b60405180910390f35b348015610646575f5ffd5b50610661600480360381019061065c9190612cbd565b6111ac565b005b34801561066e575f5ffd5b50610677611248565b6040516106849190612bff565b60405180910390f35b348015610698575f5ffd5b506106a1611281565b6040516106ae9190612d3d565b60405180910390f35b3480156106c2575f5ffd5b506106dd60048036038101906106d89190613264565b611286565b005b3480156106ea575f5ffd5b5061070560048036038101906107009190612eae565b6113cb565b6040516107129190612d3d565b60405180910390f35b348015610726575f5ffd5b5061072f61145b565b60405161073c9190612db5565b60405180910390f35b348015610750575f5ffd5b5061076b60048036038101906107669190613072565b611480565b005b348015610778575f5ffd5b50610793600480360381019061078e9190613072565b611504565b005b60605f6107a06115ea565b90508060030180546107b19061332e565b80601f01602080910402602001604051908101604052809291908181526020018280546107dd9061332e565b80156108285780601f106107ff57610100808354040283529160200191610828565b820191905f5260205f20905b81548152906001019060200180831161080b57829003601f168201915b505050505091505090565b5f5f61083d611611565b905061084a818585611618565b600191505092915050565b5f5f61085f6115ea565b9050806002015491505090565b5f5f610876611611565b905061088385828561162a565b61088e8585856116bd565b60019150509392505050565b5f5f9054906101000a900473ffffffffffffffffffffffffffffffffffffffff1681565b5f6012905090565b6b033b2e3c9fd0803ce800000081565b5f6108df6117ad565b905090565b60015f9054906101000a900473ffffffffffffffffffffffffffffffffffffffff1673ffffffffffffffffffffffffffffffffffffffff163373ffffffffffffffffffffffffffffffffffffffff161461097557336040517f7f0804f600000000000000000000000000000000000000000000000000000000815260040161096c9190612db5565b60405180910390fd5b6127108211156109ba576040517f08c379a00000000000000000000000000000000000000000000000000000000081526004016109b1906133a8565b60405180910390fd5b5f61271083856109ca91906133f3565b6109d49190613461565b90505f81856109e39190613491565b90505f8211156109f8576109f783836117bb565b5b5f811115610a1357610a1283610a0c611013565b836116bd565b5b7f0ce52cf3bc4c56e0cd448d706bf8a4302c050781df2223cb2f7c86796516765f858383604051610a46939291906134c4565b60405180910390a15050505050565b5f5f9054906101000a900473ffffffffffffffffffffffffffffffffffffffff1673ffffffffffffffffffffffffffffffffffffffff163373ffffffffffffffffffffffffffffffffffffffff1614610ae557336040517f7f0804f6000000000000000000000000000000000000000000000000000000008152600401610adc9190612db5565b60405180910390fd5b610aef828261183a565b5050565b610b04610afe611611565b826117bb565b50565b5f610b106118b9565b90505f815f0160089054906101000a900460ff161590505f825f015f9054906101000a900467ffffffffffffffff1690505f5f8267ffffffffffffffff16148015610b585750825b90505f60018367ffffffffffffffff16148015610b8b57505f3073ffffffffffffffffffffffffffffffffffffffff163b145b905081158015610b99575080155b15610bd0576040517ff92ee8a900000000000000000000000000000000000000000000000000000000815260040160405180910390fd5b6001855f015f6101000a81548167ffffffffffffffff021916908367ffffffffffffffff1602179055508315610c1d576001855f0160086101000a81548160ff0219169083151502179055505b610c916040518060400160405280600b81526020017f5175616e74756d436f696e0000000000000000000000000000000000000000008152506040518060400160405280600381526020017f51424300000000000000000000000000000000000000000000000000000000008152506118cc565b610c996118e2565b610cd76040518060400160405280600b81526020017f5175616e74756d436f696e0000000000000000000000000000000000000000008152506118ec565b610ce087611936565b8560015f6101000a81548173ffffffffffffffffffffffffffffffffffffffff021916908373ffffffffffffffffffffffffffffffffffffffff16021790555042600281905550610d3d876b033b2e3c9fd0803ce800000061183a565b8315610d97575f855f0160086101000a81548160ff0219169083151502179055507fc7f505b2f371ae2175ee4913f4499e1f2633a7b5936321eed1cdaeb6115181d26001604051610d8e919061354e565b60405180910390a15b50505050505050565b610da861194a565b610db182611a30565b610dbb8282611a3b565b5050565b5f610dc8611b59565b7f360894a13ba1a3210667c828492db98dca3e2076cc3735a920a3ca505d382bbc5f1b905090565b610df8611be0565b5f73ffffffffffffffffffffffffffffffffffffffff168173ffffffffffffffffffffffffffffffffffffffff1603610e5d576040517ff6b2911f00000000000000000000000000000000000000000000000000000000815260040160405180910390fd5b8060015f6101000a81548173ffffffffffffffffffffffffffffffffffffffff021916908373ffffffffffffffffffffffffffffffffffffffff1602179055507f455bf427c17303ba41b360ff4ce787ca097c99ecea2a0d690a84a98b2ecdfd8b81604051610ecc9190612db5565b60405180910390a150565b5f5f610ee16115ea565b9050805f015f8473ffffffffffffffffffffffffffffffffffffffff1673ffffffffffffffffffffffffffffffffffffffff1681526020019081526020015f2054915050919050565b610f32611be0565b610f3b5f611c67565b565b610f4f82610f49611611565b8361162a565b610f5982826117bb565b5050565b5f610f6782611d38565b9050919050565b5f6060805f5f5f6060610f7f611d8b565b610f87611e29565b46305f5f1b5f67ffffffffffffffff811115610fa657610fa5612ef4565b5b604051908082528060200260200182016040528015610fd45781602001602082028036833780820191505090505b507f0f00000000000000000000000000000000000000000000000000000000000000959493929190965096509650965096509650965090919293949596565b5f5f61101d611ec7565b9050805f015f9054906101000a900473ffffffffffffffffffffffffffffffffffffffff1691505090565b60025481565b60605f6110596115ea565b905080600401805461106a9061332e565b80601f01602080910402602001604051908101604052809291908181526020018280546110969061332e565b80156110e15780601f106110b8576101008083540402835291602001916110e1565b820191905f5260205f20905b8154815290600101906020018083116110c457829003601f168201915b505050505091505090565b5f5f9054906101000a900473ffffffffffffffffffffffffffffffffffffffff1673ffffffffffffffffffffffffffffffffffffffff163373ffffffffffffffffffffffffffffffffffffffff161461117c57336040517f7f0804f60000000000000000000000000000000000000000000000000000000081526004016111739190612db5565b60405180910390fd5b61118682826117bb565b5050565b5f5f611194611611565b90506111a18185856116bd565b600191505092915050565b6111b4611be0565b5f600254426111c39190613491565b90505f64496cebb8008260c86111d7610855565b6111e191906133f3565b6111eb91906133f3565b6111f59190613461565b905080831115611231576040517fbfbe8d8a00000000000000000000000000000000000000000000000000000000815260040160405180910390fd5b42600281905550611242848461183a565b50505050565b6040518060400160405280600581526020017f352e302e3000000000000000000000000000000000000000000000000000000081525081565b60c881565b834211156112cb57836040517f627913020000000000000000000000000000000000000000000000000000000081526004016112c29190612d3d565b60405180910390fd5b5f7f6e71edae12b1b97f4d1f60370fef10105fa2faae0126114a169c64845d6126c98888886112f98c611eee565b8960405160200161130f96959493929190613567565b6040516020818303038152906040528051906020012090505f61133182611f4e565b90505f61134082878787611f67565b90508973ffffffffffffffffffffffffffffffffffffffff168173ffffffffffffffffffffffffffffffffffffffff16146113b457808a6040517f4b800e460000000000000000000000000000000000000000000000000000000081526004016113ab9291906135c6565b60405180910390fd5b6113bf8a8a8a611618565b50505050505050505050565b5f5f6113d56115ea565b9050806001015f8573ffffffffffffffffffffffffffffffffffffffff1673ffffffffffffffffffffffffffffffffffffffff1681526020019081526020015f205f8473ffffffffffffffffffffffffffffffffffffffff1673ffffffffffffffffffffffffffffffffffffffff1681526020019081526020015f205491505092915050565b60015f9054906101000a900473ffffffffffffffffffffffffffffffffffffffff1681565b611488611be0565b5f73ffffffffffffffffffffffffffffffffffffffff168173ffffffffffffffffffffffffffffffffffffffff16036114f8575f6040517f1e4fbdf70000000000000000000000000000000000000000000000000000000081526004016114ef9190612db5565b60405180910390fd5b61150181611c67565b50565b61150c611be0565b5f73ffffffffffffffffffffffffffffffffffffffff168173ffffffffffffffffffffffffffffffffffffffff1603611571576040517ff6b2911f00000000000000000000000000000000000000000000000000000000815260040160405180910390fd5b805f5f6101000a81548173ffffffffffffffffffffffffffffffffffffffff021916908373ffffffffffffffffffffffffffffffffffffffff1602179055507fb928f86cbc52bff95b684109790c5413e8a778b9ba8936806f6e26351e495e9f816040516115df9190612db5565b60405180910390a150565b5f7f52c63247e1f47db19d5ce0460030c497f067ca4cebf71ba98eeadabe20bace00905090565b5f33905090565b6116258383836001611f95565b505050565b5f61163584846113cb565b90507fffffffffffffffffffffffffffffffffffffffffffffffffffffffffffffffff8110156116b757818110156116a8578281836040517ffb8f41b200000000000000000000000000000000000000000000000000000000815260040161169f939291906135ed565b60405180910390fd5b6116b684848484035f611f95565b5b50505050565b5f73ffffffffffffffffffffffffffffffffffffffff168373ffffffffffffffffffffffffffffffffffffffff160361172d575f6040517f96c6fd1e0000000000000000000000000000000000000000000000000000000081526004016117249190612db5565b60405180910390fd5b5f73ffffffffffffffffffffffffffffffffffffffff168273ffffffffffffffffffffffffffffffffffffffff160361179d575f6040517fec442f050000000000000000000000000000000000000000000000000000000081526004016117949190612db5565b60405180910390fd5b6117a8838383612172565b505050565b5f6117b66123a1565b905090565b5f73ffffffffffffffffffffffffffffffffffffffff168273ffffffffffffffffffffffffffffffffffffffff160361182b575f6040517f96c6fd1e0000000000000000000000000000000000000000000000000000000081526004016118229190612db5565b60405180910390fd5b611836825f83612172565b5050565b5f73ffffffffffffffffffffffffffffffffffffffff168273ffffffffffffffffffffffffffffffffffffffff16036118aa575f6040517fec442f050000000000000000000000000000000000000000000000000000000081526004016118a19190612db5565b60405180910390fd5b6118b55f8383612172565b5050565b5f5f6118c3612404565b90508091505090565b6118d461242d565b6118de828261246d565b5050565b6118ea61242d565b565b6118f461242d565b611933816040518060400160405280600181526020017f31000000000000000000000000000000000000000000000000000000000000008152506124a9565b50565b61193e61242d565b611947816124e5565b50565b7f000000000000000000000000000000000000000000000000000000000000000073ffffffffffffffffffffffffffffffffffffffff163073ffffffffffffffffffffffffffffffffffffffff1614806119f757507f000000000000000000000000000000000000000000000000000000000000000073ffffffffffffffffffffffffffffffffffffffff166119de612569565b73ffffffffffffffffffffffffffffffffffffffff1614155b15611a2e576040517fe07c8dba00000000000000000000000000000000000000000000000000000000815260040160405180910390fd5b565b611a38611be0565b50565b8173ffffffffffffffffffffffffffffffffffffffff166352d1902d6040518163ffffffff1660e01b8152600401602060405180830381865afa925050508015611aa357506040513d601f19601f82011682018060405250810190611aa09190613636565b60015b611ae457816040517f4c9c8ce3000000000000000000000000000000000000000000000000000000008152600401611adb9190612db5565b60405180910390fd5b7f360894a13ba1a3210667c828492db98dca3e2076cc3735a920a3ca505d382bbc5f1b8114611b4a57806040517faa1d49a4000000000000000000000000000000000000000000000000000000008152600401611b419190612e1a565b60405180910390fd5b611b5483836125bc565b505050565b7f000000000000000000000000000000000000000000000000000000000000000073ffffffffffffffffffffffffffffffffffffffff163073ffffffffffffffffffffffffffffffffffffffff1614611bde576040517fe07c8dba00000000000000000000000000000000000000000000000000000000815260040160405180910390fd5b565b611be8611611565b73ffffffffffffffffffffffffffffffffffffffff16611c06611013565b73ffffffffffffffffffffffffffffffffffffffff1614611c6557611c29611611565b6040517f118cdaa7000000000000000000000000000000000000000000000000000000008152600401611c5c9190612db5565b60405180910390fd5b565b5f611c70611ec7565b90505f815f015f9054906101000a900473ffffffffffffffffffffffffffffffffffffffff16905082825f015f6101000a81548173ffffffffffffffffffffffffffffffffffffffff021916908373ffffffffffffffffffffffffffffffffffffffff1602179055508273ffffffffffffffffffffffffffffffffffffffff168173ffffffffffffffffffffffffffffffffffffffff167f8be0079c531659141344cd1fd0a4f28419497f9722a3daafe3b4186f6b6457e060405160405180910390a3505050565b5f5f611d4261262e565b9050805f015f8473ffffffffffffffffffffffffffffffffffffffff1673ffffffffffffffffffffffffffffffffffffffff1681526020019081526020015f2054915050919050565b60605f611d96612655565b9050806002018054611da79061332e565b80601f0160208091040260200160405190810160405280929190818152602001828054611dd39061332e565b8015611e1e5780601f10611df557610100808354040283529160200191611e1e565b820191905f5260205f20905b815481529060010190602001808311611e0157829003601f168201915b505050505091505090565b60605f611e34612655565b9050806003018054611e459061332e565b80601f0160208091040260200160405190810160405280929190818152602001828054611e719061332e565b8015611ebc5780601f10611e9357610100808354040283529160200191611ebc565b820191905f5260205f20905b815481529060010190602001808311611e9f57829003601f168201915b505050505091505090565b5f7f9016d09d72d40fdae2fd8ceac6b6234c7706214fd39c1cd1e609a0528c199300905090565b5f5f611ef861262e565b9050805f015f8473ffffffffffffffffffffffffffffffffffffffff1673ffffffffffffffffffffffffffffffffffffffff1681526020019081526020015f205f81548092919060010191905055915050919050565b5f611f60611f5a6117ad565b8361267c565b9050919050565b5f5f5f5f611f77888888886126bc565b925092509250611f8782826127a3565b829350505050949350505050565b5f611f9e6115ea565b90505f73ffffffffffffffffffffffffffffffffffffffff168573ffffffffffffffffffffffffffffffffffffffff1603612010575f6040517fe602df050000000000000000000000000000000000000000000000000000000081526004016120079190612db5565b60405180910390fd5b5f73ffffffffffffffffffffffffffffffffffffffff168473ffffffffffffffffffffffffffffffffffffffff1603612080575f6040517f94280d620000000000000000000000000000000000000000000000000000000081526004016120779190612db5565b60405180910390fd5b82816001015f8773ffffffffffffffffffffffffffffffffffffffff1673ffffffffffffffffffffffffffffffffffffffff1681526020019081526020015f205f8673ffffffffffffffffffffffffffffffffffffffff1673ffffffffffffffffffffffffffffffffffffffff1681526020019081526020015f2081905550811561216b578373ffffffffffffffffffffffffffffffffffffffff168573ffffffffffffffffffffffffffffffffffffffff167f8c5be1e5ebec7d5bd14f71427d1e84f3dd0314c0f7b2291e5b200ac8c7c3b925856040516121629190612d3d565b60405180910390a35b5050505050565b5f61217b6115ea565b90505f73ffffffffffffffffffffffffffffffffffffffff168473ffffffffffffffffffffffffffffffffffffffff16036121cf5781816002015f8282546121c39190613661565b925050819055506122a1565b5f815f015f8673ffffffffffffffffffffffffffffffffffffffff1673ffffffffffffffffffffffffffffffffffffffff1681526020019081526020015f205490508281101561225a578481846040517fe450d38c000000000000000000000000000000000000000000000000000000008152600401612251939291906135ed565b60405180910390fd5b828103825f015f8773ffffffffffffffffffffffffffffffffffffffff1673ffffffffffffffffffffffffffffffffffffffff1681526020019081526020015f2081905550505b5f73ffffffffffffffffffffffffffffffffffffffff168373ffffffffffffffffffffffffffffffffffffffff16036122ea5781816002015f8282540392505081905550612336565b81815f015f8573ffffffffffffffffffffffffffffffffffffffff1673ffffffffffffffffffffffffffffffffffffffff1681526020019081526020015f205f82825401925050819055505b8273ffffffffffffffffffffffffffffffffffffffff168473ffffffffffffffffffffffffffffffffffffffff167fddf252ad1be2c89b69c2b068fc378daa952ba7f163c4a11628f55a4df523b3ef846040516123939190612d3d565b60405180910390a350505050565b5f7f8b73c3c69bb8fe3d512ecc4cf759cc79239f7b179b0ffacaa9a75d522b39400f6123cb612905565b6123d361291a565b46306040516020016123e9959493929190613694565b60405160208183030381529060405280519060200120905090565b5f7ff0c57e16840df040f15088dc2f81fe391c3923bec73e23a9662efc9c229c6a005f1b905090565b61243561292f565b61246b576040517fd7e6bcf800000000000000000000000000000000000000000000000000000000815260040160405180910390fd5b565b61247561242d565b5f61247e6115ea565b905082816003019081612491919061388d565b50818160040190816124a3919061388d565b50505050565b6124b161242d565b5f6124ba612655565b9050828160020190816124cd919061388d565b50818160030190816124df919061388d565b50505050565b6124ed61242d565b5f73ffffffffffffffffffffffffffffffffffffffff168173ffffffffffffffffffffffffffffffffffffffff160361255d575f6040517f1e4fbdf70000000000000000000000000000000000000000000000000000000081526004016125549190612db5565b60405180910390fd5b61256681611c67565b50565b5f6125957f360894a13ba1a3210667c828492db98dca3e2076cc3735a920a3ca505d382bbc5f1b61294d565b5f015f9054906101000a900473ffffffffffffffffffffffffffffffffffffffff16905090565b6125c582612956565b8173ffffffffffffffffffffffffffffffffffffffff167fbc7cd75a20ee27fd9adebab32041f755214dbc6bffa90cc0225b39da2e5c2d3b60405160405180910390a25f815111156126215761261b8282612a1f565b5061262a565b612629612b10565b5b5050565b5f7f5ab42ced628888259c08ac98db1eb0cf702fc1501344311d8b100cd1bfe4bb00905090565b5f7fa16a46d94261c7517cc8ff89f61c0ce93598e3c849801011dee649a6a557d100905090565b5f6040517f190100000000000000000000000000000000000000000000000000000000000081528360028201528260228201526042812091505092915050565b5f5f5f7f7fffffffffffffffffffffffffffffff5d576e7357a4501ddfe92f46681b20a0845f1c11156126f8575f600385925092509250612799565b5f6001888888886040515f815260200160405260405161271b949392919061395c565b6020604051602081039080840390855afa15801561273b573d5f5f3e3d5ffd5b5050506020604051035190505f73ffffffffffffffffffffffffffffffffffffffff168173ffffffffffffffffffffffffffffffffffffffff160361278c575f60015f5f1b93509350935050612799565b805f5f5f1b935093509350505b9450945094915050565b5f60038111156127b6576127b561399f565b5b8260038111156127c9576127c861399f565b5b031561290157600160038111156127e3576127e261399f565b5b8260038111156127f6576127f561399f565b5b0361282d576040517ff645eedf00000000000000000000000000000000000000000000000000000000815260040160405180910390fd5b600260038111156128415761284061399f565b5b8260038111156128545761285361399f565b5b0361289857805f1c6040517ffce698f700000000000000000000000000000000000000000000000000000000815260040161288f9190612d3d565b60405180910390fd5b6003808111156128ab576128aa61399f565b5b8260038111156128be576128bd61399f565b5b0361290057806040517fd78bce0c0000000000000000000000000000000000000000000000000000000081526004016128f79190612e1a565b60405180910390fd5b5b5050565b5f61290e611d8b565b80519060200120905090565b5f612923611e29565b80519060200120905090565b5f6129386118b9565b5f0160089054906101000a900460ff16905090565b5f819050919050565b5f8173ffffffffffffffffffffffffffffffffffffffff163b036129b157806040517f4c9c8ce30000000000000000000000000000000000000000000000000000000081526004016129a89190612db5565b60405180910390fd5b806129dd7f360894a13ba1a3210667c828492db98dca3e2076cc3735a920a3ca505d382bbc5f1b61294d565b5f015f6101000a81548173ffffffffffffffffffffffffffffffffffffffff021916908373ffffffffffffffffffffffffffffffffffffffff16021790555050565b60605f612a2c8484612b4c565b9050808015612a6257505f612a3f612b60565b1180612a6157505f8473ffffffffffffffffffffffffffffffffffffffff163b115b5b15612a7757612a6f612b67565b915050612b0a565b8015612aba57836040517f9996b315000000000000000000000000000000000000000000000000000000008152600401612ab19190612db5565b60405180910390fd5b5f612ac3612b60565b1115612ad657612ad1612b84565b612b08565b6040517fd6bda27500000000000000000000000000000000000000000000000000000000815260040160405180910390fd5b505b92915050565b5f341115612b4a576040517fb398979f00000000000000000000000000000000000000000000000000000000815260040160405180910390fd5b565b5f5f5f835160208501865af4905092915050565b5f3d905090565b606060405190503d81523d5f602083013e3d602001810160405290565b6040513d5f823e3d81fd5b5f81519050919050565b5f82825260208201905092915050565b8281835e5f83830152505050565b5f601f19601f8301169050919050565b5f612bd182612b8f565b612bdb8185612b99565b9350612beb818560208601612ba9565b612bf481612bb7565b840191505092915050565b5f6020820190508181035f830152612c178184612bc7565b905092915050565b5f604051905090565b5f5ffd5b5f5ffd5b5f73ffffffffffffffffffffffffffffffffffffffff82169050919050565b5f612c5982612c30565b9050919050565b612c6981612c4f565b8114612c73575f5ffd5b50565b5f81359050612c8481612c60565b92915050565b5f819050919050565b612c9c81612c8a565b8114612ca6575f5ffd5b50565b5f81359050612cb781612c93565b92915050565b5f5f60408385031215612cd357612cd2612c28565b5b5f612ce085828601612c76565b9250506020612cf185828601612ca9565b9150509250929050565b5f8115159050919050565b612d0f81612cfb565b82525050565b5f602082019050612d285f830184612d06565b92915050565b612d3781612c8a565b82525050565b5f602082019050612d505f830184612d2e565b92915050565b5f5f5f60608486031215612d6d57612d6c612c28565b5b5f612d7a86828701612c76565b9350506020612d8b86828701612c76565b9250506040612d9c86828701612ca9565b9150509250925092565b612daf81612c4f565b82525050565b5f602082019050612dc85f830184612da6565b92915050565b5f60ff82169050919050565b612de381612dce565b82525050565b5f602082019050612dfc5f830184612dda565b92915050565b5f819050919050565b612e1481612e02565b82525050565b5f602082019050612e2d5f830184612e0b565b92915050565b5f5f5f60608486031215612e4a57612e49612c28565b5b5f612e5786828701612ca9565b9350506020612e6886828701612ca9565b9250506040612e7986828701612c76565b9150509250925092565b5f60208284031215612e9857612e97612c28565b5b5f612ea584828501612ca9565b91505092915050565b5f5f60408385031215612ec457612ec3612c28565b5b5f612ed185828601612c76565b9250506020612ee285828601612c76565b9150509250929050565b5f5ffd5b5f5ffd5b7f4e487b71000000000000000000000000000000000000000000000000000000005f52604160045260245ffd5b612f2a82612bb7565b810181811067ffffffffffffffff82111715612f4957612f48612ef4565b5b80604052505050565b5f612f5b612c1f565b9050612f678282612f21565b919050565b5f67ffffffffffffffff821115612f8657612f85612ef4565b5b612f8f82612bb7565b9050602081019050919050565b828183375f83830152505050565b5f612fbc612fb784612f6c565b612f52565b905082815260208101848484011115612fd857612fd7612ef0565b5b612fe3848285612f9c565b509392505050565b5f82601f830112612fff57612ffe612eec565b5b813561300f848260208601612faa565b91505092915050565b5f5f6040838503121561302e5761302d612c28565b5b5f61303b85828601612c76565b925050602083013567ffffffffffffffff81111561305c5761305b612c2c565b5b61306885828601612feb565b9150509250929050565b5f6020828403121561308757613086612c28565b5b5f61309484828501612c76565b91505092915050565b5f7fff0000000000000000000000000000000000000000000000000000000000000082169050919050565b6130d18161309d565b82525050565b5f81519050919050565b5f82825260208201905092915050565b5f819050602082019050919050565b61310981612c8a565b82525050565b5f61311a8383613100565b60208301905092915050565b5f602082019050919050565b5f61313c826130d7565b61314681856130e1565b9350613151836130f1565b805f5b83811015613181578151613168888261310f565b975061317383613126565b925050600181019050613154565b5085935050505092915050565b5f60e0820190506131a15f83018a6130c8565b81810360208301526131b38189612bc7565b905081810360408301526131c78188612bc7565b90506131d66060830187612d2e565b6131e36080830186612da6565b6131f060a0830185612e0b565b81810360c08301526132028184613132565b905098975050505050505050565b61321981612dce565b8114613223575f5ffd5b50565b5f8135905061323481613210565b92915050565b61324381612e02565b811461324d575f5ffd5b50565b5f8135905061325e8161323a565b92915050565b5f5f5f5f5f5f5f60e0888a03121561327f5761327e612c28565b5b5f61328c8a828b01612c76565b975050602061329d8a828b01612c76565b96505060406132ae8a828b01612ca9565b95505060606132bf8a828b01612ca9565b94505060806132d08a828b01613226565b93505060a06132e18a828b01613250565b92505060c06132f28a828b01613250565b91505092959891949750929550565b7f4e487b71000000000000000000000000000000000000000000000000000000005f52602260045260245ffd5b5f600282049050600182168061334557607f821691505b60208210810361335857613357613301565b5b50919050565b7f496e76616c696420726174696f000000000000000000000000000000000000005f82015250565b5f613392600d83612b99565b915061339d8261335e565b602082019050919050565b5f6020820190508181035f8301526133bf81613386565b9050919050565b7f4e487b71000000000000000000000000000000000000000000000000000000005f52601160045260245ffd5b5f6133fd82612c8a565b915061340883612c8a565b925082820261341681612c8a565b9150828204841483151761342d5761342c6133c6565b5b5092915050565b7f4e487b71000000000000000000000000000000000000000000000000000000005f52601260045260245ffd5b5f61346b82612c8a565b915061347683612c8a565b92508261348657613485613434565b5b828204905092915050565b5f61349b82612c8a565b91506134a683612c8a565b92508282039050818111156134be576134bd6133c6565b5b92915050565b5f6060820190506134d75f830186612d2e565b6134e46020830185612d2e565b6134f16040830184612d2e565b949350505050565b5f819050919050565b5f67ffffffffffffffff82169050919050565b5f819050919050565b5f61353861353361352e846134f9565b613515565b613502565b9050919050565b6135488161351e565b82525050565b5f6020820190506135615f83018461353f565b92915050565b5f60c08201905061357a5f830189612e0b565b6135876020830188612da6565b6135946040830187612da6565b6135a16060830186612d2e565b6135ae6080830185612d2e565b6135bb60a0830184612d2e565b979650505050505050565b5f6040820190506135d95f830185612da6565b6135e66020830184612da6565b9392505050565b5f6060820190506136005f830186612da6565b61360d6020830185612d2e565b61361a6040830184612d2e565b949350505050565b5f815190506136308161323a565b92915050565b5f6020828403121561364b5761364a612c28565b5b5f61365884828501613622565b91505092915050565b5f61366b82612c8a565b915061367683612c8a565b925082820190508082111561368e5761368d6133c6565b5b92915050565b5f60a0820190506136a75f830188612e0b565b6136b46020830187612e0b565b6136c16040830186612e0b565b6136ce6060830185612d2e565b6136db6080830184612da6565b9695505050505050565b5f819050815f5260205f209050919050565b5f6020601f8301049050919050565b5f82821b905092915050565b5f600883026137417fffffffffffffffffffffffffffffffffffffffffffffffffffffffffffffffff82613706565b61374b8683613706565b95508019841693508086168417925050509392505050565b5f61377d61377861377384612c8a565b613515565b612c8a565b9050919050565b5f819050919050565b61379683613763565b6137aa6137a282613784565b848454613712565b825550505050565b5f5f905090565b6137c16137b2565b6137cc81848461378d565b505050565b5f5b828110156137f2576137e75f8284016137b9565b6001810190506137d3565b505050565b601f821115613845578282111561384457613811816136e5565b61381a836136f7565b613823856136f7565b6020861015613830575f90505b80830161383f828403826137d1565b505050505b5b505050565b5f82821c905092915050565b5f6138655f198460080261384a565b1980831691505092915050565b5f61387d8383613856565b9150826002028217905092915050565b61389682612b8f565b67ffffffffffffffff8111156138af576138ae612ef4565b5b6138b9825461332e565b6138c48282856137f7565b5f60209050601f8311600181146138f5575f84156138e3578287015190505b6138ed8582613872565b865550613954565b601f198416613903866136e5565b5f5b8281101561392a57848901518255600182019150602085019450602081019050613905565b868310156139475784890151613943601f891682613856565b8355505b6001600288020188555050505b505050505050565b5f60808201905061396f5f830187612e0b565b61397c6020830186612dda565b6139896040830185612e0b565b6139966060830184612e0b565b95945050505050565b7f4e487b71000000000000000000000000000000000000000000000000000000005f52602160045260245ffdfea26469706673582212200ef5be4b64aa883124a8f52188ecaf020f3a8a31e38fc07a0250287258f5a84864736f6c63430008230033","linkReferences":{}},"methodIdentifiers":{"DOMAIN_SEPARATOR()":"3644e515","MAX_INFLATION_BPS()":"b0533084","MAX_SUPPLY()":"32cb6b0c","UPGRADE_INTERFACE_VERSION()":"ad3cb1cc","allowance(address,address)":"dd62ed3e","approve(address,uint256)":"095ea7b3","balanceOf(address)":"70a08231","burn(address,uint256)":"9dc29fac","burn(uint256)":"42966c68","burnFrom(address,uint256)":"79cc6790","decimals()":"313ce567","eip712Domain()":"84b0196e","executeDynamicBurn(uint256,uint256,address)":"3f416638","initialize(address,address)":"485cc955","lastMintTimestamp()":"8e80ff5d","mint(address,uint256)":"40c10f19","mlOracle()":"e37d54b4","name()":"06fdde03","nonces(address)":"7ecebe00","nttManager()":"24fb21db","owner()":"8da5cb5b","permit(address,address,uint256,uint256,uint8,bytes32,bytes32)":"d505accf","proxiableUUID()":"52d1902d","renounceOwnership()":"715018a6","setMinter(address)":"fca3b5aa","setMlOracle(address)":"5d52c1de","symbol()":"95d89b41","totalSupply()":"18160ddd","transfer(address,uint256)":"a9059cbb","transferFrom(address,address,uint256)":"23b872dd","transferOwnership(address)":"f2fde38b","treasuryMint(address,uint256)":"aa35cca3","upgradeToAndCall(address,bytes)":"4f1ef286"},"id":4}