{
  "_format": "hh-sol-artifact-1",
  "contractName": "PQCSignatureVerifier",
  "sourceName": "contracts/PQCSignatureVerifier.sol",
  "abi": [
    {
      "inputs": [],
      "stateMutability": "nonpayable",
      "type": "constructor"
    },
    {
      "inputs": [
        {
          "internalType": "address",
          "name": "owner",
          "type": "address"
        }
      ],
      "name": "OwnableInvalidOwner",
      "type": "error"
    },
    {
      "inputs": [
        {
          "internalType": "address",
          "name": "account",
          "type": "address"
        }
      ],
      "name": "OwnableUnauthorizedAccount",
      "type": "error"
    },
    {
      "anonymous": false,
      "inputs": [
        {
          "indexed": true,
          "internalType": "address",
          "name": "previousOwner",
          "type": "address"
        },
        {
          "indexed": true,
          "internalType": "address",
          "name": "newOwner",
          "type": "address"
        }
      ],
      "name": "OwnershipTransferred",
      "type": "event"
    },
    {
      "anonymous": false,
      "inputs": [
        {
          "indexed": true,
          "internalType": "bytes32",
          "name": "messageHash",
          "type": "bytes32"
        },
        {
          "indexed": true,
          "internalType": "address",
          "name": "validator",
          "type": "address"
        },
        {
          "indexed": false,
          "internalType": "bool",
          "name": "valid",
          "type": "bool"
        }
      ],
      "name": "SignatureVerified",
      "type": "event"
    },
    {
      "anonymous": false,
      "inputs": [
        {
          "indexed": true,
          "internalType": "address",
          "name": "validator",
          "type": "address"
        },
        {
          "indexed": false,
          "internalType": "bytes32",
          "name": "publicKeyHash",
          "type": "bytes32"
        },
        {
          "indexed": false,
          "internalType": "enum IPQCSignature.PQAlgorithm",
          "name": "algorithm",
          "type": "uint8"
        },
        {
          "indexed": false,
          "internalType": "bool",
          "name": "quantumCertified",
          "type": "bool"
        }
      ],
      "name": "ValidatorKeyRegistered",
      "type": "event"
    },
    {
      "inputs": [
        {
          "internalType": "address",
          "name": "validator",
          "type": "address"
        }
      ],
      "name": "getValidatorKey",
      "outputs": [
        {
          "internalType": "bytes32",
          "name": "publicKeyHash",
          "type": "bytes32"
        },
        {
          "internalType": "enum IPQCSignature.PQAlgorithm",
          "name": "algorithm",
          "type": "uint8"
        }
      ],
      "stateMutability": "view",
      "type": "function"
    },
    {
      "inputs": [
        {
          "internalType": "address",
          "name": "validator",
          "type": "address"
        }
      ],
      "name": "isQuantumCertified",
      "outputs": [
        {
          "internalType": "bool",
          "name": "certified",
          "type": "bool"
        }
      ],
      "stateMutability": "view",
      "type": "function"
    },
    {
      "inputs": [
        {
          "internalType": "bytes",
          "name": "signature",
          "type": "bytes"
        }
      ],
      "name": "markSignatureUsed",
      "outputs": [],
      "stateMutability": "nonpayable",
      "type": "function"
    },
    {
      "inputs": [],
      "name": "owner",
      "outputs": [
        {
          "internalType": "address",
          "name": "",
          "type": "address"
        }
      ],
      "stateMutability": "view",
      "type": "function"
    },
    {
      "inputs": [
        {
          "internalType": "bytes",
          "name": "publicKey",
          "type": "bytes"
        },
        {
          "internalType": "enum IPQCSignature.PQAlgorithm",
          "name": "algorithm",
          "type": "uint8"
        },
        {
          "internalType": "bytes32",
          "name": "qnrgSeedHash",
          "type": "bytes32"
        },
        {
          "internalType": "bool",
          "name": "quantumCertified",
          "type": "bool"
        }
      ],
      "name": "registerValidatorKey",
      "outputs": [],
      "stateMutability": "nonpayable",
      "type": "function"
    },
    {
      "inputs": [],
      "name": "renounceOwnership",
      "outputs": [],
      "stateMutability": "nonpayable",
      "type": "function"
    },
    {
      "inputs": [
        {
          "internalType": "address",
          "name": "newOwner",
          "type": "address"
        }
      ],
      "name": "transferOwnership",
      "outputs": [],
      "stateMutability": "nonpayable",
      "type": "function"
    },
    {
      "inputs": [
        {
          "internalType": "bytes32",
          "name": "",
          "type": "bytes32"
        }
      ],
      "name": "usedSignatures",
      "outputs": [
        {
          "internalType": "bool",
          "name": "",
          "type": "bool"
        }
      ],
      "stateMutability": "view",
      "type": "function"
    },
    {
      "inputs": [
        {
          "internalType": "address",
          "name": "",
          "type": "address"
        }
      ],
      "name": "validatorKeys",
      "outputs": [
        {
          "internalType": "bytes",
          "name": "publicKey",
          "type": "bytes"
        },
        {
          "internalType": "enum IPQCSignature.PQAlgorithm",
          "name": "algorithm",
          "type": "uint8"
        },
        {
          "internalType": "bytes32",
          "name": "qnrgSeedHash",
          "type": "bytes32"
        },
        {
          "internalType": "bool",
          "name": "quantumCertified",
          "type": "bool"
        },
        {
          "internalType": "bool",
          "name": "registered",
          "type": "bool"
        }
      ],
      "stateMutability": "view",
      "type": "function"
    },
    {
      "inputs": [
        {
          "internalType": "bytes32",
          "name": "message",
          "type": "bytes32"
        },
        {
          "internalType": "bytes",
          "name": "signature",
          "type": "bytes"
        },
        {
          "internalType": "address",
          "name": "signer",
          "type": "address"
        }
      ],
      "name": "verifyPQC",
      "outputs": [
        {
          "internalType": "bool",
          "name": "valid",
          "type": "bool"
        }
      ],
      "stateMutability": "view",
      "type": "function"
    },
    {
      "inputs": [
        {
          "internalType": "bytes32",
          "name": "message",
          "type": "bytes32"
        },
        {
          "internalType": "bytes",
          "name": "signature",
          "type": "bytes"
        },
        {
          "internalType": "bytes",
          "name": "publicKey",
          "type": "bytes"
        },
        {
          "internalType": "enum IPQCSignature.PQAlgorithm",
          "name": "algorithm",
          "type": "uint8"
        }
      ],
      "name": "verifyPQCWithKey",
      "outputs": [
        {
          "internalType": "bool",
          "name": "valid",
          "type": "bool"
        }
      ],
      "stateMutability": "pure",
      "type": "function"
    }
  ],
  "bytecode": "0x608060405234801561000f575f80fd5b50338061003557604051631e4fbdf760e01b81525f600482015260240160405180910390fd5b61003e81610044565b50610093565b5f80546001600160a01b038381166001600160a01b0319831681178455604051919092169283917f8be0079c531659141344cd1fd0a4f28419497f9722a3daafe3b4186f6b6457e09190a35050565b610ee7806100a05f395ff3fe608060405234801561000f575f80fd5b50600436106100a6575f3560e01c80638ec8ab1a1161006e5780638ec8ab1a1461012f5780639318f6bd1461016d578063ada14c6c14610180578063b3c821f614610193578063f2fde38b146101a6578063f978fd61146101b9575f80fd5b80635c0569f8146100aa5780636324c3a2146100d7578063715018a6146100f85780638918f874146101025780638da5cb5b14610115575b5f80fd5b6100bd6100b8366004610a53565b6101db565b6040516100ce959493929190610aa7565b60405180910390f35b6100ea6100e5366004610a53565b610298565b6040516100ce929190610b1a565b61010061041a565b005b610100610110366004610b81565b61042d565b5f546040516001600160a01b0390911681526020016100ce565b61015d61013d366004610a53565b6001600160a01b03165f9081526001602052604090206003015460ff1690565b60405190151581526020016100ce565b61010061017b366004610bf3565b610624565b61015d61018e366004610c32565b61065a565b61015d6101a1366004610cb5565b6106ab565b6101006101b4366004610a53565b61086f565b61015d6101c7366004610d0f565b60026020525f908152604090205460ff1681565b60016020525f90815260409020805481906101f590610d26565b80601f016020809104026020016040519081016040528092919081815260200182805461022190610d26565b801561026c5780601f106102435761010080835404028352916020019161026c565b820191905f5260205f20905b81548152906001019060200180831161024f57829003601f168201915b50505060018401546002850154600390950154939460ff91821694909350808216925061010090041685565b6001600160a01b0381165f90815260016020526040808220815160a081019092528054839283929091829082906102ce90610d26565b80601f01602080910402602001604051908101604052809291908181526020018280546102fa90610d26565b80156103455780601f1061031c57610100808354040283529160200191610345565b820191905f5260205f20905b81548152906001019060200180831161032857829003601f168201915b5050509183525050600182015460209091019060ff16600481111561036c5761036c610a73565b600481111561037d5761037d610a73565b81526002820154602082015260039091015460ff8082161515604084015261010090910416151560609091015260808101519091506104035760405162461bcd60e51b815260206004820152601860248201527f56616c696461746f72206e6f742072656769737465726564000000000000000060448201526064015b60405180910390fd5b805180516020918201209101519094909350915050565b6104226108ac565b61042b5f6108d8565b565b335f90815260016020526040902060030154610100900460ff161561048d5760405162461bcd60e51b815260206004820152601660248201527512d95e48185b1c9958591e481c9959da5cdd195c995960521b60448201526064016103fa565b836104cf5760405162461bcd60e51b8152602060048201526012602482015271496e76616c6964207075626c6963206b657960701b60448201526064016103fa565b6040518060a0016040528086868080601f0160208091040260200160405190810160405280939291908181526020018383808284375f9201919091525050509082525060200184600481111561052757610527610a73565b8152602080820185905283151560408084019190915260016060909301839052335f908152929091529020815181906105609082610dbe565b50602082015160018083018054909160ff199091169083600481111561058857610588610a73565b0217905550604082810151600283015560608301516003909201805460809094015115156101000261ff00199315159390931661ffff1990941693909317919091179091555133907f0e098f6bdac1ccffd8266ce5a954918dab46ae136eac585ff2c5ef2a43fc776f906105ff9088908890610e7e565b6040519081900381206106159187908690610e8d565b60405180910390a25050505050565b5f8282604051610635929190610e7e565b60408051918290039091205f908152600260205220805460ff19166001179055505050565b5f61069e87878787878080601f0160208091040260200160405190810160405280939291908181526020018383808284375f92019190915250899250610927915050565b90505b9695505050505050565b6001600160a01b0381165f90815260016020526040808220815160a08101909252805483929190829082906106df90610d26565b80601f016020809104026020016040519081016040528092919081815260200182805461070b90610d26565b80156107565780601f1061072d57610100808354040283529160200191610756565b820191905f5260205f20905b81548152906001019060200180831161073957829003601f168201915b5050509183525050600182015460209091019060ff16600481111561077d5761077d610a73565b600481111561078e5761078e610a73565b81526002820154602082015260039091015460ff80821615156040840152610100909104161515606090910152608081015190915061080f5760405162461bcd60e51b815260206004820152601c60248201527f56616c696461746f72206b6579206e6f7420726567697374657265640000000060448201526064016103fa565b5f8585604051610820929190610e7e565b60408051918290039091205f8181526002602052919091205490915060ff161561084e575f92505050610867565b610862878787855f01518660200151610927565b925050505b949350505050565b6108776108ac565b6001600160a01b0381166108a057604051631e4fbdf760e01b81525f60048201526024016103fa565b6108a9816108d8565b50565b5f546001600160a01b0316331461042b5760405163118cdaa760e01b81523360048201526024016103fa565b5f80546001600160a01b038381166001600160a01b0319831681178455604051919092169283917f8be0079c531659141344cd1fd0a4f28419497f9722a3daafe3b4186f6b6457e09190a35050565b5f80808084600481111561093d5761093d610a73565b03610950575061097490506105206109f6565b600184600481111561096457610964610a73565b036109775750610cdd90506107a06109f6565b600284600481111561098b5761098b610a73565b0361099e57506111f39050610a206109f6565b60038460048111156109b2576109b2610a73565b036109c5575061029a90506103816109f6565b60048460048111156109d9576109d9610a73565b036109ec575061050090506107016109f6565b5f92505050610a2f565b858214610a07575f92505050610a2f565b80855114610a19575f92505050610a2f565b87610a28575f92505050610a2f565b6001925050505b95945050505050565b80356001600160a01b0381168114610a4e575f80fd5b919050565b5f60208284031215610a63575f80fd5b610a6c82610a38565b9392505050565b634e487b7160e01b5f52602160045260245ffd5b60058110610aa357634e487b7160e01b5f52602160045260245ffd5b9052565b60a081525f86518060a08401525f5b81811015610ad3576020818a0181015160c0868401015201610ab6565b505f60c0828501015260c0601f19601f830116840101915050610af96020830187610a87565b846040830152610b0d606083018515159052565b82151560808301526106a1565b82815260408101610a6c6020830184610a87565b5f8083601f840112610b3e575f80fd5b50813567ffffffffffffffff811115610b55575f80fd5b602083019150836020828501011115610b6c575f80fd5b9250929050565b803560058110610a4e575f80fd5b5f805f805f60808688031215610b95575f80fd5b853567ffffffffffffffff811115610bab575f80fd5b610bb788828901610b2e565b9096509450610bca905060208701610b73565b92506040860135915060608601358015158114610be5575f80fd5b809150509295509295909350565b5f8060208385031215610c04575f80fd5b823567ffffffffffffffff811115610c1a575f80fd5b610c2685828601610b2e565b90969095509350505050565b5f805f805f8060808789031215610c47575f80fd5b86359550602087013567ffffffffffffffff80821115610c65575f80fd5b610c718a838b01610b2e565b90975095506040890135915080821115610c89575f80fd5b50610c9689828a01610b2e565b9094509250610ca9905060608801610b73565b90509295509295509295565b5f805f8060608587031215610cc8575f80fd5b84359350602085013567ffffffffffffffff811115610ce5575f80fd5b610cf187828801610b2e565b9094509250610d04905060408601610a38565b905092959194509250565b5f60208284031215610d1f575f80fd5b5035919050565b600181811c90821680610d3a57607f821691505b602082108103610d5857634e487b7160e01b5f52602260045260245ffd5b50919050565b634e487b7160e01b5f52604160045260245ffd5b601f821115610db957805f5260205f20601f840160051c81016020851015610d975750805b601f840160051c820191505b81811015610db6575f8155600101610da3565b50505b505050565b815167ffffffffffffffff811115610dd857610dd8610d5e565b610dec81610de68454610d26565b84610d72565b602080601f831160018114610e1f575f8415610e085750858301515b5f19600386901b1c1916600185901b178555610e76565b5f85815260208120601f198616915b82811015610e4d57888601518255948401946001909101908401610e2e565b5085821015610e6a57878501515f19600388901b60f8161c191681555b505060018460011b0185555b505050505050565b818382375f9101908152919050565b83815260608101610ea16020830185610a87565b821515604083015294935050505056fea26469706673582212207a69236bb6aa4428e5958f60b67f9695614d90e88981a3ec33ededccf6de619164736f6c63430008180033",
  "linkReferences": {},
  "deployedLinkReferences": {}
}