{"abi":[{"type":"constructor","inputs":[],"stateMutability":"nonpayable"},{"type":"function","name":"DOMAIN_SEPARATOR","inputs":[],"outputs":[{"name":"","type":"bytes32","internalType":"bytes32"}],"stateMutability":"view"},{"type":"function","name":"UPGRADE_INTERFACE_VERSION","inputs":[],"outputs":[{"name":"","type":"string","internalType":"string"}],"stateMutability":"view"},{"type":"function","name":"allowance","inputs":[{"name":"owner","type":"address","internalType":"address"},{"name":"spender","type":"address","internalType":"address"}],"outputs":[{"name":"","type":"uint256","internalType":"uint256"}],"stateMutability":"view"},{"type":"function","name":"approve","inputs":[{"name":"spender","type":"address","internalType":"address"},{"name":"value","type":"uint256","internalType":"uint256"}],"outputs":[{"name":"","type":"bool","internalType":"bool"}],"stateMutability":"nonpayable"},{"type":"function","name":"balanceOf","inputs":[{"name":"account","type":"address","internalType":"address"}],"outputs":[{"name":"","type":"uint256","internalType":"uint256"}],"stateMutability":"view"},{"type":"function","name":"blocklist","inputs":[{"name":"account","type":"address","internalType":"address"}],"outputs":[],"stateMutability":"nonpayable"},{"type":"function","name":"burn","inputs":[{"name":"amount","type":"uint256","internalType":"uint256"}],"outputs":[],"stateMutability":"nonpayable"},{"type":"function","name":"burnFrom","inputs":[{"name":"account","type":"address","internalType":"address"},{"name":"amount","type":"uint256","internalType":"uint256"}],"outputs":[],"stateMutability":"nonpayable"},{"type":"function","name":"decimals","inputs":[],"outputs":[{"name":"","type":"uint8","internalType":"uint8"}],"stateMutability":"view"},{"type":"function","name":"eip712Domain","inputs":[],"outputs":[{"name":"fields","type":"bytes1","internalType":"bytes1"},{"name":"name","type":"string","internalType":"string"},{"name":"version","type":"string","internalType":"string"},{"name":"chainId","type":"uint256","internalType":"uint256"},{"name":"verifyingContract","type":"address","internalType":"address"},{"name":"salt","type":"bytes32","internalType":"bytes32"},{"name":"extensions","type":"uint256[]","internalType":"uint256[]"}],"stateMutability":"view"},{"type":"function","name":"initialize","inputs":[{"name":"initialOwner","type":"address","internalType":"address"},{"name":"initialReserveManager","type":"address","internalType":"address"}],"outputs":[],"stateMutability":"nonpayable"},{"type":"function","name":"isBlocklisted","inputs":[{"name":"account","type":"address","internalType":"address"}],"outputs":[{"name":"","type":"bool","internalType":"bool"}],"stateMutability":"view"},{"type":"function","name":"mint","inputs":[{"name":"account","type":"address","internalType":"address"},{"name":"amount","type":"uint256","internalType":"uint256"}],"outputs":[],"stateMutability":"nonpayable"},{"type":"function","name":"name","inputs":[],"outputs":[{"name":"","type":"string","internalType":"string"}],"stateMutability":"view"},{"type":"function","name":"nonces","inputs":[{"name":"owner","type":"address","internalType":"address"}],"outputs":[{"name":"","type":"uint256","internalType":"uint256"}],"stateMutability":"view"},{"type":"function","name":"nttManager","inputs":[],"outputs":[{"name":"","type":"address","internalType":"address"}],"stateMutability":"view"},{"type":"function","name":"owner","inputs":[],"outputs":[{"name":"","type":"address","internalType":"address"}],"stateMutability":"view"},{"type":"function","name":"pause","inputs":[],"outputs":[],"stateMutability":"nonpayable"},{"type":"function","name":"paused","inputs":[],"outputs":[{"name":"","type":"bool","internalType":"bool"}],"stateMutability":"view"},{"type":"function","name":"permit","inputs":[{"name":"owner","type":"address","internalType":"address"},{"name":"spender","type":"address","internalType":"address"},{"name":"value","type":"uint256","internalType":"uint256"},{"name":"deadline","type":"uint256","internalType":"uint256"},{"name":"v","type":"uint8","internalType":"uint8"},{"name":"r","type":"bytes32","internalType":"bytes32"},{"name":"s","type":"bytes32","internalType":"bytes32"}],"outputs":[],"stateMutability":"nonpayable"},{"type":"function","name":"proxiableUUID","inputs":[],"outputs":[{"name":"","type":"bytes32","internalType":"bytes32"}],"stateMutability":"view"},{"type":"function","name":"renounceOwnership","inputs":[],"outputs":[],"stateMutability":"nonpayable"},{"type":"function","name":"reserveManager","inputs":[],"outputs":[{"name":"","type":"address","internalType":"address"}],"stateMutability":"view"},{"type":"function","name":"setMinter","inputs":[{"name":"newNttManager","type":"address","internalType":"address"}],"outputs":[],"stateMutability":"nonpayable"},{"type":"function","name":"setReserveManager","inputs":[{"name":"newReserveManager","type":"address","internalType":"address"}],"outputs":[],"stateMutability":"nonpayable"},{"type":"function","name":"symbol","inputs":[],"outputs":[{"name":"","type":"string","internalType":"string"}],"stateMutability":"view"},{"type":"function","name":"totalSupply","inputs":[],"outputs":[{"name":"","type":"uint256","internalType":"uint256"}],"stateMutability":"view"},{"type":"function","name":"transfer","inputs":[{"name":"to","type":"address","internalType":"address"},{"name":"value","type":"uint256","internalType":"uint256"}],"outputs":[{"name":"","type":"bool","internalType":"bool"}],"stateMutability":"nonpayable"},{"type":"function","name":"transferFrom","inputs":[{"name":"from","type":"address","internalType":"address"},{"name":"to","type":"address","internalType":"address"},{"name":"value","type":"uint256","internalType":"uint256"}],"outputs":[{"name":"","type":"bool","internalType":"bool"}],"stateMutability":"nonpayable"},{"type":"function","name":"transferOwnership","inputs":[{"name":"newOwner","type":"address","internalType":"address"}],"outputs":[],"stateMutability":"nonpayable"},{"type":"function","name":"transferWithMemo","inputs":[{"name":"to","type":"address","internalType":"address"},{"name":"amount","type":"uint256","internalType":"uint256"},{"name":"memo","type":"bytes32","internalType":"bytes32"}],"outputs":[{"name":"","type":"bool","internalType":"bool"}],"stateMutability":"nonpayable"},{"type":"function","name":"unblocklist","inputs":[{"name":"account","type":"address","internalType":"address"}],"outputs":[],"stateMutability":"nonpayable"},{"type":"function","name":"unpause","inputs":[],"outputs":[],"stateMutability":"nonpayable"},{"type":"function","name":"upgradeToAndCall","inputs":[{"name":"newImplementation","type":"address","internalType":"address"},{"name":"data","type":"bytes","internalType":"bytes"}],"outputs":[],"stateMutability":"payable"},{"type":"event","name":"Approval","inputs":[{"name":"owner","type":"address","indexed":true,"internalType":"address"},{"name":"spender","type":"address","indexed":true,"internalType":"address"},{"name":"value","type":"uint256","indexed":false,"internalType":"uint256"}],"anonymous":false},{"type":"event","name":"BlocklistStatusUpdated","inputs":[{"name":"account","type":"address","indexed":true,"internalType":"address"},{"name":"blocklisted","type":"bool","indexed":false,"internalType":"bool"}],"anonymous":false},{"type":"event","name":"EIP712DomainChanged","inputs":[],"anonymous":false},{"type":"event","name":"Initialized","inputs":[{"name":"version","type":"uint64","indexed":false,"internalType":"uint64"}],"anonymous":false},{"type":"event","name":"Memo","inputs":[{"name":"memo","type":"bytes32","indexed":true,"internalType":"bytes32"}],"anonymous":false},{"type":"event","name":"NewMinter","inputs":[{"name":"previousMinter","type":"address","indexed":false,"internalType":"address"},{"name":"newMinter","type":"address","indexed":false,"internalType":"address"}],"anonymous":false},{"type":"event","name":"NewReserveManager","inputs":[{"name":"reserveManager","type":"address","indexed":false,"internalType":"address"}],"anonymous":false},{"type":"event","name":"OwnershipTransferred","inputs":[{"name":"previousOwner","type":"address","indexed":true,"internalType":"address"},{"name":"newOwner","type":"address","indexed":true,"internalType":"address"}],"anonymous":false},{"type":"event","name":"Paused","inputs":[{"name":"account","type":"address","indexed":false,"internalType":"address"}],"anonymous":false},{"type":"event","name":"Transfer","inputs":[{"name":"from","type":"address","indexed":true,"internalType":"address"},{"name":"to","type":"address","indexed":true,"internalType":"address"},{"name":"value","type":"uint256","indexed":false,"internalType":"uint256"}],"anonymous":false},{"type":"event","name":"Unpaused","inputs":[{"name":"account","type":"address","indexed":false,"internalType":"address"}],"anonymous":false},{"type":"event","name":"Upgraded","inputs":[{"name":"implementation","type":"address","indexed":true,"internalType":"address"}],"anonymous":false},{"type":"error","name":"AddressBlocklisted","inputs":[{"name":"account","type":"address","internalType":"address"}]},{"type":"error","name":"AddressEmptyCode","inputs":[{"name":"target","type":"address","internalType":"address"}]},{"type":"error","name":"CallerNotMinter","inputs":[{"name":"caller","type":"address","internalType":"address"}]},{"type":"error","name":"CallerNotMinterOrReserveManager","inputs":[{"name":"caller","type":"address","internalType":"address"}]},{"type":"error","name":"ECDSAInvalidSignature","inputs":[]},{"type":"error","name":"ECDSAInvalidSignatureLength","inputs":[{"name":"length","type":"uint256","internalType":"uint256"}]},{"type":"error","name":"ECDSAInvalidSignatureS","inputs":[{"name":"s","type":"bytes32","internalType":"bytes32"}]},{"type":"error","name":"ERC1967InvalidImplementation","inputs":[{"name":"implementation","type":"address","internalType":"address"}]},{"type":"error","name":"ERC1967NonPayable","inputs":[]},{"type":"error","name":"ERC20InsufficientAllowance","inputs":[{"name":"spender","type":"address","internalType":"address"},{"name":"allowance","type":"uint256","internalType":"uint256"},{"name":"needed","type":"uint256","internalType":"uint256"}]},{"type":"error","name":"ERC20InsufficientBalance","inputs":[{"name":"sender","type":"address","internalType":"address"},{"name":"balance","type":"uint256","internalType":"uint256"},{"name":"needed","type":"uint256","internalType":"uint256"}]},{"type":"error","name":"ERC20InvalidApprover","inputs":[{"name":"approver","type":"address","internalType":"address"}]},{"type":"error","name":"ERC20InvalidReceiver","inputs":[{"name":"receiver","type":"address","internalType":"address"}]},{"type":"error","name":"ERC20InvalidSender","inputs":[{"name":"sender","type":"address","internalType":"address"}]},{"type":"error","name":"ERC20InvalidSpender","inputs":[{"name":"spender","type":"address","internalType":"address"}]},{"type":"error","name":"ERC2612ExpiredSignature","inputs":[{"name":"deadline","type":"uint256","internalType":"uint256"}]},{"type":"error","name":"ERC2612InvalidSigner","inputs":[{"name":"signer","type":"address","internalType":"address"},{"name":"owner","type":"address","internalType":"address"}]},{"type":"error","name":"EnforcedPause","inputs":[]},{"type":"error","name":"ExpectedPause","inputs":[]},{"type":"error","name":"FailedCall","inputs":[]},{"type":"error","name":"InvalidAccountNonce","inputs":[{"name":"account","type":"address","internalType":"address"},{"name":"currentNonce","type":"uint256","internalType":"uint256"}]},{"type":"error","name":"InvalidInitialization","inputs":[]},{"type":"error","name":"InvalidMinterZeroAddress","inputs":[]},{"type":"error","name":"InvalidZeroAddress","inputs":[]},{"type":"error","name":"NotInitializing","inputs":[]},{"type":"error","name":"OwnableInvalidOwner","inputs":[{"name":"owner","type":"address","internalType":"address"}]},{"type":"error","name":"OwnableUnauthorizedAccount","inputs":[{"name":"account","type":"address","internalType":"address"}]},{"type":"error","name":"UUPSUnauthorizedCallContext","inputs":[]},{"type":"error","name":"UUPSUnsupportedProxiableUUID","inputs":[{"name":"slot","type":"bytes32","internalType":"bytes32"}]}],"bytecode":{"object":"0x60a06040523073ffffffffffffffffffffffffffffffffffffffff1660809073ffffffffffffffffffffffffffffffffffffffff16815250348015610042575f5ffd5b5061005161005660201b60201c565b6101d1565b5f61006561015460201b60201c565b9050805f0160089054906101000a900460ff16156100af576040517ff92ee8a900000000000000000000000000000000000000000000000000000000815260040160405180910390fd5b67ffffffffffffffff8016815f015f9054906101000a900467ffffffffffffffff1667ffffffffffffffff16146101515767ffffffffffffffff815f015f6101000a81548167ffffffffffffffff021916908367ffffffffffffffff1602179055507fc7f505b2f371ae2175ee4913f4499e1f2633a7b5936321eed1cdaeb6115181d267ffffffffffffffff60405161014891906101b8565b60405180910390a15b50565b5f5f61016461016d60201b60201c565b90508091505090565b5f7ff0c57e16840df040f15088dc2f81fe391c3923bec73e23a9662efc9c229c6a005f1b905090565b5f67ffffffffffffffff82169050919050565b6101b281610196565b82525050565b5f6020820190506101cb5f8301846101a9565b92915050565b608051613f0e6101f75f395f8181611d6e01528181611dc30152611f7d0152613f0e5ff3fe6080604052600436106101f8575f3560e01c80637ecebe001161010c578063ad3cb1cc1161009f578063dd62ed3e1161006e578063dd62ed3e146106ec578063df7da75414610728578063e5c7160b14610750578063f2fde38b14610778578063fca3b5aa146107a0576101f8565b8063ad3cb1cc14610648578063ae0905ef14610672578063bb004abc1461069a578063d505accf146106c4576101f8565b80638e204c43116100db5780638e204c431461056a57806395777d59146105a657806395d89b41146105e2578063a9059cbb1461060c576101f8565b80637ecebe00146104be5780638456cb59146104fa57806384b0196e146105105780638da5cb5b14610540576101f8565b806340c10f191161018f57806352d1902d1161015e57806352d1902d146103f05780635c975abb1461041a57806370a0823114610444578063715018a61461048057806379cc679014610496576101f8565b806340c10f191461035c57806342966c6814610384578063485cc955146103ac5780634f1ef286146103d4576101f8565b806324fb21db116101cb57806324fb21db146102c8578063313ce567146102f25780633644e5151461031c5780633f4ba83a14610346576101f8565b806306fdde03146101fc578063095ea7b31461022657806318160ddd1461026257806323b872dd1461028c575b5f5ffd5b348015610207575f5ffd5b506102106107c8565b60405161021d9190613279565b60405180910390f35b348015610231575f5ffd5b5061024c60048036038101906102479190613337565b610866565b604051610259919061338f565b60405180910390f35b34801561026d575f5ffd5b50610276610888565b60405161028391906133b7565b60405180910390f35b348015610297575f5ffd5b506102b260048036038101906102ad91906133d0565b61089f565b6040516102bf919061338f565b60405180910390f35b3480156102d3575f5ffd5b506102dc6108cd565b6040516102e9919061342f565b60405180910390f35b3480156102fd575f5ffd5b506103066108f1565b6040516103139190613463565b60405180910390f35b348015610327575f5ffd5b506103306108f9565b60405161033d9190613494565b60405180910390f35b348015610351575f5ffd5b5061035a610907565b005b348015610367575f5ffd5b50610382600480360381019061037d9190613337565b610919565b005b34801561038f575f5ffd5b506103aa60048036038101906103a591906134ad565b610adf565b005b3480156103b7575f5ffd5b506103d260048036038101906103cd91906134d8565b610c16565b005b6103ee60048036038101906103e99190613642565b610e9a565b005b3480156103fb575f5ffd5b50610404610eb9565b6040516104119190613494565b60405180910390f35b348015610425575f5ffd5b5061042e610eea565b60405161043b919061338f565b60405180910390f35b34801561044f575f5ffd5b5061046a6004803603810190610465919061369c565b610f0c565b60405161047791906133b7565b60405180910390f35b34801561048b575f5ffd5b50610494610f5f565b005b3480156104a1575f5ffd5b506104bc60048036038101906104b79190613337565b610f72565b005b3480156104c9575f5ffd5b506104e460048036038101906104df919061369c565b6110aa565b6040516104f191906133b7565b60405180910390f35b348015610505575f5ffd5b5061050e6110bb565b005b34801561051b575f5ffd5b506105246110cd565b60405161053797969594939291906137b8565b60405180910390f35b34801561054b575f5ffd5b50610554611172565b604051610561919061342f565b60405180910390f35b348015610575575f5ffd5b50610590600480360381019061058b919061369c565b6111a7565b60405161059d919061338f565b60405180910390f35b3480156105b1575f5ffd5b506105cc60048036038101906105c79190613864565b6111f9565b6040516105d9919061338f565b60405180910390f35b3480156105ed575f5ffd5b506105f6611246565b6040516106039190613279565b60405180910390f35b348015610617575f5ffd5b50610632600480360381019061062d9190613337565b6112e4565b60405161063f919061338f565b60405180910390f35b348015610653575f5ffd5b5061065c611306565b6040516106699190613279565b60405180910390f35b34801561067d575f5ffd5b506106986004803603810190610693919061369c565b61133f565b005b3480156106a5575f5ffd5b506106ae6113ec565b6040516106bb919061342f565b60405180910390f35b3480156106cf575f5ffd5b506106ea60048036038101906106e591906138de565b611411565b005b3480156106f7575f5ffd5b50610712600480360381019061070d91906134d8565b611556565b60405161071f91906133b7565b60405180910390f35b348015610733575f5ffd5b5061074e6004803603810190610749919061369c565b6115e6565b005b34801561075b575f5ffd5b506107766004803603810190610771919061369c565b6116cd565b005b348015610783575f5ffd5b5061079e6004803603810190610799919061369c565b61177c565b005b3480156107ab575f5ffd5b506107c660048036038101906107c1919061369c565b611800565b005b60605f6107d361190d565b90508060030180546107e4906139a8565b80601f0160208091040260200160405190810160405280929190818152602001828054610810906139a8565b801561085b5780601f106108325761010080835404028352916020019161085b565b820191905f5260205f20905b81548152906001019060200180831161083e57829003601f168201915b505050505091505090565b5f5f610870611934565b905061087d81858561193b565b600191505092915050565b5f5f61089261190d565b9050806002015491505090565b5f5f6108a9611934565b90506108b685828561194d565b6108c18585856119e0565b60019150509392505050565b5f5f9054906101000a900473ffffffffffffffffffffffffffffffffffffffff1681565b5f6012905090565b5f610902611ad0565b905090565b61090f611ade565b610917611b65565b565b5f5f9054906101000a900473ffffffffffffffffffffffffffffffffffffffff1673ffffffffffffffffffffffffffffffffffffffff163373ffffffffffffffffffffffffffffffffffffffff16141580156109c2575060015f9054906101000a900473ffffffffffffffffffffffffffffffffffffffff1673ffffffffffffffffffffffffffffffffffffffff163373ffffffffffffffffffffffffffffffffffffffff1614155b8015610a0157506109d1611172565b73ffffffffffffffffffffffffffffffffffffffff163373ffffffffffffffffffffffffffffffffffffffff1614155b15610a4357336040517fc43e497a000000000000000000000000000000000000000000000000000000008152600401610a3a919061342f565b60405180910390fd5b8160025f8273ffffffffffffffffffffffffffffffffffffffff1673ffffffffffffffffffffffffffffffffffffffff1681526020019081526020015f205f9054906101000a900460ff1615610ad057806040517fdb9ecf68000000000000000000000000000000000000000000000000000000008152600401610ac7919061342f565b60405180910390fd5b610ada8383611bd3565b505050565b5f5f9054906101000a900473ffffffffffffffffffffffffffffffffffffffff1673ffffffffffffffffffffffffffffffffffffffff163373ffffffffffffffffffffffffffffffffffffffff1614158015610b88575060015f9054906101000a900473ffffffffffffffffffffffffffffffffffffffff1673ffffffffffffffffffffffffffffffffffffffff163373ffffffffffffffffffffffffffffffffffffffff1614155b8015610bc75750610b97611172565b73ffffffffffffffffffffffffffffffffffffffff163373ffffffffffffffffffffffffffffffffffffffff1614155b15610c0957336040517fc43e497a000000000000000000000000000000000000000000000000000000008152600401610c00919061342f565b60405180910390fd5b610c133382611c52565b50565b5f610c1f611cd1565b90505f815f0160089054906101000a900460ff161590505f825f015f9054906101000a900467ffffffffffffffff1690505f5f8267ffffffffffffffff16148015610c675750825b90505f60018367ffffffffffffffff16148015610c9a57505f3073ffffffffffffffffffffffffffffffffffffffff163b145b905081158015610ca8575080155b15610cdf576040517ff92ee8a900000000000000000000000000000000000000000000000000000000815260040160405180910390fd5b6001855f015f6101000a81548167ffffffffffffffff021916908367ffffffffffffffff1602179055508315610d2c576001855f0160086101000a81548160ff0219169083151502179055505b610da06040518060400160405280600881526020017f51426974636f696e0000000000000000000000000000000000000000000000008152506040518060400160405280600481526020017f5142544300000000000000000000000000000000000000000000000000000000815250611ce4565b610da8611cfa565b610db0611d04565b610dee6040518060400160405280600881526020017f51426974636f696e000000000000000000000000000000000000000000000000815250611d0e565b610df787611d58565b8560015f6101000a81548173ffffffffffffffffffffffffffffffffffffffff021916908373ffffffffffffffffffffffffffffffffffffffff1602179055508315610e91575f855f0160086101000a81548160ff0219169083151502179055507fc7f505b2f371ae2175ee4913f4499e1f2633a7b5936321eed1cdaeb6115181d26001604051610e889190613a2d565b60405180910390a15b50505050505050565b610ea2611d6c565b610eab82611e52565b610eb58282611e5d565b5050565b5f610ec2611f7b565b7f360894a13ba1a3210667c828492db98dca3e2076cc3735a920a3ca505d382bbc5f1b905090565b5f5f610ef4612002565b9050805f015f9054906101000a900460ff1691505090565b5f5f610f1661190d565b9050805f015f8473ffffffffffffffffffffffffffffffffffffffff1673ffffffffffffffffffffffffffffffffffffffff1681526020019081526020015f2054915050919050565b610f67611ade565b610f705f612029565b565b5f5f9054906101000a900473ffffffffffffffffffffffffffffffffffffffff1673ffffffffffffffffffffffffffffffffffffffff163373ffffffffffffffffffffffffffffffffffffffff161415801561101b575060015f9054906101000a900473ffffffffffffffffffffffffffffffffffffffff1673ffffffffffffffffffffffffffffffffffffffff163373ffffffffffffffffffffffffffffffffffffffff1614155b801561105a575061102a611172565b73ffffffffffffffffffffffffffffffffffffffff163373ffffffffffffffffffffffffffffffffffffffff1614155b1561109c57336040517fc43e497a000000000000000000000000000000000000000000000000000000008152600401611093919061342f565b60405180910390fd5b6110a682826120fa565b5050565b5f6110b48261211a565b9050919050565b6110c3611ade565b6110cb61216d565b565b5f6060805f5f5f60606110de6121dc565b6110e661227a565b46305f5f1b5f67ffffffffffffffff8111156111055761110461351e565b5b6040519080825280602002602001820160405280156111335781602001602082028036833780820191505090505b507f0f00000000000000000000000000000000000000000000000000000000000000959493929190965096509650965096509650965090919293949596565b5f5f61117c612318565b9050805f015f9054906101000a900473ffffffffffffffffffffffffffffffffffffffff1691505090565b5f60025f8373ffffffffffffffffffffffffffffffffffffffff1673ffffffffffffffffffffffffffffffffffffffff1681526020019081526020015f205f9054906101000a900460ff169050919050565b5f5f61120585856112e4565b9050801561123b57827f8751b2deae6b931d081b852087a006c58bdee395b751d53f0f60993af9ec8f6f60405160405180910390a25b809150509392505050565b60605f61125161190d565b9050806004018054611262906139a8565b80601f016020809104026020016040519081016040528092919081815260200182805461128e906139a8565b80156112d95780601f106112b0576101008083540402835291602001916112d9565b820191905f5260205f20905b8154815290600101906020018083116112bc57829003601f168201915b505050505091505090565b5f5f6112ee611934565b90506112fb8185856119e0565b600191505092915050565b6040518060400160405280600581526020017f352e302e3000000000000000000000000000000000000000000000000000000081525081565b611347611ade565b5f60025f8373ffffffffffffffffffffffffffffffffffffffff1673ffffffffffffffffffffffffffffffffffffffff1681526020019081526020015f205f6101000a81548160ff0219169083151502179055508073ffffffffffffffffffffffffffffffffffffffff167f285d30726c52fa6d937c831072c13afa1e31b5ec0c0c2c7ed72f48b59fa95e605f6040516113e1919061338f565b60405180910390a250565b60015f9054906101000a900473ffffffffffffffffffffffffffffffffffffffff1681565b8342111561145657836040517f6279130200000000000000000000000000000000000000000000000000000000815260040161144d91906133b7565b60405180910390fd5b5f7f6e71edae12b1b97f4d1f60370fef10105fa2faae0126114a169c64845d6126c98888886114848c61233f565b8960405160200161149a96959493929190613a46565b6040516020818303038152906040528051906020012090505f6114bc8261239f565b90505f6114cb828787876123b8565b90508973ffffffffffffffffffffffffffffffffffffffff168173ffffffffffffffffffffffffffffffffffffffff161461153f57808a6040517f4b800e46000000000000000000000000000000000000000000000000000000008152600401611536929190613aa5565b60405180910390fd5b61154a8a8a8a61193b565b50505050505050505050565b5f5f61156061190d565b9050806001015f8573ffffffffffffffffffffffffffffffffffffffff1673ffffffffffffffffffffffffffffffffffffffff1681526020019081526020015f205f8473ffffffffffffffffffffffffffffffffffffffff1673ffffffffffffffffffffffffffffffffffffffff1681526020019081526020015f205491505092915050565b6115ee611ade565b5f73ffffffffffffffffffffffffffffffffffffffff168173ffffffffffffffffffffffffffffffffffffffff1603611653576040517ff6b2911f00000000000000000000000000000000000000000000000000000000815260040160405180910390fd5b8060015f6101000a81548173ffffffffffffffffffffffffffffffffffffffff021916908373ffffffffffffffffffffffffffffffffffffffff1602179055507f2e435ba5b382a86d185a3fc42e5a5f5a0d3e3371d63b354027ee0a68181693fd816040516116c2919061342f565b60405180910390a150565b6116d5611ade565b600160025f8373ffffffffffffffffffffffffffffffffffffffff1673ffffffffffffffffffffffffffffffffffffffff1681526020019081526020015f205f6101000a81548160ff0219169083151502179055508073ffffffffffffffffffffffffffffffffffffffff167f285d30726c52fa6d937c831072c13afa1e31b5ec0c0c2c7ed72f48b59fa95e606001604051611771919061338f565b60405180910390a250565b611784611ade565b5f73ffffffffffffffffffffffffffffffffffffffff168173ffffffffffffffffffffffffffffffffffffffff16036117f4575f6040517f1e4fbdf70000000000000000000000000000000000000000000000000000000081526004016117eb919061342f565b60405180910390fd5b6117fd81612029565b50565b611808611ade565b5f73ffffffffffffffffffffffffffffffffffffffff168173ffffffffffffffffffffffffffffffffffffffff160361186d576040517f04a208c700000000000000000000000000000000000000000000000000000000815260040160405180910390fd5b5f5f5f9054906101000a900473ffffffffffffffffffffffffffffffffffffffff169050815f5f6101000a81548173ffffffffffffffffffffffffffffffffffffffff021916908373ffffffffffffffffffffffffffffffffffffffff1602179055507f0b5e7be615a67a819aff3f47c967d1535cead1b98db60fafdcbf22dcaa8fa5a98183604051611901929190613aa5565b60405180910390a15050565b5f7f52c63247e1f47db19d5ce0460030c497f067ca4cebf71ba98eeadabe20bace00905090565b5f33905090565b61194883838360016123e6565b505050565b5f6119588484611556565b90507fffffffffffffffffffffffffffffffffffffffffffffffffffffffffffffffff8110156119da57818110156119cb578281836040517ffb8f41b20000000000000000000000000000000000000000000000000000000081526004016119c293929190613acc565b60405180910390fd5b6119d984848484035f6123e6565b5b50505050565b5f73ffffffffffffffffffffffffffffffffffffffff168373ffffffffffffffffffffffffffffffffffffffff1603611a50575f6040517f96c6fd1e000000000000000000000000000000000000000000000000000000008152600401611a47919061342f565b60405180910390fd5b5f73ffffffffffffffffffffffffffffffffffffffff168273ffffffffffffffffffffffffffffffffffffffff1603611ac0575f6040517fec442f05000000000000000000000000000000000000000000000000000000008152600401611ab7919061342f565b60405180910390fd5b611acb8383836125c3565b505050565b5f611ad9612753565b905090565b611ae6611934565b73ffffffffffffffffffffffffffffffffffffffff16611b04611172565b73ffffffffffffffffffffffffffffffffffffffff1614611b6357611b27611934565b6040517f118cdaa7000000000000000000000000000000000000000000000000000000008152600401611b5a919061342f565b60405180910390fd5b565b611b6d6127b6565b5f611b76612002565b90505f815f015f6101000a81548160ff0219169083151502179055507f5db9ee0a495bf2e6ff9c91a7834c1ba4fdd244a5e8aa4e537bd38aeae4b073aa611bbb611934565b604051611bc8919061342f565b60405180910390a150565b5f73ffffffffffffffffffffffffffffffffffffffff168273ffffffffffffffffffffffffffffffffffffffff1603611c43575f6040517fec442f05000000000000000000000000000000000000000000000000000000008152600401611c3a919061342f565b60405180910390fd5b611c4e5f83836125c3565b5050565b5f73ffffffffffffffffffffffffffffffffffffffff168273ffffffffffffffffffffffffffffffffffffffff1603611cc2575f6040517f96c6fd1e000000000000000000000000000000000000000000000000000000008152600401611cb9919061342f565b60405180910390fd5b611ccd825f836125c3565b5050565b5f5f611cdb6127f6565b90508091505090565b611cec61281f565b611cf6828261285f565b5050565b611d0261281f565b565b611d0c61281f565b565b611d1661281f565b611d55816040518060400160405280600181526020017f310000000000000000000000000000000000000000000000000000000000000081525061289b565b50565b611d6061281f565b611d69816128d7565b50565b7f000000000000000000000000000000000000000000000000000000000000000073ffffffffffffffffffffffffffffffffffffffff163073ffffffffffffffffffffffffffffffffffffffff161480611e1957507f000000000000000000000000000000000000000000000000000000000000000073ffffffffffffffffffffffffffffffffffffffff16611e0061295b565b73ffffffffffffffffffffffffffffffffffffffff1614155b15611e50576040517fe07c8dba00000000000000000000000000000000000000000000000000000000815260040160405180910390fd5b565b611e5a611ade565b50565b8173ffffffffffffffffffffffffffffffffffffffff166352d1902d6040518163ffffffff1660e01b8152600401602060405180830381865afa925050508015611ec557506040513d601f19601f82011682018060405250810190611ec29190613b15565b60015b611f0657816040517f4c9c8ce3000000000000000000000000000000000000000000000000000000008152600401611efd919061342f565b60405180910390fd5b7f360894a13ba1a3210667c828492db98dca3e2076cc3735a920a3ca505d382bbc5f1b8114611f6c57806040517faa1d49a4000000000000000000000000000000000000000000000000000000008152600401611f639190613494565b60405180910390fd5b611f7683836129ae565b505050565b7f000000000000000000000000000000000000000000000000000000000000000073ffffffffffffffffffffffffffffffffffffffff163073ffffffffffffffffffffffffffffffffffffffff1614612000576040517fe07c8dba00000000000000000000000000000000000000000000000000000000815260040160405180910390fd5b565b5f7fcd5ed15c6e187e77e9aee88184c21f4f2182ab5827cb3b7e07fbedcd63f03300905090565b5f612032612318565b90505f815f015f9054906101000a900473ffffffffffffffffffffffffffffffffffffffff16905082825f015f6101000a81548173ffffffffffffffffffffffffffffffffffffffff021916908373ffffffffffffffffffffffffffffffffffffffff1602179055508273ffffffffffffffffffffffffffffffffffffffff168173ffffffffffffffffffffffffffffffffffffffff167f8be0079c531659141344cd1fd0a4f28419497f9722a3daafe3b4186f6b6457e060405160405180910390a3505050565b61210c82612106611934565b8361194d565b6121168282611c52565b5050565b5f5f612124612a20565b9050805f015f8473ffffffffffffffffffffffffffffffffffffffff1673ffffffffffffffffffffffffffffffffffffffff1681526020019081526020015f2054915050919050565b612175612a47565b5f61217e612002565b90506001815f015f6101000a81548160ff0219169083151502179055507f62e78cea01bee320cd4e420270b5ea74000d11b0c9f74754ebdbfc544b05a2586121c4611934565b6040516121d1919061342f565b60405180910390a150565b60605f6121e7612a88565b90508060020180546121f8906139a8565b80601f0160208091040260200160405190810160405280929190818152602001828054612224906139a8565b801561226f5780601f106122465761010080835404028352916020019161226f565b820191905f5260205f20905b81548152906001019060200180831161225257829003601f168201915b505050505091505090565b60605f612285612a88565b9050806003018054612296906139a8565b80601f01602080910402602001604051908101604052809291908181526020018280546122c2906139a8565b801561230d5780601f106122e45761010080835404028352916020019161230d565b820191905f5260205f20905b8154815290600101906020018083116122f057829003601f168201915b505050505091505090565b5f7f9016d09d72d40fdae2fd8ceac6b6234c7706214fd39c1cd1e609a0528c199300905090565b5f5f612349612a20565b9050805f015f8473ffffffffffffffffffffffffffffffffffffffff1673ffffffffffffffffffffffffffffffffffffffff1681526020019081526020015f205f81548092919060010191905055915050919050565b5f6123b16123ab611ad0565b83612aaf565b9050919050565b5f5f5f5f6123c888888888612aef565b9250925092506123d88282612bd6565b829350505050949350505050565b5f6123ef61190d565b90505f73ffffffffffffffffffffffffffffffffffffffff168573ffffffffffffffffffffffffffffffffffffffff1603612461575f6040517fe602df05000000000000000000000000000000000000000000000000000000008152600401612458919061342f565b60405180910390fd5b5f73ffffffffffffffffffffffffffffffffffffffff168473ffffffffffffffffffffffffffffffffffffffff16036124d1575f6040517f94280d620000000000000000000000000000000000000000000000000000000081526004016124c8919061342f565b60405180910390fd5b82816001015f8773ffffffffffffffffffffffffffffffffffffffff1673ffffffffffffffffffffffffffffffffffffffff1681526020019081526020015f205f8673ffffffffffffffffffffffffffffffffffffffff1673ffffffffffffffffffffffffffffffffffffffff1681526020019081526020015f208190555081156125bc578373ffffffffffffffffffffffffffffffffffffffff168573ffffffffffffffffffffffffffffffffffffffff167f8c5be1e5ebec7d5bd14f71427d1e84f3dd0314c0f7b2291e5b200ac8c7c3b925856040516125b391906133b7565b60405180910390a35b5050505050565b5f73ffffffffffffffffffffffffffffffffffffffff168373ffffffffffffffffffffffffffffffffffffffff16146126835760025f8473ffffffffffffffffffffffffffffffffffffffff1673ffffffffffffffffffffffffffffffffffffffff1681526020019081526020015f205f9054906101000a900460ff161561268257826040517fdb9ecf68000000000000000000000000000000000000000000000000000000008152600401612679919061342f565b60405180910390fd5b5b5f73ffffffffffffffffffffffffffffffffffffffff168273ffffffffffffffffffffffffffffffffffffffff16146127435760025f8373ffffffffffffffffffffffffffffffffffffffff1673ffffffffffffffffffffffffffffffffffffffff1681526020019081526020015f205f9054906101000a900460ff161561274257816040517fdb9ecf68000000000000000000000000000000000000000000000000000000008152600401612739919061342f565b60405180910390fd5b5b61274e838383612d38565b505050565b5f7f8b73c3c69bb8fe3d512ecc4cf759cc79239f7b179b0ffacaa9a75d522b39400f61277d612d50565b612785612d65565b463060405160200161279b959493929190613b40565b60405160208183030381529060405280519060200120905090565b6127be610eea565b6127f4576040517f8dfc202b00000000000000000000000000000000000000000000000000000000815260040160405180910390fd5b565b5f7ff0c57e16840df040f15088dc2f81fe391c3923bec73e23a9662efc9c229c6a005f1b905090565b612827612d7a565b61285d576040517fd7e6bcf800000000000000000000000000000000000000000000000000000000815260040160405180910390fd5b565b61286761281f565b5f61287061190d565b9050828160030190816128839190613d39565b50818160040190816128959190613d39565b50505050565b6128a361281f565b5f6128ac612a88565b9050828160020190816128bf9190613d39565b50818160030190816128d19190613d39565b50505050565b6128df61281f565b5f73ffffffffffffffffffffffffffffffffffffffff168173ffffffffffffffffffffffffffffffffffffffff160361294f575f6040517f1e4fbdf7000000000000000000000000000000000000000000000000000000008152600401612946919061342f565b60405180910390fd5b61295881612029565b50565b5f6129877f360894a13ba1a3210667c828492db98dca3e2076cc3735a920a3ca505d382bbc5f1b612d98565b5f015f9054906101000a900473ffffffffffffffffffffffffffffffffffffffff16905090565b6129b782612da1565b8173ffffffffffffffffffffffffffffffffffffffff167fbc7cd75a20ee27fd9adebab32041f755214dbc6bffa90cc0225b39da2e5c2d3b60405160405180910390a25f81511115612a1357612a0d8282612e6a565b50612a1c565b612a1b612f5b565b5b5050565b5f7f5ab42ced628888259c08ac98db1eb0cf702fc1501344311d8b100cd1bfe4bb00905090565b612a4f610eea565b15612a86576040517fd93c066500000000000000000000000000000000000000000000000000000000815260040160405180910390fd5b565b5f7fa16a46d94261c7517cc8ff89f61c0ce93598e3c849801011dee649a6a557d100905090565b5f6040517f190100000000000000000000000000000000000000000000000000000000000081528360028201528260228201526042812091505092915050565b5f5f5f7f7fffffffffffffffffffffffffffffff5d576e7357a4501ddfe92f46681b20a0845f1c1115612b2b575f600385925092509250612bcc565b5f6001888888886040515f8152602001604052604051612b4e9493929190613e08565b6020604051602081039080840390855afa158015612b6e573d5f5f3e3d5ffd5b5050506020604051035190505f73ffffffffffffffffffffffffffffffffffffffff168173ffffffffffffffffffffffffffffffffffffffff1603612bbf575f60015f5f1b93509350935050612bcc565b805f5f5f1b935093509350505b9450945094915050565b5f6003811115612be957612be8613e4b565b5b826003811115612bfc57612bfb613e4b565b5b0315612d345760016003811115612c1657612c15613e4b565b5b826003811115612c2957612c28613e4b565b5b03612c60576040517ff645eedf00000000000000000000000000000000000000000000000000000000815260040160405180910390fd5b60026003811115612c7457612c73613e4b565b5b826003811115612c8757612c86613e4b565b5b03612ccb57805f1c6040517ffce698f7000000000000000000000000000000000000000000000000000000008152600401612cc291906133b7565b60405180910390fd5b600380811115612cde57612cdd613e4b565b5b826003811115612cf157612cf0613e4b565b5b03612d3357806040517fd78bce0c000000000000000000000000000000000000000000000000000000008152600401612d2a9190613494565b60405180910390fd5b5b5050565b612d40612a47565b612d4b838383612f97565b505050565b5f612d596121dc565b80519060200120905090565b5f612d6e61227a565b80519060200120905090565b5f612d83611cd1565b5f0160089054906101000a900460ff16905090565b5f819050919050565b5f8173ffffffffffffffffffffffffffffffffffffffff163b03612dfc57806040517f4c9c8ce3000000000000000000000000000000000000000000000000000000008152600401612df3919061342f565b60405180910390fd5b80612e287f360894a13ba1a3210667c828492db98dca3e2076cc3735a920a3ca505d382bbc5f1b612d98565b5f015f6101000a81548173ffffffffffffffffffffffffffffffffffffffff021916908373ffffffffffffffffffffffffffffffffffffffff16021790555050565b60605f612e7784846131c6565b9050808015612ead57505f612e8a6131da565b1180612eac57505f8473ffffffffffffffffffffffffffffffffffffffff163b115b5b15612ec257612eba6131e1565b915050612f55565b8015612f0557836040517f9996b315000000000000000000000000000000000000000000000000000000008152600401612efc919061342f565b60405180910390fd5b5f612f0e6131da565b1115612f2157612f1c6131fe565b612f53565b6040517fd6bda27500000000000000000000000000000000000000000000000000000000815260040160405180910390fd5b505b92915050565b5f341115612f95576040517fb398979f00000000000000000000000000000000000000000000000000000000815260040160405180910390fd5b565b5f612fa061190d565b90505f73ffffffffffffffffffffffffffffffffffffffff168473ffffffffffffffffffffffffffffffffffffffff1603612ff45781816002015f828254612fe89190613ea5565b925050819055506130c6565b5f815f015f8673ffffffffffffffffffffffffffffffffffffffff1673ffffffffffffffffffffffffffffffffffffffff1681526020019081526020015f205490508281101561307f578481846040517fe450d38c00000000000000000000000000000000000000000000000000000000815260040161307693929190613acc565b60405180910390fd5b828103825f015f8773ffffffffffffffffffffffffffffffffffffffff1673ffffffffffffffffffffffffffffffffffffffff1681526020019081526020015f2081905550505b5f73ffffffffffffffffffffffffffffffffffffffff168373ffffffffffffffffffffffffffffffffffffffff160361310f5781816002015f828254039250508190555061315b565b81815f015f8573ffffffffffffffffffffffffffffffffffffffff1673ffffffffffffffffffffffffffffffffffffffff1681526020019081526020015f205f82825401925050819055505b8273ffffffffffffffffffffffffffffffffffffffff168473ffffffffffffffffffffffffffffffffffffffff167fddf252ad1be2c89b69c2b068fc378daa952ba7f163c4a11628f55a4df523b3ef846040516131b891906133b7565b60405180910390a350505050565b5f5f5f835160208501865af4905092915050565b5f3d905090565b606060405190503d81523d5f602083013e3d602001810160405290565b6040513d5f823e3d81fd5b5f81519050919050565b5f82825260208201905092915050565b8281835e5f83830152505050565b5f601f19601f8301169050919050565b5f61324b82613209565b6132558185613213565b9350613265818560208601613223565b61326e81613231565b840191505092915050565b5f6020820190508181035f8301526132918184613241565b905092915050565b5f604051905090565b5f5ffd5b5f5ffd5b5f73ffffffffffffffffffffffffffffffffffffffff82169050919050565b5f6132d3826132aa565b9050919050565b6132e3816132c9565b81146132ed575f5ffd5b50565b5f813590506132fe816132da565b92915050565b5f819050919050565b61331681613304565b8114613320575f5ffd5b50565b5f813590506133318161330d565b92915050565b5f5f6040838503121561334d5761334c6132a2565b5b5f61335a858286016132f0565b925050602061336b85828601613323565b9150509250929050565b5f8115159050919050565b61338981613375565b82525050565b5f6020820190506133a25f830184613380565b92915050565b6133b181613304565b82525050565b5f6020820190506133ca5f8301846133a8565b92915050565b5f5f5f606084860312156133e7576133e66132a2565b5b5f6133f4868287016132f0565b9350506020613405868287016132f0565b925050604061341686828701613323565b9150509250925092565b613429816132c9565b82525050565b5f6020820190506134425f830184613420565b92915050565b5f60ff82169050919050565b61345d81613448565b82525050565b5f6020820190506134765f830184613454565b92915050565b5f819050919050565b61348e8161347c565b82525050565b5f6020820190506134a75f830184613485565b92915050565b5f602082840312156134c2576134c16132a2565b5b5f6134cf84828501613323565b91505092915050565b5f5f604083850312156134ee576134ed6132a2565b5b5f6134fb858286016132f0565b925050602061350c858286016132f0565b9150509250929050565b5f5ffd5b5f5ffd5b7f4e487b71000000000000000000000000000000000000000000000000000000005f52604160045260245ffd5b61355482613231565b810181811067ffffffffffffffff821117156135735761357261351e565b5b80604052505050565b5f613585613299565b9050613591828261354b565b919050565b5f67ffffffffffffffff8211156135b0576135af61351e565b5b6135b982613231565b9050602081019050919050565b828183375f83830152505050565b5f6135e66135e184613596565b61357c565b9050828152602081018484840111156136025761360161351a565b5b61360d8482856135c6565b509392505050565b5f82601f83011261362957613628613516565b5b81356136398482602086016135d4565b91505092915050565b5f5f60408385031215613658576136576132a2565b5b5f613665858286016132f0565b925050602083013567ffffffffffffffff811115613686576136856132a6565b5b61369285828601613615565b9150509250929050565b5f602082840312156136b1576136b06132a2565b5b5f6136be848285016132f0565b91505092915050565b5f7fff0000000000000000000000000000000000000000000000000000000000000082169050919050565b6136fb816136c7565b82525050565b5f81519050919050565b5f82825260208201905092915050565b5f819050602082019050919050565b61373381613304565b82525050565b5f613744838361372a565b60208301905092915050565b5f602082019050919050565b5f61376682613701565b613770818561370b565b935061377b8361371b565b805f5b838110156137ab5781516137928882613739565b975061379d83613750565b92505060018101905061377e565b5085935050505092915050565b5f60e0820190506137cb5f83018a6136f2565b81810360208301526137dd8189613241565b905081810360408301526137f18188613241565b905061380060608301876133a8565b61380d6080830186613420565b61381a60a0830185613485565b81810360c083015261382c818461375c565b905098975050505050505050565b6138438161347c565b811461384d575f5ffd5b50565b5f8135905061385e8161383a565b92915050565b5f5f5f6060848603121561387b5761387a6132a2565b5b5f613888868287016132f0565b935050602061389986828701613323565b92505060406138aa86828701613850565b9150509250925092565b6138bd81613448565b81146138c7575f5ffd5b50565b5f813590506138d8816138b4565b92915050565b5f5f5f5f5f5f5f60e0888a0312156138f9576138f86132a2565b5b5f6139068a828b016132f0565b97505060206139178a828b016132f0565b96505060406139288a828b01613323565b95505060606139398a828b01613323565b945050608061394a8a828b016138ca565b93505060a061395b8a828b01613850565b92505060c061396c8a828b01613850565b91505092959891949750929550565b7f4e487b71000000000000000000000000000000000000000000000000000000005f52602260045260245ffd5b5f60028204905060018216806139bf57607f821691505b6020821081036139d2576139d161397b565b5b50919050565b5f819050919050565b5f67ffffffffffffffff82169050919050565b5f819050919050565b5f613a17613a12613a0d846139d8565b6139f4565b6139e1565b9050919050565b613a27816139fd565b82525050565b5f602082019050613a405f830184613a1e565b92915050565b5f60c082019050613a595f830189613485565b613a666020830188613420565b613a736040830187613420565b613a8060608301866133a8565b613a8d60808301856133a8565b613a9a60a08301846133a8565b979650505050505050565b5f604082019050613ab85f830185613420565b613ac56020830184613420565b9392505050565b5f606082019050613adf5f830186613420565b613aec60208301856133a8565b613af960408301846133a8565b949350505050565b5f81519050613b0f8161383a565b92915050565b5f60208284031215613b2a57613b296132a2565b5b5f613b3784828501613b01565b91505092915050565b5f60a082019050613b535f830188613485565b613b606020830187613485565b613b6d6040830186613485565b613b7a60608301856133a8565b613b876080830184613420565b9695505050505050565b5f819050815f5260205f209050919050565b5f6020601f8301049050919050565b5f82821b905092915050565b5f60088302613bed7fffffffffffffffffffffffffffffffffffffffffffffffffffffffffffffffff82613bb2565b613bf78683613bb2565b95508019841693508086168417925050509392505050565b5f613c29613c24613c1f84613304565b6139f4565b613304565b9050919050565b5f819050919050565b613c4283613c0f565b613c56613c4e82613c30565b848454613bbe565b825550505050565b5f5f905090565b613c6d613c5e565b613c78818484613c39565b505050565b5f5b82811015613c9e57613c935f828401613c65565b600181019050613c7f565b505050565b601f821115613cf15782821115613cf057613cbd81613b91565b613cc683613ba3565b613ccf85613ba3565b6020861015613cdc575f90505b808301613ceb82840382613c7d565b505050505b5b505050565b5f82821c905092915050565b5f613d115f1984600802613cf6565b1980831691505092915050565b5f613d298383613d02565b9150826002028217905092915050565b613d4282613209565b67ffffffffffffffff811115613d5b57613d5a61351e565b5b613d6582546139a8565b613d70828285613ca3565b5f60209050601f831160018114613da1575f8415613d8f578287015190505b613d998582613d1e565b865550613e00565b601f198416613daf86613b91565b5f5b82811015613dd657848901518255600182019150602085019450602081019050613db1565b86831015613df35784890151613def601f891682613d02565b8355505b6001600288020188555050505b505050505050565b5f608082019050613e1b5f830187613485565b613e286020830186613454565b613e356040830185613485565b613e426060830184613485565b95945050505050565b7f4e487b71000000000000000000000000000000000000000000000000000000005f52602160045260245ffd5b7f4e487b71000000000000000000000000000000000000000000000000000000005f52601160045260245ffd5b5f613eaf82613304565b9150613eba83613304565b9250828201905080821115613ed257613ed1613e78565b5b9291505056fea264697066735822122016d8743991db98f6818e77c6291cd927c3687baaad9a4cc4599a516b7ca009c464736f6c63430008230033","linkReferences":{}},"methodIdentifiers":{"DOMAIN_SEPARATOR()":"3644e515","UPGRADE_INTERFACE_VERSION()":"ad3cb1cc","allowance(address,address)":"dd62ed3e","approve(address,uint256)":"095ea7b3","balanceOf(address)":"70a08231","blocklist(address)":"e5c7160b","burn(uint256)":"42966c68","burnFrom(address,uint256)":"79cc6790","decimals()":"313ce567","eip712Domain()":"84b0196e","initialize(address,address)":"485cc955","isBlocklisted(address)":"8e204c43","mint(address,uint256)":"40c10f19","name()":"06fdde03","nonces(address)":"7ecebe00","nttManager()":"24fb21db","owner()":"8da5cb5b","pause()":"8456cb59","paused()":"5c975abb","permit(address,address,uint256,uint256,uint8,bytes32,bytes32)":"d505accf","proxiableUUID()":"52d1902d","renounceOwnership()":"715018a6","reserveManager()":"bb004abc","setMinter(address)":"fca3b5aa","setReserveManager(address)":"df7da754","symbol()":"95d89b41","totalSupply()":"18160ddd","transfer(address,uint256)":"a9059cbb","transferFrom(address,address,uint256)":"23b872dd","transferOwnership(address)":"f2fde38b","transferWithMemo(address,uint256,bytes32)":"95777d59","unblocklist(address)":"ae0905ef","unpause()":"3f4ba83a","upgradeToAndCall(address,bytes)":"4f1ef286"},"id":0}