{"abi":[{"type":"constructor","inputs":[],"stateMutability":"nonpayable"},{"type":"function","name":"DOMAIN_SEPARATOR","inputs":[],"outputs":[{"name":"","type":"bytes32","internalType":"bytes32"}],"stateMutability":"view"},{"type":"function","name":"MAX_SUPPLY","inputs":[],"outputs":[{"name":"","type":"uint256","internalType":"uint256"}],"stateMutability":"view"},{"type":"function","name":"UPGRADE_INTERFACE_VERSION","inputs":[],"outputs":[{"name":"","type":"string","internalType":"string"}],"stateMutability":"view"},{"type":"function","name":"allowance","inputs":[{"name":"owner","type":"address","internalType":"address"},{"name":"spender","type":"address","internalType":"address"}],"outputs":[{"name":"","type":"uint256","internalType":"uint256"}],"stateMutability":"view"},{"type":"function","name":"approve","inputs":[{"name":"spender","type":"address","internalType":"address"},{"name":"value","type":"uint256","internalType":"uint256"}],"outputs":[{"name":"","type":"bool","internalType":"bool"}],"stateMutability":"nonpayable"},{"type":"function","name":"balanceOf","inputs":[{"name":"account","type":"address","internalType":"address"}],"outputs":[{"name":"","type":"uint256","internalType":"uint256"}],"stateMutability":"view"},{"type":"function","name":"blocklist","inputs":[{"name":"account","type":"address","internalType":"address"}],"outputs":[],"stateMutability":"nonpayable"},{"type":"function","name":"burn","inputs":[{"name":"amount","type":"uint256","internalType":"uint256"}],"outputs":[],"stateMutability":"nonpayable"},{"type":"function","name":"burnFrom","inputs":[{"name":"account","type":"address","internalType":"address"},{"name":"value","type":"uint256","internalType":"uint256"}],"outputs":[],"stateMutability":"nonpayable"},{"type":"function","name":"decimals","inputs":[],"outputs":[{"name":"","type":"uint8","internalType":"uint8"}],"stateMutability":"view"},{"type":"function","name":"eip712Domain","inputs":[],"outputs":[{"name":"fields","type":"bytes1","internalType":"bytes1"},{"name":"name","type":"string","internalType":"string"},{"name":"version","type":"string","internalType":"string"},{"name":"chainId","type":"uint256","internalType":"uint256"},{"name":"verifyingContract","type":"address","internalType":"address"},{"name":"salt","type":"bytes32","internalType":"bytes32"},{"name":"extensions","type":"uint256[]","internalType":"uint256[]"}],"stateMutability":"view"},{"type":"function","name":"initialize","inputs":[{"name":"initialOwner","type":"address","internalType":"address"},{"name":"initialReserveManager","type":"address","internalType":"address"}],"outputs":[],"stateMutability":"nonpayable"},{"type":"function","name":"isBlocklisted","inputs":[{"name":"account","type":"address","internalType":"address"}],"outputs":[{"name":"","type":"bool","internalType":"bool"}],"stateMutability":"view"},{"type":"function","name":"mint","inputs":[{"name":"account","type":"address","internalType":"address"},{"name":"amount","type":"uint256","internalType":"uint256"}],"outputs":[],"stateMutability":"nonpayable"},{"type":"function","name":"name","inputs":[],"outputs":[{"name":"","type":"string","internalType":"string"}],"stateMutability":"view"},{"type":"function","name":"nonces","inputs":[{"name":"owner","type":"address","internalType":"address"}],"outputs":[{"name":"","type":"uint256","internalType":"uint256"}],"stateMutability":"view"},{"type":"function","name":"nttManager","inputs":[],"outputs":[{"name":"","type":"address","internalType":"address"}],"stateMutability":"view"},{"type":"function","name":"owner","inputs":[],"outputs":[{"name":"","type":"address","internalType":"address"}],"stateMutability":"view"},{"type":"function","name":"pause","inputs":[],"outputs":[],"stateMutability":"nonpayable"},{"type":"function","name":"paused","inputs":[],"outputs":[{"name":"","type":"bool","internalType":"bool"}],"stateMutability":"view"},{"type":"function","name":"permit","inputs":[{"name":"owner","type":"address","internalType":"address"},{"name":"spender","type":"address","internalType":"address"},{"name":"value","type":"uint256","internalType":"uint256"},{"name":"deadline","type":"uint256","internalType":"uint256"},{"name":"v","type":"uint8","internalType":"uint8"},{"name":"r","type":"bytes32","internalType":"bytes32"},{"name":"s","type":"bytes32","internalType":"bytes32"}],"outputs":[],"stateMutability":"nonpayable"},{"type":"function","name":"proxiableUUID","inputs":[],"outputs":[{"name":"","type":"bytes32","internalType":"bytes32"}],"stateMutability":"view"},{"type":"function","name":"renounceOwnership","inputs":[],"outputs":[],"stateMutability":"nonpayable"},{"type":"function","name":"reserveManager","inputs":[],"outputs":[{"name":"","type":"address","internalType":"address"}],"stateMutability":"view"},{"type":"function","name":"setMinter","inputs":[{"name":"newNttManager","type":"address","internalType":"address"}],"outputs":[],"stateMutability":"nonpayable"},{"type":"function","name":"setReserveManager","inputs":[{"name":"newReserveManager","type":"address","internalType":"address"}],"outputs":[],"stateMutability":"nonpayable"},{"type":"function","name":"symbol","inputs":[],"outputs":[{"name":"","type":"string","internalType":"string"}],"stateMutability":"view"},{"type":"function","name":"totalSupply","inputs":[],"outputs":[{"name":"","type":"uint256","internalType":"uint256"}],"stateMutability":"view"},{"type":"function","name":"transfer","inputs":[{"name":"to","type":"address","internalType":"address"},{"name":"value","type":"uint256","internalType":"uint256"}],"outputs":[{"name":"","type":"bool","internalType":"bool"}],"stateMutability":"nonpayable"},{"type":"function","name":"transferFrom","inputs":[{"name":"from","type":"address","internalType":"address"},{"name":"to","type":"address","internalType":"address"},{"name":"value","type":"uint256","internalType":"uint256"}],"outputs":[{"name":"","type":"bool","internalType":"bool"}],"stateMutability":"nonpayable"},{"type":"function","name":"transferOwnership","inputs":[{"name":"newOwner","type":"address","internalType":"address"}],"outputs":[],"stateMutability":"nonpayable"},{"type":"function","name":"transferWithMemo","inputs":[{"name":"to","type":"address","internalType":"address"},{"name":"amount","type":"uint256","internalType":"uint256"},{"name":"memo","type":"bytes32","internalType":"bytes32"}],"outputs":[{"name":"","type":"bool","internalType":"bool"}],"stateMutability":"nonpayable"},{"type":"function","name":"unblocklist","inputs":[{"name":"account","type":"address","internalType":"address"}],"outputs":[],"stateMutability":"nonpayable"},{"type":"function","name":"unpause","inputs":[],"outputs":[],"stateMutability":"nonpayable"},{"type":"function","name":"upgradeToAndCall","inputs":[{"name":"newImplementation","type":"address","internalType":"address"},{"name":"data","type":"bytes","internalType":"bytes"}],"outputs":[],"stateMutability":"payable"},{"type":"event","name":"Approval","inputs":[{"name":"owner","type":"address","indexed":true,"internalType":"address"},{"name":"spender","type":"address","indexed":true,"internalType":"address"},{"name":"value","type":"uint256","indexed":false,"internalType":"uint256"}],"anonymous":false},{"type":"event","name":"BlocklistStatusUpdated","inputs":[{"name":"account","type":"address","indexed":true,"internalType":"address"},{"name":"blocklisted","type":"bool","indexed":false,"internalType":"bool"}],"anonymous":false},{"type":"event","name":"EIP712DomainChanged","inputs":[],"anonymous":false},{"type":"event","name":"Initialized","inputs":[{"name":"version","type":"uint64","indexed":false,"internalType":"uint64"}],"anonymous":false},{"type":"event","name":"Memo","inputs":[{"name":"memo","type":"bytes32","indexed":true,"internalType":"bytes32"}],"anonymous":false},{"type":"event","name":"NewMinter","inputs":[{"name":"previousMinter","type":"address","indexed":false,"internalType":"address"},{"name":"newMinter","type":"address","indexed":false,"internalType":"address"}],"anonymous":false},{"type":"event","name":"NewReserveManager","inputs":[{"name":"reserveManager","type":"address","indexed":false,"internalType":"address"}],"anonymous":false},{"type":"event","name":"OwnershipTransferred","inputs":[{"name":"previousOwner","type":"address","indexed":true,"internalType":"address"},{"name":"newOwner","type":"address","indexed":true,"internalType":"address"}],"anonymous":false},{"type":"event","name":"Paused","inputs":[{"name":"account","type":"address","indexed":false,"internalType":"address"}],"anonymous":false},{"type":"event","name":"Transfer","inputs":[{"name":"from","type":"address","indexed":true,"internalType":"address"},{"name":"to","type":"address","indexed":true,"internalType":"address"},{"name":"value","type":"uint256","indexed":false,"internalType":"uint256"}],"anonymous":false},{"type":"event","name":"Unpaused","inputs":[{"name":"account","type":"address","indexed":false,"internalType":"address"}],"anonymous":false},{"type":"event","name":"Upgraded","inputs":[{"name":"implementation","type":"address","indexed":true,"internalType":"address"}],"anonymous":false},{"type":"error","name":"AddressBlocklisted","inputs":[{"name":"account","type":"address","internalType":"address"}]},{"type":"error","name":"AddressEmptyCode","inputs":[{"name":"target","type":"address","internalType":"address"}]},{"type":"error","name":"CallerNotMinter","inputs":[{"name":"caller","type":"address","internalType":"address"}]},{"type":"error","name":"CallerNotMinterOrReserveManager","inputs":[{"name":"caller","type":"address","internalType":"address"}]},{"type":"error","name":"ECDSAInvalidSignature","inputs":[]},{"type":"error","name":"ECDSAInvalidSignatureLength","inputs":[{"name":"length","type":"uint256","internalType":"uint256"}]},{"type":"error","name":"ECDSAInvalidSignatureS","inputs":[{"name":"s","type":"bytes32","internalType":"bytes32"}]},{"type":"error","name":"ERC1967InvalidImplementation","inputs":[{"name":"implementation","type":"address","internalType":"address"}]},{"type":"error","name":"ERC1967NonPayable","inputs":[]},{"type":"error","name":"ERC20InsufficientAllowance","inputs":[{"name":"spender","type":"address","internalType":"address"},{"name":"allowance","type":"uint256","internalType":"uint256"},{"name":"needed","type":"uint256","internalType":"uint256"}]},{"type":"error","name":"ERC20InsufficientBalance","inputs":[{"name":"sender","type":"address","internalType":"address"},{"name":"balance","type":"uint256","internalType":"uint256"},{"name":"needed","type":"uint256","internalType":"uint256"}]},{"type":"error","name":"ERC20InvalidApprover","inputs":[{"name":"approver","type":"address","internalType":"address"}]},{"type":"error","name":"ERC20InvalidReceiver","inputs":[{"name":"receiver","type":"address","internalType":"address"}]},{"type":"error","name":"ERC20InvalidSender","inputs":[{"name":"sender","type":"address","internalType":"address"}]},{"type":"error","name":"ERC20InvalidSpender","inputs":[{"name":"spender","type":"address","internalType":"address"}]},{"type":"error","name":"ERC2612ExpiredSignature","inputs":[{"name":"deadline","type":"uint256","internalType":"uint256"}]},{"type":"error","name":"ERC2612InvalidSigner","inputs":[{"name":"signer","type":"address","internalType":"address"},{"name":"owner","type":"address","internalType":"address"}]},{"type":"error","name":"EnforcedPause","inputs":[]},{"type":"error","name":"ExpectedPause","inputs":[]},{"type":"error","name":"FailedCall","inputs":[]},{"type":"error","name":"InvalidAccountNonce","inputs":[{"name":"account","type":"address","internalType":"address"},{"name":"currentNonce","type":"uint256","internalType":"uint256"}]},{"type":"error","name":"InvalidInitialization","inputs":[]},{"type":"error","name":"InvalidMinterZeroAddress","inputs":[]},{"type":"error","name":"InvalidZeroAddress","inputs":[]},{"type":"error","name":"NotInitializing","inputs":[]},{"type":"error","name":"OwnableInvalidOwner","inputs":[{"name":"owner","type":"address","internalType":"address"}]},{"type":"error","name":"OwnableUnauthorizedAccount","inputs":[{"name":"account","type":"address","internalType":"address"}]},{"type":"error","name":"UUPSUnauthorizedCallContext","inputs":[]},{"type":"error","name":"UUPSUnsupportedProxiableUUID","inputs":[{"name":"slot","type":"bytes32","internalType":"bytes32"}]}],"bytecode":{"object":"0x60a06040523073ffffffffffffffffffffffffffffffffffffffff1660809073ffffffffffffffffffffffffffffffffffffffff16815250348015610042575f5ffd5b5061005161005660201b60201c565b6101d1565b5f61006561015460201b60201c565b9050805f0160089054906101000a900460ff16156100af576040517ff92ee8a900000000000000000000000000000000000000000000000000000000815260040160405180910390fd5b67ffffffffffffffff8016815f015f9054906101000a900467ffffffffffffffff1667ffffffffffffffff16146101515767ffffffffffffffff815f015f6101000a81548167ffffffffffffffff021916908367ffffffffffffffff1602179055507fc7f505b2f371ae2175ee4913f4499e1f2633a7b5936321eed1cdaeb6115181d267ffffffffffffffff60405161014891906101b8565b60405180910390a15b50565b5f5f61016461016d60201b60201c565b90508091505090565b5f7ff0c57e16840df040f15088dc2f81fe391c3923bec73e23a9662efc9c229c6a005f1b905090565b5f67ffffffffffffffff82169050919050565b6101b281610196565b82525050565b5f6020820190506101cb5f8301846101a9565b92915050565b608051613ef86101f75f395f8181611d1001528181611d650152611f1f0152613ef85ff3fe608060405260043610610203575f3560e01c806379cc679011610117578063ad3cb1cc1161009f578063dd62ed3e1161006e578063dd62ed3e14610721578063df7da7541461075d578063e5c7160b14610785578063f2fde38b146107ad578063fca3b5aa146107d557610203565b8063ad3cb1cc1461067d578063ae0905ef146106a7578063bb004abc146106cf578063d505accf146106f957610203565b80638da5cb5b116100e65780638da5cb5b146105755780638e204c431461059f57806395777d59146105db57806395d89b4114610617578063a9059cbb1461064157610203565b806379cc6790146104cb5780637ecebe00146104f35780638456cb591461052f57806384b0196e1461054557610203565b80633f4ba83a1161019a5780634f1ef286116101695780634f1ef2861461040957806352d1902d146104255780635c975abb1461044f57806370a0823114610479578063715018a6146104b557610203565b80633f4ba83a1461037b57806340c10f191461039157806342966c68146103b9578063485cc955146103e157610203565b806324fb21db116101d657806324fb21db146102d3578063313ce567146102fd57806332cb6b0c146103275780633644e5151461035157610203565b806306fdde0314610207578063095ea7b31461023157806318160ddd1461026d57806323b872dd14610297575b5f5ffd5b348015610212575f5ffd5b5061021b6107fd565b60405161022891906131fb565b60405180910390f35b34801561023c575f5ffd5b50610257600480360381019061025291906132b9565b61089b565b6040516102649190613311565b60405180910390f35b348015610278575f5ffd5b506102816108bd565b60405161028e9190613339565b60405180910390f35b3480156102a2575f5ffd5b506102bd60048036038101906102b89190613352565b6108d4565b6040516102ca9190613311565b60405180910390f35b3480156102de575f5ffd5b506102e7610902565b6040516102f491906133b1565b60405180910390f35b348015610308575f5ffd5b50610311610926565b60405161031e91906133e5565b60405180910390f35b348015610332575f5ffd5b5061033b61092e565b6040516103489190613339565b60405180910390f35b34801561035c575f5ffd5b5061036561093e565b6040516103729190613416565b60405180910390f35b348015610386575f5ffd5b5061038f61094c565b005b34801561039c575f5ffd5b506103b760048036038101906103b291906132b9565b61095e565b005b3480156103c4575f5ffd5b506103df60048036038101906103da919061342f565b610b85565b005b3480156103ec575f5ffd5b506104076004803603810190610402919061345a565b610cbc565b005b610423600480360381019061041e91906135c4565b610f54565b005b348015610430575f5ffd5b50610439610f73565b6040516104469190613416565b60405180910390f35b34801561045a575f5ffd5b50610463610fa4565b6040516104709190613311565b60405180910390f35b348015610484575f5ffd5b5061049f600480360381019061049a919061361e565b610fc6565b6040516104ac9190613339565b60405180910390f35b3480156104c0575f5ffd5b506104c9611019565b005b3480156104d6575f5ffd5b506104f160048036038101906104ec91906132b9565b61102c565b005b3480156104fe575f5ffd5b506105196004803603810190610514919061361e565b61104c565b6040516105269190613339565b60405180910390f35b34801561053a575f5ffd5b5061054361105d565b005b348015610550575f5ffd5b5061055961106f565b60405161056c979695949392919061373a565b60405180910390f35b348015610580575f5ffd5b50610589611114565b60405161059691906133b1565b60405180910390f35b3480156105aa575f5ffd5b506105c560048036038101906105c0919061361e565b611149565b6040516105d29190613311565b60405180910390f35b3480156105e6575f5ffd5b5061060160048036038101906105fc91906137e6565b61119b565b60405161060e9190613311565b60405180910390f35b348015610622575f5ffd5b5061062b6111e8565b60405161063891906131fb565b60405180910390f35b34801561064c575f5ffd5b50610667600480360381019061066291906132b9565b611286565b6040516106749190613311565b60405180910390f35b348015610688575f5ffd5b506106916112a8565b60405161069e91906131fb565b60405180910390f35b3480156106b2575f5ffd5b506106cd60048036038101906106c8919061361e565b6112e1565b005b3480156106da575f5ffd5b506106e361138e565b6040516106f091906133b1565b60405180910390f35b348015610704575f5ffd5b5061071f600480360381019061071a9190613860565b6113b3565b005b34801561072c575f5ffd5b506107476004803603810190610742919061345a565b6114f8565b6040516107549190613339565b60405180910390f35b348015610768575f5ffd5b50610783600480360381019061077e919061361e565b611588565b005b348015610790575f5ffd5b506107ab60048036038101906107a6919061361e565b61166f565b005b3480156107b8575f5ffd5b506107d360048036038101906107ce919061361e565b61171e565b005b3480156107e0575f5ffd5b506107fb60048036038101906107f6919061361e565b6117a2565b005b60605f6108086118af565b90508060030180546108199061392a565b80601f01602080910402602001604051908101604052809291908181526020018280546108459061392a565b80156108905780601f1061086757610100808354040283529160200191610890565b820191905f5260205f20905b81548152906001019060200180831161087357829003601f168201915b505050505091505090565b5f5f6108a56118d6565b90506108b28185856118dd565b600191505092915050565b5f5f6108c76118af565b9050806002015491505090565b5f5f6108de6118d6565b90506108eb8582856118ef565b6108f6858585611982565b60019150509392505050565b5f5f9054906101000a900473ffffffffffffffffffffffffffffffffffffffff1681565b5f6012905090565b6b033b2e3c9fd0803ce800000081565b5f610947611a72565b905090565b610954611a80565b61095c611b07565b565b5f5f9054906101000a900473ffffffffffffffffffffffffffffffffffffffff1673ffffffffffffffffffffffffffffffffffffffff163373ffffffffffffffffffffffffffffffffffffffff1614158015610a07575060015f9054906101000a900473ffffffffffffffffffffffffffffffffffffffff1673ffffffffffffffffffffffffffffffffffffffff163373ffffffffffffffffffffffffffffffffffffffff1614155b8015610a465750610a16611114565b73ffffffffffffffffffffffffffffffffffffffff163373ffffffffffffffffffffffffffffffffffffffff1614155b15610a8857336040517fc43e497a000000000000000000000000000000000000000000000000000000008152600401610a7f91906133b1565b60405180910390fd5b8160025f8273ffffffffffffffffffffffffffffffffffffffff1673ffffffffffffffffffffffffffffffffffffffff1681526020019081526020015f205f9054906101000a900460ff1615610b1557806040517fdb9ecf68000000000000000000000000000000000000000000000000000000008152600401610b0c91906133b1565b60405180910390fd5b6b033b2e3c9fd0803ce800000082610b2b6108bd565b610b359190613987565b1115610b76576040517f08c379a0000000000000000000000000000000000000000000000000000000008152600401610b6d90613a04565b60405180910390fd5b610b808383611b75565b505050565b5f5f9054906101000a900473ffffffffffffffffffffffffffffffffffffffff1673ffffffffffffffffffffffffffffffffffffffff163373ffffffffffffffffffffffffffffffffffffffff1614158015610c2e575060015f9054906101000a900473ffffffffffffffffffffffffffffffffffffffff1673ffffffffffffffffffffffffffffffffffffffff163373ffffffffffffffffffffffffffffffffffffffff1614155b8015610c6d5750610c3d611114565b73ffffffffffffffffffffffffffffffffffffffff163373ffffffffffffffffffffffffffffffffffffffff1614155b15610caf57336040517fc43e497a000000000000000000000000000000000000000000000000000000008152600401610ca691906133b1565b60405180910390fd5b610cb93382611bf4565b50565b5f610cc5611c73565b90505f815f0160089054906101000a900460ff161590505f825f015f9054906101000a900467ffffffffffffffff1690505f5f8267ffffffffffffffff16148015610d0d5750825b90505f60018367ffffffffffffffff16148015610d4057505f3073ffffffffffffffffffffffffffffffffffffffff163b145b905081158015610d4e575080155b15610d85576040517ff92ee8a900000000000000000000000000000000000000000000000000000000815260040160405180910390fd5b6001855f015f6101000a81548167ffffffffffffffff021916908367ffffffffffffffff1602179055508315610dd2576001855f0160086101000a81548160ff0219169083151502179055505b610e466040518060400160405280600881526020017f51426974636f696e0000000000000000000000000000000000000000000000008152506040518060400160405280600381526020017f5142430000000000000000000000000000000000000000000000000000000000815250611c86565b610e4e611c9c565b610e56611ca6565b610e946040518060400160405280600881526020017f51426974636f696e000000000000000000000000000000000000000000000000815250611cb0565b610e9d87611cfa565b8560015f6101000a81548173ffffffffffffffffffffffffffffffffffffffff021916908373ffffffffffffffffffffffffffffffffffffffff160217905550610ef18769d3c21bcecceda1000000611b75565b8315610f4b575f855f0160086101000a81548160ff0219169083151502179055507fc7f505b2f371ae2175ee4913f4499e1f2633a7b5936321eed1cdaeb6115181d26001604051610f429190613a77565b60405180910390a15b50505050505050565b610f5c611d0e565b610f6582611df4565b610f6f8282611dff565b5050565b5f610f7c611f1d565b7f360894a13ba1a3210667c828492db98dca3e2076cc3735a920a3ca505d382bbc5f1b905090565b5f5f610fae611fa4565b9050805f015f9054906101000a900460ff1691505090565b5f5f610fd06118af565b9050805f015f8473ffffffffffffffffffffffffffffffffffffffff1673ffffffffffffffffffffffffffffffffffffffff1681526020019081526020015f2054915050919050565b611021611a80565b61102a5f611fcb565b565b61103e826110386118d6565b836118ef565b6110488282611bf4565b5050565b5f6110568261209c565b9050919050565b611065611a80565b61106d6120ef565b565b5f6060805f5f5f606061108061215e565b6110886121fc565b46305f5f1b5f67ffffffffffffffff8111156110a7576110a66134a0565b5b6040519080825280602002602001820160405280156110d55781602001602082028036833780820191505090505b507f0f00000000000000000000000000000000000000000000000000000000000000959493929190965096509650965096509650965090919293949596565b5f5f61111e61229a565b9050805f015f9054906101000a900473ffffffffffffffffffffffffffffffffffffffff1691505090565b5f60025f8373ffffffffffffffffffffffffffffffffffffffff1673ffffffffffffffffffffffffffffffffffffffff1681526020019081526020015f205f9054906101000a900460ff169050919050565b5f5f6111a78585611286565b905080156111dd57827f8751b2deae6b931d081b852087a006c58bdee395b751d53f0f60993af9ec8f6f60405160405180910390a25b809150509392505050565b60605f6111f36118af565b90508060040180546112049061392a565b80601f01602080910402602001604051908101604052809291908181526020018280546112309061392a565b801561127b5780601f106112525761010080835404028352916020019161127b565b820191905f5260205f20905b81548152906001019060200180831161125e57829003601f168201915b505050505091505090565b5f5f6112906118d6565b905061129d818585611982565b600191505092915050565b6040518060400160405280600581526020017f352e302e3000000000000000000000000000000000000000000000000000000081525081565b6112e9611a80565b5f60025f8373ffffffffffffffffffffffffffffffffffffffff1673ffffffffffffffffffffffffffffffffffffffff1681526020019081526020015f205f6101000a81548160ff0219169083151502179055508073ffffffffffffffffffffffffffffffffffffffff167f285d30726c52fa6d937c831072c13afa1e31b5ec0c0c2c7ed72f48b59fa95e605f6040516113839190613311565b60405180910390a250565b60015f9054906101000a900473ffffffffffffffffffffffffffffffffffffffff1681565b834211156113f857836040517f627913020000000000000000000000000000000000000000000000000000000081526004016113ef9190613339565b60405180910390fd5b5f7f6e71edae12b1b97f4d1f60370fef10105fa2faae0126114a169c64845d6126c98888886114268c6122c1565b8960405160200161143c96959493929190613a90565b6040516020818303038152906040528051906020012090505f61145e82612321565b90505f61146d8287878761233a565b90508973ffffffffffffffffffffffffffffffffffffffff168173ffffffffffffffffffffffffffffffffffffffff16146114e157808a6040517f4b800e460000000000000000000000000000000000000000000000000000000081526004016114d8929190613aef565b60405180910390fd5b6114ec8a8a8a6118dd565b50505050505050505050565b5f5f6115026118af565b9050806001015f8573ffffffffffffffffffffffffffffffffffffffff1673ffffffffffffffffffffffffffffffffffffffff1681526020019081526020015f205f8473ffffffffffffffffffffffffffffffffffffffff1673ffffffffffffffffffffffffffffffffffffffff1681526020019081526020015f205491505092915050565b611590611a80565b5f73ffffffffffffffffffffffffffffffffffffffff168173ffffffffffffffffffffffffffffffffffffffff16036115f5576040517ff6b2911f00000000000000000000000000000000000000000000000000000000815260040160405180910390fd5b8060015f6101000a81548173ffffffffffffffffffffffffffffffffffffffff021916908373ffffffffffffffffffffffffffffffffffffffff1602179055507f2e435ba5b382a86d185a3fc42e5a5f5a0d3e3371d63b354027ee0a68181693fd8160405161166491906133b1565b60405180910390a150565b611677611a80565b600160025f8373ffffffffffffffffffffffffffffffffffffffff1673ffffffffffffffffffffffffffffffffffffffff1681526020019081526020015f205f6101000a81548160ff0219169083151502179055508073ffffffffffffffffffffffffffffffffffffffff167f285d30726c52fa6d937c831072c13afa1e31b5ec0c0c2c7ed72f48b59fa95e6060016040516117139190613311565b60405180910390a250565b611726611a80565b5f73ffffffffffffffffffffffffffffffffffffffff168173ffffffffffffffffffffffffffffffffffffffff1603611796575f6040517f1e4fbdf700000000000000000000000000000000000000000000000000000000815260040161178d91906133b1565b60405180910390fd5b61179f81611fcb565b50565b6117aa611a80565b5f73ffffffffffffffffffffffffffffffffffffffff168173ffffffffffffffffffffffffffffffffffffffff160361180f576040517f04a208c700000000000000000000000000000000000000000000000000000000815260040160405180910390fd5b5f5f5f9054906101000a900473ffffffffffffffffffffffffffffffffffffffff169050815f5f6101000a81548173ffffffffffffffffffffffffffffffffffffffff021916908373ffffffffffffffffffffffffffffffffffffffff1602179055507f0b5e7be615a67a819aff3f47c967d1535cead1b98db60fafdcbf22dcaa8fa5a981836040516118a3929190613aef565b60405180910390a15050565b5f7f52c63247e1f47db19d5ce0460030c497f067ca4cebf71ba98eeadabe20bace00905090565b5f33905090565b6118ea8383836001612368565b505050565b5f6118fa84846114f8565b90507fffffffffffffffffffffffffffffffffffffffffffffffffffffffffffffffff81101561197c578181101561196d578281836040517ffb8f41b200000000000000000000000000000000000000000000000000000000815260040161196493929190613b16565b60405180910390fd5b61197b84848484035f612368565b5b50505050565b5f73ffffffffffffffffffffffffffffffffffffffff168373ffffffffffffffffffffffffffffffffffffffff16036119f2575f6040517f96c6fd1e0000000000000000000000000000000000000000000000000000000081526004016119e991906133b1565b60405180910390fd5b5f73ffffffffffffffffffffffffffffffffffffffff168273ffffffffffffffffffffffffffffffffffffffff1603611a62575f6040517fec442f05000000000000000000000000000000000000000000000000000000008152600401611a5991906133b1565b60405180910390fd5b611a6d838383612545565b505050565b5f611a7b6126d5565b905090565b611a886118d6565b73ffffffffffffffffffffffffffffffffffffffff16611aa6611114565b73ffffffffffffffffffffffffffffffffffffffff1614611b0557611ac96118d6565b6040517f118cdaa7000000000000000000000000000000000000000000000000000000008152600401611afc91906133b1565b60405180910390fd5b565b611b0f612738565b5f611b18611fa4565b90505f815f015f6101000a81548160ff0219169083151502179055507f5db9ee0a495bf2e6ff9c91a7834c1ba4fdd244a5e8aa4e537bd38aeae4b073aa611b5d6118d6565b604051611b6a91906133b1565b60405180910390a150565b5f73ffffffffffffffffffffffffffffffffffffffff168273ffffffffffffffffffffffffffffffffffffffff1603611be5575f6040517fec442f05000000000000000000000000000000000000000000000000000000008152600401611bdc91906133b1565b60405180910390fd5b611bf05f8383612545565b5050565b5f73ffffffffffffffffffffffffffffffffffffffff168273ffffffffffffffffffffffffffffffffffffffff1603611c64575f6040517f96c6fd1e000000000000000000000000000000000000000000000000000000008152600401611c5b91906133b1565b60405180910390fd5b611c6f825f83612545565b5050565b5f5f611c7d612778565b90508091505090565b611c8e6127a1565b611c9882826127e1565b5050565b611ca46127a1565b565b611cae6127a1565b565b611cb86127a1565b611cf7816040518060400160405280600181526020017f310000000000000000000000000000000000000000000000000000000000000081525061281d565b50565b611d026127a1565b611d0b81612859565b50565b7f000000000000000000000000000000000000000000000000000000000000000073ffffffffffffffffffffffffffffffffffffffff163073ffffffffffffffffffffffffffffffffffffffff161480611dbb57507f000000000000000000000000000000000000000000000000000000000000000073ffffffffffffffffffffffffffffffffffffffff16611da26128dd565b73ffffffffffffffffffffffffffffffffffffffff1614155b15611df2576040517fe07c8dba00000000000000000000000000000000000000000000000000000000815260040160405180910390fd5b565b611dfc611a80565b50565b8173ffffffffffffffffffffffffffffffffffffffff166352d1902d6040518163ffffffff1660e01b8152600401602060405180830381865afa925050508015611e6757506040513d601f19601f82011682018060405250810190611e649190613b5f565b60015b611ea857816040517f4c9c8ce3000000000000000000000000000000000000000000000000000000008152600401611e9f91906133b1565b60405180910390fd5b7f360894a13ba1a3210667c828492db98dca3e2076cc3735a920a3ca505d382bbc5f1b8114611f0e57806040517faa1d49a4000000000000000000000000000000000000000000000000000000008152600401611f059190613416565b60405180910390fd5b611f188383612930565b505050565b7f000000000000000000000000000000000000000000000000000000000000000073ffffffffffffffffffffffffffffffffffffffff163073ffffffffffffffffffffffffffffffffffffffff1614611fa2576040517fe07c8dba00000000000000000000000000000000000000000000000000000000815260040160405180910390fd5b565b5f7fcd5ed15c6e187e77e9aee88184c21f4f2182ab5827cb3b7e07fbedcd63f03300905090565b5f611fd461229a565b90505f815f015f9054906101000a900473ffffffffffffffffffffffffffffffffffffffff16905082825f015f6101000a81548173ffffffffffffffffffffffffffffffffffffffff021916908373ffffffffffffffffffffffffffffffffffffffff1602179055508273ffffffffffffffffffffffffffffffffffffffff168173ffffffffffffffffffffffffffffffffffffffff167f8be0079c531659141344cd1fd0a4f28419497f9722a3daafe3b4186f6b6457e060405160405180910390a3505050565b5f5f6120a66129a2565b9050805f015f8473ffffffffffffffffffffffffffffffffffffffff1673ffffffffffffffffffffffffffffffffffffffff1681526020019081526020015f2054915050919050565b6120f76129c9565b5f612100611fa4565b90506001815f015f6101000a81548160ff0219169083151502179055507f62e78cea01bee320cd4e420270b5ea74000d11b0c9f74754ebdbfc544b05a2586121466118d6565b60405161215391906133b1565b60405180910390a150565b60605f612169612a0a565b905080600201805461217a9061392a565b80601f01602080910402602001604051908101604052809291908181526020018280546121a69061392a565b80156121f15780601f106121c8576101008083540402835291602001916121f1565b820191905f5260205f20905b8154815290600101906020018083116121d457829003601f168201915b505050505091505090565b60605f612207612a0a565b90508060030180546122189061392a565b80601f01602080910402602001604051908101604052809291908181526020018280546122449061392a565b801561228f5780601f106122665761010080835404028352916020019161228f565b820191905f5260205f20905b81548152906001019060200180831161227257829003601f168201915b505050505091505090565b5f7f9016d09d72d40fdae2fd8ceac6b6234c7706214fd39c1cd1e609a0528c199300905090565b5f5f6122cb6129a2565b9050805f015f8473ffffffffffffffffffffffffffffffffffffffff1673ffffffffffffffffffffffffffffffffffffffff1681526020019081526020015f205f81548092919060010191905055915050919050565b5f61233361232d611a72565b83612a31565b9050919050565b5f5f5f5f61234a88888888612a71565b92509250925061235a8282612b58565b829350505050949350505050565b5f6123716118af565b90505f73ffffffffffffffffffffffffffffffffffffffff168573ffffffffffffffffffffffffffffffffffffffff16036123e3575f6040517fe602df050000000000000000000000000000000000000000000000000000000081526004016123da91906133b1565b60405180910390fd5b5f73ffffffffffffffffffffffffffffffffffffffff168473ffffffffffffffffffffffffffffffffffffffff1603612453575f6040517f94280d6200000000000000000000000000000000000000000000000000000000815260040161244a91906133b1565b60405180910390fd5b82816001015f8773ffffffffffffffffffffffffffffffffffffffff1673ffffffffffffffffffffffffffffffffffffffff1681526020019081526020015f205f8673ffffffffffffffffffffffffffffffffffffffff1673ffffffffffffffffffffffffffffffffffffffff1681526020019081526020015f2081905550811561253e578373ffffffffffffffffffffffffffffffffffffffff168573ffffffffffffffffffffffffffffffffffffffff167f8c5be1e5ebec7d5bd14f71427d1e84f3dd0314c0f7b2291e5b200ac8c7c3b925856040516125359190613339565b60405180910390a35b5050505050565b5f73ffffffffffffffffffffffffffffffffffffffff168373ffffffffffffffffffffffffffffffffffffffff16146126055760025f8473ffffffffffffffffffffffffffffffffffffffff1673ffffffffffffffffffffffffffffffffffffffff1681526020019081526020015f205f9054906101000a900460ff161561260457826040517fdb9ecf680000000000000000000000000000000000000000000000000000000081526004016125fb91906133b1565b60405180910390fd5b5b5f73ffffffffffffffffffffffffffffffffffffffff168273ffffffffffffffffffffffffffffffffffffffff16146126c55760025f8373ffffffffffffffffffffffffffffffffffffffff1673ffffffffffffffffffffffffffffffffffffffff1681526020019081526020015f205f9054906101000a900460ff16156126c457816040517fdb9ecf680000000000000000000000000000000000000000000000000000000081526004016126bb91906133b1565b60405180910390fd5b5b6126d0838383612cba565b505050565b5f7f8b73c3c69bb8fe3d512ecc4cf759cc79239f7b179b0ffacaa9a75d522b39400f6126ff612cd2565b612707612ce7565b463060405160200161271d959493929190613b8a565b60405160208183030381529060405280519060200120905090565b612740610fa4565b612776576040517f8dfc202b00000000000000000000000000000000000000000000000000000000815260040160405180910390fd5b565b5f7ff0c57e16840df040f15088dc2f81fe391c3923bec73e23a9662efc9c229c6a005f1b905090565b6127a9612cfc565b6127df576040517fd7e6bcf800000000000000000000000000000000000000000000000000000000815260040160405180910390fd5b565b6127e96127a1565b5f6127f26118af565b9050828160030190816128059190613d83565b50818160040190816128179190613d83565b50505050565b6128256127a1565b5f61282e612a0a565b9050828160020190816128419190613d83565b50818160030190816128539190613d83565b50505050565b6128616127a1565b5f73ffffffffffffffffffffffffffffffffffffffff168173ffffffffffffffffffffffffffffffffffffffff16036128d1575f6040517f1e4fbdf70000000000000000000000000000000000000000000000000000000081526004016128c891906133b1565b60405180910390fd5b6128da81611fcb565b50565b5f6129097f360894a13ba1a3210667c828492db98dca3e2076cc3735a920a3ca505d382bbc5f1b612d1a565b5f015f9054906101000a900473ffffffffffffffffffffffffffffffffffffffff16905090565b61293982612d23565b8173ffffffffffffffffffffffffffffffffffffffff167fbc7cd75a20ee27fd9adebab32041f755214dbc6bffa90cc0225b39da2e5c2d3b60405160405180910390a25f815111156129955761298f8282612dec565b5061299e565b61299d612edd565b5b5050565b5f7f5ab42ced628888259c08ac98db1eb0cf702fc1501344311d8b100cd1bfe4bb00905090565b6129d1610fa4565b15612a08576040517fd93c066500000000000000000000000000000000000000000000000000000000815260040160405180910390fd5b565b5f7fa16a46d94261c7517cc8ff89f61c0ce93598e3c849801011dee649a6a557d100905090565b5f6040517f190100000000000000000000000000000000000000000000000000000000000081528360028201528260228201526042812091505092915050565b5f5f5f7f7fffffffffffffffffffffffffffffff5d576e7357a4501ddfe92f46681b20a0845f1c1115612aad575f600385925092509250612b4e565b5f6001888888886040515f8152602001604052604051612ad09493929190613e52565b6020604051602081039080840390855afa158015612af0573d5f5f3e3d5ffd5b5050506020604051035190505f73ffffffffffffffffffffffffffffffffffffffff168173ffffffffffffffffffffffffffffffffffffffff1603612b41575f60015f5f1b93509350935050612b4e565b805f5f5f1b935093509350505b9450945094915050565b5f6003811115612b6b57612b6a613e95565b5b826003811115612b7e57612b7d613e95565b5b0315612cb65760016003811115612b9857612b97613e95565b5b826003811115612bab57612baa613e95565b5b03612be2576040517ff645eedf00000000000000000000000000000000000000000000000000000000815260040160405180910390fd5b60026003811115612bf657612bf5613e95565b5b826003811115612c0957612c08613e95565b5b03612c4d57805f1c6040517ffce698f7000000000000000000000000000000000000000000000000000000008152600401612c449190613339565b60405180910390fd5b600380811115612c6057612c5f613e95565b5b826003811115612c7357612c72613e95565b5b03612cb557806040517fd78bce0c000000000000000000000000000000000000000000000000000000008152600401612cac9190613416565b60405180910390fd5b5b5050565b612cc26129c9565b612ccd838383612f19565b505050565b5f612cdb61215e565b80519060200120905090565b5f612cf06121fc565b80519060200120905090565b5f612d05611c73565b5f0160089054906101000a900460ff16905090565b5f819050919050565b5f8173ffffffffffffffffffffffffffffffffffffffff163b03612d7e57806040517f4c9c8ce3000000000000000000000000000000000000000000000000000000008152600401612d7591906133b1565b60405180910390fd5b80612daa7f360894a13ba1a3210667c828492db98dca3e2076cc3735a920a3ca505d382bbc5f1b612d1a565b5f015f6101000a81548173ffffffffffffffffffffffffffffffffffffffff021916908373ffffffffffffffffffffffffffffffffffffffff16021790555050565b60605f612df98484613148565b9050808015612e2f57505f612e0c61315c565b1180612e2e57505f8473ffffffffffffffffffffffffffffffffffffffff163b115b5b15612e4457612e3c613163565b915050612ed7565b8015612e8757836040517f9996b315000000000000000000000000000000000000000000000000000000008152600401612e7e91906133b1565b60405180910390fd5b5f612e9061315c565b1115612ea357612e9e613180565b612ed5565b6040517fd6bda27500000000000000000000000000000000000000000000000000000000815260040160405180910390fd5b505b92915050565b5f341115612f17576040517fb398979f00000000000000000000000000000000000000000000000000000000815260040160405180910390fd5b565b5f612f226118af565b90505f73ffffffffffffffffffffffffffffffffffffffff168473ffffffffffffffffffffffffffffffffffffffff1603612f765781816002015f828254612f6a9190613987565b92505081905550613048565b5f815f015f8673ffffffffffffffffffffffffffffffffffffffff1673ffffffffffffffffffffffffffffffffffffffff1681526020019081526020015f2054905082811015613001578481846040517fe450d38c000000000000000000000000000000000000000000000000000000008152600401612ff893929190613b16565b60405180910390fd5b828103825f015f8773ffffffffffffffffffffffffffffffffffffffff1673ffffffffffffffffffffffffffffffffffffffff1681526020019081526020015f2081905550505b5f73ffffffffffffffffffffffffffffffffffffffff168373ffffffffffffffffffffffffffffffffffffffff16036130915781816002015f82825403925050819055506130dd565b81815f015f8573ffffffffffffffffffffffffffffffffffffffff1673ffffffffffffffffffffffffffffffffffffffff1681526020019081526020015f205f82825401925050819055505b8273ffffffffffffffffffffffffffffffffffffffff168473ffffffffffffffffffffffffffffffffffffffff167fddf252ad1be2c89b69c2b068fc378daa952ba7f163c4a11628f55a4df523b3ef8460405161313a9190613339565b60405180910390a350505050565b5f5f5f835160208501865af4905092915050565b5f3d905090565b606060405190503d81523d5f602083013e3d602001810160405290565b6040513d5f823e3d81fd5b5f81519050919050565b5f82825260208201905092915050565b8281835e5f83830152505050565b5f601f19601f8301169050919050565b5f6131cd8261318b565b6131d78185613195565b93506131e78185602086016131a5565b6131f0816131b3565b840191505092915050565b5f6020820190508181035f83015261321381846131c3565b905092915050565b5f604051905090565b5f5ffd5b5f5ffd5b5f73ffffffffffffffffffffffffffffffffffffffff82169050919050565b5f6132558261322c565b9050919050565b6132658161324b565b811461326f575f5ffd5b50565b5f813590506132808161325c565b92915050565b5f819050919050565b61329881613286565b81146132a2575f5ffd5b50565b5f813590506132b38161328f565b92915050565b5f5f604083850312156132cf576132ce613224565b5b5f6132dc85828601613272565b92505060206132ed858286016132a5565b9150509250929050565b5f8115159050919050565b61330b816132f7565b82525050565b5f6020820190506133245f830184613302565b92915050565b61333381613286565b82525050565b5f60208201905061334c5f83018461332a565b92915050565b5f5f5f6060848603121561336957613368613224565b5b5f61337686828701613272565b935050602061338786828701613272565b9250506040613398868287016132a5565b9150509250925092565b6133ab8161324b565b82525050565b5f6020820190506133c45f8301846133a2565b92915050565b5f60ff82169050919050565b6133df816133ca565b82525050565b5f6020820190506133f85f8301846133d6565b92915050565b5f819050919050565b613410816133fe565b82525050565b5f6020820190506134295f830184613407565b92915050565b5f6020828403121561344457613443613224565b5b5f613451848285016132a5565b91505092915050565b5f5f604083850312156134705761346f613224565b5b5f61347d85828601613272565b925050602061348e85828601613272565b9150509250929050565b5f5ffd5b5f5ffd5b7f4e487b71000000000000000000000000000000000000000000000000000000005f52604160045260245ffd5b6134d6826131b3565b810181811067ffffffffffffffff821117156134f5576134f46134a0565b5b80604052505050565b5f61350761321b565b905061351382826134cd565b919050565b5f67ffffffffffffffff821115613532576135316134a0565b5b61353b826131b3565b9050602081019050919050565b828183375f83830152505050565b5f61356861356384613518565b6134fe565b9050828152602081018484840111156135845761358361349c565b5b61358f848285613548565b509392505050565b5f82601f8301126135ab576135aa613498565b5b81356135bb848260208601613556565b91505092915050565b5f5f604083850312156135da576135d9613224565b5b5f6135e785828601613272565b925050602083013567ffffffffffffffff81111561360857613607613228565b5b61361485828601613597565b9150509250929050565b5f6020828403121561363357613632613224565b5b5f61364084828501613272565b91505092915050565b5f7fff0000000000000000000000000000000000000000000000000000000000000082169050919050565b61367d81613649565b82525050565b5f81519050919050565b5f82825260208201905092915050565b5f819050602082019050919050565b6136b581613286565b82525050565b5f6136c683836136ac565b60208301905092915050565b5f602082019050919050565b5f6136e882613683565b6136f2818561368d565b93506136fd8361369d565b805f5b8381101561372d57815161371488826136bb565b975061371f836136d2565b925050600181019050613700565b5085935050505092915050565b5f60e08201905061374d5f83018a613674565b818103602083015261375f81896131c3565b9050818103604083015261377381886131c3565b9050613782606083018761332a565b61378f60808301866133a2565b61379c60a0830185613407565b81810360c08301526137ae81846136de565b905098975050505050505050565b6137c5816133fe565b81146137cf575f5ffd5b50565b5f813590506137e0816137bc565b92915050565b5f5f5f606084860312156137fd576137fc613224565b5b5f61380a86828701613272565b935050602061381b868287016132a5565b925050604061382c868287016137d2565b9150509250925092565b61383f816133ca565b8114613849575f5ffd5b50565b5f8135905061385a81613836565b92915050565b5f5f5f5f5f5f5f60e0888a03121561387b5761387a613224565b5b5f6138888a828b01613272565b97505060206138998a828b01613272565b96505060406138aa8a828b016132a5565b95505060606138bb8a828b016132a5565b94505060806138cc8a828b0161384c565b93505060a06138dd8a828b016137d2565b92505060c06138ee8a828b016137d2565b91505092959891949750929550565b7f4e487b71000000000000000000000000000000000000000000000000000000005f52602260045260245ffd5b5f600282049050600182168061394157607f821691505b602082108103613954576139536138fd565b5b50919050565b7f4e487b71000000000000000000000000000000000000000000000000000000005f52601160045260245ffd5b5f61399182613286565b915061399c83613286565b92508282019050808211156139b4576139b361395a565b5b92915050565b7f4d617820737570706c79206578636565646564000000000000000000000000005f82015250565b5f6139ee601383613195565b91506139f9826139ba565b602082019050919050565b5f6020820190508181035f830152613a1b816139e2565b9050919050565b5f819050919050565b5f67ffffffffffffffff82169050919050565b5f819050919050565b5f613a61613a5c613a5784613a22565b613a3e565b613a2b565b9050919050565b613a7181613a47565b82525050565b5f602082019050613a8a5f830184613a68565b92915050565b5f60c082019050613aa35f830189613407565b613ab060208301886133a2565b613abd60408301876133a2565b613aca606083018661332a565b613ad7608083018561332a565b613ae460a083018461332a565b979650505050505050565b5f604082019050613b025f8301856133a2565b613b0f60208301846133a2565b9392505050565b5f606082019050613b295f8301866133a2565b613b36602083018561332a565b613b43604083018461332a565b949350505050565b5f81519050613b59816137bc565b92915050565b5f60208284031215613b7457613b73613224565b5b5f613b8184828501613b4b565b91505092915050565b5f60a082019050613b9d5f830188613407565b613baa6020830187613407565b613bb76040830186613407565b613bc4606083018561332a565b613bd160808301846133a2565b9695505050505050565b5f819050815f5260205f209050919050565b5f6020601f8301049050919050565b5f82821b905092915050565b5f60088302613c377fffffffffffffffffffffffffffffffffffffffffffffffffffffffffffffffff82613bfc565b613c418683613bfc565b95508019841693508086168417925050509392505050565b5f613c73613c6e613c6984613286565b613a3e565b613286565b9050919050565b5f819050919050565b613c8c83613c59565b613ca0613c9882613c7a565b848454613c08565b825550505050565b5f5f905090565b613cb7613ca8565b613cc2818484613c83565b505050565b5f5b82811015613ce857613cdd5f828401613caf565b600181019050613cc9565b505050565b601f821115613d3b5782821115613d3a57613d0781613bdb565b613d1083613bed565b613d1985613bed565b6020861015613d26575f90505b808301613d3582840382613cc7565b505050505b5b505050565b5f82821c905092915050565b5f613d5b5f1984600802613d40565b1980831691505092915050565b5f613d738383613d4c565b9150826002028217905092915050565b613d8c8261318b565b67ffffffffffffffff811115613da557613da46134a0565b5b613daf825461392a565b613dba828285613ced565b5f60209050601f831160018114613deb575f8415613dd9578287015190505b613de38582613d68565b865550613e4a565b601f198416613df986613bdb565b5f5b82811015613e2057848901518255600182019150602085019450602081019050613dfb565b86831015613e3d5784890151613e39601f891682613d4c565b8355505b6001600288020188555050505b505050505050565b5f608082019050613e655f830187613407565b613e7260208301866133d6565b613e7f6040830185613407565b613e8c6060830184613407565b95945050505050565b7f4e487b71000000000000000000000000000000000000000000000000000000005f52602160045260245ffdfea26469706673582212208f359fa26052c4ca9f589a9eb2b65db26879f03f1b5aacc986f68a79735633af64736f6c63430008230033","linkReferences":{}},"methodIdentifiers":{"DOMAIN_SEPARATOR()":"3644e515","MAX_SUPPLY()":"32cb6b0c","UPGRADE_INTERFACE_VERSION()":"ad3cb1cc","allowance(address,address)":"dd62ed3e","approve(address,uint256)":"095ea7b3","balanceOf(address)":"70a08231","blocklist(address)":"e5c7160b","burn(uint256)":"42966c68","burnFrom(address,uint256)":"79cc6790","decimals()":"313ce567","eip712Domain()":"84b0196e","initialize(address,address)":"485cc955","isBlocklisted(address)":"8e204c43","mint(address,uint256)":"40c10f19","name()":"06fdde03","nonces(address)":"7ecebe00","nttManager()":"24fb21db","owner()":"8da5cb5b","pause()":"8456cb59","paused()":"5c975abb","permit(address,address,uint256,uint256,uint8,bytes32,bytes32)":"d505accf","proxiableUUID()":"52d1902d","renounceOwnership()":"715018a6","reserveManager()":"bb004abc","setMinter(address)":"fca3b5aa","setReserveManager(address)":"df7da754","symbol()":"95d89b41","totalSupply()":"18160ddd","transfer(address,uint256)":"a9059cbb","transferFrom(address,address,uint256)":"23b872dd","transferOwnership(address)":"f2fde38b","transferWithMemo(address,uint256,bytes32)":"95777d59","unblocklist(address)":"ae0905ef","unpause()":"3f4ba83a","upgradeToAndCall(address,bytes)":"4f1ef286"},"id":2}