{"abi":[{"type":"constructor","inputs":[{"name":"_pqcVerifier","type":"address","internalType":"address"},{"name":"_quantumValidator","type":"address","internalType":"address"}],"stateMutability":"nonpayable"},{"type":"function","name":"MIN_VALIDATORS","inputs":[],"outputs":[{"name":"","type":"uint256","internalType":"uint256"}],"stateMutability":"view"},{"type":"function","name":"PROOF_THRESHOLD","inputs":[],"outputs":[{"name":"","type":"uint256","internalType":"uint256"}],"stateMutability":"view"},{"type":"function","name":"QKD_SESSION_DURATION","inputs":[],"outputs":[{"name":"","type":"uint256","internalType":"uint256"}],"stateMutability":"view"},{"type":"function","name":"addValidator","inputs":[{"name":"validator","type":"address","internalType":"address"}],"outputs":[],"stateMutability":"nonpayable"},{"type":"function","name":"executeTransfer","inputs":[{"name":"transferId","type":"bytes32","internalType":"bytes32"}],"outputs":[],"stateMutability":"nonpayable"},{"type":"function","name":"getTransferStatus","inputs":[{"name":"transferId","type":"bytes32","internalType":"bytes32"}],"outputs":[{"name":"exists","type":"bool","internalType":"bool"},{"name":"executed","type":"bool","internalType":"bool"},{"name":"proofs","type":"uint256","internalType":"uint256"},{"name":"required","type":"uint256","internalType":"uint256"}],"stateMutability":"view"},{"type":"function","name":"getValidatorId","inputs":[{"name":"validator","type":"address","internalType":"address"}],"outputs":[{"name":"","type":"uint256","internalType":"uint256"}],"stateMutability":"view"},{"type":"function","name":"initiateTransfer","inputs":[{"name":"token","type":"address","internalType":"address"},{"name":"amount","type":"uint256","internalType":"uint256"},{"name":"recipient","type":"address","internalType":"address"},{"name":"destChainId","type":"uint256","internalType":"uint256"}],"outputs":[{"name":"","type":"bytes32","internalType":"bytes32"}],"stateMutability":"nonpayable"},{"type":"function","name":"isQKDSessionValid","inputs":[{"name":"sessionKey","type":"bytes32","internalType":"bytes32"}],"outputs":[{"name":"","type":"bool","internalType":"bool"}],"stateMutability":"view"},{"type":"function","name":"isValidator","inputs":[{"name":"","type":"address","internalType":"address"}],"outputs":[{"name":"","type":"bool","internalType":"bool"}],"stateMutability":"view"},{"type":"function","name":"owner","inputs":[],"outputs":[{"name":"","type":"address","internalType":"address"}],"stateMutability":"view"},{"type":"function","name":"pqcVerifier","inputs":[],"outputs":[{"name":"","type":"address","internalType":"contract IPQCSignature"}],"stateMutability":"view"},{"type":"function","name":"proofCount","inputs":[{"name":"","type":"bytes32","internalType":"bytes32"}],"outputs":[{"name":"","type":"uint256","internalType":"uint256"}],"stateMutability":"view"},{"type":"function","name":"proofs","inputs":[{"name":"","type":"bytes32","internalType":"bytes32"},{"name":"","type":"uint256","internalType":"uint256"}],"outputs":[{"name":"transferId","type":"bytes32","internalType":"bytes32"},{"name":"pqcSignature","type":"bytes","internalType":"bytes"},{"name":"qkdSessionKey","type":"bytes32","internalType":"bytes32"},{"name":"validatorId","type":"uint256","internalType":"uint256"},{"name":"timestamp","type":"uint256","internalType":"uint256"}],"stateMutability":"view"},{"type":"function","name":"qkdSessionExpiry","inputs":[{"name":"","type":"bytes32","internalType":"bytes32"}],"outputs":[{"name":"","type":"uint256","internalType":"uint256"}],"stateMutability":"view"},{"type":"function","name":"quantumValidator","inputs":[],"outputs":[{"name":"","type":"address","internalType":"contract IQuantumValidator"}],"stateMutability":"view"},{"type":"function","name":"registerQKDSession","inputs":[{"name":"sessionKeyHash","type":"bytes32","internalType":"bytes32"},{"name":"qkdProof","type":"bytes","internalType":"bytes"}],"outputs":[],"stateMutability":"nonpayable"},{"type":"function","name":"removeValidator","inputs":[{"name":"validator","type":"address","internalType":"address"}],"outputs":[],"stateMutability":"nonpayable"},{"type":"function","name":"renounceOwnership","inputs":[],"outputs":[],"stateMutability":"nonpayable"},{"type":"function","name":"setPQCVerifier","inputs":[{"name":"_pqcVerifier","type":"address","internalType":"address"}],"outputs":[],"stateMutability":"nonpayable"},{"type":"function","name":"setQuantumValidator","inputs":[{"name":"_quantumValidator","type":"address","internalType":"address"}],"outputs":[],"stateMutability":"nonpayable"},{"type":"function","name":"submitProof","inputs":[{"name":"transferId","type":"bytes32","internalType":"bytes32"},{"name":"pqcSignature","type":"bytes","internalType":"bytes"},{"name":"qkdSessionKey","type":"bytes32","internalType":"bytes32"}],"outputs":[],"stateMutability":"nonpayable"},{"type":"function","name":"supportChain","inputs":[{"name":"chainId","type":"uint256","internalType":"uint256"}],"outputs":[],"stateMutability":"nonpayable"},{"type":"function","name":"supportToken","inputs":[{"name":"token","type":"address","internalType":"address"}],"outputs":[],"stateMutability":"nonpayable"},{"type":"function","name":"supportedChains","inputs":[{"name":"","type":"uint256","internalType":"uint256"}],"outputs":[{"name":"","type":"bool","internalType":"bool"}],"stateMutability":"view"},{"type":"function","name":"supportedTokens","inputs":[{"name":"","type":"address","internalType":"address"}],"outputs":[{"name":"","type":"bool","internalType":"bool"}],"stateMutability":"view"},{"type":"function","name":"transferOwnership","inputs":[{"name":"newOwner","type":"address","internalType":"address"}],"outputs":[],"stateMutability":"nonpayable"},{"type":"function","name":"transfers","inputs":[{"name":"","type":"bytes32","internalType":"bytes32"}],"outputs":[{"name":"transferId","type":"bytes32","internalType":"bytes32"},{"name":"sourceToken","type":"address","internalType":"address"},{"name":"destToken","type":"address","internalType":"address"},{"name":"amount","type":"uint256","internalType":"uint256"},{"name":"sender","type":"address","internalType":"address"},{"name":"recipient","type":"address","internalType":"address"},{"name":"sourceChainId","type":"uint256","internalType":"uint256"},{"name":"destChainId","type":"uint256","internalType":"uint256"},{"name":"timestamp","type":"uint256","internalType":"uint256"},{"name":"executed","type":"bool","internalType":"bool"}],"stateMutability":"view"},{"type":"function","name":"unsupportChain","inputs":[{"name":"chainId","type":"uint256","internalType":"uint256"}],"outputs":[],"stateMutability":"nonpayable"},{"type":"function","name":"validatorCount","inputs":[],"outputs":[{"name":"","type":"uint256","internalType":"uint256"}],"stateMutability":"view"},{"type":"function","name":"validators","inputs":[{"name":"","type":"uint256","internalType":"uint256"}],"outputs":[{"name":"","type":"address","internalType":"address"}],"stateMutability":"view"},{"type":"event","name":"ChainSupported","inputs":[{"name":"chainId","type":"uint256","indexed":true,"internalType":"uint256"}],"anonymous":false},{"type":"event","name":"ChainUnsupported","inputs":[{"name":"chainId","type":"uint256","indexed":true,"internalType":"uint256"}],"anonymous":false},{"type":"event","name":"OwnershipTransferred","inputs":[{"name":"previousOwner","type":"address","indexed":true,"internalType":"address"},{"name":"newOwner","type":"address","indexed":true,"internalType":"address"}],"anonymous":false},{"type":"event","name":"ProofSubmitted","inputs":[{"name":"transferId","type":"bytes32","indexed":true,"internalType":"bytes32"},{"name":"validatorId","type":"uint256","indexed":true,"internalType":"uint256"},{"name":"qkdSessionKey","type":"bytes32","indexed":false,"internalType":"bytes32"},{"name":"timestamp","type":"uint256","indexed":false,"internalType":"uint256"}],"anonymous":false},{"type":"event","name":"TransferExecuted","inputs":[{"name":"transferId","type":"bytes32","indexed":true,"internalType":"bytes32"},{"name":"recipient","type":"address","indexed":true,"internalType":"address"},{"name":"amount","type":"uint256","indexed":false,"internalType":"uint256"},{"name":"proofCount","type":"uint256","indexed":false,"internalType":"uint256"}],"anonymous":false},{"type":"event","name":"TransferInitiated","inputs":[{"name":"transferId","type":"bytes32","indexed":true,"internalType":"bytes32"},{"name":"sender","type":"address","indexed":true,"internalType":"address"},{"name":"recipient","type":"address","indexed":true,"internalType":"address"},{"name":"token","type":"address","indexed":false,"internalType":"address"},{"name":"amount","type":"uint256","indexed":false,"internalType":"uint256"},{"name":"sourceChainId","type":"uint256","indexed":false,"internalType":"uint256"},{"name":"destChainId","type":"uint256","indexed":false,"internalType":"uint256"}],"anonymous":false},{"type":"event","name":"ValidatorAdded","inputs":[{"name":"validatorId","type":"uint256","indexed":true,"internalType":"uint256"},{"name":"validator","type":"address","indexed":false,"internalType":"address"}],"anonymous":false},{"type":"event","name":"ValidatorRemoved","inputs":[{"name":"validatorId","type":"uint256","indexed":true,"internalType":"uint256"},{"name":"validator","type":"address","indexed":false,"internalType":"address"}],"anonymous":false},{"type":"error","name":"ChainNotSupported","inputs":[{"name":"chainId","type":"uint256","internalType":"uint256"}]},{"type":"error","name":"ExpiredQKDSession","inputs":[{"name":"sessionKey","type":"bytes32","internalType":"bytes32"}]},{"type":"error","name":"InsufficientProofs","inputs":[{"name":"transferId","type":"bytes32","internalType":"bytes32"}]},{"type":"error","name":"InvalidPQCProof","inputs":[{"name":"transferId","type":"bytes32","internalType":"bytes32"},{"name":"validatorId","type":"uint256","internalType":"uint256"}]},{"type":"error","name":"InvalidTransfer","inputs":[]},{"type":"error","name":"OwnableInvalidOwner","inputs":[{"name":"owner","type":"address","internalType":"address"}]},{"type":"error","name":"OwnableUnauthorizedAccount","inputs":[{"name":"account","type":"address","internalType":"address"}]},{"type":"error","name":"ProofAlreadySubmitted","inputs":[{"name":"transferId","type":"bytes32","internalType":"bytes32"},{"name":"validatorId","type":"uint256","internalType":"uint256"}]},{"type":"error","name":"ReentrancyGuardReentrantCall","inputs":[]},{"type":"error","name":"SafeERC20FailedOperation","inputs":[{"name":"token","type":"address","internalType":"address"}]},{"type":"error","name":"TokenNotSupported","inputs":[{"name":"token","type":"address","internalType":"address"}]},{"type":"error","name":"TransferAlreadyExecuted","inputs":[{"name":"transferId","type":"bytes32","internalType":"bytes32"}]},{"type":"error","name":"ValidatorNotAuthorized","inputs":[{"name":"validator","type":"address","internalType":"address"}]}],"bytecode":{"object":"0x608060405234801561000f575f5ffd5b50604051612e76380380612e76833981810160405281019061003191906102ae565b33600161005061004561015d60201b60201c565b61018660201b60201c565b5f01819055505f73ffffffffffffffffffffffffffffffffffffffff168173ffffffffffffffffffffffffffffffffffffffff16036100c6575f6040517f1e4fbdf70000000000000000000000000000000000000000000000000000000081526004016100bd91906102fb565b60405180910390fd5b6100d58161018f60201b60201c565b508160095f6101000a81548173ffffffffffffffffffffffffffffffffffffffff021916908373ffffffffffffffffffffffffffffffffffffffff16021790555080600a5f6101000a81548173ffffffffffffffffffffffffffffffffffffffff021916908373ffffffffffffffffffffffffffffffffffffffff1602179055505050610314565b5f7f9b779b17422d0df92223018b32b4d1fa46e071723d6817e2486d003becc55f005f1b905090565b5f819050919050565b5f5f5f9054906101000a900473ffffffffffffffffffffffffffffffffffffffff169050815f5f6101000a81548173ffffffffffffffffffffffffffffffffffffffff021916908373ffffffffffffffffffffffffffffffffffffffff1602179055508173ffffffffffffffffffffffffffffffffffffffff168173ffffffffffffffffffffffffffffffffffffffff167f8be0079c531659141344cd1fd0a4f28419497f9722a3daafe3b4186f6b6457e060405160405180910390a35050565b5f5ffd5b5f73ffffffffffffffffffffffffffffffffffffffff82169050919050565b5f61027d82610254565b9050919050565b61028d81610273565b8114610297575f5ffd5b50565b5f815190506102a881610284565b92915050565b5f5f604083850312156102c4576102c3610250565b5b5f6102d18582860161029a565b92505060206102e28582860161029a565b9150509250929050565b6102f581610273565b82525050565b5f60208201905061030e5f8301846102ec565b92915050565b612b55806103215f395ff3fe608060405234801561000f575f5ffd5b50600436106101e3575f3560e01c80636a62a4c01161010d578063c704babe116100a0578063ed56d73f1161006f578063ed56d73f146105aa578063f1b075ef146105dd578063f2fde38b146105fb578063facd743b14610617576101e3565b8063c704babe14610524578063dcd479e614610542578063e27eef231461055e578063ea2979ee1461058e576101e3565b80638da5cb5b116100dc5780638da5cb5b1461049e57806396c4ca72146104bc578063bdf8f103146104d8578063bf9270b0146104f4576101e3565b80636a62a4c01461042a5780636c0fed24146104465780636ca8575514610476578063715018a614610494576101e3565b80633c64f04b116101855780635d5f426d116101545780635d5f426d146103a45780635ed1f963146103c05780636201a677146103de57806368c4ac26146103fa576101e3565b80633c64f04b1461030357806340a141ff1461033c5780634d238c8e14610358578063548d496f14610374576101e3565b8063174e6832116101c1578063174e6832146102535780632093c15b146102835780632a4f1621146102b757806335aa2e44146102d3576101e3565b80630f3799be146101e75780630f43a6771461021757806310fbee2814610235575b5f5ffd5b61020160048036038101906101fc9190611dd6565b610647565b60405161020e9190611e1b565b60405180910390f35b61021f610664565b60405161022c9190611e4c565b60405180910390f35b61023d61066a565b60405161024a9190611e4c565b60405180910390f35b61026d60048036038101906102689190611ebf565b61066f565b60405161027a9190611e4c565b60405180910390f35b61029d60048036038101906102989190611f14565b610708565b6040516102ae959493929190611fd1565b60405180910390f35b6102d160048036038101906102cc9190611ebf565b6107cb565b005b6102ed60048036038101906102e89190612029565b61082b565b6040516102fa9190612063565b60405180910390f35b61031d60048036038101906103189190611dd6565b61085b565b6040516103339a9998979695949392919061207c565b60405180910390f35b61035660048036038101906103519190611ebf565b610933565b005b610372600480360381019061036d9190611ebf565b610a72565b005b61038e60048036038101906103899190612029565b610bfe565b60405161039b9190611e1b565b60405180910390f35b6103be60048036038101906103b99190612029565b610c1b565b005b6103c8610c7b565b6040516103d59190611e4c565b60405180910390f35b6103f860048036038101906103f39190612177565b610c80565b005b610414600480360381019061040f9190611ebf565b61108e565b6040516104219190611e1b565b60405180910390f35b610444600480360381019061043f9190611ebf565b6110ab565b005b610460600480360381019061045b9190611dd6565b6110f6565b60405161046d9190611e4c565b60405180910390f35b61047e61110b565b60405161048b9190612243565b60405180910390f35b61049c611130565b005b6104a6611143565b6040516104b39190612063565b60405180910390f35b6104d660048036038101906104d1919061225c565b61116a565b005b6104f260048036038101906104ed9190611dd6565b6112fb565b005b61050e600480360381019061050991906122b9565b611472565b60405161051b919061231d565b60405180910390f35b61052c6118d9565b6040516105399190611e4c565b60405180910390f35b61055c60048036038101906105579190611ebf565b6118df565b005b61057860048036038101906105739190611dd6565b61192a565b6040516105859190611e4c565b60405180910390f35b6105a860048036038101906105a39190612029565b61193f565b005b6105c460048036038101906105bf9190611dd6565b6119a0565b6040516105d49493929190612336565b60405180910390f35b6105e56119f5565b6040516105f29190612399565b60405180910390f35b61061560048036038101906106109190611ebf565b611a1a565b005b610631600480360381019061062c9190611ebf565b611a9e565b60405161063e9190611e1b565b60405180910390f35b5f60085f8381526020019081526020015f20544211159050919050565b600b5481565b600281565b5f5f600190505b600b5481116106fe578273ffffffffffffffffffffffffffffffffffffffff1660065f8381526020019081526020015f205f9054906101000a900473ffffffffffffffffffffffffffffffffffffffff1673ffffffffffffffffffffffffffffffffffffffff16036106eb5780915050610703565b80806106f6906123df565b915050610676565b505f90505b919050565b6002602052815f5260405f20602052805f5260405f205f9150915050805f01549080600101805461073890612453565b80601f016020809104026020016040519081016040528092919081815260200182805461076490612453565b80156107af5780601f10610786576101008083540402835291602001916107af565b820191905f5260205f20905b81548152906001019060200180831161079257829003601f168201915b5050505050908060020154908060030154908060040154905085565b6107d3611abb565b600160055f8373ffffffffffffffffffffffffffffffffffffffff1673ffffffffffffffffffffffffffffffffffffffff1681526020019081526020015f205f6101000a81548160ff02191690831515021790555050565b6006602052805f5260405f205f915054906101000a900473ffffffffffffffffffffffffffffffffffffffff1681565b6001602052805f5260405f205f91509050805f015490806001015f9054906101000a900473ffffffffffffffffffffffffffffffffffffffff1690806002015f9054906101000a900473ffffffffffffffffffffffffffffffffffffffff1690806003015490806004015f9054906101000a900473ffffffffffffffffffffffffffffffffffffffff1690806005015f9054906101000a900473ffffffffffffffffffffffffffffffffffffffff1690806006015490806007015490806008015490806009015f9054906101000a900460ff1690508a565b61093b611abb565b60075f8273ffffffffffffffffffffffffffffffffffffffff1673ffffffffffffffffffffffffffffffffffffffff1681526020019081526020015f205f9054906101000a900460ff166109c4576040517f08c379a00000000000000000000000000000000000000000000000000000000081526004016109bb906124dd565b60405180910390fd5b5f60075f8373ffffffffffffffffffffffffffffffffffffffff1673ffffffffffffffffffffffffffffffffffffffff1681526020019081526020015f205f6101000a81548160ff021916908315150217905550600b5f815480929190610a2a906124fb565b9190505550610a388161066f565b7f7126bef88d1149ccdff9681ed5aecd3ba5ae70c96517551de250af09cebd1a0b82604051610a679190612063565b60405180910390a250565b610a7a611abb565b60075f8273ffffffffffffffffffffffffffffffffffffffff1673ffffffffffffffffffffffffffffffffffffffff1681526020019081526020015f205f9054906101000a900460ff1615610b04576040517f08c379a0000000000000000000000000000000000000000000000000000000008152600401610afb9061256c565b60405180910390fd5b600b5f815480929190610b16906123df565b91905055508060065f600b5481526020019081526020015f205f6101000a81548173ffffffffffffffffffffffffffffffffffffffff021916908373ffffffffffffffffffffffffffffffffffffffff160217905550600160075f8373ffffffffffffffffffffffffffffffffffffffff1673ffffffffffffffffffffffffffffffffffffffff1681526020019081526020015f205f6101000a81548160ff021916908315150217905550600b547f7429a06e9412e469f0d64f9d222640b0af359f556b709e2913588c227851b88d82604051610bf39190612063565b60405180910390a250565b6004602052805f5260405f205f915054906101000a900460ff1681565b610c23611abb565b5f60045f8381526020019081526020015f205f6101000a81548160ff021916908315150217905550807fe08f91ec8619571a39cbfb365381d99e9458bab131f0bed3e4eeb1a76d608a3660405160405180910390a250565b600381565b60075f3373ffffffffffffffffffffffffffffffffffffffff1673ffffffffffffffffffffffffffffffffffffffff1681526020019081526020015f205f9054906101000a900460ff16610d0b57336040517f80281c79000000000000000000000000000000000000000000000000000000008152600401610d029190612063565b60405180910390fd5b610d13611b42565b5f60015f8681526020019081526020015f209050806009015f9054906101000a900460ff1615610d7a57846040517f846380d5000000000000000000000000000000000000000000000000000000008152600401610d71919061231d565b60405180910390fd5b60085f8381526020019081526020015f2054421115610dd057816040517ff80c890e000000000000000000000000000000000000000000000000000000008152600401610dc7919061231d565b60405180910390fd5b5f610dda3361066f565b90505f60025f8881526020019081526020015f205f8381526020019081526020015f206004015414610e455785816040517fb17770b3000000000000000000000000000000000000000000000000000000008152600401610e3c92919061258a565b60405180910390fd5b5f8684604051602001610e599291906125d1565b60405160208183030381529060405280519060200120905060095f9054906101000a900473ffffffffffffffffffffffffffffffffffffffff1673ffffffffffffffffffffffffffffffffffffffff1663b3c821f6828888336040518563ffffffff1660e01b8152600401610ed19493929190612636565b602060405180830381865afa158015610eec573d5f5f3e3d5ffd5b505050506040513d601f19601f82011682018060405250810190610f10919061269e565b610f535786826040517f19d0c4b6000000000000000000000000000000000000000000000000000000008152600401610f4a92919061258a565b60405180910390fd5b6040518060a0016040528088815260200187878080601f0160208091040260200160405190810160405280939291908181526020018383808284375f81840152601f19601f8201169050808301925050505050505081526020018581526020018381526020014281525060025f8981526020019081526020015f205f8481526020019081526020015f205f820151815f01556020820151816001019081610ffa919061289e565b5060408201518160020155606082015181600301556080820151816004015590505060035f8881526020019081526020015f205f81548092919061103d906123df565b919050555081877fcdcc0bfb0506c954f9d9cc31e7f010b28d519d401eac9fad226a8910a39fe330864260405161107592919061258a565b60405180910390a3505050611088611b64565b50505050565b6005602052805f5260405f205f915054906101000a900460ff1681565b6110b3611abb565b8060095f6101000a81548173ffffffffffffffffffffffffffffffffffffffff021916908373ffffffffffffffffffffffffffffffffffffffff16021790555050565b6003602052805f5260405f205f915090505481565b600a5f9054906101000a900473ffffffffffffffffffffffffffffffffffffffff1681565b611138611abb565b6111415f611b7e565b565b5f5f5f9054906101000a900473ffffffffffffffffffffffffffffffffffffffff16905090565b60075f3373ffffffffffffffffffffffffffffffffffffffff1673ffffffffffffffffffffffffffffffffffffffff1681526020019081526020015f205f9054906101000a900460ff166111f557336040517f80281c790000000000000000000000000000000000000000000000000000000081526004016111ec9190612063565b60405180910390fd5b600a5f9054906101000a900473ffffffffffffffffffffffffffffffffffffffff1673ffffffffffffffffffffffffffffffffffffffff16636edabd2b8383336040518463ffffffff1660e01b81526004016112539392919061296d565b602060405180830381865afa15801561126e573d5f5f3e3d5ffd5b505050506040513d601f19601f82011682018060405250810190611292919061269e565b6112d357826040517ff80c890e0000000000000000000000000000000000000000000000000000000081526004016112ca919061231d565b60405180910390fd5b610e10426112e1919061299d565b60085f8581526020019081526020015f2081905550505050565b611303611b42565b5f60015f8381526020019081526020015f209050806009015f9054906101000a900460ff161561136a57816040517f846380d5000000000000000000000000000000000000000000000000000000008152600401611361919061231d565b60405180910390fd5b600260035f8481526020019081526020015f205410156113c157816040517fc82531a70000000000000000000000000000000000000000000000000000000081526004016113b8919061231d565b60405180910390fd5b6001816009015f6101000a81548160ff021916908315150217905550806005015f9054906101000a900473ffffffffffffffffffffffffffffffffffffffff1673ffffffffffffffffffffffffffffffffffffffff16827f706d19a0419829f5b040af42eceaa508d974f5d02cd30b93ec3d2c9a02b95815836003015460035f8781526020019081526020015f205460405161145e9291906129d0565b60405180910390a35061146f611b64565b50565b5f61147b611b42565b8460055f8273ffffffffffffffffffffffffffffffffffffffff1673ffffffffffffffffffffffffffffffffffffffff1681526020019081526020015f205f9054906101000a900460ff1661150757806040517f06439c6b0000000000000000000000000000000000000000000000000000000081526004016114fe9190612063565b60405180910390fd5b8260045f8281526020019081526020015f205f9054906101000a900460ff1661156757806040517f264e42cf00000000000000000000000000000000000000000000000000000000815260040161155e9190611e4c565b60405180910390fd5b5f8614806115a057505f73ffffffffffffffffffffffffffffffffffffffff168573ffffffffffffffffffffffffffffffffffffffff16145b156115d7576040517f2f35253100000000000000000000000000000000000000000000000000000000815260040160405180910390fd5b5f338888888842446040516020016115f59796959493929190612a5c565b60405160208183030381529060405280519060200120905061163a3330898b73ffffffffffffffffffffffffffffffffffffffff16611c3f909392919063ffffffff16565b6040518061014001604052808281526020018973ffffffffffffffffffffffffffffffffffffffff1681526020015f73ffffffffffffffffffffffffffffffffffffffff1681526020018881526020013373ffffffffffffffffffffffffffffffffffffffff1681526020018773ffffffffffffffffffffffffffffffffffffffff1681526020014681526020018681526020014281526020015f151581525060015f8381526020019081526020015f205f820151815f01556020820151816001015f6101000a81548173ffffffffffffffffffffffffffffffffffffffff021916908373ffffffffffffffffffffffffffffffffffffffff1602179055506040820151816002015f6101000a81548173ffffffffffffffffffffffffffffffffffffffff021916908373ffffffffffffffffffffffffffffffffffffffff160217905550606082015181600301556080820151816004015f6101000a81548173ffffffffffffffffffffffffffffffffffffffff021916908373ffffffffffffffffffffffffffffffffffffffff16021790555060a0820151816005015f6101000a81548173ffffffffffffffffffffffffffffffffffffffff021916908373ffffffffffffffffffffffffffffffffffffffff16021790555060c0820151816006015560e082015181600701556101008201518160080155610120820151816009015f6101000a81548160ff0219169083151502179055509050508573ffffffffffffffffffffffffffffffffffffffff163373ffffffffffffffffffffffffffffffffffffffff16827f443062962fd8af89b585d9aea366f1a96e0417141a41713894aa626d3b5217148b8b468b6040516118bb9493929190612adc565b60405180910390a48093505050506118d1611b64565b949350505050565b610e1081565b6118e7611abb565b80600a5f6101000a81548173ffffffffffffffffffffffffffffffffffffffff021916908373ffffffffffffffffffffffffffffffffffffffff16021790555050565b6008602052805f5260405f205f915090505481565b611947611abb565b600160045f8381526020019081526020015f205f6101000a81548160ff021916908315150217905550807f57186b2755d8bf6e82203d992be82e3f9be370e95c5362833d84c7abd94b430960405160405180910390a250565b5f5f5f5f5f60015f8781526020019081526020015f2090505f81600801541415816009015f9054906101000a900460ff1660035f8981526020019081526020015f205460029450945094509450509193509193565b60095f9054906101000a900473ffffffffffffffffffffffffffffffffffffffff1681565b611a22611abb565b5f73ffffffffffffffffffffffffffffffffffffffff168173ffffffffffffffffffffffffffffffffffffffff1603611a92575f6040517f1e4fbdf7000000000000000000000000000000000000000000000000000000008152600401611a899190612063565b60405180910390fd5b611a9b81611b7e565b50565b6007602052805f5260405f205f915054906101000a900460ff1681565b611ac3611c94565b73ffffffffffffffffffffffffffffffffffffffff16611ae1611143565b73ffffffffffffffffffffffffffffffffffffffff1614611b4057611b04611c94565b6040517f118cdaa7000000000000000000000000000000000000000000000000000000008152600401611b379190612063565b60405180910390fd5b565b611b4a611c9b565b6002611b5c611b57611cdc565b611d05565b5f0181905550565b6001611b76611b71611cdc565b611d05565b5f0181905550565b5f5f5f9054906101000a900473ffffffffffffffffffffffffffffffffffffffff169050815f5f6101000a81548173ffffffffffffffffffffffffffffffffffffffff021916908373ffffffffffffffffffffffffffffffffffffffff1602179055508173ffffffffffffffffffffffffffffffffffffffff168173ffffffffffffffffffffffffffffffffffffffff167f8be0079c531659141344cd1fd0a4f28419497f9722a3daafe3b4186f6b6457e060405160405180910390a35050565b611c4d848484846001611d0e565b611c8e57836040517f5274afe7000000000000000000000000000000000000000000000000000000008152600401611c859190612063565b60405180910390fd5b50505050565b5f33905090565b611ca3611d7f565b15611cda576040517f3ee5aeb500000000000000000000000000000000000000000000000000000000815260040160405180910390fd5b565b5f7f9b779b17422d0df92223018b32b4d1fa46e071723d6817e2486d003becc55f005f1b905090565b5f819050919050565b5f5f6323b872dd60e01b9050604051815f525f1960601c87166004525f1960601c86166024528460445260205f60645f5f8c5af1925060015f51148316611d6c578383151615611d60573d5f823e3d81fd5b5f883b113d1516831692505b806040525f606052505095945050505050565b5f6002611d92611d8d611cdc565b611d05565b5f015414905090565b5f5ffd5b5f5ffd5b5f819050919050565b611db581611da3565b8114611dbf575f5ffd5b50565b5f81359050611dd081611dac565b92915050565b5f60208284031215611deb57611dea611d9b565b5b5f611df884828501611dc2565b91505092915050565b5f8115159050919050565b611e1581611e01565b82525050565b5f602082019050611e2e5f830184611e0c565b92915050565b5f819050919050565b611e4681611e34565b82525050565b5f602082019050611e5f5f830184611e3d565b92915050565b5f73ffffffffffffffffffffffffffffffffffffffff82169050919050565b5f611e8e82611e65565b9050919050565b611e9e81611e84565b8114611ea8575f5ffd5b50565b5f81359050611eb981611e95565b92915050565b5f60208284031215611ed457611ed3611d9b565b5b5f611ee184828501611eab565b91505092915050565b611ef381611e34565b8114611efd575f5ffd5b50565b5f81359050611f0e81611eea565b92915050565b5f5f60408385031215611f2a57611f29611d9b565b5b5f611f3785828601611dc2565b9250506020611f4885828601611f00565b9150509250929050565b611f5b81611da3565b82525050565b5f81519050919050565b5f82825260208201905092915050565b8281835e5f83830152505050565b5f601f19601f8301169050919050565b5f611fa382611f61565b611fad8185611f6b565b9350611fbd818560208601611f7b565b611fc681611f89565b840191505092915050565b5f60a082019050611fe45f830188611f52565b8181036020830152611ff68187611f99565b90506120056040830186611f52565b6120126060830185611e3d565b61201f6080830184611e3d565b9695505050505050565b5f6020828403121561203e5761203d611d9b565b5b5f61204b84828501611f00565b91505092915050565b61205d81611e84565b82525050565b5f6020820190506120765f830184612054565b92915050565b5f610140820190506120905f83018d611f52565b61209d602083018c612054565b6120aa604083018b612054565b6120b7606083018a611e3d565b6120c46080830189612054565b6120d160a0830188612054565b6120de60c0830187611e3d565b6120eb60e0830186611e3d565b6120f9610100830185611e3d565b612107610120830184611e0c565b9b9a5050505050505050505050565b5f5ffd5b5f5ffd5b5f5ffd5b5f5f83601f84011261213757612136612116565b5b8235905067ffffffffffffffff8111156121545761215361211a565b5b6020830191508360018202830111156121705761216f61211e565b5b9250929050565b5f5f5f5f6060858703121561218f5761218e611d9b565b5b5f61219c87828801611dc2565b945050602085013567ffffffffffffffff8111156121bd576121bc611d9f565b5b6121c987828801612122565b935093505060406121dc87828801611dc2565b91505092959194509250565b5f819050919050565b5f61220b61220661220184611e65565b6121e8565b611e65565b9050919050565b5f61221c826121f1565b9050919050565b5f61222d82612212565b9050919050565b61223d81612223565b82525050565b5f6020820190506122565f830184612234565b92915050565b5f5f5f6040848603121561227357612272611d9b565b5b5f61228086828701611dc2565b935050602084013567ffffffffffffffff8111156122a1576122a0611d9f565b5b6122ad86828701612122565b92509250509250925092565b5f5f5f5f608085870312156122d1576122d0611d9b565b5b5f6122de87828801611eab565b94505060206122ef87828801611f00565b935050604061230087828801611eab565b925050606061231187828801611f00565b91505092959194509250565b5f6020820190506123305f830184611f52565b92915050565b5f6080820190506123495f830187611e0c565b6123566020830186611e0c565b6123636040830185611e3d565b6123706060830184611e3d565b95945050505050565b5f61238382612212565b9050919050565b61239381612379565b82525050565b5f6020820190506123ac5f83018461238a565b92915050565b7f4e487b71000000000000000000000000000000000000000000000000000000005f52601160045260245ffd5b5f6123e982611e34565b91507fffffffffffffffffffffffffffffffffffffffffffffffffffffffffffffffff820361241b5761241a6123b2565b5b600182019050919050565b7f4e487b71000000000000000000000000000000000000000000000000000000005f52602260045260245ffd5b5f600282049050600182168061246a57607f821691505b60208210810361247d5761247c612426565b5b50919050565b5f82825260208201905092915050565b7f4e6f742076616c696461746f72000000000000000000000000000000000000005f82015250565b5f6124c7600d83612483565b91506124d282612493565b602082019050919050565b5f6020820190508181035f8301526124f4816124bb565b9050919050565b5f61250582611e34565b91505f8203612517576125166123b2565b5b600182039050919050565b7f416c72656164792076616c696461746f720000000000000000000000000000005f82015250565b5f612556601183612483565b915061256182612522565b602082019050919050565b5f6020820190508181035f8301526125838161254a565b9050919050565b5f60408201905061259d5f830185611f52565b6125aa6020830184611e3d565b9392505050565b5f819050919050565b6125cb6125c682611da3565b6125b1565b82525050565b5f6125dc82856125ba565b6020820191506125ec82846125ba565b6020820191508190509392505050565b828183375f83830152505050565b5f6126158385611f6b565b93506126228385846125fc565b61262b83611f89565b840190509392505050565b5f6060820190506126495f830187611f52565b818103602083015261265c81858761260a565b905061266b6040830184612054565b95945050505050565b61267d81611e01565b8114612687575f5ffd5b50565b5f8151905061269881612674565b92915050565b5f602082840312156126b3576126b2611d9b565b5b5f6126c08482850161268a565b91505092915050565b7f4e487b71000000000000000000000000000000000000000000000000000000005f52604160045260245ffd5b5f819050815f5260205f209050919050565b5f6020601f8301049050919050565b5f82821b905092915050565b5f600883026127527fffffffffffffffffffffffffffffffffffffffffffffffffffffffffffffffff82612717565b61275c8683612717565b95508019841693508086168417925050509392505050565b5f61278e61278961278484611e34565b6121e8565b611e34565b9050919050565b5f819050919050565b6127a783612774565b6127bb6127b382612795565b848454612723565b825550505050565b5f5f905090565b6127d26127c3565b6127dd81848461279e565b505050565b5f5b82811015612803576127f85f8284016127ca565b6001810190506127e4565b505050565b601f821115612856578282111561285557612822816126f6565b61282b83612708565b61283485612708565b6020861015612841575f90505b808301612850828403826127e2565b505050505b5b505050565b5f82821c905092915050565b5f6128765f198460080261285b565b1980831691505092915050565b5f61288e8383612867565b9150826002028217905092915050565b6128a782611f61565b67ffffffffffffffff8111156128c0576128bf6126c9565b5b6128ca8254612453565b6128d5828285612808565b5f60209050601f831160018114612906575f84156128f4578287015190505b6128fe8582612883565b865550612965565b601f198416612914866126f6565b5f5b8281101561293b57848901518255600182019150602085019450602081019050612916565b868310156129585784890151612954601f891682612867565b8355505b6001600288020188555050505b505050505050565b5f6040820190508181035f83015261298681858761260a565b90506129956020830184612054565b949350505050565b5f6129a782611e34565b91506129b283611e34565b92508282019050808211156129ca576129c96123b2565b5b92915050565b5f6040820190506129e35f830185611e3d565b6129f06020830184611e3d565b9392505050565b5f8160601b9050919050565b5f612a0d826129f7565b9050919050565b5f612a1e82612a03565b9050919050565b612a36612a3182611e84565b612a14565b82525050565b5f819050919050565b612a56612a5182611e34565b612a3c565b82525050565b5f612a67828a612a25565b601482019150612a778289612a25565b601482019150612a878288612a45565b602082019150612a978287612a25565b601482019150612aa78286612a45565b602082019150612ab78285612a45565b602082019150612ac78284612a45565b60208201915081905098975050505050505050565b5f608082019050612aef5f830187612054565b612afc6020830186611e3d565b612b096040830185611e3d565b612b166060830184611e3d565b9594505050505056fea2646970667358221220bc175e9c601a734920320cf320ba12773f1f460776aef9db2a8b65de38ed33d064736f6c63430008230033","linkReferences":{}},"methodIdentifiers":{"MIN_VALIDATORS()":"5ed1f963","PROOF_THRESHOLD()":"10fbee28","QKD_SESSION_DURATION()":"c704babe","addValidator(address)":"4d238c8e","executeTransfer(bytes32)":"bdf8f103","getTransferStatus(bytes32)":"ed56d73f","getValidatorId(address)":"174e6832","initiateTransfer(address,uint256,address,uint256)":"bf9270b0","isQKDSessionValid(bytes32)":"0f3799be","isValidator(address)":"facd743b","owner()":"8da5cb5b","pqcVerifier()":"f1b075ef","proofCount(bytes32)":"6c0fed24","proofs(bytes32,uint256)":"2093c15b","qkdSessionExpiry(bytes32)":"e27eef23","quantumValidator()":"6ca85755","registerQKDSession(bytes32,bytes)":"96c4ca72","removeValidator(address)":"40a141ff","renounceOwnership()":"715018a6","setPQCVerifier(address)":"6a62a4c0","setQuantumValidator(address)":"dcd479e6","submitProof(bytes32,bytes,bytes32)":"6201a677","supportChain(uint256)":"ea2979ee","supportToken(address)":"2a4f1621","supportedChains(uint256)":"548d496f","supportedTokens(address)":"68c4ac26","transferOwnership(address)":"f2fde38b","transfers(bytes32)":"3c64f04b","unsupportChain(uint256)":"5d5f426d","validatorCount()":"0f43a677","validators(uint256)":"35aa2e44"},"id":2}