{"contracts/QLinkBridge.sol":{"QLinkBridge":{"abi":[{"type":"constructor","inputs":[{"name":"_pqcVerifier","type":"address","internalType":"address"},{"name":"_quantumValidator","type":"address","internalType":"address"}],"stateMutability":"nonpayable"},{"type":"function","name":"MIN_CHSH_SCORE","inputs":[],"outputs":[{"name":"","type":"uint256","internalType":"uint256"}],"stateMutability":"view"},{"type":"function","name":"MIN_VALIDATORS","inputs":[],"outputs":[{"name":"","type":"uint256","internalType":"uint256"}],"stateMutability":"view"},{"type":"function","name":"PROOF_THRESHOLD","inputs":[],"outputs":[{"name":"","type":"uint256","internalType":"uint256"}],"stateMutability":"view"},{"type":"function","name":"QKD_SESSION_DURATION","inputs":[],"outputs":[{"name":"","type":"uint256","internalType":"uint256"}],"stateMutability":"view"},{"type":"function","name":"addValidator","inputs":[{"name":"validator","type":"address","internalType":"address"}],"outputs":[],"stateMutability":"nonpayable"},{"type":"function","name":"backendSigner","inputs":[],"outputs":[{"name":"","type":"address","internalType":"address"}],"stateMutability":"view"},{"type":"function","name":"executeTransfer","inputs":[{"name":"transferId","type":"bytes32","internalType":"bytes32"},{"name":"destToken","type":"address","internalType":"address"},{"name":"chshScore","type":"uint256","internalType":"uint256"},{"name":"backendSignature","type":"bytes","internalType":"bytes"}],"outputs":[],"stateMutability":"nonpayable"},{"type":"function","name":"getTransferStatus","inputs":[{"name":"transferId","type":"bytes32","internalType":"bytes32"}],"outputs":[{"name":"exists","type":"bool","internalType":"bool"},{"name":"executed","type":"bool","internalType":"bool"},{"name":"_proofCount","type":"uint256","internalType":"uint256"},{"name":"required","type":"uint256","internalType":"uint256"}],"stateMutability":"view"},{"type":"function","name":"getValidatorId","inputs":[{"name":"validator","type":"address","internalType":"address"}],"outputs":[{"name":"","type":"uint256","internalType":"uint256"}],"stateMutability":"view"},{"type":"function","name":"initiateTransfer","inputs":[{"name":"token","type":"address","internalType":"address"},{"name":"amount","type":"uint256","internalType":"uint256"},{"name":"recipient","type":"address","internalType":"address"},{"name":"destChainId","type":"uint256","internalType":"uint256"}],"outputs":[{"name":"","type":"bytes32","internalType":"bytes32"}],"stateMutability":"nonpayable"},{"type":"function","name":"isQKDSessionValid","inputs":[{"name":"sessionKey","type":"bytes32","internalType":"bytes32"}],"outputs":[{"name":"","type":"bool","internalType":"bool"}],"stateMutability":"view"},{"type":"function","name":"isValidator","inputs":[{"name":"","type":"address","internalType":"address"}],"outputs":[{"name":"","type":"bool","internalType":"bool"}],"stateMutability":"view"},{"type":"function","name":"owner","inputs":[],"outputs":[{"name":"","type":"address","internalType":"address"}],"stateMutability":"view"},{"type":"function","name":"pqcVerifier","inputs":[],"outputs":[{"name":"","type":"address","internalType":"contract IPQCSignature"}],"stateMutability":"view"},{"type":"function","name":"proofCount","inputs":[{"name":"","type":"bytes32","internalType":"bytes32"}],"outputs":[{"name":"","type":"uint256","internalType":"uint256"}],"stateMutability":"view"},{"type":"function","name":"proofs","inputs":[{"name":"","type":"bytes32","internalType":"bytes32"},{"name":"","type":"uint256","internalType":"uint256"}],"outputs":[{"name":"transferId","type":"bytes32","internalType":"bytes32"},{"name":"pqcSignature","type":"bytes","internalType":"bytes"},{"name":"qkdSessionKey","type":"bytes32","internalType":"bytes32"},{"name":"validatorId","type":"uint256","internalType":"uint256"},{"name":"timestamp","type":"uint256","internalType":"uint256"}],"stateMutability":"view"},{"type":"function","name":"qkdSessionExpiry","inputs":[{"name":"","type":"bytes32","internalType":"bytes32"}],"outputs":[{"name":"","type":"uint256","internalType":"uint256"}],"stateMutability":"view"},{"type":"function","name":"quantumValidator","inputs":[],"outputs":[{"name":"","type":"address","internalType":"contract IQuantumValidator"}],"stateMutability":"view"},{"type":"function","name":"registerQKDSession","inputs":[{"name":"sessionKeyHash","type":"bytes32","internalType":"bytes32"},{"name":"qkdProof","type":"bytes","internalType":"bytes"}],"outputs":[],"stateMutability":"nonpayable"},{"type":"function","name":"removeValidator","inputs":[{"name":"validator","type":"address","internalType":"address"}],"outputs":[],"stateMutability":"nonpayable"},{"type":"function","name":"renounceOwnership","inputs":[],"outputs":[],"stateMutability":"nonpayable"},{"type":"function","name":"setBackendSigner","inputs":[{"name":"_signer","type":"address","internalType":"address"}],"outputs":[],"stateMutability":"nonpayable"},{"type":"function","name":"setPQCVerifier","inputs":[{"name":"_pqcVerifier","type":"address","internalType":"address"}],"outputs":[],"stateMutability":"nonpayable"},{"type":"function","name":"setQuantumValidator","inputs":[{"name":"_quantumValidator","type":"address","internalType":"address"}],"outputs":[],"stateMutability":"nonpayable"},{"type":"function","name":"submitProof","inputs":[{"name":"transferId","type":"bytes32","internalType":"bytes32"},{"name":"pqcSignature","type":"bytes","internalType":"bytes"},{"name":"qkdSessionKey","type":"bytes32","internalType":"bytes32"}],"outputs":[],"stateMutability":"nonpayable"},{"type":"function","name":"supportChain","inputs":[{"name":"chainId","type":"uint256","internalType":"uint256"}],"outputs":[],"stateMutability":"nonpayable"},{"type":"function","name":"supportToken","inputs":[{"name":"token","type":"address","internalType":"address"}],"outputs":[],"stateMutability":"nonpayable"},{"type":"function","name":"supportedChains","inputs":[{"name":"","type":"uint256","internalType":"uint256"}],"outputs":[{"name":"","type":"bool","internalType":"bool"}],"stateMutability":"view"},{"type":"function","name":"supportedTokens","inputs":[{"name":"","type":"address","internalType":"address"}],"outputs":[{"name":"","type":"bool","internalType":"bool"}],"stateMutability":"view"},{"type":"function","name":"transferOwnership","inputs":[{"name":"newOwner","type":"address","internalType":"address"}],"outputs":[],"stateMutability":"nonpayable"},{"type":"function","name":"transfers","inputs":[{"name":"","type":"bytes32","internalType":"bytes32"}],"outputs":[{"name":"transferId","type":"bytes32","internalType":"bytes32"},{"name":"sourceToken","type":"address","internalType":"address"},{"name":"destToken","type":"address","internalType":"address"},{"name":"amount","type":"uint256","internalType":"uint256"},{"name":"sender","type":"address","internalType":"address"},{"name":"recipient","type":"address","internalType":"address"},{"name":"sourceChainId","type":"uint256","internalType":"uint256"},{"name":"destChainId","type":"uint256","internalType":"uint256"},{"name":"timestamp","type":"uint256","internalType":"uint256"},{"name":"executed","type":"bool","internalType":"bool"}],"stateMutability":"view"},{"type":"function","name":"unsupportChain","inputs":[{"name":"chainId","type":"uint256","internalType":"uint256"}],"outputs":[],"stateMutability":"nonpayable"},{"type":"function","name":"validatorCount","inputs":[],"outputs":[{"name":"","type":"uint256","internalType":"uint256"}],"stateMutability":"view"},{"type":"function","name":"validators","inputs":[{"name":"","type":"uint256","internalType":"uint256"}],"outputs":[{"name":"","type":"address","internalType":"address"}],"stateMutability":"view"},{"type":"event","name":"ChainSupported","inputs":[{"name":"chainId","type":"uint256","indexed":true,"internalType":"uint256"}],"anonymous":false},{"type":"event","name":"ChainUnsupported","inputs":[{"name":"chainId","type":"uint256","indexed":true,"internalType":"uint256"}],"anonymous":false},{"type":"event","name":"OwnershipTransferred","inputs":[{"name":"previousOwner","type":"address","indexed":true,"internalType":"address"},{"name":"newOwner","type":"address","indexed":true,"internalType":"address"}],"anonymous":false},{"type":"event","name":"ProofSubmitted","inputs":[{"name":"transferId","type":"bytes32","indexed":true,"internalType":"bytes32"},{"name":"validatorId","type":"uint256","indexed":true,"internalType":"uint256"},{"name":"qkdSessionKey","type":"bytes32","indexed":false,"internalType":"bytes32"},{"name":"timestamp","type":"uint256","indexed":false,"internalType":"uint256"}],"anonymous":false},{"type":"event","name":"TransferExecuted","inputs":[{"name":"transferId","type":"bytes32","indexed":true,"internalType":"bytes32"},{"name":"recipient","type":"address","indexed":true,"internalType":"address"},{"name":"amount","type":"uint256","indexed":false,"internalType":"uint256"},{"name":"proofCount","type":"uint256","indexed":false,"internalType":"uint256"}],"anonymous":false},{"type":"event","name":"TransferInitiated","inputs":[{"name":"transferId","type":"bytes32","indexed":true,"internalType":"bytes32"},{"name":"sender","type":"address","indexed":true,"internalType":"address"},{"name":"recipient","type":"address","indexed":true,"internalType":"address"},{"name":"token","type":"address","indexed":false,"internalType":"address"},{"name":"amount","type":"uint256","indexed":false,"internalType":"uint256"},{"name":"sourceChainId","type":"uint256","indexed":false,"internalType":"uint256"},{"name":"destChainId","type":"uint256","indexed":false,"internalType":"uint256"}],"anonymous":false},{"type":"event","name":"ValidatorAdded","inputs":[{"name":"validatorId","type":"uint256","indexed":true,"internalType":"uint256"},{"name":"validator","type":"address","indexed":false,"internalType":"address"}],"anonymous":false},{"type":"event","name":"ValidatorRemoved","inputs":[{"name":"validatorId","type":"uint256","indexed":true,"internalType":"uint256"},{"name":"validator","type":"address","indexed":false,"internalType":"address"}],"anonymous":false},{"type":"error","name":"CHSHScoreTooLow","inputs":[]},{"type":"error","name":"ChainNotSupported","inputs":[{"name":"chainId","type":"uint256","internalType":"uint256"}]},{"type":"error","name":"ECDSAInvalidSignature","inputs":[]},{"type":"error","name":"ECDSAInvalidSignatureLength","inputs":[{"name":"length","type":"uint256","internalType":"uint256"}]},{"type":"error","name":"ECDSAInvalidSignatureS","inputs":[{"name":"s","type":"bytes32","internalType":"bytes32"}]},{"type":"error","name":"ExpiredQKDSession","inputs":[{"name":"sessionKey","type":"bytes32","internalType":"bytes32"}]},{"type":"error","name":"InsufficientProofs","inputs":[{"name":"transferId","type":"bytes32","internalType":"bytes32"}]},{"type":"error","name":"InvalidCHSHProof","inputs":[]},{"type":"error","name":"InvalidPQCProof","inputs":[{"name":"transferId","type":"bytes32","internalType":"bytes32"},{"name":"validatorId","type":"uint256","internalType":"uint256"}]},{"type":"error","name":"InvalidSigner","inputs":[]},{"type":"error","name":"InvalidTransfer","inputs":[]},{"type":"error","name":"OwnableInvalidOwner","inputs":[{"name":"owner","type":"address","internalType":"address"}]},{"type":"error","name":"OwnableUnauthorizedAccount","inputs":[{"name":"account","type":"address","internalType":"address"}]},{"type":"error","name":"ProofAlreadySubmitted","inputs":[{"name":"transferId","type":"bytes32","internalType":"bytes32"},{"name":"validatorId","type":"uint256","internalType":"uint256"}]},{"type":"error","name":"ReentrancyGuardReentrantCall","inputs":[]},{"type":"error","name":"SafeERC20FailedOperation","inputs":[{"name":"token","type":"address","internalType":"address"}]},{"type":"error","name":"TokenNotSupported","inputs":[{"name":"token","type":"address","internalType":"address"}]},{"type":"error","name":"TransferAlreadyExecuted","inputs":[{"name":"transferId","type":"bytes32","internalType":"bytes32"}]},{"type":"error","name":"ValidatorNotAuthorized","inputs":[{"name":"validator","type":"address","internalType":"address"}]}],"userdoc":{},"devdoc":{},"evm":{"bytecode":{"object":"608060405234801561000f575f5ffd5b5060405161378f38038061378f833981810160405281019061003191906102ae565b33600161005061004561015d60201b60201c565b61018660201b60201c565b5f01819055505f73ffffffffffffffffffffffffffffffffffffffff168173ffffffffffffffffffffffffffffffffffffffff16036100c6575f6040517f1e4fbdf70000000000000000000000000000000000000000000000000000000081526004016100bd91906102fb565b60405180910390fd5b6100d58161018f60201b60201c565b508160095f6101000a81548173ffffffffffffffffffffffffffffffffffffffff021916908373ffffffffffffffffffffffffffffffffffffffff16021790555080600a5f6101000a81548173ffffffffffffffffffffffffffffffffffffffff021916908373ffffffffffffffffffffffffffffffffffffffff1602179055505050610314565b5f7f9b779b17422d0df92223018b32b4d1fa46e071723d6817e2486d003becc55f005f1b905090565b5f819050919050565b5f5f5f9054906101000a900473ffffffffffffffffffffffffffffffffffffffff169050815f5f6101000a81548173ffffffffffffffffffffffffffffffffffffffff021916908373ffffffffffffffffffffffffffffffffffffffff1602179055508173ffffffffffffffffffffffffffffffffffffffff168173ffffffffffffffffffffffffffffffffffffffff167f8be0079c531659141344cd1fd0a4f28419497f9722a3daafe3b4186f6b6457e060405160405180910390a35050565b5f5ffd5b5f73ffffffffffffffffffffffffffffffffffffffff82169050919050565b5f61027d82610254565b9050919050565b61028d81610273565b8114610297575f5ffd5b50565b5f815190506102a881610284565b92915050565b5f5f604083850312156102c4576102c3610250565b5b5f6102d18582860161029a565b92505060206102e28582860161029a565b9150509250929050565b6102f581610273565b82525050565b5f60208201905061030e5f8301846102ec565b92915050565b61346e806103215f395ff3fe608060405234801561000f575f5ffd5b5060043610610204575f3560e01c80636a62a4c011610118578063bf9270b0116100ab578063ea2979ee1161007a578063ea2979ee14610607578063ed56d73f14610623578063f1b075ef14610656578063f2fde38b14610674578063facd743b1461069057610204565b8063bf9270b01461056d578063c704babe1461059d578063dcd479e6146105bb578063e27eef23146105d757610204565b8063889f88ec116100e7578063889f88ec146104f95780638da5cb5b1461051757806396c4ca7214610535578063b5f2ad1d1461055157610204565b80636a62a4c0146104855780636c0fed24146104a15780636ca85755146104d1578063715018a6146104ef57610204565b80633c64f04b1161019b5780635d5f426d1161016a5780635d5f426d146103e15780635ed1f963146103fd5780636201a6771461041b57806365d65e861461043757806368c4ac261461045557610204565b80633c64f04b1461034057806340a141ff146103795780634d238c8e14610395578063548d496f146103b157610204565b80632093c15b116101d75780632093c15b146102a45780632a4f1621146102d857806335aa2e44146102f457806336f956701461032457610204565b80630f3799be146102085780630f43a6771461023857806310fbee2814610256578063174e683214610274575b5f5ffd5b610222600480360381019061021d91906125a4565b6106c0565b60405161022f91906125e9565b60405180910390f35b6102406106dd565b60405161024d919061261a565b60405180910390f35b61025e6106e3565b60405161026b919061261a565b60405180910390f35b61028e6004803603810190610289919061268d565b6106e8565b60405161029b919061261a565b60405180910390f35b6102be60048036038101906102b991906126e2565b610781565b6040516102cf95949392919061279f565b60405180910390f35b6102f260048036038101906102ed919061268d565b610844565b005b61030e600480360381019061030991906127f7565b6108a4565b60405161031b9190612831565b60405180910390f35b61033e6004803603810190610339919061268d565b6108d4565b005b61035a600480360381019061035591906125a4565b610984565b6040516103709a9998979695949392919061284a565b60405180910390f35b610393600480360381019061038e919061268d565b610a5c565b005b6103af60048036038101906103aa919061268d565b610b9b565b005b6103cb60048036038101906103c691906127f7565b610d27565b6040516103d891906125e9565b60405180910390f35b6103fb60048036038101906103f691906127f7565b610d44565b005b610405610da4565b604051610412919061261a565b60405180910390f35b61043560048036038101906104309190612945565b610da9565b005b61043f6111b7565b60405161044c9190612831565b60405180910390f35b61046f600480360381019061046a919061268d565b6111dc565b60405161047c91906125e9565b60405180910390f35b61049f600480360381019061049a919061268d565b6111f9565b005b6104bb60048036038101906104b691906125a4565b611244565b6040516104c8919061261a565b60405180910390f35b6104d9611259565b6040516104e69190612a11565b60405180910390f35b6104f761127e565b005b610501611291565b60405161050e919061261a565b60405180910390f35b61051f611296565b60405161052c9190612831565b60405180910390f35b61054f600480360381019061054a9190612a2a565b6112bd565b005b61056b60048036038101906105669190612a87565b61144e565b005b61058760048036038101906105829190612b0b565b611890565b6040516105949190612b6f565b60405180910390f35b6105a5611cf7565b6040516105b2919061261a565b60405180910390f35b6105d560048036038101906105d0919061268d565b611cfd565b005b6105f160048036038101906105ec91906125a4565b611d48565b6040516105fe919061261a565b60405180910390f35b610621600480360381019061061c91906127f7565b611d5d565b005b61063d600480360381019061063891906125a4565b611dbe565b60405161064d9493929190612b88565b60405180910390f35b61065e611e13565b60405161066b9190612beb565b60405180910390f35b61068e6004803603810190610689919061268d565b611e38565b005b6106aa60048036038101906106a5919061268d565b611ebc565b6040516106b791906125e9565b60405180910390f35b5f60085f8381526020019081526020015f20544211159050919050565b600b5481565b600281565b5f5f600190505b600b548111610777578273ffffffffffffffffffffffffffffffffffffffff1660065f8381526020019081526020015f205f9054906101000a900473ffffffffffffffffffffffffffffffffffffffff1673ffffffffffffffffffffffffffffffffffffffff1603610764578091505061077c565b808061076f90612c31565b9150506106ef565b505f90505b919050565b6002602052815f5260405f20602052805f5260405f205f9150915050805f0154908060010180546107b190612ca5565b80601f01602080910402602001604051908101604052809291908181526020018280546107dd90612ca5565b80156108285780601f106107ff57610100808354040283529160200191610828565b820191905f5260205f20905b81548152906001019060200180831161080b57829003601f168201915b5050505050908060020154908060030154908060040154905085565b61084c611ed9565b600160055f8373ffffffffffffffffffffffffffffffffffffffff1673ffffffffffffffffffffffffffffffffffffffff1681526020019081526020015f205f6101000a81548160ff02191690831515021790555050565b6006602052805f5260405f205f915054906101000a900473ffffffffffffffffffffffffffffffffffffffff1681565b6108dc611ed9565b5f73ffffffffffffffffffffffffffffffffffffffff168173ffffffffffffffffffffffffffffffffffffffff1603610941576040517f815e1d6400000000000000000000000000000000000000000000000000000000815260040160405180910390fd5b80600c5f6101000a81548173ffffffffffffffffffffffffffffffffffffffff021916908373ffffffffffffffffffffffffffffffffffffffff16021790555050565b6001602052805f5260405f205f91509050805f015490806001015f9054906101000a900473ffffffffffffffffffffffffffffffffffffffff1690806002015f9054906101000a900473ffffffffffffffffffffffffffffffffffffffff1690806003015490806004015f9054906101000a900473ffffffffffffffffffffffffffffffffffffffff1690806005015f9054906101000a900473ffffffffffffffffffffffffffffffffffffffff1690806006015490806007015490806008015490806009015f9054906101000a900460ff1690508a565b610a64611ed9565b60075f8273ffffffffffffffffffffffffffffffffffffffff1673ffffffffffffffffffffffffffffffffffffffff1681526020019081526020015f205f9054906101000a900460ff16610aed576040517f08c379a0000000000000000000000000000000000000000000000000000000008152600401610ae490612d2f565b60405180910390fd5b5f60075f8373ffffffffffffffffffffffffffffffffffffffff1673ffffffffffffffffffffffffffffffffffffffff1681526020019081526020015f205f6101000a81548160ff021916908315150217905550600b5f815480929190610b5390612d4d565b9190505550610b61816106e8565b7f7126bef88d1149ccdff9681ed5aecd3ba5ae70c96517551de250af09cebd1a0b82604051610b909190612831565b60405180910390a250565b610ba3611ed9565b60075f8273ffffffffffffffffffffffffffffffffffffffff1673ffffffffffffffffffffffffffffffffffffffff1681526020019081526020015f205f9054906101000a900460ff1615610c2d576040517f08c379a0000000000000000000000000000000000000000000000000000000008152600401610c2490612dbe565b60405180910390fd5b600b5f815480929190610c3f90612c31565b91905055508060065f600b5481526020019081526020015f205f6101000a81548173ffffffffffffffffffffffffffffffffffffffff021916908373ffffffffffffffffffffffffffffffffffffffff160217905550600160075f8373ffffffffffffffffffffffffffffffffffffffff1673ffffffffffffffffffffffffffffffffffffffff1681526020019081526020015f205f6101000a81548160ff021916908315150217905550600b547f7429a06e9412e469f0d64f9d222640b0af359f556b709e2913588c227851b88d82604051610d1c9190612831565b60405180910390a250565b6004602052805f5260405f205f915054906101000a900460ff1681565b610d4c611ed9565b5f60045f8381526020019081526020015f205f6101000a81548160ff021916908315150217905550807fe08f91ec8619571a39cbfb365381d99e9458bab131f0bed3e4eeb1a76d608a3660405160405180910390a250565b600381565b60075f3373ffffffffffffffffffffffffffffffffffffffff1673ffffffffffffffffffffffffffffffffffffffff1681526020019081526020015f205f9054906101000a900460ff16610e3457336040517f80281c79000000000000000000000000000000000000000000000000000000008152600401610e2b9190612831565b60405180910390fd5b610e3c611f60565b5f60015f8681526020019081526020015f209050806009015f9054906101000a900460ff1615610ea357846040517f846380d5000000000000000000000000000000000000000000000000000000008152600401610e9a9190612b6f565b60405180910390fd5b60085f8381526020019081526020015f2054421115610ef957816040517ff80c890e000000000000000000000000000000000000000000000000000000008152600401610ef09190612b6f565b60405180910390fd5b5f610f03336106e8565b90505f60025f8881526020019081526020015f205f8381526020019081526020015f206004015414610f6e5785816040517fb17770b3000000000000000000000000000000000000000000000000000000008152600401610f65929190612ddc565b60405180910390fd5b5f8684604051602001610f82929190612e23565b60405160208183030381529060405280519060200120905060095f9054906101000a900473ffffffffffffffffffffffffffffffffffffffff1673ffffffffffffffffffffffffffffffffffffffff1663b3c821f6828888336040518563ffffffff1660e01b8152600401610ffa9493929190612e88565b602060405180830381865afa158015611015573d5f5f3e3d5ffd5b505050506040513d601f19601f820116820180604052508101906110399190612ef0565b61107c5786826040517f19d0c4b6000000000000000000000000000000000000000000000000000000008152600401611073929190612ddc565b60405180910390fd5b6040518060a0016040528088815260200187878080601f0160208091040260200160405190810160405280939291908181526020018383808284375f81840152601f19601f8201169050808301925050505050505081526020018581526020018381526020014281525060025f8981526020019081526020015f205f8481526020019081526020015f205f820151815f0155602082015181600101908161112391906130f0565b5060408201518160020155606082015181600301556080820151816004015590505060035f8881526020019081526020015f205f81548092919061116690612c31565b919050555081877fcdcc0bfb0506c954f9d9cc31e7f010b28d519d401eac9fad226a8910a39fe330864260405161119e929190612ddc565b60405180910390a35050506111b1611f82565b50505050565b600c5f9054906101000a900473ffffffffffffffffffffffffffffffffffffffff1681565b6005602052805f5260405f205f915054906101000a900460ff1681565b611201611ed9565b8060095f6101000a81548173ffffffffffffffffffffffffffffffffffffffff021916908373ffffffffffffffffffffffffffffffffffffffff16021790555050565b6003602052805f5260405f205f915090505481565b600a5f9054906101000a900473ffffffffffffffffffffffffffffffffffffffff1681565b611286611ed9565b61128f5f611f9c565b565b60c881565b5f5f5f9054906101000a900473ffffffffffffffffffffffffffffffffffffffff16905090565b60075f3373ffffffffffffffffffffffffffffffffffffffff1673ffffffffffffffffffffffffffffffffffffffff1681526020019081526020015f205f9054906101000a900460ff1661134857336040517f80281c7900000000000000000000000000000000000000000000000000000000815260040161133f9190612831565b60405180910390fd5b600a5f9054906101000a900473ffffffffffffffffffffffffffffffffffffffff1673ffffffffffffffffffffffffffffffffffffffff16636edabd2b8383336040518463ffffffff1660e01b81526004016113a6939291906131bf565b602060405180830381865afa1580156113c1573d5f5f3e3d5ffd5b505050506040513d601f19601f820116820180604052508101906113e59190612ef0565b61142657826040517ff80c890e00000000000000000000000000000000000000000000000000000000815260040161141d9190612b6f565b60405180910390fd5b610e104261143491906131ef565b60085f8581526020019081526020015f2081905550505050565b611456611f60565b8360055f8273ffffffffffffffffffffffffffffffffffffffff1673ffffffffffffffffffffffffffffffffffffffff1681526020019081526020015f205f9054906101000a900460ff166114e257806040517f06439c6b0000000000000000000000000000000000000000000000000000000081526004016114d99190612831565b60405180910390fd5b5f60015f8881526020019081526020015f209050806009015f9054906101000a900460ff161561154957866040517f846380d50000000000000000000000000000000000000000000000000000000081526004016115409190612b6f565b60405180910390fd5b600260035f8981526020019081526020015f205410156115a057866040517fc82531a70000000000000000000000000000000000000000000000000000000081526004016115979190612b6f565b60405180910390fd5b60c885116115da576040517fd19c177200000000000000000000000000000000000000000000000000000000815260040160405180910390fd5b5f8787876040516020016115f093929190613287565b6040516020818303038152906040528051906020012090505f6116128261205d565b90505f6116628288888080601f0160208091040260200160405190810160405280939291908181526020018383808284375f81840152601f19601f82011690508083019250505050505050612090565b9050600c5f9054906101000a900473ffffffffffffffffffffffffffffffffffffffff1673ffffffffffffffffffffffffffffffffffffffff168173ffffffffffffffffffffffffffffffffffffffff1614158061170c57505f73ffffffffffffffffffffffffffffffffffffffff16600c5f9054906101000a900473ffffffffffffffffffffffffffffffffffffffff1673ffffffffffffffffffffffffffffffffffffffff16145b15611743576040517ff129b09000000000000000000000000000000000000000000000000000000000815260040160405180910390fd5b6001846009015f6101000a81548160ff02191690831515021790555088846002015f6101000a81548173ffffffffffffffffffffffffffffffffffffffff021916908373ffffffffffffffffffffffffffffffffffffffff1602179055506117f3846005015f9054906101000a900473ffffffffffffffffffffffffffffffffffffffff1685600301548b73ffffffffffffffffffffffffffffffffffffffff166120ba9092919063ffffffff16565b836005015f9054906101000a900473ffffffffffffffffffffffffffffffffffffffff1673ffffffffffffffffffffffffffffffffffffffff168a7f706d19a0419829f5b040af42eceaa508d974f5d02cd30b93ec3d2c9a02b95815866003015460035f8f81526020019081526020015f20546040516118749291906132c3565b60405180910390a35050505050611889611f82565b5050505050565b5f611899611f60565b8460055f8273ffffffffffffffffffffffffffffffffffffffff1673ffffffffffffffffffffffffffffffffffffffff1681526020019081526020015f205f9054906101000a900460ff1661192557806040517f06439c6b00000000000000000000000000000000000000000000000000000000815260040161191c9190612831565b60405180910390fd5b8260045f8281526020019081526020015f205f9054906101000a900460ff1661198557806040517f264e42cf00000000000000000000000000000000000000000000000000000000815260040161197c919061261a565b60405180910390fd5b5f8614806119be57505f73ffffffffffffffffffffffffffffffffffffffff168573ffffffffffffffffffffffffffffffffffffffff16145b156119f5576040517f2f35253100000000000000000000000000000000000000000000000000000000815260040160405180910390fd5b5f33888888884244604051602001611a1397969594939291906132ea565b6040516020818303038152906040528051906020012090506040518061014001604052808281526020018973ffffffffffffffffffffffffffffffffffffffff1681526020015f73ffffffffffffffffffffffffffffffffffffffff1681526020018881526020013373ffffffffffffffffffffffffffffffffffffffff1681526020018773ffffffffffffffffffffffffffffffffffffffff1681526020014681526020018681526020014281526020015f151581525060015f8381526020019081526020015f205f820151815f01556020820151816001015f6101000a81548173ffffffffffffffffffffffffffffffffffffffff021916908373ffffffffffffffffffffffffffffffffffffffff1602179055506040820151816002015f6101000a81548173ffffffffffffffffffffffffffffffffffffffff021916908373ffffffffffffffffffffffffffffffffffffffff160217905550606082015181600301556080820151816004015f6101000a81548173ffffffffffffffffffffffffffffffffffffffff021916908373ffffffffffffffffffffffffffffffffffffffff16021790555060a0820151816005015f6101000a81548173ffffffffffffffffffffffffffffffffffffffff021916908373ffffffffffffffffffffffffffffffffffffffff16021790555060c0820151816006015560e082015181600701556101008201518160080155610120820151816009015f6101000a81548160ff021916908315150217905550905050611c753330898b73ffffffffffffffffffffffffffffffffffffffff1661210d909392919063ffffffff16565b8573ffffffffffffffffffffffffffffffffffffffff163373ffffffffffffffffffffffffffffffffffffffff16827f443062962fd8af89b585d9aea366f1a96e0417141a41713894aa626d3b5217148b8b468b604051611cd9949392919061336a565b60405180910390a4809350505050611cef611f82565b949350505050565b610e1081565b611d05611ed9565b80600a5f6101000a81548173ffffffffffffffffffffffffffffffffffffffff021916908373ffffffffffffffffffffffffffffffffffffffff16021790555050565b6008602052805f5260405f205f915090505481565b611d65611ed9565b600160045f8381526020019081526020015f205f6101000a81548160ff021916908315150217905550807f57186b2755d8bf6e82203d992be82e3f9be370e95c5362833d84c7abd94b430960405160405180910390a250565b5f5f5f5f5f60015f8781526020019081526020015f2090505f81600801541415816009015f9054906101000a900460ff1660035f8981526020019081526020015f205460029450945094509450509193509193565b60095f9054906101000a900473ffffffffffffffffffffffffffffffffffffffff1681565b611e40611ed9565b5f73ffffffffffffffffffffffffffffffffffffffff168173ffffffffffffffffffffffffffffffffffffffff1603611eb0575f6040517f1e4fbdf7000000000000000000000000000000000000000000000000000000008152600401611ea79190612831565b60405180910390fd5b611eb981611f9c565b50565b6007602052805f5260405f205f915054906101000a900460ff1681565b611ee1612162565b73ffffffffffffffffffffffffffffffffffffffff16611eff611296565b73ffffffffffffffffffffffffffffffffffffffff1614611f5e57611f22612162565b6040517f118cdaa7000000000000000000000000000000000000000000000000000000008152600401611f559190612831565b60405180910390fd5b565b611f68612169565b6002611f7a611f756121aa565b6121d3565b5f0181905550565b6001611f94611f8f6121aa565b6121d3565b5f0181905550565b5f5f5f9054906101000a900473ffffffffffffffffffffffffffffffffffffffff169050815f5f6101000a81548173ffffffffffffffffffffffffffffffffffffffff021916908373ffffffffffffffffffffffffffffffffffffffff1602179055508173ffffffffffffffffffffffffffffffffffffffff168173ffffffffffffffffffffffffffffffffffffffff167f8be0079c531659141344cd1fd0a4f28419497f9722a3daafe3b4186f6b6457e060405160405180910390a35050565b5f7f19457468657265756d205369676e6564204d6573736167653a0a3332000000005f5281601c52603c5f209050919050565b5f5f5f5f61209e86866121dc565b9250925092506120ae8282612231565b82935050505092915050565b6120c78383836001612393565b61210857826040517f5274afe70000000000000000000000000000000000000000000000000000000081526004016120ff9190612831565b60405180910390fd5b505050565b61211b8484848460016123f5565b61215c57836040517f5274afe70000000000000000000000000000000000000000000000000000000081526004016121539190612831565b60405180910390fd5b50505050565b5f33905090565b612171612466565b156121a8576040517f3ee5aeb500000000000000000000000000000000000000000000000000000000815260040160405180910390fd5b565b5f7f9b779b17422d0df92223018b32b4d1fa46e071723d6817e2486d003becc55f005f1b905090565b5f819050919050565b5f5f5f604184510361221c575f5f5f602087015192506040870151915060608701515f1a905061220e88828585612482565b95509550955050505061222a565b5f600285515f1b9250925092505b9250925092565b5f6003811115612244576122436133ad565b5b826003811115612257576122566133ad565b5b031561238f5760016003811115612271576122706133ad565b5b826003811115612284576122836133ad565b5b036122bb576040517ff645eedf00000000000000000000000000000000000000000000000000000000815260040160405180910390fd5b600260038111156122cf576122ce6133ad565b5b8260038111156122e2576122e16133ad565b5b0361232657805f1c6040517ffce698f700000000000000000000000000000000000000000000000000000000815260040161231d919061261a565b60405180910390fd5b600380811115612339576123386133ad565b5b82600381111561234c5761234b6133ad565b5b0361238e57806040517fd78bce0c0000000000000000000000000000000000000000000000000000000081526004016123859190612b6f565b60405180910390fd5b5b5050565b5f5f63a9059cbb60e01b9050604051815f525f1960601c86166004528460245260205f60445f5f8b5af1925060015f511483166123e75783831516156123db573d5f823e3d81fd5b5f873b113d1516831692505b806040525050949350505050565b5f5f6323b872dd60e01b9050604051815f525f1960601c87166004525f1960601c86166024528460445260205f60645f5f8c5af1925060015f51148316612453578383151615612447573d5f823e3d81fd5b5f883b113d1516831692505b806040525f606052505095945050505050565b5f60026124796124746121aa565b6121d3565b5f015414905090565b5f5f5f7f7fffffffffffffffffffffffffffffff5d576e7357a4501ddfe92f46681b20a0845f1c11156124be575f60038592509250925061255f565b5f6001888888886040515f81526020016040526040516124e194939291906133f5565b6020604051602081039080840390855afa158015612501573d5f5f3e3d5ffd5b5050506020604051035190505f73ffffffffffffffffffffffffffffffffffffffff168173ffffffffffffffffffffffffffffffffffffffff1603612552575f60015f5f1b9350935093505061255f565b805f5f5f1b935093509350505b9450945094915050565b5f5ffd5b5f5ffd5b5f819050919050565b61258381612571565b811461258d575f5ffd5b50565b5f8135905061259e8161257a565b92915050565b5f602082840312156125b9576125b8612569565b5b5f6125c684828501612590565b91505092915050565b5f8115159050919050565b6125e3816125cf565b82525050565b5f6020820190506125fc5f8301846125da565b92915050565b5f819050919050565b61261481612602565b82525050565b5f60208201905061262d5f83018461260b565b92915050565b5f73ffffffffffffffffffffffffffffffffffffffff82169050919050565b5f61265c82612633565b9050919050565b61266c81612652565b8114612676575f5ffd5b50565b5f8135905061268781612663565b92915050565b5f602082840312156126a2576126a1612569565b5b5f6126af84828501612679565b91505092915050565b6126c181612602565b81146126cb575f5ffd5b50565b5f813590506126dc816126b8565b92915050565b5f5f604083850312156126f8576126f7612569565b5b5f61270585828601612590565b9250506020612716858286016126ce565b9150509250929050565b61272981612571565b82525050565b5f81519050919050565b5f82825260208201905092915050565b8281835e5f83830152505050565b5f601f19601f8301169050919050565b5f6127718261272f565b61277b8185612739565b935061278b818560208601612749565b61279481612757565b840191505092915050565b5f60a0820190506127b25f830188612720565b81810360208301526127c48187612767565b90506127d36040830186612720565b6127e0606083018561260b565b6127ed608083018461260b565b9695505050505050565b5f6020828403121561280c5761280b612569565b5b5f612819848285016126ce565b91505092915050565b61282b81612652565b82525050565b5f6020820190506128445f830184612822565b92915050565b5f6101408201905061285e5f83018d612720565b61286b602083018c612822565b612878604083018b612822565b612885606083018a61260b565b6128926080830189612822565b61289f60a0830188612822565b6128ac60c083018761260b565b6128b960e083018661260b565b6128c761010083018561260b565b6128d56101208301846125da565b9b9a5050505050505050505050565b5f5ffd5b5f5ffd5b5f5ffd5b5f5f83601f840112612905576129046128e4565b5b8235905067ffffffffffffffff811115612922576129216128e8565b5b60208301915083600182028301111561293e5761293d6128ec565b5b9250929050565b5f5f5f5f6060858703121561295d5761295c612569565b5b5f61296a87828801612590565b945050602085013567ffffffffffffffff81111561298b5761298a61256d565b5b612997878288016128f0565b935093505060406129aa87828801612590565b91505092959194509250565b5f819050919050565b5f6129d96129d46129cf84612633565b6129b6565b612633565b9050919050565b5f6129ea826129bf565b9050919050565b5f6129fb826129e0565b9050919050565b612a0b816129f1565b82525050565b5f602082019050612a245f830184612a02565b92915050565b5f5f5f60408486031215612a4157612a40612569565b5b5f612a4e86828701612590565b935050602084013567ffffffffffffffff811115612a6f57612a6e61256d565b5b612a7b868287016128f0565b92509250509250925092565b5f5f5f5f5f60808688031215612aa057612a9f612569565b5b5f612aad88828901612590565b9550506020612abe88828901612679565b9450506040612acf888289016126ce565b935050606086013567ffffffffffffffff811115612af057612aef61256d565b5b612afc888289016128f0565b92509250509295509295909350565b5f5f5f5f60808587031215612b2357612b22612569565b5b5f612b3087828801612679565b9450506020612b41878288016126ce565b9350506040612b5287828801612679565b9250506060612b63878288016126ce565b91505092959194509250565b5f602082019050612b825f830184612720565b92915050565b5f608082019050612b9b5f8301876125da565b612ba860208301866125da565b612bb5604083018561260b565b612bc2606083018461260b565b95945050505050565b5f612bd5826129e0565b9050919050565b612be581612bcb565b82525050565b5f602082019050612bfe5f830184612bdc565b92915050565b7f4e487b71000000000000000000000000000000000000000000000000000000005f52601160045260245ffd5b5f612c3b82612602565b91507fffffffffffffffffffffffffffffffffffffffffffffffffffffffffffffffff8203612c6d57612c6c612c04565b5b600182019050919050565b7f4e487b71000000000000000000000000000000000000000000000000000000005f52602260045260245ffd5b5f6002820490506001821680612cbc57607f821691505b602082108103612ccf57612cce612c78565b5b50919050565b5f82825260208201905092915050565b7f4e6f742076616c696461746f72000000000000000000000000000000000000005f82015250565b5f612d19600d83612cd5565b9150612d2482612ce5565b602082019050919050565b5f6020820190508181035f830152612d4681612d0d565b9050919050565b5f612d5782612602565b91505f8203612d6957612d68612c04565b5b600182039050919050565b7f416c72656164792076616c696461746f720000000000000000000000000000005f82015250565b5f612da8601183612cd5565b9150612db382612d74565b602082019050919050565b5f6020820190508181035f830152612dd581612d9c565b9050919050565b5f604082019050612def5f830185612720565b612dfc602083018461260b565b9392505050565b5f819050919050565b612e1d612e1882612571565b612e03565b82525050565b5f612e2e8285612e0c565b602082019150612e3e8284612e0c565b6020820191508190509392505050565b828183375f83830152505050565b5f612e678385612739565b9350612e74838584612e4e565b612e7d83612757565b840190509392505050565b5f606082019050612e9b5f830187612720565b8181036020830152612eae818587612e5c565b9050612ebd6040830184612822565b95945050505050565b612ecf816125cf565b8114612ed9575f5ffd5b50565b5f81519050612eea81612ec6565b92915050565b5f60208284031215612f0557612f04612569565b5b5f612f1284828501612edc565b91505092915050565b7f4e487b71000000000000000000000000000000000000000000000000000000005f52604160045260245ffd5b5f819050815f5260205f209050919050565b5f6020601f8301049050919050565b5f82821b905092915050565b5f60088302612fa47fffffffffffffffffffffffffffffffffffffffffffffffffffffffffffffffff82612f69565b612fae8683612f69565b95508019841693508086168417925050509392505050565b5f612fe0612fdb612fd684612602565b6129b6565b612602565b9050919050565b5f819050919050565b612ff983612fc6565b61300d61300582612fe7565b848454612f75565b825550505050565b5f5f905090565b613024613015565b61302f818484612ff0565b505050565b5f5b828110156130555761304a5f82840161301c565b600181019050613036565b505050565b601f8211156130a857828211156130a75761307481612f48565b61307d83612f5a565b61308685612f5a565b6020861015613093575f90505b8083016130a282840382613034565b505050505b5b505050565b5f82821c905092915050565b5f6130c85f19846008026130ad565b1980831691505092915050565b5f6130e083836130b9565b9150826002028217905092915050565b6130f98261272f565b67ffffffffffffffff81111561311257613111612f1b565b5b61311c8254612ca5565b61312782828561305a565b5f60209050601f831160018114613158575f8415613146578287015190505b61315085826130d5565b8655506131b7565b601f19841661316686612f48565b5f5b8281101561318d57848901518255600182019150602085019450602081019050613168565b868310156131aa57848901516131a6601f8916826130b9565b8355505b6001600288020188555050505b505050505050565b5f6040820190508181035f8301526131d8818587612e5c565b90506131e76020830184612822565b949350505050565b5f6131f982612602565b915061320483612602565b925082820190508082111561321c5761321b612c04565b5b92915050565b5f8160601b9050919050565b5f61323882613222565b9050919050565b5f6132498261322e565b9050919050565b61326161325c82612652565b61323f565b82525050565b5f819050919050565b61328161327c82612602565b613267565b82525050565b5f6132928286612e0c565b6020820191506132a28285613250565b6014820191506132b28284613270565b602082019150819050949350505050565b5f6040820190506132d65f83018561260b565b6132e3602083018461260b565b9392505050565b5f6132f5828a613250565b6014820191506133058289613250565b6014820191506133158288613270565b6020820191506133258287613250565b6014820191506133358286613270565b6020820191506133458285613270565b6020820191506133558284613270565b60208201915081905098975050505050505050565b5f60808201905061337d5f830187612822565b61338a602083018661260b565b613397604083018561260b565b6133a4606083018461260b565b95945050505050565b7f4e487b71000000000000000000000000000000000000000000000000000000005f52602160045260245ffd5b5f60ff82169050919050565b6133ef816133da565b82525050565b5f6080820190506134085f830187612720565b61341560208301866133e6565b6134226040830185612720565b61342f6060830184612720565b9594505050505056fea26469706673582212205cd3a051ab4a40892463eff07715954297e6fdf5a0d42e225c2e01fc401859b464736f6c63430008230033","linkReferences":{}},"methodIdentifiers":{"MIN_CHSH_SCORE()":"889f88ec","MIN_VALIDATORS()":"5ed1f963","PROOF_THRESHOLD()":"10fbee28","QKD_SESSION_DURATION()":"c704babe","addValidator(address)":"4d238c8e","backendSigner()":"65d65e86","executeTransfer(bytes32,address,uint256,bytes)":"b5f2ad1d","getTransferStatus(bytes32)":"ed56d73f","getValidatorId(address)":"174e6832","initiateTransfer(address,uint256,address,uint256)":"bf9270b0","isQKDSessionValid(bytes32)":"0f3799be","isValidator(address)":"facd743b","owner()":"8da5cb5b","pqcVerifier()":"f1b075ef","proofCount(bytes32)":"6c0fed24","proofs(bytes32,uint256)":"2093c15b","qkdSessionExpiry(bytes32)":"e27eef23","quantumValidator()":"6ca85755","registerQKDSession(bytes32,bytes)":"96c4ca72","removeValidator(address)":"40a141ff","renounceOwnership()":"715018a6","setBackendSigner(address)":"36f95670","setPQCVerifier(address)":"6a62a4c0","setQuantumValidator(address)":"dcd479e6","submitProof(bytes32,bytes,bytes32)":"6201a677","supportChain(uint256)":"ea2979ee","supportToken(address)":"2a4f1621","supportedChains(uint256)":"548d496f","supportedTokens(address)":"68c4ac26","transferOwnership(address)":"f2fde38b","transfers(bytes32)":"3c64f04b","unsupportChain(uint256)":"5d5f426d","validatorCount()":"0f43a677","validators(uint256)":"35aa2e44"}}}}}