{
  "_format": "hh-sol-artifact-1",
  "contractName": "PQCSignatureVerifier",
  "sourceName": "contracts/PQCSignatureVerifier.sol",
  "abi": [
    {
      "inputs": [],
      "stateMutability": "nonpayable",
      "type": "constructor"
    },
    {
      "inputs": [
        {
          "internalType": "address",
          "name": "owner",
          "type": "address"
        }
      ],
      "name": "OwnableInvalidOwner",
      "type": "error"
    },
    {
      "inputs": [
        {
          "internalType": "address",
          "name": "account",
          "type": "address"
        }
      ],
      "name": "OwnableUnauthorizedAccount",
      "type": "error"
    },
    {
      "anonymous": false,
      "inputs": [
        {
          "indexed": true,
          "internalType": "address",
          "name": "previousOwner",
          "type": "address"
        },
        {
          "indexed": true,
          "internalType": "address",
          "name": "newOwner",
          "type": "address"
        }
      ],
      "name": "OwnershipTransferred",
      "type": "event"
    },
    {
      "anonymous": false,
      "inputs": [
        {
          "indexed": true,
          "internalType": "bytes32",
          "name": "messageHash",
          "type": "bytes32"
        },
        {
          "indexed": true,
          "internalType": "address",
          "name": "validator",
          "type": "address"
        },
        {
          "indexed": false,
          "internalType": "bool",
          "name": "valid",
          "type": "bool"
        }
      ],
      "name": "SignatureVerified",
      "type": "event"
    },
    {
      "anonymous": false,
      "inputs": [
        {
          "indexed": true,
          "internalType": "address",
          "name": "validator",
          "type": "address"
        },
        {
          "indexed": false,
          "internalType": "bytes32",
          "name": "publicKeyHash",
          "type": "bytes32"
        },
        {
          "indexed": false,
          "internalType": "enum IPQCSignature.PQAlgorithm",
          "name": "algorithm",
          "type": "uint8"
        },
        {
          "indexed": false,
          "internalType": "bool",
          "name": "quantumCertified",
          "type": "bool"
        }
      ],
      "name": "ValidatorKeyRegistered",
      "type": "event"
    },
    {
      "inputs": [
        {
          "internalType": "address",
          "name": "validator",
          "type": "address"
        }
      ],
      "name": "getValidatorKey",
      "outputs": [
        {
          "internalType": "bytes32",
          "name": "publicKeyHash",
          "type": "bytes32"
        },
        {
          "internalType": "enum IPQCSignature.PQAlgorithm",
          "name": "algorithm",
          "type": "uint8"
        }
      ],
      "stateMutability": "view",
      "type": "function"
    },
    {
      "inputs": [
        {
          "internalType": "address",
          "name": "validator",
          "type": "address"
        }
      ],
      "name": "isQuantumCertified",
      "outputs": [
        {
          "internalType": "bool",
          "name": "certified",
          "type": "bool"
        }
      ],
      "stateMutability": "view",
      "type": "function"
    },
    {
      "inputs": [
        {
          "internalType": "bytes",
          "name": "signature",
          "type": "bytes"
        }
      ],
      "name": "markSignatureUsed",
      "outputs": [],
      "stateMutability": "nonpayable",
      "type": "function"
    },
    {
      "inputs": [],
      "name": "owner",
      "outputs": [
        {
          "internalType": "address",
          "name": "",
          "type": "address"
        }
      ],
      "stateMutability": "view",
      "type": "function"
    },
    {
      "inputs": [
        {
          "internalType": "bytes",
          "name": "publicKey",
          "type": "bytes"
        },
        {
          "internalType": "enum IPQCSignature.PQAlgorithm",
          "name": "algorithm",
          "type": "uint8"
        },
        {
          "internalType": "bytes32",
          "name": "qnrgSeedHash",
          "type": "bytes32"
        },
        {
          "internalType": "bool",
          "name": "quantumCertified",
          "type": "bool"
        }
      ],
      "name": "registerValidatorKey",
      "outputs": [],
      "stateMutability": "nonpayable",
      "type": "function"
    },
    {
      "inputs": [],
      "name": "renounceOwnership",
      "outputs": [],
      "stateMutability": "nonpayable",
      "type": "function"
    },
    {
      "inputs": [
        {
          "internalType": "address",
          "name": "newOwner",
          "type": "address"
        }
      ],
      "name": "transferOwnership",
      "outputs": [],
      "stateMutability": "nonpayable",
      "type": "function"
    },
    {
      "inputs": [
        {
          "internalType": "bytes32",
          "name": "",
          "type": "bytes32"
        }
      ],
      "name": "usedSignatures",
      "outputs": [
        {
          "internalType": "bool",
          "name": "",
          "type": "bool"
        }
      ],
      "stateMutability": "view",
      "type": "function"
    },
    {
      "inputs": [
        {
          "internalType": "address",
          "name": "",
          "type": "address"
        }
      ],
      "name": "validatorKeys",
      "outputs": [
        {
          "internalType": "bytes",
          "name": "publicKey",
          "type": "bytes"
        },
        {
          "internalType": "enum IPQCSignature.PQAlgorithm",
          "name": "algorithm",
          "type": "uint8"
        },
        {
          "internalType": "bytes32",
          "name": "qnrgSeedHash",
          "type": "bytes32"
        },
        {
          "internalType": "bool",
          "name": "quantumCertified",
          "type": "bool"
        },
        {
          "internalType": "bool",
          "name": "registered",
          "type": "bool"
        }
      ],
      "stateMutability": "view",
      "type": "function"
    },
    {
      "inputs": [
        {
          "internalType": "bytes32",
          "name": "message",
          "type": "bytes32"
        },
        {
          "internalType": "bytes",
          "name": "signature",
          "type": "bytes"
        },
        {
          "internalType": "address",
          "name": "signer",
          "type": "address"
        }
      ],
      "name": "verifyPQC",
      "outputs": [
        {
          "internalType": "bool",
          "name": "valid",
          "type": "bool"
        }
      ],
      "stateMutability": "view",
      "type": "function"
    },
    {
      "inputs": [
        {
          "internalType": "bytes32",
          "name": "message",
          "type": "bytes32"
        },
        {
          "internalType": "bytes",
          "name": "signature",
          "type": "bytes"
        },
        {
          "internalType": "bytes",
          "name": "publicKey",
          "type": "bytes"
        },
        {
          "internalType": "enum IPQCSignature.PQAlgorithm",
          "name": "algorithm",
          "type": "uint8"
        }
      ],
      "name": "verifyPQCWithKey",
      "outputs": [
        {
          "internalType": "bool",
          "name": "valid",
          "type": "bool"
        }
      ],
      "stateMutability": "pure",
      "type": "function"
    }
  ],
  "bytecode": "0x608060405234801561001057600080fd5b50338061003757604051631e4fbdf760e01b81526000600482015260240160405180910390fd5b61004081610046565b50610096565b600080546001600160a01b038381166001600160a01b0319831681178455604051919092169283917f8be0079c531659141344cd1fd0a4f28419497f9722a3daafe3b4186f6b6457e09190a35050565b610f37806100a56000396000f3fe608060405234801561001057600080fd5b50600436106100a95760003560e01c80638ec8ab1a116100715780638ec8ab1a146101345780639318f6bd14610173578063ada14c6c14610186578063b3c821f614610199578063f2fde38b146101ac578063f978fd61146101bf57600080fd5b80635c0569f8146100ae5780636324c3a2146100db578063715018a6146100fc5780638918f874146101065780638da5cb5b14610119575b600080fd5b6100c16100bc366004610a78565b6101e2565b6040516100d2959493929190610ad2565b60405180910390f35b6100ee6100e9366004610a78565b6102a2565b6040516100d2929190610b48565b610104610427565b005b610104610114366004610bb4565b61043b565b6000546040516001600160a01b0390911681526020016100d2565b610163610142366004610a78565b6001600160a01b031660009081526001602052604090206003015460ff1690565b60405190151581526020016100d2565b610104610181366004610c2c565b610635565b610163610194366004610c6e565b61066d565b6101636101a7366004610cf7565b6106c0565b6101046101ba366004610a78565b61088b565b6101636101cd366004610d55565b60026020526000908152604090205460ff1681565b6001602052600090815260409020805481906101fd90610d6e565b80601f016020809104026020016040519081016040528092919081815260200182805461022990610d6e565b80156102765780601f1061024b57610100808354040283529160200191610276565b820191906000526020600020905b81548152906001019060200180831161025957829003601f168201915b50505060018401546002850154600390950154939460ff91821694909350808216925061010090041685565b6001600160a01b038116600090815260016020526040808220815160a081019092528054839283929091829082906102d990610d6e565b80601f016020809104026020016040519081016040528092919081815260200182805461030590610d6e565b80156103525780601f1061032757610100808354040283529160200191610352565b820191906000526020600020905b81548152906001019060200180831161033557829003601f168201915b5050509183525050600182015460209091019060ff16600481111561037957610379610a9a565b600481111561038a5761038a610a9a565b81526002820154602082015260039091015460ff8082161515604084015261010090910416151560609091015260808101519091506104105760405162461bcd60e51b815260206004820152601860248201527f56616c696461746f72206e6f742072656769737465726564000000000000000060448201526064015b60405180910390fd5b805180516020918201209101519094909350915050565b61042f6108c9565b61043960006108f6565b565b33600090815260016020526040902060030154610100900460ff161561049c5760405162461bcd60e51b815260206004820152601660248201527512d95e48185b1c9958591e481c9959da5cdd195c995960521b6044820152606401610407565b836104de5760405162461bcd60e51b8152602060048201526012602482015271496e76616c6964207075626c6963206b657960701b6044820152606401610407565b6040518060a0016040528086868080601f01602080910402602001604051908101604052809392919081815260200183838082843760009201919091525050509082525060200184600481111561053757610537610a9a565b8152602080820185905283151560408084019190915260016060909301839052336000908152929091529020815181906105719082610e0d565b50602082015160018083018054909160ff199091169083600481111561059957610599610a9a565b0217905550604082810151600283015560608301516003909201805460809094015115156101000261ff00199315159390931661ffff1990941693909317919091179091555133907f0e098f6bdac1ccffd8266ce5a954918dab46ae136eac585ff2c5ef2a43fc776f906106109088908890610ecd565b6040519081900381206106269187908690610edd565b60405180910390a25050505050565b60008282604051610647929190610ecd565b60408051918290039091206000908152600260205220805460ff19166001179055505050565b60006106b387878787878080601f016020809104026020016040519081016040528093929190818152602001838380828437600092019190915250899250610946915050565b90505b9695505050505050565b6001600160a01b038116600090815260016020526040808220815160a08101909252805483929190829082906106f590610d6e565b80601f016020809104026020016040519081016040528092919081815260200182805461072190610d6e565b801561076e5780601f106107435761010080835404028352916020019161076e565b820191906000526020600020905b81548152906001019060200180831161075157829003601f168201915b5050509183525050600182015460209091019060ff16600481111561079557610795610a9a565b60048111156107a6576107a6610a9a565b81526002820154602082015260039091015460ff8082161515604084015261010090910416151560609091015260808101519091506108275760405162461bcd60e51b815260206004820152601c60248201527f56616c696461746f72206b6579206e6f742072656769737465726564000000006044820152606401610407565b60008585604051610839929190610ecd565b604080519182900390912060008181526002602052919091205490915060ff161561086957600092505050610883565b61087e87878785600001518660200151610946565b925050505b949350505050565b6108936108c9565b6001600160a01b0381166108bd57604051631e4fbdf760e01b815260006004820152602401610407565b6108c6816108f6565b50565b6000546001600160a01b031633146104395760405163118cdaa760e01b8152336004820152602401610407565b600080546001600160a01b038381166001600160a01b0319831681178455604051919092169283917f8be0079c531659141344cd1fd0a4f28419497f9722a3daafe3b4186f6b6457e09190a35050565b600080808084600481111561095d5761095d610a9a565b0361097057506109749050610520610a17565b600184600481111561098457610984610a9a565b036109975750610cdd90506107a0610a17565b60028460048111156109ab576109ab610a9a565b036109be57506111f39050610a20610a17565b60038460048111156109d2576109d2610a9a565b036109e5575061029a9050610381610a17565b60048460048111156109f9576109f9610a9a565b03610a0c57506105009050610701610a17565b600092505050610a53565b858214610a2957600092505050610a53565b80855114610a3c57600092505050610a53565b87610a4c57600092505050610a53565b6001925050505b95945050505050565b80356001600160a01b0381168114610a7357600080fd5b919050565b600060208284031215610a8a57600080fd5b610a9382610a5c565b9392505050565b634e487b7160e01b600052602160045260246000fd5b60058110610ace57634e487b7160e01b600052602160045260246000fd5b9052565b60a08152600086518060a084015260005b81811015610b00576020818a0181015160c0868401015201610ae3565b50600060c0828501015260c0601f19601f830116840101915050610b276020830187610ab0565b846040830152610b3b606083018515159052565b82151560808301526106b6565b82815260408101610a936020830184610ab0565b60008083601f840112610b6e57600080fd5b50813567ffffffffffffffff811115610b8657600080fd5b602083019150836020828501011115610b9e57600080fd5b9250929050565b803560058110610a7357600080fd5b600080600080600060808688031215610bcc57600080fd5b853567ffffffffffffffff811115610be357600080fd5b610bef88828901610b5c565b9096509450610c02905060208701610ba5565b92506040860135915060608601358015158114610c1e57600080fd5b809150509295509295909350565b60008060208385031215610c3f57600080fd5b823567ffffffffffffffff811115610c5657600080fd5b610c6285828601610b5c565b90969095509350505050565b60008060008060008060808789031215610c8757600080fd5b86359550602087013567ffffffffffffffff80821115610ca657600080fd5b610cb28a838b01610b5c565b90975095506040890135915080821115610ccb57600080fd5b50610cd889828a01610b5c565b9094509250610ceb905060608801610ba5565b90509295509295509295565b60008060008060608587031215610d0d57600080fd5b84359350602085013567ffffffffffffffff811115610d2b57600080fd5b610d3787828801610b5c565b9094509250610d4a905060408601610a5c565b905092959194509250565b600060208284031215610d6757600080fd5b5035919050565b600181811c90821680610d8257607f821691505b602082108103610da257634e487b7160e01b600052602260045260246000fd5b50919050565b634e487b7160e01b600052604160045260246000fd5b601f821115610e0857600081815260208120601f850160051c81016020861015610de55750805b601f850160051c820191505b81811015610e0457828155600101610df1565b5050505b505050565b815167ffffffffffffffff811115610e2757610e27610da8565b610e3b81610e358454610d6e565b84610dbe565b602080601f831160018114610e705760008415610e585750858301515b600019600386901b1c1916600185901b178555610e04565b600085815260208120601f198616915b82811015610e9f57888601518255948401946001909101908401610e80565b5085821015610ebd5787850151600019600388901b60f8161c191681555b5050505050600190811b01905550565b8183823760009101908152919050565b83815260608101610ef16020830185610ab0565b821515604083015294935050505056fea2646970667358221220cbe5b5593d6f1a6cacd8f23d35efa791018a39c0b9b7fbb198646411fbe1580064736f6c63430008140033",
  "linkReferences": {},
  "deployedLinkReferences": {}
}