{"abi":[{"type":"constructor","inputs":[{"name":"_pqcVerifier","type":"address","internalType":"address"},{"name":"_quantumValidator","type":"address","internalType":"address"},{"name":"_nttManager","type":"address","internalType":"address"}],"stateMutability":"nonpayable"},{"type":"function","name":"MIN_CHSH_SCORE","inputs":[],"outputs":[{"name":"","type":"uint256","internalType":"uint256"}],"stateMutability":"view"},{"type":"function","name":"MIN_VALIDATORS","inputs":[],"outputs":[{"name":"","type":"uint256","internalType":"uint256"}],"stateMutability":"view"},{"type":"function","name":"PROOF_THRESHOLD","inputs":[],"outputs":[{"name":"","type":"uint256","internalType":"uint256"}],"stateMutability":"view"},{"type":"function","name":"QKD_SESSION_DURATION","inputs":[],"outputs":[{"name":"","type":"uint256","internalType":"uint256"}],"stateMutability":"view"},{"type":"function","name":"addValidator","inputs":[{"name":"validator","type":"address","internalType":"address"}],"outputs":[],"stateMutability":"nonpayable"},{"type":"function","name":"backendSigner","inputs":[],"outputs":[{"name":"","type":"address","internalType":"address"}],"stateMutability":"view"},{"type":"function","name":"executeTransfer","inputs":[{"name":"transferId","type":"bytes32","internalType":"bytes32"},{"name":"destToken","type":"address","internalType":"address"},{"name":"chshScore","type":"uint256","internalType":"uint256"},{"name":"backendSignature","type":"bytes","internalType":"bytes"}],"outputs":[],"stateMutability":"nonpayable"},{"type":"function","name":"getTransferStatus","inputs":[{"name":"transferId","type":"bytes32","internalType":"bytes32"}],"outputs":[{"name":"exists","type":"bool","internalType":"bool"},{"name":"executed","type":"bool","internalType":"bool"},{"name":"_proofCount","type":"uint256","internalType":"uint256"},{"name":"required","type":"uint256","internalType":"uint256"}],"stateMutability":"view"},{"type":"function","name":"getValidatorId","inputs":[{"name":"validator","type":"address","internalType":"address"}],"outputs":[{"name":"","type":"uint256","internalType":"uint256"}],"stateMutability":"view"},{"type":"function","name":"initiateTransfer","inputs":[{"name":"token","type":"address","internalType":"address"},{"name":"amount","type":"uint256","internalType":"uint256"},{"name":"recipient","type":"address","internalType":"address"},{"name":"destChainId","type":"uint256","internalType":"uint256"}],"outputs":[{"name":"","type":"bytes32","internalType":"bytes32"}],"stateMutability":"nonpayable"},{"type":"function","name":"isQKDSessionValid","inputs":[{"name":"sessionKey","type":"bytes32","internalType":"bytes32"}],"outputs":[{"name":"","type":"bool","internalType":"bool"}],"stateMutability":"view"},{"type":"function","name":"isValidator","inputs":[{"name":"","type":"address","internalType":"address"}],"outputs":[{"name":"","type":"bool","internalType":"bool"}],"stateMutability":"view"},{"type":"function","name":"nttManager","inputs":[],"outputs":[{"name":"","type":"address","internalType":"contract INttManager"}],"stateMutability":"view"},{"type":"function","name":"owner","inputs":[],"outputs":[{"name":"","type":"address","internalType":"address"}],"stateMutability":"view"},{"type":"function","name":"pqcVerifier","inputs":[],"outputs":[{"name":"","type":"address","internalType":"contract IPQCSignature"}],"stateMutability":"view"},{"type":"function","name":"proofCount","inputs":[{"name":"","type":"bytes32","internalType":"bytes32"}],"outputs":[{"name":"","type":"uint256","internalType":"uint256"}],"stateMutability":"view"},{"type":"function","name":"proofs","inputs":[{"name":"","type":"bytes32","internalType":"bytes32"},{"name":"","type":"uint256","internalType":"uint256"}],"outputs":[{"name":"transferId","type":"bytes32","internalType":"bytes32"},{"name":"pqcSignature","type":"bytes","internalType":"bytes"},{"name":"qkdSessionKey","type":"bytes32","internalType":"bytes32"},{"name":"validatorId","type":"uint256","internalType":"uint256"},{"name":"timestamp","type":"uint256","internalType":"uint256"}],"stateMutability":"view"},{"type":"function","name":"qkdSessionExpiry","inputs":[{"name":"","type":"bytes32","internalType":"bytes32"}],"outputs":[{"name":"","type":"uint256","internalType":"uint256"}],"stateMutability":"view"},{"type":"function","name":"quantumValidator","inputs":[],"outputs":[{"name":"","type":"address","internalType":"contract IQuantumValidator"}],"stateMutability":"view"},{"type":"function","name":"registerQKDSession","inputs":[{"name":"sessionKeyHash","type":"bytes32","internalType":"bytes32"},{"name":"qkdProof","type":"bytes","internalType":"bytes"}],"outputs":[],"stateMutability":"nonpayable"},{"type":"function","name":"removeValidator","inputs":[{"name":"validator","type":"address","internalType":"address"}],"outputs":[],"stateMutability":"nonpayable"},{"type":"function","name":"renounceOwnership","inputs":[],"outputs":[],"stateMutability":"nonpayable"},{"type":"function","name":"setBackendSigner","inputs":[{"name":"_signer","type":"address","internalType":"address"}],"outputs":[],"stateMutability":"nonpayable"},{"type":"function","name":"setNttManager","inputs":[{"name":"_nttManager","type":"address","internalType":"address"}],"outputs":[],"stateMutability":"nonpayable"},{"type":"function","name":"setPQCVerifier","inputs":[{"name":"_pqcVerifier","type":"address","internalType":"address"}],"outputs":[],"stateMutability":"nonpayable"},{"type":"function","name":"setQuantumValidator","inputs":[{"name":"_quantumValidator","type":"address","internalType":"address"}],"outputs":[],"stateMutability":"nonpayable"},{"type":"function","name":"submitProof","inputs":[{"name":"transferId","type":"bytes32","internalType":"bytes32"},{"name":"pqcSignature","type":"bytes","internalType":"bytes"},{"name":"qkdSessionKey","type":"bytes32","internalType":"bytes32"}],"outputs":[],"stateMutability":"nonpayable"},{"type":"function","name":"supportChain","inputs":[{"name":"chainId","type":"uint256","internalType":"uint256"}],"outputs":[],"stateMutability":"nonpayable"},{"type":"function","name":"supportToken","inputs":[{"name":"token","type":"address","internalType":"address"}],"outputs":[],"stateMutability":"nonpayable"},{"type":"function","name":"supportedChains","inputs":[{"name":"","type":"uint256","internalType":"uint256"}],"outputs":[{"name":"","type":"bool","internalType":"bool"}],"stateMutability":"view"},{"type":"function","name":"supportedTokens","inputs":[{"name":"","type":"address","internalType":"address"}],"outputs":[{"name":"","type":"bool","internalType":"bool"}],"stateMutability":"view"},{"type":"function","name":"transferOwnership","inputs":[{"name":"newOwner","type":"address","internalType":"address"}],"outputs":[],"stateMutability":"nonpayable"},{"type":"function","name":"transfers","inputs":[{"name":"","type":"bytes32","internalType":"bytes32"}],"outputs":[{"name":"transferId","type":"bytes32","internalType":"bytes32"},{"name":"sourceToken","type":"address","internalType":"address"},{"name":"destToken","type":"address","internalType":"address"},{"name":"amount","type":"uint256","internalType":"uint256"},{"name":"sender","type":"address","internalType":"address"},{"name":"recipient","type":"address","internalType":"address"},{"name":"sourceChainId","type":"uint256","internalType":"uint256"},{"name":"destChainId","type":"uint256","internalType":"uint256"},{"name":"timestamp","type":"uint256","internalType":"uint256"},{"name":"executed","type":"bool","internalType":"bool"}],"stateMutability":"view"},{"type":"function","name":"unsupportChain","inputs":[{"name":"chainId","type":"uint256","internalType":"uint256"}],"outputs":[],"stateMutability":"nonpayable"},{"type":"function","name":"validatorCount","inputs":[],"outputs":[{"name":"","type":"uint256","internalType":"uint256"}],"stateMutability":"view"},{"type":"function","name":"validators","inputs":[{"name":"","type":"uint256","internalType":"uint256"}],"outputs":[{"name":"","type":"address","internalType":"address"}],"stateMutability":"view"},{"type":"event","name":"ChainSupported","inputs":[{"name":"chainId","type":"uint256","indexed":true,"internalType":"uint256"}],"anonymous":false},{"type":"event","name":"ChainUnsupported","inputs":[{"name":"chainId","type":"uint256","indexed":true,"internalType":"uint256"}],"anonymous":false},{"type":"event","name":"OwnershipTransferred","inputs":[{"name":"previousOwner","type":"address","indexed":true,"internalType":"address"},{"name":"newOwner","type":"address","indexed":true,"internalType":"address"}],"anonymous":false},{"type":"event","name":"ProofSubmitted","inputs":[{"name":"transferId","type":"bytes32","indexed":true,"internalType":"bytes32"},{"name":"validatorId","type":"uint256","indexed":true,"internalType":"uint256"},{"name":"qkdSessionKey","type":"bytes32","indexed":false,"internalType":"bytes32"},{"name":"timestamp","type":"uint256","indexed":false,"internalType":"uint256"}],"anonymous":false},{"type":"event","name":"TransferExecuted","inputs":[{"name":"transferId","type":"bytes32","indexed":true,"internalType":"bytes32"},{"name":"recipient","type":"address","indexed":true,"internalType":"address"},{"name":"amount","type":"uint256","indexed":false,"internalType":"uint256"},{"name":"proofCount","type":"uint256","indexed":false,"internalType":"uint256"}],"anonymous":false},{"type":"event","name":"TransferInitiated","inputs":[{"name":"transferId","type":"bytes32","indexed":true,"internalType":"bytes32"},{"name":"sender","type":"address","indexed":true,"internalType":"address"},{"name":"recipient","type":"address","indexed":true,"internalType":"address"},{"name":"token","type":"address","indexed":false,"internalType":"address"},{"name":"amount","type":"uint256","indexed":false,"internalType":"uint256"},{"name":"sourceChainId","type":"uint256","indexed":false,"internalType":"uint256"},{"name":"destChainId","type":"uint256","indexed":false,"internalType":"uint256"}],"anonymous":false},{"type":"event","name":"ValidatorAdded","inputs":[{"name":"validatorId","type":"uint256","indexed":true,"internalType":"uint256"},{"name":"validator","type":"address","indexed":false,"internalType":"address"}],"anonymous":false},{"type":"event","name":"ValidatorRemoved","inputs":[{"name":"validatorId","type":"uint256","indexed":true,"internalType":"uint256"},{"name":"validator","type":"address","indexed":false,"internalType":"address"}],"anonymous":false},{"type":"error","name":"CHSHScoreTooLow","inputs":[]},{"type":"error","name":"ChainNotSupported","inputs":[{"name":"chainId","type":"uint256","internalType":"uint256"}]},{"type":"error","name":"ECDSAInvalidSignature","inputs":[]},{"type":"error","name":"ECDSAInvalidSignatureLength","inputs":[{"name":"length","type":"uint256","internalType":"uint256"}]},{"type":"error","name":"ECDSAInvalidSignatureS","inputs":[{"name":"s","type":"bytes32","internalType":"bytes32"}]},{"type":"error","name":"ExpiredQKDSession","inputs":[{"name":"sessionKey","type":"bytes32","internalType":"bytes32"}]},{"type":"error","name":"InsufficientProofs","inputs":[{"name":"transferId","type":"bytes32","internalType":"bytes32"}]},{"type":"error","name":"InvalidCHSHProof","inputs":[]},{"type":"error","name":"InvalidPQCProof","inputs":[{"name":"transferId","type":"bytes32","internalType":"bytes32"},{"name":"validatorId","type":"uint256","internalType":"uint256"}]},{"type":"error","name":"InvalidSigner","inputs":[]},{"type":"error","name":"InvalidTransfer","inputs":[]},{"type":"error","name":"OwnableInvalidOwner","inputs":[{"name":"owner","type":"address","internalType":"address"}]},{"type":"error","name":"OwnableUnauthorizedAccount","inputs":[{"name":"account","type":"address","internalType":"address"}]},{"type":"error","name":"ProofAlreadySubmitted","inputs":[{"name":"transferId","type":"bytes32","internalType":"bytes32"},{"name":"validatorId","type":"uint256","internalType":"uint256"}]},{"type":"error","name":"ReentrancyGuardReentrantCall","inputs":[]},{"type":"error","name":"SafeERC20FailedOperation","inputs":[{"name":"token","type":"address","internalType":"address"}]},{"type":"error","name":"TokenNotSupported","inputs":[{"name":"token","type":"address","internalType":"address"}]},{"type":"error","name":"TransferAlreadyExecuted","inputs":[{"name":"transferId","type":"bytes32","internalType":"bytes32"}]},{"type":"error","name":"ValidatorNotAuthorized","inputs":[{"name":"validator","type":"address","internalType":"address"}]}],"bytecode":{"object":"0x608060405234801561000f575f5ffd5b50604051613ab6380380613ab6833981810160405281019061003191906102ef565b33600161005061004561019e60201b60201c565b6101c760201b60201c565b5f01819055505f73ffffffffffffffffffffffffffffffffffffffff168173ffffffffffffffffffffffffffffffffffffffff16036100c6575f6040517f1e4fbdf70000000000000000000000000000000000000000000000000000000081526004016100bd919061034e565b60405180910390fd5b6100d5816101d060201b60201c565b5082600a5f6101000a81548173ffffffffffffffffffffffffffffffffffffffff021916908373ffffffffffffffffffffffffffffffffffffffff16021790555081600b5f6101000a81548173ffffffffffffffffffffffffffffffffffffffff021916908373ffffffffffffffffffffffffffffffffffffffff1602179055508060095f6101000a81548173ffffffffffffffffffffffffffffffffffffffff021916908373ffffffffffffffffffffffffffffffffffffffff160217905550505050610367565b5f7f9b779b17422d0df92223018b32b4d1fa46e071723d6817e2486d003becc55f005f1b905090565b5f819050919050565b5f5f5f9054906101000a900473ffffffffffffffffffffffffffffffffffffffff169050815f5f6101000a81548173ffffffffffffffffffffffffffffffffffffffff021916908373ffffffffffffffffffffffffffffffffffffffff1602179055508173ffffffffffffffffffffffffffffffffffffffff168173ffffffffffffffffffffffffffffffffffffffff167f8be0079c531659141344cd1fd0a4f28419497f9722a3daafe3b4186f6b6457e060405160405180910390a35050565b5f5ffd5b5f73ffffffffffffffffffffffffffffffffffffffff82169050919050565b5f6102be82610295565b9050919050565b6102ce816102b4565b81146102d8575f5ffd5b50565b5f815190506102e9816102c5565b92915050565b5f5f5f6060848603121561030657610305610291565b5b5f610313868287016102db565b9350506020610324868287016102db565b9250506040610335868287016102db565b9150509250925092565b610348816102b4565b82525050565b5f6020820190506103615f83018461033f565b92915050565b613742806103745f395ff3fe608060405234801561000f575f5ffd5b506004361061021a575f3560e01c806368c4ac2611610123578063bf9270b0116100ab578063ea2979ee1161007a578063ea2979ee14610657578063ed56d73f14610673578063f1b075ef146106a6578063f2fde38b146106c4578063facd743b146106e05761021a565b8063bf9270b0146105bd578063c704babe146105ed578063dcd479e61461060b578063e27eef23146106275761021a565b8063715018a6116100f2578063715018a61461053f578063889f88ec146105495780638da5cb5b1461056757806396c4ca7214610585578063b5f2ad1d146105a15761021a565b806368c4ac26146104a55780636a62a4c0146104d55780636c0fed24146104f15780636ca85755146105215761021a565b806336f95670116101a6578063548d496f11610175578063548d496f146104015780635d5f426d146104315780635ed1f9631461044d5780636201a6771461046b57806365d65e86146104875761021a565b806336f95670146103745780633c64f04b1461039057806340a141ff146103c95780634d238c8e146103e55761021a565b8063174e6832116101ed578063174e6832146102a65780632093c15b146102d657806324fb21db1461030a5780632a4f16211461032857806335aa2e44146103445761021a565b80630959ea8f1461021e5780630f3799be1461023a5780630f43a6771461026a57806310fbee2814610288575b5f5ffd5b61023860048036038101906102339190612709565b610710565b005b610254600480360381019061024f9190612767565b61075b565b60405161026191906127ac565b60405180910390f35b610272610778565b60405161027f91906127dd565b60405180910390f35b61029061077e565b60405161029d91906127dd565b60405180910390f35b6102c060048036038101906102bb9190612709565b610783565b6040516102cd91906127dd565b60405180910390f35b6102f060048036038101906102eb9190612820565b61081c565b6040516103019594939291906128dd565b60405180910390f35b6103126108df565b60405161031f9190612990565b60405180910390f35b610342600480360381019061033d9190612709565b610904565b005b61035e600480360381019061035991906129a9565b610964565b60405161036b91906129e3565b60405180910390f35b61038e60048036038101906103899190612709565b610994565b005b6103aa60048036038101906103a59190612767565b610a44565b6040516103c09a999897969594939291906129fc565b60405180910390f35b6103e360048036038101906103de9190612709565b610b1c565b005b6103ff60048036038101906103fa9190612709565b610c5b565b005b61041b600480360381019061041691906129a9565b610de7565b60405161042891906127ac565b60405180910390f35b61044b600480360381019061044691906129a9565b610e04565b005b610455610e64565b60405161046291906127dd565b60405180910390f35b61048560048036038101906104809190612af7565b610e69565b005b61048f611277565b60405161049c91906129e3565b60405180910390f35b6104bf60048036038101906104ba9190612709565b61129c565b6040516104cc91906127ac565b60405180910390f35b6104ef60048036038101906104ea9190612709565b6112b9565b005b61050b60048036038101906105069190612767565b611304565b60405161051891906127dd565b60405180910390f35b610529611319565b6040516105369190612b88565b60405180910390f35b61054761133e565b005b610551611351565b60405161055e91906127dd565b60405180910390f35b61056f611356565b60405161057c91906129e3565b60405180910390f35b61059f600480360381019061059a9190612ba1565b61137d565b005b6105bb60048036038101906105b69190612bfe565b61150e565b005b6105d760048036038101906105d29190612c82565b611a83565b6040516105e49190612ce6565b60405180910390f35b6105f5611eea565b60405161060291906127dd565b60405180910390f35b61062560048036038101906106209190612709565b611ef0565b005b610641600480360381019061063c9190612767565b611f3b565b60405161064e91906127dd565b60405180910390f35b610671600480360381019061066c91906129a9565b611f50565b005b61068d60048036038101906106889190612767565b611fb1565b60405161069d9493929190612cff565b60405180910390f35b6106ae612006565b6040516106bb9190612d62565b60405180910390f35b6106de60048036038101906106d99190612709565b61202b565b005b6106fa60048036038101906106f59190612709565b6120af565b60405161070791906127ac565b60405180910390f35b6107186120cc565b8060095f6101000a81548173ffffffffffffffffffffffffffffffffffffffff021916908373ffffffffffffffffffffffffffffffffffffffff16021790555050565b5f60085f8381526020019081526020015f20544211159050919050565b600c5481565b600281565b5f5f600190505b600c548111610812578273ffffffffffffffffffffffffffffffffffffffff1660065f8381526020019081526020015f205f9054906101000a900473ffffffffffffffffffffffffffffffffffffffff1673ffffffffffffffffffffffffffffffffffffffff16036107ff5780915050610817565b808061080a90612da8565b91505061078a565b505f90505b919050565b6002602052815f5260405f20602052805f5260405f205f9150915050805f01549080600101805461084c90612e1c565b80601f016020809104026020016040519081016040528092919081815260200182805461087890612e1c565b80156108c35780601f1061089a576101008083540402835291602001916108c3565b820191905f5260205f20905b8154815290600101906020018083116108a657829003601f168201915b5050505050908060020154908060030154908060040154905085565b60095f9054906101000a900473ffffffffffffffffffffffffffffffffffffffff1681565b61090c6120cc565b600160055f8373ffffffffffffffffffffffffffffffffffffffff1673ffffffffffffffffffffffffffffffffffffffff1681526020019081526020015f205f6101000a81548160ff02191690831515021790555050565b6006602052805f5260405f205f915054906101000a900473ffffffffffffffffffffffffffffffffffffffff1681565b61099c6120cc565b5f73ffffffffffffffffffffffffffffffffffffffff168173ffffffffffffffffffffffffffffffffffffffff1603610a01576040517f815e1d6400000000000000000000000000000000000000000000000000000000815260040160405180910390fd5b80600d5f6101000a81548173ffffffffffffffffffffffffffffffffffffffff021916908373ffffffffffffffffffffffffffffffffffffffff16021790555050565b6001602052805f5260405f205f91509050805f015490806001015f9054906101000a900473ffffffffffffffffffffffffffffffffffffffff1690806002015f9054906101000a900473ffffffffffffffffffffffffffffffffffffffff1690806003015490806004015f9054906101000a900473ffffffffffffffffffffffffffffffffffffffff1690806005015f9054906101000a900473ffffffffffffffffffffffffffffffffffffffff1690806006015490806007015490806008015490806009015f9054906101000a900460ff1690508a565b610b246120cc565b60075f8273ffffffffffffffffffffffffffffffffffffffff1673ffffffffffffffffffffffffffffffffffffffff1681526020019081526020015f205f9054906101000a900460ff16610bad576040517f08c379a0000000000000000000000000000000000000000000000000000000008152600401610ba490612ea6565b60405180910390fd5b5f60075f8373ffffffffffffffffffffffffffffffffffffffff1673ffffffffffffffffffffffffffffffffffffffff1681526020019081526020015f205f6101000a81548160ff021916908315150217905550600c5f815480929190610c1390612ec4565b9190505550610c2181610783565b7f7126bef88d1149ccdff9681ed5aecd3ba5ae70c96517551de250af09cebd1a0b82604051610c5091906129e3565b60405180910390a250565b610c636120cc565b60075f8273ffffffffffffffffffffffffffffffffffffffff1673ffffffffffffffffffffffffffffffffffffffff1681526020019081526020015f205f9054906101000a900460ff1615610ced576040517f08c379a0000000000000000000000000000000000000000000000000000000008152600401610ce490612f35565b60405180910390fd5b600c5f815480929190610cff90612da8565b91905055508060065f600c5481526020019081526020015f205f6101000a81548173ffffffffffffffffffffffffffffffffffffffff021916908373ffffffffffffffffffffffffffffffffffffffff160217905550600160075f8373ffffffffffffffffffffffffffffffffffffffff1673ffffffffffffffffffffffffffffffffffffffff1681526020019081526020015f205f6101000a81548160ff021916908315150217905550600c547f7429a06e9412e469f0d64f9d222640b0af359f556b709e2913588c227851b88d82604051610ddc91906129e3565b60405180910390a250565b6004602052805f5260405f205f915054906101000a900460ff1681565b610e0c6120cc565b5f60045f8381526020019081526020015f205f6101000a81548160ff021916908315150217905550807fe08f91ec8619571a39cbfb365381d99e9458bab131f0bed3e4eeb1a76d608a3660405160405180910390a250565b600381565b60075f3373ffffffffffffffffffffffffffffffffffffffff1673ffffffffffffffffffffffffffffffffffffffff1681526020019081526020015f205f9054906101000a900460ff16610ef457336040517f80281c79000000000000000000000000000000000000000000000000000000008152600401610eeb91906129e3565b60405180910390fd5b610efc612153565b5f60015f8681526020019081526020015f209050806009015f9054906101000a900460ff1615610f6357846040517f846380d5000000000000000000000000000000000000000000000000000000008152600401610f5a9190612ce6565b60405180910390fd5b60085f8381526020019081526020015f2054421115610fb957816040517ff80c890e000000000000000000000000000000000000000000000000000000008152600401610fb09190612ce6565b60405180910390fd5b5f610fc333610783565b90505f60025f8881526020019081526020015f205f8381526020019081526020015f20600401541461102e5785816040517fb17770b3000000000000000000000000000000000000000000000000000000008152600401611025929190612f53565b60405180910390fd5b5f8684604051602001611042929190612f9a565b604051602081830303815290604052805190602001209050600a5f9054906101000a900473ffffffffffffffffffffffffffffffffffffffff1673ffffffffffffffffffffffffffffffffffffffff1663b3c821f6828888336040518563ffffffff1660e01b81526004016110ba9493929190612fff565b602060405180830381865afa1580156110d5573d5f5f3e3d5ffd5b505050506040513d601f19601f820116820180604052508101906110f99190613067565b61113c5786826040517f19d0c4b6000000000000000000000000000000000000000000000000000000008152600401611133929190612f53565b60405180910390fd5b6040518060a0016040528088815260200187878080601f0160208091040260200160405190810160405280939291908181526020018383808284375f81840152601f19601f8201169050808301925050505050505081526020018581526020018381526020014281525060025f8981526020019081526020015f205f8481526020019081526020015f205f820151815f015560208201518160010190816111e39190613267565b5060408201518160020155606082015181600301556080820151816004015590505060035f8881526020019081526020015f205f81548092919061122690612da8565b919050555081877fcdcc0bfb0506c954f9d9cc31e7f010b28d519d401eac9fad226a8910a39fe330864260405161125e929190612f53565b60405180910390a3505050611271612175565b50505050565b600d5f9054906101000a900473ffffffffffffffffffffffffffffffffffffffff1681565b6005602052805f5260405f205f915054906101000a900460ff1681565b6112c16120cc565b80600a5f6101000a81548173ffffffffffffffffffffffffffffffffffffffff021916908373ffffffffffffffffffffffffffffffffffffffff16021790555050565b6003602052805f5260405f205f915090505481565b600b5f9054906101000a900473ffffffffffffffffffffffffffffffffffffffff1681565b6113466120cc565b61134f5f61218f565b565b60c881565b5f5f5f9054906101000a900473ffffffffffffffffffffffffffffffffffffffff16905090565b60075f3373ffffffffffffffffffffffffffffffffffffffff1673ffffffffffffffffffffffffffffffffffffffff1681526020019081526020015f205f9054906101000a900460ff1661140857336040517f80281c790000000000000000000000000000000000000000000000000000000081526004016113ff91906129e3565b60405180910390fd5b600b5f9054906101000a900473ffffffffffffffffffffffffffffffffffffffff1673ffffffffffffffffffffffffffffffffffffffff16636edabd2b8383336040518463ffffffff1660e01b815260040161146693929190613336565b602060405180830381865afa158015611481573d5f5f3e3d5ffd5b505050506040513d601f19601f820116820180604052508101906114a59190613067565b6114e657826040517ff80c890e0000000000000000000000000000000000000000000000000000000081526004016114dd9190612ce6565b60405180910390fd5b610e10426114f49190613366565b60085f8581526020019081526020015f2081905550505050565b611516612153565b8360055f8273ffffffffffffffffffffffffffffffffffffffff1673ffffffffffffffffffffffffffffffffffffffff1681526020019081526020015f205f9054906101000a900460ff166115a257806040517f06439c6b00000000000000000000000000000000000000000000000000000000815260040161159991906129e3565b60405180910390fd5b5f60015f8881526020019081526020015f209050806009015f9054906101000a900460ff161561160957866040517f846380d50000000000000000000000000000000000000000000000000000000081526004016116009190612ce6565b60405180910390fd5b600260035f8981526020019081526020015f2054101561166057866040517fc82531a70000000000000000000000000000000000000000000000000000000081526004016116579190612ce6565b60405180910390fd5b60c8851161169a576040517fd19c177200000000000000000000000000000000000000000000000000000000815260040160405180910390fd5b5f8787876040516020016116b0939291906133fe565b6040516020818303038152906040528051906020012090505f6116d282612250565b90505f6117228288888080601f0160208091040260200160405190810160405280939291908181526020018383808284375f81840152601f19601f82011690508083019250505050505050612283565b9050600d5f9054906101000a900473ffffffffffffffffffffffffffffffffffffffff1673ffffffffffffffffffffffffffffffffffffffff168173ffffffffffffffffffffffffffffffffffffffff161415806117cc57505f73ffffffffffffffffffffffffffffffffffffffff16600d5f9054906101000a900473ffffffffffffffffffffffffffffffffffffffff1673ffffffffffffffffffffffffffffffffffffffff16145b15611803576040517ff129b09000000000000000000000000000000000000000000000000000000000815260040160405180910390fd5b6001846009015f6101000a81548160ff02191690831515021790555088846002015f6101000a81548173ffffffffffffffffffffffffffffffffffffffff021916908373ffffffffffffffffffffffffffffffffffffffff1602179055508873ffffffffffffffffffffffffffffffffffffffff1663095ea7b360095f9054906101000a900473ffffffffffffffffffffffffffffffffffffffff1686600301546040518363ffffffff1660e01b81526004016118c192919061343a565b6020604051808303815f875af11580156118dd573d5f5f3e3d5ffd5b505050506040513d601f19601f820116820180604052508101906119019190613067565b5060095f9054906101000a900473ffffffffffffffffffffffffffffffffffffffff1673ffffffffffffffffffffffffffffffffffffffff1663fad0e1d285600301548660070154876005015f9054906101000a900473ffffffffffffffffffffffffffffffffffffffff1673ffffffffffffffffffffffffffffffffffffffff165f1b5f6040518563ffffffff1660e01b81526004016119a594939291906134d9565b6020604051808303815f875af11580156119c1573d5f5f3e3d5ffd5b505050506040513d601f19601f820116820180604052508101906119e5919061356c565b50836005015f9054906101000a900473ffffffffffffffffffffffffffffffffffffffff1673ffffffffffffffffffffffffffffffffffffffff168a7f706d19a0419829f5b040af42eceaa508d974f5d02cd30b93ec3d2c9a02b95815866003015460035f8f81526020019081526020015f2054604051611a67929190613597565b60405180910390a35050505050611a7c612175565b5050505050565b5f611a8c612153565b8460055f8273ffffffffffffffffffffffffffffffffffffffff1673ffffffffffffffffffffffffffffffffffffffff1681526020019081526020015f205f9054906101000a900460ff16611b1857806040517f06439c6b000000000000000000000000000000000000000000000000000000008152600401611b0f91906129e3565b60405180910390fd5b8260045f8281526020019081526020015f205f9054906101000a900460ff16611b7857806040517f264e42cf000000000000000000000000000000000000000000000000000000008152600401611b6f91906127dd565b60405180910390fd5b5f861480611bb157505f73ffffffffffffffffffffffffffffffffffffffff168573ffffffffffffffffffffffffffffffffffffffff16145b15611be8576040517f2f35253100000000000000000000000000000000000000000000000000000000815260040160405180910390fd5b5f33888888884244604051602001611c0697969594939291906135be565b6040516020818303038152906040528051906020012090506040518061014001604052808281526020018973ffffffffffffffffffffffffffffffffffffffff1681526020015f73ffffffffffffffffffffffffffffffffffffffff1681526020018881526020013373ffffffffffffffffffffffffffffffffffffffff1681526020018773ffffffffffffffffffffffffffffffffffffffff1681526020014681526020018681526020014281526020015f151581525060015f8381526020019081526020015f205f820151815f01556020820151816001015f6101000a81548173ffffffffffffffffffffffffffffffffffffffff021916908373ffffffffffffffffffffffffffffffffffffffff1602179055506040820151816002015f6101000a81548173ffffffffffffffffffffffffffffffffffffffff021916908373ffffffffffffffffffffffffffffffffffffffff160217905550606082015181600301556080820151816004015f6101000a81548173ffffffffffffffffffffffffffffffffffffffff021916908373ffffffffffffffffffffffffffffffffffffffff16021790555060a0820151816005015f6101000a81548173ffffffffffffffffffffffffffffffffffffffff021916908373ffffffffffffffffffffffffffffffffffffffff16021790555060c0820151816006015560e082015181600701556101008201518160080155610120820151816009015f6101000a81548160ff021916908315150217905550905050611e683330898b73ffffffffffffffffffffffffffffffffffffffff166122ad909392919063ffffffff16565b8573ffffffffffffffffffffffffffffffffffffffff163373ffffffffffffffffffffffffffffffffffffffff16827f443062962fd8af89b585d9aea366f1a96e0417141a41713894aa626d3b5217148b8b468b604051611ecc949392919061363e565b60405180910390a4809350505050611ee2612175565b949350505050565b610e1081565b611ef86120cc565b80600b5f6101000a81548173ffffffffffffffffffffffffffffffffffffffff021916908373ffffffffffffffffffffffffffffffffffffffff16021790555050565b6008602052805f5260405f205f915090505481565b611f586120cc565b600160045f8381526020019081526020015f205f6101000a81548160ff021916908315150217905550807f57186b2755d8bf6e82203d992be82e3f9be370e95c5362833d84c7abd94b430960405160405180910390a250565b5f5f5f5f5f60015f8781526020019081526020015f2090505f81600801541415816009015f9054906101000a900460ff1660035f8981526020019081526020015f205460029450945094509450509193509193565b600a5f9054906101000a900473ffffffffffffffffffffffffffffffffffffffff1681565b6120336120cc565b5f73ffffffffffffffffffffffffffffffffffffffff168173ffffffffffffffffffffffffffffffffffffffff16036120a3575f6040517f1e4fbdf700000000000000000000000000000000000000000000000000000000815260040161209a91906129e3565b60405180910390fd5b6120ac8161218f565b50565b6007602052805f5260405f205f915054906101000a900460ff1681565b6120d4612302565b73ffffffffffffffffffffffffffffffffffffffff166120f2611356565b73ffffffffffffffffffffffffffffffffffffffff161461215157612115612302565b6040517f118cdaa700000000000000000000000000000000000000000000000000000000815260040161214891906129e3565b60405180910390fd5b565b61215b612309565b600261216d61216861234a565b612373565b5f0181905550565b600161218761218261234a565b612373565b5f0181905550565b5f5f5f9054906101000a900473ffffffffffffffffffffffffffffffffffffffff169050815f5f6101000a81548173ffffffffffffffffffffffffffffffffffffffff021916908373ffffffffffffffffffffffffffffffffffffffff1602179055508173ffffffffffffffffffffffffffffffffffffffff168173ffffffffffffffffffffffffffffffffffffffff167f8be0079c531659141344cd1fd0a4f28419497f9722a3daafe3b4186f6b6457e060405160405180910390a35050565b5f7f19457468657265756d205369676e6564204d6573736167653a0a3332000000005f5281601c52603c5f209050919050565b5f5f5f5f612291868661237c565b9250925092506122a182826123d1565b82935050505092915050565b6122bb848484846001612533565b6122fc57836040517f5274afe70000000000000000000000000000000000000000000000000000000081526004016122f391906129e3565b60405180910390fd5b50505050565b5f33905090565b6123116125a4565b15612348576040517f3ee5aeb500000000000000000000000000000000000000000000000000000000815260040160405180910390fd5b565b5f7f9b779b17422d0df92223018b32b4d1fa46e071723d6817e2486d003becc55f005f1b905090565b5f819050919050565b5f5f5f60418451036123bc575f5f5f602087015192506040870151915060608701515f1a90506123ae888285856125c0565b9550955095505050506123ca565b5f600285515f1b9250925092505b9250925092565b5f60038111156123e4576123e3613681565b5b8260038111156123f7576123f6613681565b5b031561252f576001600381111561241157612410613681565b5b82600381111561242457612423613681565b5b0361245b576040517ff645eedf00000000000000000000000000000000000000000000000000000000815260040160405180910390fd5b6002600381111561246f5761246e613681565b5b82600381111561248257612481613681565b5b036124c657805f1c6040517ffce698f70000000000000000000000000000000000000000000000000000000081526004016124bd91906127dd565b60405180910390fd5b6003808111156124d9576124d8613681565b5b8260038111156124ec576124eb613681565b5b0361252e57806040517fd78bce0c0000000000000000000000000000000000000000000000000000000081526004016125259190612ce6565b60405180910390fd5b5b5050565b5f5f6323b872dd60e01b9050604051815f525f1960601c87166004525f1960601c86166024528460445260205f60645f5f8c5af1925060015f51148316612591578383151615612585573d5f823e3d81fd5b5f883b113d1516831692505b806040525f606052505095945050505050565b5f60026125b76125b261234a565b612373565b5f015414905090565b5f5f5f7f7fffffffffffffffffffffffffffffff5d576e7357a4501ddfe92f46681b20a0845f1c11156125fc575f60038592509250925061269d565b5f6001888888886040515f815260200160405260405161261f94939291906136c9565b6020604051602081039080840390855afa15801561263f573d5f5f3e3d5ffd5b5050506020604051035190505f73ffffffffffffffffffffffffffffffffffffffff168173ffffffffffffffffffffffffffffffffffffffff1603612690575f60015f5f1b9350935093505061269d565b805f5f5f1b935093509350505b9450945094915050565b5f5ffd5b5f5ffd5b5f73ffffffffffffffffffffffffffffffffffffffff82169050919050565b5f6126d8826126af565b9050919050565b6126e8816126ce565b81146126f2575f5ffd5b50565b5f81359050612703816126df565b92915050565b5f6020828403121561271e5761271d6126a7565b5b5f61272b848285016126f5565b91505092915050565b5f819050919050565b61274681612734565b8114612750575f5ffd5b50565b5f813590506127618161273d565b92915050565b5f6020828403121561277c5761277b6126a7565b5b5f61278984828501612753565b91505092915050565b5f8115159050919050565b6127a681612792565b82525050565b5f6020820190506127bf5f83018461279d565b92915050565b5f819050919050565b6127d7816127c5565b82525050565b5f6020820190506127f05f8301846127ce565b92915050565b6127ff816127c5565b8114612809575f5ffd5b50565b5f8135905061281a816127f6565b92915050565b5f5f60408385031215612836576128356126a7565b5b5f61284385828601612753565b92505060206128548582860161280c565b9150509250929050565b61286781612734565b82525050565b5f81519050919050565b5f82825260208201905092915050565b8281835e5f83830152505050565b5f601f19601f8301169050919050565b5f6128af8261286d565b6128b98185612877565b93506128c9818560208601612887565b6128d281612895565b840191505092915050565b5f60a0820190506128f05f83018861285e565b818103602083015261290281876128a5565b9050612911604083018661285e565b61291e60608301856127ce565b61292b60808301846127ce565b9695505050505050565b5f819050919050565b5f61295861295361294e846126af565b612935565b6126af565b9050919050565b5f6129698261293e565b9050919050565b5f61297a8261295f565b9050919050565b61298a81612970565b82525050565b5f6020820190506129a35f830184612981565b92915050565b5f602082840312156129be576129bd6126a7565b5b5f6129cb8482850161280c565b91505092915050565b6129dd816126ce565b82525050565b5f6020820190506129f65f8301846129d4565b92915050565b5f61014082019050612a105f83018d61285e565b612a1d602083018c6129d4565b612a2a604083018b6129d4565b612a37606083018a6127ce565b612a4460808301896129d4565b612a5160a08301886129d4565b612a5e60c08301876127ce565b612a6b60e08301866127ce565b612a796101008301856127ce565b612a8761012083018461279d565b9b9a5050505050505050505050565b5f5ffd5b5f5ffd5b5f5ffd5b5f5f83601f840112612ab757612ab6612a96565b5b8235905067ffffffffffffffff811115612ad457612ad3612a9a565b5b602083019150836001820283011115612af057612aef612a9e565b5b9250929050565b5f5f5f5f60608587031215612b0f57612b0e6126a7565b5b5f612b1c87828801612753565b945050602085013567ffffffffffffffff811115612b3d57612b3c6126ab565b5b612b4987828801612aa2565b93509350506040612b5c87828801612753565b91505092959194509250565b5f612b728261295f565b9050919050565b612b8281612b68565b82525050565b5f602082019050612b9b5f830184612b79565b92915050565b5f5f5f60408486031215612bb857612bb76126a7565b5b5f612bc586828701612753565b935050602084013567ffffffffffffffff811115612be657612be56126ab565b5b612bf286828701612aa2565b92509250509250925092565b5f5f5f5f5f60808688031215612c1757612c166126a7565b5b5f612c2488828901612753565b9550506020612c35888289016126f5565b9450506040612c468882890161280c565b935050606086013567ffffffffffffffff811115612c6757612c666126ab565b5b612c7388828901612aa2565b92509250509295509295909350565b5f5f5f5f60808587031215612c9a57612c996126a7565b5b5f612ca7878288016126f5565b9450506020612cb88782880161280c565b9350506040612cc9878288016126f5565b9250506060612cda8782880161280c565b91505092959194509250565b5f602082019050612cf95f83018461285e565b92915050565b5f608082019050612d125f83018761279d565b612d1f602083018661279d565b612d2c60408301856127ce565b612d3960608301846127ce565b95945050505050565b5f612d4c8261295f565b9050919050565b612d5c81612d42565b82525050565b5f602082019050612d755f830184612d53565b92915050565b7f4e487b71000000000000000000000000000000000000000000000000000000005f52601160045260245ffd5b5f612db2826127c5565b91507fffffffffffffffffffffffffffffffffffffffffffffffffffffffffffffffff8203612de457612de3612d7b565b5b600182019050919050565b7f4e487b71000000000000000000000000000000000000000000000000000000005f52602260045260245ffd5b5f6002820490506001821680612e3357607f821691505b602082108103612e4657612e45612def565b5b50919050565b5f82825260208201905092915050565b7f4e6f742076616c696461746f72000000000000000000000000000000000000005f82015250565b5f612e90600d83612e4c565b9150612e9b82612e5c565b602082019050919050565b5f6020820190508181035f830152612ebd81612e84565b9050919050565b5f612ece826127c5565b91505f8203612ee057612edf612d7b565b5b600182039050919050565b7f416c72656164792076616c696461746f720000000000000000000000000000005f82015250565b5f612f1f601183612e4c565b9150612f2a82612eeb565b602082019050919050565b5f6020820190508181035f830152612f4c81612f13565b9050919050565b5f604082019050612f665f83018561285e565b612f7360208301846127ce565b9392505050565b5f819050919050565b612f94612f8f82612734565b612f7a565b82525050565b5f612fa58285612f83565b602082019150612fb58284612f83565b6020820191508190509392505050565b828183375f83830152505050565b5f612fde8385612877565b9350612feb838584612fc5565b612ff483612895565b840190509392505050565b5f6060820190506130125f83018761285e565b8181036020830152613025818587612fd3565b905061303460408301846129d4565b95945050505050565b61304681612792565b8114613050575f5ffd5b50565b5f815190506130618161303d565b92915050565b5f6020828403121561307c5761307b6126a7565b5b5f61308984828501613053565b91505092915050565b7f4e487b71000000000000000000000000000000000000000000000000000000005f52604160045260245ffd5b5f819050815f5260205f209050919050565b5f6020601f8301049050919050565b5f82821b905092915050565b5f6008830261311b7fffffffffffffffffffffffffffffffffffffffffffffffffffffffffffffffff826130e0565b61312586836130e0565b95508019841693508086168417925050509392505050565b5f61315761315261314d846127c5565b612935565b6127c5565b9050919050565b5f819050919050565b6131708361313d565b61318461317c8261315e565b8484546130ec565b825550505050565b5f5f905090565b61319b61318c565b6131a6818484613167565b505050565b5f5b828110156131cc576131c15f828401613193565b6001810190506131ad565b505050565b601f82111561321f578282111561321e576131eb816130bf565b6131f4836130d1565b6131fd856130d1565b602086101561320a575f90505b808301613219828403826131ab565b505050505b5b505050565b5f82821c905092915050565b5f61323f5f1984600802613224565b1980831691505092915050565b5f6132578383613230565b9150826002028217905092915050565b6132708261286d565b67ffffffffffffffff81111561328957613288613092565b5b6132938254612e1c565b61329e8282856131d1565b5f60209050601f8311600181146132cf575f84156132bd578287015190505b6132c7858261324c565b86555061332e565b601f1984166132dd866130bf565b5f5b82811015613304578489015182556001820191506020850194506020810190506132df565b86831015613321578489015161331d601f891682613230565b8355505b6001600288020188555050505b505050505050565b5f6040820190508181035f83015261334f818587612fd3565b905061335e60208301846129d4565b949350505050565b5f613370826127c5565b915061337b836127c5565b925082820190508082111561339357613392612d7b565b5b92915050565b5f8160601b9050919050565b5f6133af82613399565b9050919050565b5f6133c0826133a5565b9050919050565b6133d86133d3826126ce565b6133b6565b82525050565b5f819050919050565b6133f86133f3826127c5565b6133de565b82525050565b5f6134098286612f83565b60208201915061341982856133c7565b60148201915061342982846133e7565b602082019150819050949350505050565b5f60408201905061344d5f8301856129d4565b61345a60208301846127ce565b9392505050565b5f61ffff82169050919050565b61347781613461565b82525050565b5f819050919050565b5f6134a061349b6134968461347d565b612935565b6127c5565b9050919050565b6134b081613486565b82525050565b50565b5f6134c45f83612877565b91506134cf826134b6565b5f82019050919050565b5f60a0820190506134ec5f8301876127ce565b6134f9602083018661346e565b613506604083018561285e565b61351360608301846134a7565b8181036080830152613524816134b9565b905095945050505050565b5f67ffffffffffffffff82169050919050565b61354b8161352f565b8114613555575f5ffd5b50565b5f8151905061356681613542565b92915050565b5f60208284031215613581576135806126a7565b5b5f61358e84828501613558565b91505092915050565b5f6040820190506135aa5f8301856127ce565b6135b760208301846127ce565b9392505050565b5f6135c9828a6133c7565b6014820191506135d982896133c7565b6014820191506135e982886133e7565b6020820191506135f982876133c7565b60148201915061360982866133e7565b60208201915061361982856133e7565b60208201915061362982846133e7565b60208201915081905098975050505050505050565b5f6080820190506136515f8301876129d4565b61365e60208301866127ce565b61366b60408301856127ce565b61367860608301846127ce565b95945050505050565b7f4e487b71000000000000000000000000000000000000000000000000000000005f52602160045260245ffd5b5f60ff82169050919050565b6136c3816136ae565b82525050565b5f6080820190506136dc5f83018761285e565b6136e960208301866136ba565b6136f6604083018561285e565b613703606083018461285e565b9594505050505056fea2646970667358221220974ed713788fed79f43d9b72dd799235dbb46a8a44fb8c67caac965c47c6246e64736f6c63430008230033","linkReferences":{}},"methodIdentifiers":{"MIN_CHSH_SCORE()":"889f88ec","MIN_VALIDATORS()":"5ed1f963","PROOF_THRESHOLD()":"10fbee28","QKD_SESSION_DURATION()":"c704babe","addValidator(address)":"4d238c8e","backendSigner()":"65d65e86","executeTransfer(bytes32,address,uint256,bytes)":"b5f2ad1d","getTransferStatus(bytes32)":"ed56d73f","getValidatorId(address)":"174e6832","initiateTransfer(address,uint256,address,uint256)":"bf9270b0","isQKDSessionValid(bytes32)":"0f3799be","isValidator(address)":"facd743b","nttManager()":"24fb21db","owner()":"8da5cb5b","pqcVerifier()":"f1b075ef","proofCount(bytes32)":"6c0fed24","proofs(bytes32,uint256)":"2093c15b","qkdSessionExpiry(bytes32)":"e27eef23","quantumValidator()":"6ca85755","registerQKDSession(bytes32,bytes)":"96c4ca72","removeValidator(address)":"40a141ff","renounceOwnership()":"715018a6","setBackendSigner(address)":"36f95670","setNttManager(address)":"0959ea8f","setPQCVerifier(address)":"6a62a4c0","setQuantumValidator(address)":"dcd479e6","submitProof(bytes32,bytes,bytes32)":"6201a677","supportChain(uint256)":"ea2979ee","supportToken(address)":"2a4f1621","supportedChains(uint256)":"548d496f","supportedTokens(address)":"68c4ac26","transferOwnership(address)":"f2fde38b","transfers(bytes32)":"3c64f04b","unsupportChain(uint256)":"5d5f426d","validatorCount()":"0f43a677","validators(uint256)":"35aa2e44"},"id":3}