{"abi":[{"type":"constructor","inputs":[],"stateMutability":"nonpayable"},{"type":"function","name":"CHSH_THRESHOLD","inputs":[],"outputs":[{"name":"","type":"uint256","internalType":"uint256"}],"stateMutability":"view"},{"type":"function","name":"MAX_QBER","inputs":[],"outputs":[{"name":"","type":"uint256","internalType":"uint256"}],"stateMutability":"view"},{"type":"function","name":"activeSessionLookup","inputs":[{"name":"","type":"bytes32","internalType":"bytes32"}],"outputs":[{"name":"","type":"bytes32","internalType":"bytes32"}],"stateMutability":"view"},{"type":"function","name":"closeQKDSession","inputs":[{"name":"sessionKeyHash","type":"bytes32","internalType":"bytes32"}],"outputs":[],"stateMutability":"nonpayable"},{"type":"function","name":"establishPQCFallbackSession","inputs":[{"name":"sessionKeyHash","type":"bytes32","internalType":"bytes32"},{"name":"alice","type":"address","internalType":"address"},{"name":"bob","type":"address","internalType":"address"},{"name":"pqcSignature","type":"bytes","internalType":"bytes"}],"outputs":[],"stateMutability":"nonpayable"},{"type":"function","name":"establishQKDSession","inputs":[{"name":"sessionKeyHash","type":"bytes32","internalType":"bytes32"},{"name":"alice","type":"address","internalType":"address"},{"name":"bob","type":"address","internalType":"address"},{"name":"tier","type":"uint8","internalType":"uint8"},{"name":"chshProof","type":"bytes","internalType":"bytes"}],"outputs":[],"stateMutability":"nonpayable"},{"type":"function","name":"getActiveSession","inputs":[{"name":"alice","type":"address","internalType":"address"},{"name":"bob","type":"address","internalType":"address"}],"outputs":[{"name":"session","type":"tuple","internalType":"struct IQuantumValidator.QKDSession","components":[{"name":"sessionKeyHash","type":"bytes32","internalType":"bytes32"},{"name":"startTime","type":"uint256","internalType":"uint256"},{"name":"expiryTime","type":"uint256","internalType":"uint256"},{"name":"alice","type":"address","internalType":"address"},{"name":"bob","type":"address","internalType":"address"},{"name":"tier","type":"uint8","internalType":"uint8"},{"name":"chshViolation","type":"bytes32","internalType":"bytes32"},{"name":"sessionType","type":"uint8","internalType":"enum IQuantumValidator.SessionType"},{"name":"active","type":"bool","internalType":"bool"}]}],"stateMutability":"view"},{"type":"function","name":"getAllValidators","inputs":[],"outputs":[{"name":"","type":"address[]","internalType":"address[]"}],"stateMutability":"view"},{"type":"function","name":"getQKDTier","inputs":[{"name":"validator","type":"address","internalType":"address"}],"outputs":[{"name":"tier","type":"uint8","internalType":"uint8"}],"stateMutability":"view"},{"type":"function","name":"getValidatorSessionCount","inputs":[{"name":"validator","type":"address","internalType":"address"}],"outputs":[{"name":"","type":"uint256","internalType":"uint256"}],"stateMutability":"view"},{"type":"function","name":"hasActiveQKD","inputs":[{"name":"validator","type":"address","internalType":"address"}],"outputs":[{"name":"hasActive","type":"bool","internalType":"bool"},{"name":"sessionKeyHash","type":"bytes32","internalType":"bytes32"},{"name":"sessionType","type":"uint8","internalType":"enum IQuantumValidator.SessionType"}],"stateMutability":"view"},{"type":"function","name":"isRegisteredValidator","inputs":[{"name":"","type":"address","internalType":"address"}],"outputs":[{"name":"","type":"bool","internalType":"bool"}],"stateMutability":"view"},{"type":"function","name":"isSessionActive","inputs":[{"name":"sessionKeyHash","type":"bytes32","internalType":"bytes32"}],"outputs":[{"name":"","type":"bool","internalType":"bool"}],"stateMutability":"view"},{"type":"function","name":"owner","inputs":[],"outputs":[{"name":"","type":"address","internalType":"address"}],"stateMutability":"view"},{"type":"function","name":"registerValidator","inputs":[{"name":"validator","type":"address","internalType":"address"},{"name":"tier","type":"uint8","internalType":"uint8"}],"outputs":[],"stateMutability":"nonpayable"},{"type":"function","name":"renounceOwnership","inputs":[],"outputs":[],"stateMutability":"nonpayable"},{"type":"function","name":"sessions","inputs":[{"name":"","type":"bytes32","internalType":"bytes32"}],"outputs":[{"name":"sessionKeyHash","type":"bytes32","internalType":"bytes32"},{"name":"startTime","type":"uint256","internalType":"uint256"},{"name":"expiryTime","type":"uint256","internalType":"uint256"},{"name":"alice","type":"address","internalType":"address"},{"name":"bob","type":"address","internalType":"address"},{"name":"tier","type":"uint8","internalType":"uint8"},{"name":"chshViolation","type":"bytes32","internalType":"bytes32"},{"name":"sessionType","type":"uint8","internalType":"enum IQuantumValidator.SessionType"},{"name":"active","type":"bool","internalType":"bool"}],"stateMutability":"view"},{"type":"function","name":"transferOwnership","inputs":[{"name":"newOwner","type":"address","internalType":"address"}],"outputs":[],"stateMutability":"nonpayable"},{"type":"function","name":"validatorList","inputs":[{"name":"","type":"uint256","internalType":"uint256"}],"outputs":[{"name":"","type":"address","internalType":"address"}],"stateMutability":"view"},{"type":"function","name":"validatorSessions","inputs":[{"name":"","type":"address","internalType":"address"},{"name":"","type":"uint256","internalType":"uint256"}],"outputs":[{"name":"sessionKeyHash","type":"bytes32","internalType":"bytes32"},{"name":"startTime","type":"uint256","internalType":"uint256"},{"name":"expiryTime","type":"uint256","internalType":"uint256"},{"name":"alice","type":"address","internalType":"address"},{"name":"bob","type":"address","internalType":"address"},{"name":"tier","type":"uint8","internalType":"uint8"},{"name":"chshViolation","type":"bytes32","internalType":"bytes32"},{"name":"sessionType","type":"uint8","internalType":"enum IQuantumValidator.SessionType"},{"name":"active","type":"bool","internalType":"bool"}],"stateMutability":"view"},{"type":"function","name":"validatorTiers","inputs":[{"name":"","type":"address","internalType":"address"}],"outputs":[{"name":"","type":"uint8","internalType":"uint8"}],"stateMutability":"view"},{"type":"function","name":"verifyCHSHViolation","inputs":[{"name":"chshProof","type":"tuple","internalType":"struct IQuantumValidator.CHSHProof","components":[{"name":"S","type":"uint256","internalType":"uint256"},{"name":"outcomesA","type":"uint256[]","internalType":"uint256[]"},{"name":"outcomesB","type":"uint256[]","internalType":"uint256[]"},{"name":"basisChoicesA","type":"bytes32","internalType":"bytes32"},{"name":"basisChoicesB","type":"bytes32","internalType":"bytes32"},{"name":"qber","type":"uint256","internalType":"uint256"}]}],"outputs":[{"name":"valid","type":"bool","internalType":"bool"},{"name":"confidence","type":"uint256","internalType":"uint256"}],"stateMutability":"pure"},{"type":"function","name":"verifyQKDProof","inputs":[{"name":"proof","type":"bytes","internalType":"bytes"},{"name":"validator","type":"address","internalType":"address"}],"outputs":[{"name":"valid","type":"bool","internalType":"bool"}],"stateMutability":"view"},{"type":"event","name":"CHSHVerified","inputs":[{"name":"sessionKeyHash","type":"bytes32","indexed":true,"internalType":"bytes32"},{"name":"S","type":"uint256","indexed":false,"internalType":"uint256"},{"name":"qber","type":"uint256","indexed":false,"internalType":"uint256"},{"name":"valid","type":"bool","indexed":false,"internalType":"bool"}],"anonymous":false},{"type":"event","name":"OwnershipTransferred","inputs":[{"name":"previousOwner","type":"address","indexed":true,"internalType":"address"},{"name":"newOwner","type":"address","indexed":true,"internalType":"address"}],"anonymous":false},{"type":"event","name":"QKDSessionEstablished","inputs":[{"name":"sessionKeyHash","type":"bytes32","indexed":true,"internalType":"bytes32"},{"name":"alice","type":"address","indexed":true,"internalType":"address"},{"name":"bob","type":"address","indexed":true,"internalType":"address"},{"name":"tier","type":"uint8","indexed":false,"internalType":"uint8"},{"name":"chshS","type":"uint256","indexed":false,"internalType":"uint256"}],"anonymous":false},{"type":"event","name":"ValidatorRegistered","inputs":[{"name":"validator","type":"address","indexed":true,"internalType":"address"},{"name":"tier","type":"uint8","indexed":false,"internalType":"uint8"}],"anonymous":false},{"type":"error","name":"OwnableInvalidOwner","inputs":[{"name":"owner","type":"address","internalType":"address"}]},{"type":"error","name":"OwnableUnauthorizedAccount","inputs":[{"name":"account","type":"address","internalType":"address"}]}],"bytecode":{"object":"0x608060405234801561000f575f5ffd5b50335f73ffffffffffffffffffffffffffffffffffffffff168173ffffffffffffffffffffffffffffffffffffffff1603610081575f6040517f1e4fbdf70000000000000000000000000000000000000000000000000000000081526004016100789190610196565b60405180910390fd5b6100908161009660201b60201c565b506101af565b5f5f5f9054906101000a900473ffffffffffffffffffffffffffffffffffffffff169050815f5f6101000a81548173ffffffffffffffffffffffffffffffffffffffff021916908373ffffffffffffffffffffffffffffffffffffffff1602179055508173ffffffffffffffffffffffffffffffffffffffff168173ffffffffffffffffffffffffffffffffffffffff167f8be0079c531659141344cd1fd0a4f28419497f9722a3daafe3b4186f6b6457e060405160405180910390a35050565b5f73ffffffffffffffffffffffffffffffffffffffff82169050919050565b5f61018082610157565b9050919050565b61019081610176565b82525050565b5f6020820190506101a95f830184610187565b92915050565b613614806101bc5f395ff3fe608060405234801561000f575f5ffd5b506004361061014b575f3560e01c8063715018a6116100c1578063bbe2bcb81161007a578063bbe2bcb8146103f0578063e96ccfa414610420578063ee8866c11461043e578063f1786c191461046e578063f2fde38b146104a6578063f3513a37146104c25761014b565b8063715018a6146102fe5780637dbd2832146103085780638da5cb5b146103405780638eaf6af01461035e57806393c915971461038e578063b048e056146103c05761014b565b80633f876265116101135780633f876265146102185780635e49fe4d146102345780636cc36bb4146102525780636ed14c271461026e5780636edabd2b1461029e5780636f532d8c146102ce5761014b565b806318bb6c351461014f5780631ebae01a146101805780632a74bcee146101b05780632adf08f9146101cc578063389e36fb146101fc575b5f5ffd5b6101696004803603810190610164919061266e565b6104e0565b6040516101779291906126e7565b60405180910390f35b61019a60048036038101906101959190612768565b61055e565b6040516101a791906127ae565b60405180910390f35b6101ca60048036038101906101c591906127fa565b6105b0565b005b6101e660048036038101906101e19190612825565b61070b565b6040516101f391906129d6565b60405180910390f35b61021660048036038101906102119190612a1a565b6108be565b005b610232600480360381019061022d9190612ab9565b610b03565b005b61023c6112af565b6040516102499190612b4f565b60405180910390f35b61026c60048036038101906102679190612b68565b6112b5565b005b61028860048036038101906102839190612768565b6119ca565b6040516102959190612bec565b60405180910390f35b6102b860048036038101906102b39190612c05565b6119e7565b6040516102c59190612bec565b60405180910390f35b6102e860048036038101906102e39190612768565b611c50565b6040516102f591906127ae565b60405180910390f35b610306611c6d565b005b610322600480360381019061031d91906127fa565b611c80565b60405161033799989796959493929190612c8f565b60405180910390f35b610348611d2e565b6040516103559190612d1a565b60405180910390f35b610378600480360381019061037391906127fa565b611d55565b6040516103859190612d33565b60405180910390f35b6103a860048036038101906103a39190612768565b611d6a565b6040516103b793929190612d4c565b60405180910390f35b6103da60048036038101906103d59190612dab565b61200e565b6040516103e79190612d1a565b60405180910390f35b61040a60048036038101906104059190612768565b612049565b6040516104179190612b4f565b60405180910390f35b610428612092565b6040516104359190612b4f565b60405180910390f35b610458600480360381019061045391906127fa565b612098565b6040516104659190612bec565b60405180910390f35b61048860048036038101906104839190612dd6565b612219565b60405161049d99989796959493929190612c8f565b60405180910390f35b6104c060048036038101906104bb9190612768565b6122e1565b005b6104ca612365565b6040516104d79190612ebc565b60405180910390f35b5f5f614e20835f0135116104f9575f5f91509150610559565b61044c8360a001351115610512575f5f91509150610559565b5f614e20845f01356105249190612f09565b9050614e20612710826105379190612f3c565b6105419190612faa565b91506127108211156105535761271091505b60019250505b915091565b5f60035f8373ffffffffffffffffffffffffffffffffffffffff1673ffffffffffffffffffffffffffffffffffffffff1681526020019081526020015f205f9054906101000a900460ff169050919050565b5f60025f8381526020019081526020015f209050806003015f9054906101000a900473ffffffffffffffffffffffffffffffffffffffff1673ffffffffffffffffffffffffffffffffffffffff163373ffffffffffffffffffffffffffffffffffffffff16148061066f5750806004015f9054906101000a900473ffffffffffffffffffffffffffffffffffffffff1673ffffffffffffffffffffffffffffffffffffffff163373ffffffffffffffffffffffffffffffffffffffff16145b806106ac575061067d611d2e565b73ffffffffffffffffffffffffffffffffffffffff163373ffffffffffffffffffffffffffffffffffffffff16145b6106eb576040517f08c379a00000000000000000000000000000000000000000000000000000000081526004016106e290613034565b60405180910390fd5b5f8160060160016101000a81548160ff0219169083151502179055505050565b6107136125be565b5f8383604051602001610727929190613097565b6040516020818303038152906040528051906020012090505f60045f8381526020019081526020015f2054905060025f8281526020019081526020015f20604051806101200160405290815f82015481526020016001820154815260200160028201548152602001600382015f9054906101000a900473ffffffffffffffffffffffffffffffffffffffff1673ffffffffffffffffffffffffffffffffffffffff1673ffffffffffffffffffffffffffffffffffffffff168152602001600482015f9054906101000a900473ffffffffffffffffffffffffffffffffffffffff1673ffffffffffffffffffffffffffffffffffffffff1673ffffffffffffffffffffffffffffffffffffffff1681526020016004820160149054906101000a900460ff1660ff1660ff16815260200160058201548152602001600682015f9054906101000a900460ff1660018111156108835761088261289f565b5b60018111156108955761089461289f565b5b81526020016006820160019054906101000a900460ff1615151515815250509250505092915050565b6108c66123f0565b60018160ff16101580156108de575060038160ff1611155b61091d576040517f08c379a00000000000000000000000000000000000000000000000000000000081526004016109149061310c565b60405180910390fd5b60065f8373ffffffffffffffffffffffffffffffffffffffff1673ffffffffffffffffffffffffffffffffffffffff1681526020019081526020015f205f9054906101000a900460ff16156109a7576040517f08c379a000000000000000000000000000000000000000000000000000000000815260040161099e90613174565b60405180910390fd5b8060035f8473ffffffffffffffffffffffffffffffffffffffff1673ffffffffffffffffffffffffffffffffffffffff1681526020019081526020015f205f6101000a81548160ff021916908360ff160217905550600160065f8473ffffffffffffffffffffffffffffffffffffffff1673ffffffffffffffffffffffffffffffffffffffff1681526020019081526020015f205f6101000a81548160ff021916908315150217905550600582908060018154018082558091505060019003905f5260205f20015f9091909190916101000a81548173ffffffffffffffffffffffffffffffffffffffff021916908373ffffffffffffffffffffffffffffffffffffffff1602179055508173ffffffffffffffffffffffffffffffffffffffff167f238e7967f31ca3c1f5404d38c50af64eda069c84124252b2f4fe9be9c1ef3b0982604051610af791906127ae565b60405180910390a25050565b60065f8673ffffffffffffffffffffffffffffffffffffffff1673ffffffffffffffffffffffffffffffffffffffff1681526020019081526020015f205f9054906101000a900460ff16610b8c576040517f08c379a0000000000000000000000000000000000000000000000000000000008152600401610b83906131dc565b60405180910390fd5b60065f8573ffffffffffffffffffffffffffffffffffffffff1673ffffffffffffffffffffffffffffffffffffffff1681526020019081526020015f205f9054906101000a900460ff16610c15576040517f08c379a0000000000000000000000000000000000000000000000000000000008152600401610c0c90613244565b60405180910390fd5b5f60025f8881526020019081526020015f206001015414610c6b576040517f08c379a0000000000000000000000000000000000000000000000000000000008152600401610c62906132ac565b60405180910390fd5b5f5f610c778484612477565b9150915081610cbb576040517f08c379a0000000000000000000000000000000000000000000000000000000008152600401610cb290613314565b60405180910390fd5b614e208111610cff576040517f08c379a0000000000000000000000000000000000000000000000000000000008152600401610cf69061337c565b60405180910390fd5b5f610e1042610d0e919061339a565b90505f6040518061012001604052808b81526020014281526020018381526020018a73ffffffffffffffffffffffffffffffffffffffff1681526020018973ffffffffffffffffffffffffffffffffffffffff1681526020018860ff1681526020018787604051610d80929190613409565b604051809103902081526020015f6001811115610da057610d9f61289f565b5b81526020016001151581525090508060025f8c81526020019081526020015f205f820151815f015560208201518160010155604082015181600201556060820151816003015f6101000a81548173ffffffffffffffffffffffffffffffffffffffff021916908373ffffffffffffffffffffffffffffffffffffffff1602179055506080820151816004015f6101000a81548173ffffffffffffffffffffffffffffffffffffffff021916908373ffffffffffffffffffffffffffffffffffffffff16021790555060a08201518160040160146101000a81548160ff021916908360ff16021790555060c0820151816005015560e0820151816006015f6101000a81548160ff02191690836001811115610ebd57610ebc61289f565b5b02179055506101008201518160060160016101000a81548160ff02191690831515021790555090505060015f8a73ffffffffffffffffffffffffffffffffffffffff1673ffffffffffffffffffffffffffffffffffffffff1681526020019081526020015f2081908060018154018082558091505060019003905f5260205f2090600702015f909190919091505f820151815f015560208201518160010155604082015181600201556060820151816003015f6101000a81548173ffffffffffffffffffffffffffffffffffffffff021916908373ffffffffffffffffffffffffffffffffffffffff1602179055506080820151816004015f6101000a81548173ffffffffffffffffffffffffffffffffffffffff021916908373ffffffffffffffffffffffffffffffffffffffff16021790555060a08201518160040160146101000a81548160ff021916908360ff16021790555060c0820151816005015560e0820151816006015f6101000a81548160ff021916908360018111156110475761104661289f565b5b02179055506101008201518160060160016101000a81548160ff021916908315150217905550505060015f8973ffffffffffffffffffffffffffffffffffffffff1673ffffffffffffffffffffffffffffffffffffffff1681526020019081526020015f2081908060018154018082558091505060019003905f5260205f2090600702015f909190919091505f820151815f015560208201518160010155604082015181600201556060820151816003015f6101000a81548173ffffffffffffffffffffffffffffffffffffffff021916908373ffffffffffffffffffffffffffffffffffffffff1602179055506080820151816004015f6101000a81548173ffffffffffffffffffffffffffffffffffffffff021916908373ffffffffffffffffffffffffffffffffffffffff16021790555060a08201518160040160146101000a81548160ff021916908360ff16021790555060c0820151816005015560e0820151816006015f6101000a81548160ff021916908360018111156111d0576111cf61289f565b5b02179055506101008201518160060160016101000a81548160ff02191690831515021790555050505f898960405160200161120c929190613097565b6040516020818303038152906040528051906020012090508a60045f8381526020019081526020015f20819055508873ffffffffffffffffffffffffffffffffffffffff168a73ffffffffffffffffffffffffffffffffffffffff168c7f128b4adfa825a6f03f9b6a8880935c51a9baad580a286070f8fb9fdcd7421c348b8860405161129a929190613421565b60405180910390a45050505050505050505050565b614e2081565b60065f8573ffffffffffffffffffffffffffffffffffffffff1673ffffffffffffffffffffffffffffffffffffffff1681526020019081526020015f205f9054906101000a900460ff1661133e576040517f08c379a0000000000000000000000000000000000000000000000000000000008152600401611335906131dc565b60405180910390fd5b60065f8473ffffffffffffffffffffffffffffffffffffffff1673ffffffffffffffffffffffffffffffffffffffff1681526020019081526020015f205f9054906101000a900460ff166113c7576040517f08c379a00000000000000000000000000000000000000000000000000000000081526004016113be90613244565b60405180910390fd5b5f60025f8781526020019081526020015f20600101541461141d576040517f08c379a0000000000000000000000000000000000000000000000000000000008152600401611414906132ac565b60405180910390fd5b5f610e104261142c919061339a565b90505f6040518061012001604052808881526020014281526020018381526020018773ffffffffffffffffffffffffffffffffffffffff1681526020018673ffffffffffffffffffffffffffffffffffffffff1681526020015f60ff168152602001858560405161149e929190613409565b604051809103902081526020016001808111156114be576114bd61289f565b5b81526020016001151581525090508060025f8981526020019081526020015f205f820151815f015560208201518160010155604082015181600201556060820151816003015f6101000a81548173ffffffffffffffffffffffffffffffffffffffff021916908373ffffffffffffffffffffffffffffffffffffffff1602179055506080820151816004015f6101000a81548173ffffffffffffffffffffffffffffffffffffffff021916908373ffffffffffffffffffffffffffffffffffffffff16021790555060a08201518160040160146101000a81548160ff021916908360ff16021790555060c0820151816005015560e0820151816006015f6101000a81548160ff021916908360018111156115db576115da61289f565b5b02179055506101008201518160060160016101000a81548160ff02191690831515021790555090505060015f8773ffffffffffffffffffffffffffffffffffffffff1673ffffffffffffffffffffffffffffffffffffffff1681526020019081526020015f2081908060018154018082558091505060019003905f5260205f2090600702015f909190919091505f820151815f015560208201518160010155604082015181600201556060820151816003015f6101000a81548173ffffffffffffffffffffffffffffffffffffffff021916908373ffffffffffffffffffffffffffffffffffffffff1602179055506080820151816004015f6101000a81548173ffffffffffffffffffffffffffffffffffffffff021916908373ffffffffffffffffffffffffffffffffffffffff16021790555060a08201518160040160146101000a81548160ff021916908360ff16021790555060c0820151816005015560e0820151816006015f6101000a81548160ff021916908360018111156117655761176461289f565b5b02179055506101008201518160060160016101000a81548160ff021916908315150217905550505060015f8673ffffffffffffffffffffffffffffffffffffffff1673ffffffffffffffffffffffffffffffffffffffff1681526020019081526020015f2081908060018154018082558091505060019003905f5260205f2090600702015f909190919091505f820151815f015560208201518160010155604082015181600201556060820151816003015f6101000a81548173ffffffffffffffffffffffffffffffffffffffff021916908373ffffffffffffffffffffffffffffffffffffffff1602179055506080820151816004015f6101000a81548173ffffffffffffffffffffffffffffffffffffffff021916908373ffffffffffffffffffffffffffffffffffffffff16021790555060a08201518160040160146101000a81548160ff021916908360ff16021790555060c0820151816005015560e0820151816006015f6101000a81548160ff021916908360018111156118ee576118ed61289f565b5b02179055506101008201518160060160016101000a81548160ff02191690831515021790555050505f868660405160200161192a929190613097565b6040516020818303038152906040528051906020012090508760045f8381526020019081526020015f20819055508573ffffffffffffffffffffffffffffffffffffffff168773ffffffffffffffffffffffffffffffffffffffff16897f128b4adfa825a6f03f9b6a8880935c51a9baad580a286070f8fb9fdcd7421c345f5f6040516119b89291906134ba565b60405180910390a45050505050505050565b6006602052805f5260405f205f915054906101000a900460ff1681565b5f6020848490501015611a2f576040517f08c379a0000000000000000000000000000000000000000000000000000000008152600401611a269061352b565b60405180910390fd5b5f5f85013590505f60025f8381526020019081526020015f20604051806101200160405290815f82015481526020016001820154815260200160028201548152602001600382015f9054906101000a900473ffffffffffffffffffffffffffffffffffffffff1673ffffffffffffffffffffffffffffffffffffffff1673ffffffffffffffffffffffffffffffffffffffff168152602001600482015f9054906101000a900473ffffffffffffffffffffffffffffffffffffffff1673ffffffffffffffffffffffffffffffffffffffff1673ffffffffffffffffffffffffffffffffffffffff1681526020016004820160149054906101000a900460ff1660ff1660ff16815260200160058201548152602001600682015f9054906101000a900460ff166001811115611b6657611b6561289f565b5b6001811115611b7857611b7761289f565b5b81526020016006820160019054906101000a900460ff1615151515815250509050806101000151611bad575f92505050611c49565b4281604001511015611bc3575f92505050611c49565b8373ffffffffffffffffffffffffffffffffffffffff16816060015173ffffffffffffffffffffffffffffffffffffffff1614158015611c3357508373ffffffffffffffffffffffffffffffffffffffff16816080015173ffffffffffffffffffffffffffffffffffffffff1614155b15611c42575f92505050611c49565b6001925050505b9392505050565b6003602052805f5260405f205f915054906101000a900460ff1681565b611c756123f0565b611c7e5f6124f6565b565b6002602052805f5260405f205f91509050805f015490806001015490806002015490806003015f9054906101000a900473ffffffffffffffffffffffffffffffffffffffff1690806004015f9054906101000a900473ffffffffffffffffffffffffffffffffffffffff16908060040160149054906101000a900460ff1690806005015490806006015f9054906101000a900460ff16908060060160019054906101000a900460ff16905089565b5f5f5f9054906101000a900473ffffffffffffffffffffffffffffffffffffffff16905090565b6004602052805f5260405f205f915090505481565b5f5f5f5f60015f8673ffffffffffffffffffffffffffffffffffffffff1673ffffffffffffffffffffffffffffffffffffffff1681526020019081526020015f20805480602002602001604051908101604052809291908181526020015f905b82821015611f3e578382905f5260205f209060070201604051806101200160405290815f82015481526020016001820154815260200160028201548152602001600382015f9054906101000a900473ffffffffffffffffffffffffffffffffffffffff1673ffffffffffffffffffffffffffffffffffffffff1673ffffffffffffffffffffffffffffffffffffffff168152602001600482015f9054906101000a900473ffffffffffffffffffffffffffffffffffffffff1673ffffffffffffffffffffffffffffffffffffffff1673ffffffffffffffffffffffffffffffffffffffff1681526020016004820160149054906101000a900460ff1660ff1660ff16815260200160058201548152602001600682015f9054906101000a900460ff166001811115611efe57611efd61289f565b5b6001811115611f1057611f0f61289f565b5b81526020016006820160019054906101000a900460ff16151515158152505081526020019060010190611dca565b5050505090505f5f90505b8151811015611ff957818181518110611f6557611f64613549565b5b602002602001015161010001518015611f9b575042828281518110611f8d57611f8c613549565b5b602002602001015160400151115b15611fec576001828281518110611fb557611fb4613549565b5b60200260200101515f0151838381518110611fd357611fd2613549565b5b602002602001015160e001519450945094505050612007565b8080600101915050611f49565b505f5f5f1b5f935093509350505b9193909250565b6005818154811061201d575f80fd5b905f5260205f20015f915054906101000a900473ffffffffffffffffffffffffffffffffffffffff1681565b5f60015f8373ffffffffffffffffffffffffffffffffffffffff1673ffffffffffffffffffffffffffffffffffffffff1681526020019081526020015f20805490509050919050565b61044c81565b5f5f60025f8481526020019081526020015f20604051806101200160405290815f82015481526020016001820154815260200160028201548152602001600382015f9054906101000a900473ffffffffffffffffffffffffffffffffffffffff1673ffffffffffffffffffffffffffffffffffffffff1673ffffffffffffffffffffffffffffffffffffffff168152602001600482015f9054906101000a900473ffffffffffffffffffffffffffffffffffffffff1673ffffffffffffffffffffffffffffffffffffffff1673ffffffffffffffffffffffffffffffffffffffff1681526020016004820160149054906101000a900460ff1660ff1660ff16815260200160058201548152602001600682015f9054906101000a900460ff1660018111156121c9576121c861289f565b5b60018111156121db576121da61289f565b5b81526020016006820160019054906101000a900460ff161515151581525050905080610100015180156122115750428160400151115b915050919050565b6001602052815f5260405f208181548110612232575f80fd5b905f5260205f2090600702015f9150915050805f015490806001015490806002015490806003015f9054906101000a900473ffffffffffffffffffffffffffffffffffffffff1690806004015f9054906101000a900473ffffffffffffffffffffffffffffffffffffffff16908060040160149054906101000a900460ff1690806005015490806006015f9054906101000a900460ff16908060060160019054906101000a900460ff16905089565b6122e96123f0565b5f73ffffffffffffffffffffffffffffffffffffffff168173ffffffffffffffffffffffffffffffffffffffff1603612359575f6040517f1e4fbdf70000000000000000000000000000000000000000000000000000000081526004016123509190612d1a565b60405180910390fd5b612362816124f6565b50565b606060058054806020026020016040519081016040528092919081815260200182805480156123e657602002820191905f5260205f20905b815f9054906101000a900473ffffffffffffffffffffffffffffffffffffffff1673ffffffffffffffffffffffffffffffffffffffff168152602001906001019080831161239d575b5050505050905090565b6123f86125b7565b73ffffffffffffffffffffffffffffffffffffffff16612416611d2e565b73ffffffffffffffffffffffffffffffffffffffff1614612475576124396125b7565b6040517f118cdaa700000000000000000000000000000000000000000000000000000000815260040161246c9190612d1a565b60405180910390fd5b565b5f5f60408484905010156124c0576040517f08c379a00000000000000000000000000000000000000000000000000000000081526004016124b7906135c0565b60405180910390fd5b5f5f8501359150602085013590506001925061044c8111156124e0575f92505b614e218210156124ee575f92505b509250929050565b5f5f5f9054906101000a900473ffffffffffffffffffffffffffffffffffffffff169050815f5f6101000a81548173ffffffffffffffffffffffffffffffffffffffff021916908373ffffffffffffffffffffffffffffffffffffffff1602179055508173ffffffffffffffffffffffffffffffffffffffff168173ffffffffffffffffffffffffffffffffffffffff167f8be0079c531659141344cd1fd0a4f28419497f9722a3daafe3b4186f6b6457e060405160405180910390a35050565b5f33905090565b6040518061012001604052805f81526020015f81526020015f81526020015f73ffffffffffffffffffffffffffffffffffffffff1681526020015f73ffffffffffffffffffffffffffffffffffffffff1681526020015f60ff1681526020015f81526020015f60018111156126365761263561289f565b5b81526020015f151581525090565b5f5ffd5b5f5ffd5b5f5ffd5b5f60c082840312156126655761266461264c565b5b81905092915050565b5f6020828403121561268357612682612644565b5b5f82013567ffffffffffffffff8111156126a05761269f612648565b5b6126ac84828501612650565b91505092915050565b5f8115159050919050565b6126c9816126b5565b82525050565b5f819050919050565b6126e1816126cf565b82525050565b5f6040820190506126fa5f8301856126c0565b61270760208301846126d8565b9392505050565b5f73ffffffffffffffffffffffffffffffffffffffff82169050919050565b5f6127378261270e565b9050919050565b6127478161272d565b8114612751575f5ffd5b50565b5f813590506127628161273e565b92915050565b5f6020828403121561277d5761277c612644565b5b5f61278a84828501612754565b91505092915050565b5f60ff82169050919050565b6127a881612793565b82525050565b5f6020820190506127c15f83018461279f565b92915050565b5f819050919050565b6127d9816127c7565b81146127e3575f5ffd5b50565b5f813590506127f4816127d0565b92915050565b5f6020828403121561280f5761280e612644565b5b5f61281c848285016127e6565b91505092915050565b5f5f6040838503121561283b5761283a612644565b5b5f61284885828601612754565b925050602061285985828601612754565b9150509250929050565b61286c816127c7565b82525050565b61287b816126cf565b82525050565b61288a8161272d565b82525050565b61289981612793565b82525050565b7f4e487b71000000000000000000000000000000000000000000000000000000005f52602160045260245ffd5b600281106128dd576128dc61289f565b5b50565b5f8190506128ed826128cc565b919050565b5f6128fc826128e0565b9050919050565b61290c816128f2565b82525050565b61291b816126b5565b82525050565b61012082015f8201516129365f850182612863565b5060208201516129496020850182612872565b50604082015161295c6040850182612872565b50606082015161296f6060850182612881565b5060808201516129826080850182612881565b5060a082015161299560a0850182612890565b5060c08201516129a860c0850182612863565b5060e08201516129bb60e0850182612903565b506101008201516129d0610100850182612912565b50505050565b5f610120820190506129ea5f830184612921565b92915050565b6129f981612793565b8114612a03575f5ffd5b50565b5f81359050612a14816129f0565b92915050565b5f5f60408385031215612a3057612a2f612644565b5b5f612a3d85828601612754565b9250506020612a4e85828601612a06565b9150509250929050565b5f5ffd5b5f5ffd5b5f5ffd5b5f5f83601f840112612a7957612a78612a58565b5b8235905067ffffffffffffffff811115612a9657612a95612a5c565b5b602083019150836001820283011115612ab257612ab1612a60565b5b9250929050565b5f5f5f5f5f5f60a08789031215612ad357612ad2612644565b5b5f612ae089828a016127e6565b9650506020612af189828a01612754565b9550506040612b0289828a01612754565b9450506060612b1389828a01612a06565b935050608087013567ffffffffffffffff811115612b3457612b33612648565b5b612b4089828a01612a64565b92509250509295509295509295565b5f602082019050612b625f8301846126d8565b92915050565b5f5f5f5f5f60808688031215612b8157612b80612644565b5b5f612b8e888289016127e6565b9550506020612b9f88828901612754565b9450506040612bb088828901612754565b935050606086013567ffffffffffffffff811115612bd157612bd0612648565b5b612bdd88828901612a64565b92509250509295509295909350565b5f602082019050612bff5f8301846126c0565b92915050565b5f5f5f60408486031215612c1c57612c1b612644565b5b5f84013567ffffffffffffffff811115612c3957612c38612648565b5b612c4586828701612a64565b93509350506020612c5886828701612754565b9150509250925092565b612c6b816127c7565b82525050565b612c7a8161272d565b82525050565b612c89816128f2565b82525050565b5f61012082019050612ca35f83018c612c62565b612cb0602083018b6126d8565b612cbd604083018a6126d8565b612cca6060830189612c71565b612cd76080830188612c71565b612ce460a083018761279f565b612cf160c0830186612c62565b612cfe60e0830185612c80565b612d0c6101008301846126c0565b9a9950505050505050505050565b5f602082019050612d2d5f830184612c71565b92915050565b5f602082019050612d465f830184612c62565b92915050565b5f606082019050612d5f5f8301866126c0565b612d6c6020830185612c62565b612d796040830184612c80565b949350505050565b612d8a816126cf565b8114612d94575f5ffd5b50565b5f81359050612da581612d81565b92915050565b5f60208284031215612dc057612dbf612644565b5b5f612dcd84828501612d97565b91505092915050565b5f5f60408385031215612dec57612deb612644565b5b5f612df985828601612754565b9250506020612e0a85828601612d97565b9150509250929050565b5f81519050919050565b5f82825260208201905092915050565b5f819050602082019050919050565b5f612e488383612881565b60208301905092915050565b5f602082019050919050565b5f612e6a82612e14565b612e748185612e1e565b9350612e7f83612e2e565b805f5b83811015612eaf578151612e968882612e3d565b9750612ea183612e54565b925050600181019050612e82565b5085935050505092915050565b5f6020820190508181035f830152612ed48184612e60565b905092915050565b7f4e487b71000000000000000000000000000000000000000000000000000000005f52601160045260245ffd5b5f612f13826126cf565b9150612f1e836126cf565b9250828203905081811115612f3657612f35612edc565b5b92915050565b5f612f46826126cf565b9150612f51836126cf565b9250828202612f5f816126cf565b91508282048414831517612f7657612f75612edc565b5b5092915050565b7f4e487b71000000000000000000000000000000000000000000000000000000005f52601260045260245ffd5b5f612fb4826126cf565b9150612fbf836126cf565b925082612fcf57612fce612f7d565b5b828204905092915050565b5f82825260208201905092915050565b7f4e6f7420617574686f72697a65640000000000000000000000000000000000005f82015250565b5f61301e600e83612fda565b915061302982612fea565b602082019050919050565b5f6020820190508181035f83015261304b81613012565b9050919050565b5f8160601b9050919050565b5f61306882613052565b9050919050565b5f6130798261305e565b9050919050565b61309161308c8261272d565b61306f565b82525050565b5f6130a28285613080565b6014820191506130b28284613080565b6014820191508190509392505050565b7f496e76616c6964207469657200000000000000000000000000000000000000005f82015250565b5f6130f6600c83612fda565b9150613101826130c2565b602082019050919050565b5f6020820190508181035f830152613123816130ea565b9050919050565b7f416c7265616479207265676973746572656400000000000000000000000000005f82015250565b5f61315e601283612fda565b91506131698261312a565b602082019050919050565b5f6020820190508181035f83015261318b81613152565b9050919050565b7f416c696365206e6f742076616c696461746f72000000000000000000000000005f82015250565b5f6131c6601383612fda565b91506131d182613192565b602082019050919050565b5f6020820190508181035f8301526131f3816131ba565b9050919050565b7f426f62206e6f742076616c696461746f720000000000000000000000000000005f82015250565b5f61322e601183612fda565b9150613239826131fa565b602082019050919050565b5f6020820190508181035f83015261325b81613222565b9050919050565b7f53657373696f6e206578697374730000000000000000000000000000000000005f82015250565b5f613296600e83612fda565b91506132a182613262565b602082019050919050565b5f6020820190508181035f8301526132c38161328a565b9050919050565b7f434853482076696f6c6174696f6e206e6f742070726f76656e000000000000005f82015250565b5f6132fe601983612fda565b9150613309826132ca565b602082019050919050565b5f6020820190508181035f83015261332b816132f2565b9050919050565b7f496e73756666696369656e7420434853482076696f6c6174696f6e00000000005f82015250565b5f613366601b83612fda565b915061337182613332565b602082019050919050565b5f6020820190508181035f8301526133938161335a565b9050919050565b5f6133a4826126cf565b91506133af836126cf565b92508282019050808211156133c7576133c6612edc565b5b92915050565b5f81905092915050565b828183375f83830152505050565b5f6133f083856133cd565b93506133fd8385846133d7565b82840190509392505050565b5f6134158284866133e5565b91508190509392505050565b5f6040820190506134345f83018561279f565b61344160208301846126d8565b9392505050565b5f819050919050565b5f819050919050565b5f61347461346f61346a84613448565b613451565b612793565b9050919050565b6134848161345a565b82525050565b5f6134a461349f61349a84613448565b613451565b6126cf565b9050919050565b6134b48161348a565b82525050565b5f6040820190506134cd5f83018561347b565b6134da60208301846134ab565b9392505050565b7f496e76616c69642070726f6f6620666f726d61740000000000000000000000005f82015250565b5f613515601483612fda565b9150613520826134e1565b602082019050919050565b5f6020820190508181035f83015261354281613509565b9050919050565b7f4e487b71000000000000000000000000000000000000000000000000000000005f52603260045260245ffd5b7f50726f6f6620746f6f2073686f727400000000000000000000000000000000005f82015250565b5f6135aa600f83612fda565b91506135b582613576565b602082019050919050565b5f6020820190508181035f8301526135d78161359e565b905091905056fea2646970667358221220ca7f584ed091fa1dd57c482b1ad29ee49438be92de2153e96f2d19fe5efe48c864736f6c63430008230033","linkReferences":{}},"methodIdentifiers":{"CHSH_THRESHOLD()":"5e49fe4d","MAX_QBER()":"e96ccfa4","activeSessionLookup(bytes32)":"8eaf6af0","closeQKDSession(bytes32)":"2a74bcee","establishPQCFallbackSession(bytes32,address,address,bytes)":"6cc36bb4","establishQKDSession(bytes32,address,address,uint8,bytes)":"3f876265","getActiveSession(address,address)":"2adf08f9","getAllValidators()":"f3513a37","getQKDTier(address)":"1ebae01a","getValidatorSessionCount(address)":"bbe2bcb8","hasActiveQKD(address)":"93c91597","isRegisteredValidator(address)":"6ed14c27","isSessionActive(bytes32)":"ee8866c1","owner()":"8da5cb5b","registerValidator(address,uint8)":"389e36fb","renounceOwnership()":"715018a6","sessions(bytes32)":"7dbd2832","transferOwnership(address)":"f2fde38b","validatorList(uint256)":"b048e056","validatorSessions(address,uint256)":"f1786c19","validatorTiers(address)":"6f532d8c","verifyCHSHViolation((uint256,uint256[],uint256[],bytes32,bytes32,uint256))":"18bb6c35","verifyQKDProof(bytes,address)":"6edabd2b"},"id":2}