{"abi":[{"type":"constructor","inputs":[],"stateMutability":"nonpayable"},{"type":"function","name":"CHSH_THRESHOLD","inputs":[],"outputs":[{"name":"","type":"uint256","internalType":"uint256"}],"stateMutability":"view"},{"type":"function","name":"MAX_QBER","inputs":[],"outputs":[{"name":"","type":"uint256","internalType":"uint256"}],"stateMutability":"view"},{"type":"function","name":"activeSessionLookup","inputs":[{"name":"","type":"bytes32","internalType":"bytes32"}],"outputs":[{"name":"","type":"bytes32","internalType":"bytes32"}],"stateMutability":"view"},{"type":"function","name":"closeQKDSession","inputs":[{"name":"sessionKeyHash","type":"bytes32","internalType":"bytes32"}],"outputs":[],"stateMutability":"nonpayable"},{"type":"function","name":"establishQKDSession","inputs":[{"name":"sessionKeyHash","type":"bytes32","internalType":"bytes32"},{"name":"alice","type":"address","internalType":"address"},{"name":"bob","type":"address","internalType":"address"},{"name":"tier","type":"uint8","internalType":"uint8"},{"name":"chshProof","type":"bytes","internalType":"bytes"}],"outputs":[],"stateMutability":"nonpayable"},{"type":"function","name":"getActiveSession","inputs":[{"name":"alice","type":"address","internalType":"address"},{"name":"bob","type":"address","internalType":"address"}],"outputs":[{"name":"session","type":"tuple","internalType":"struct IQuantumValidator.QKDSession","components":[{"name":"sessionKeyHash","type":"bytes32","internalType":"bytes32"},{"name":"startTime","type":"uint256","internalType":"uint256"},{"name":"expiryTime","type":"uint256","internalType":"uint256"},{"name":"alice","type":"address","internalType":"address"},{"name":"bob","type":"address","internalType":"address"},{"name":"tier","type":"uint8","internalType":"uint8"},{"name":"chshViolation","type":"bytes32","internalType":"bytes32"},{"name":"active","type":"bool","internalType":"bool"}]}],"stateMutability":"view"},{"type":"function","name":"getAllValidators","inputs":[],"outputs":[{"name":"","type":"address[]","internalType":"address[]"}],"stateMutability":"view"},{"type":"function","name":"getQKDTier","inputs":[{"name":"validator","type":"address","internalType":"address"}],"outputs":[{"name":"tier","type":"uint8","internalType":"uint8"}],"stateMutability":"view"},{"type":"function","name":"getValidatorSessionCount","inputs":[{"name":"validator","type":"address","internalType":"address"}],"outputs":[{"name":"","type":"uint256","internalType":"uint256"}],"stateMutability":"view"},{"type":"function","name":"hasActiveQKD","inputs":[{"name":"validator","type":"address","internalType":"address"}],"outputs":[{"name":"hasActive","type":"bool","internalType":"bool"},{"name":"sessionKeyHash","type":"bytes32","internalType":"bytes32"}],"stateMutability":"view"},{"type":"function","name":"isRegisteredValidator","inputs":[{"name":"","type":"address","internalType":"address"}],"outputs":[{"name":"","type":"bool","internalType":"bool"}],"stateMutability":"view"},{"type":"function","name":"isSessionActive","inputs":[{"name":"sessionKeyHash","type":"bytes32","internalType":"bytes32"}],"outputs":[{"name":"","type":"bool","internalType":"bool"}],"stateMutability":"view"},{"type":"function","name":"owner","inputs":[],"outputs":[{"name":"","type":"address","internalType":"address"}],"stateMutability":"view"},{"type":"function","name":"registerValidator","inputs":[{"name":"validator","type":"address","internalType":"address"},{"name":"tier","type":"uint8","internalType":"uint8"}],"outputs":[],"stateMutability":"nonpayable"},{"type":"function","name":"renounceOwnership","inputs":[],"outputs":[],"stateMutability":"nonpayable"},{"type":"function","name":"sessions","inputs":[{"name":"","type":"bytes32","internalType":"bytes32"}],"outputs":[{"name":"sessionKeyHash","type":"bytes32","internalType":"bytes32"},{"name":"startTime","type":"uint256","internalType":"uint256"},{"name":"expiryTime","type":"uint256","internalType":"uint256"},{"name":"alice","type":"address","internalType":"address"},{"name":"bob","type":"address","internalType":"address"},{"name":"tier","type":"uint8","internalType":"uint8"},{"name":"chshViolation","type":"bytes32","internalType":"bytes32"},{"name":"active","type":"bool","internalType":"bool"}],"stateMutability":"view"},{"type":"function","name":"transferOwnership","inputs":[{"name":"newOwner","type":"address","internalType":"address"}],"outputs":[],"stateMutability":"nonpayable"},{"type":"function","name":"validatorList","inputs":[{"name":"","type":"uint256","internalType":"uint256"}],"outputs":[{"name":"","type":"address","internalType":"address"}],"stateMutability":"view"},{"type":"function","name":"validatorSessions","inputs":[{"name":"","type":"address","internalType":"address"},{"name":"","type":"uint256","internalType":"uint256"}],"outputs":[{"name":"sessionKeyHash","type":"bytes32","internalType":"bytes32"},{"name":"startTime","type":"uint256","internalType":"uint256"},{"name":"expiryTime","type":"uint256","internalType":"uint256"},{"name":"alice","type":"address","internalType":"address"},{"name":"bob","type":"address","internalType":"address"},{"name":"tier","type":"uint8","internalType":"uint8"},{"name":"chshViolation","type":"bytes32","internalType":"bytes32"},{"name":"active","type":"bool","internalType":"bool"}],"stateMutability":"view"},{"type":"function","name":"validatorTiers","inputs":[{"name":"","type":"address","internalType":"address"}],"outputs":[{"name":"","type":"uint8","internalType":"uint8"}],"stateMutability":"view"},{"type":"function","name":"verifyCHSHViolation","inputs":[{"name":"chshProof","type":"tuple","internalType":"struct IQuantumValidator.CHSHProof","components":[{"name":"S","type":"uint256","internalType":"uint256"},{"name":"outcomesA","type":"uint256[]","internalType":"uint256[]"},{"name":"outcomesB","type":"uint256[]","internalType":"uint256[]"},{"name":"basisChoicesA","type":"bytes32","internalType":"bytes32"},{"name":"basisChoicesB","type":"bytes32","internalType":"bytes32"},{"name":"qber","type":"uint256","internalType":"uint256"}]}],"outputs":[{"name":"valid","type":"bool","internalType":"bool"},{"name":"confidence","type":"uint256","internalType":"uint256"}],"stateMutability":"pure"},{"type":"function","name":"verifyQKDProof","inputs":[{"name":"proof","type":"bytes","internalType":"bytes"},{"name":"validator","type":"address","internalType":"address"}],"outputs":[{"name":"valid","type":"bool","internalType":"bool"}],"stateMutability":"view"},{"type":"event","name":"CHSHVerified","inputs":[{"name":"sessionKeyHash","type":"bytes32","indexed":true,"internalType":"bytes32"},{"name":"S","type":"uint256","indexed":false,"internalType":"uint256"},{"name":"qber","type":"uint256","indexed":false,"internalType":"uint256"},{"name":"valid","type":"bool","indexed":false,"internalType":"bool"}],"anonymous":false},{"type":"event","name":"OwnershipTransferred","inputs":[{"name":"previousOwner","type":"address","indexed":true,"internalType":"address"},{"name":"newOwner","type":"address","indexed":true,"internalType":"address"}],"anonymous":false},{"type":"event","name":"QKDSessionEstablished","inputs":[{"name":"sessionKeyHash","type":"bytes32","indexed":true,"internalType":"bytes32"},{"name":"alice","type":"address","indexed":true,"internalType":"address"},{"name":"bob","type":"address","indexed":true,"internalType":"address"},{"name":"tier","type":"uint8","indexed":false,"internalType":"uint8"},{"name":"chshS","type":"uint256","indexed":false,"internalType":"uint256"}],"anonymous":false},{"type":"event","name":"ValidatorRegistered","inputs":[{"name":"validator","type":"address","indexed":true,"internalType":"address"},{"name":"tier","type":"uint8","indexed":false,"internalType":"uint8"}],"anonymous":false},{"type":"error","name":"OwnableInvalidOwner","inputs":[{"name":"owner","type":"address","internalType":"address"}]},{"type":"error","name":"OwnableUnauthorizedAccount","inputs":[{"name":"account","type":"address","internalType":"address"}]}],"bytecode":{"object":"0x608060405234801561000f575f5ffd5b50335f73ffffffffffffffffffffffffffffffffffffffff168173ffffffffffffffffffffffffffffffffffffffff1603610081575f6040517f1e4fbdf70000000000000000000000000000000000000000000000000000000081526004016100789190610196565b60405180910390fd5b6100908161009660201b60201c565b506101af565b5f5f5f9054906101000a900473ffffffffffffffffffffffffffffffffffffffff169050815f5f6101000a81548173ffffffffffffffffffffffffffffffffffffffff021916908373ffffffffffffffffffffffffffffffffffffffff1602179055508173ffffffffffffffffffffffffffffffffffffffff168173ffffffffffffffffffffffffffffffffffffffff167f8be0079c531659141344cd1fd0a4f28419497f9722a3daafe3b4186f6b6457e060405160405180910390a35050565b5f73ffffffffffffffffffffffffffffffffffffffff82169050919050565b5f61018082610157565b9050919050565b61019081610176565b82525050565b5f6020820190506101a95f830184610187565b92915050565b612b11806101bc5f395ff3fe608060405234801561000f575f5ffd5b5060043610610140575f3560e01c80637dbd2832116100b6578063bbe2bcb81161007a578063bbe2bcb8146103c7578063e96ccfa4146103f7578063ee8866c114610415578063f1786c1914610445578063f2fde38b1461047c578063f3513a371461049857610140565b80637dbd2832146102e15780638da5cb5b146103185780638eaf6af01461033657806393c9159714610366578063b048e0561461039757610140565b80633f876265116101085780633f8762651461020d5780635e49fe4d146102295780636ed14c27146102475780636edabd2b146102775780636f532d8c146102a7578063715018a6146102d757610140565b806318bb6c35146101445780631ebae01a146101755780632a74bcee146101a55780632adf08f9146101c1578063389e36fb146101f1575b5f5ffd5b61015e60048036038101906101599190611d3c565b6104b6565b60405161016c929190611db5565b60405180910390f35b61018f600480360381019061018a9190611e36565b610534565b60405161019c9190611e7c565b60405180910390f35b6101bf60048036038101906101ba9190611ec8565b610586565b005b6101db60048036038101906101d69190611ef3565b6106e0565b6040516101e8919061201c565b60405180910390f35b61020b60048036038101906102069190612060565b610858565b005b610227600480360381019061022291906120ff565b610a9d565b005b61023161119e565b60405161023e9190612195565b60405180910390f35b610261600480360381019061025c9190611e36565b6111a4565b60405161026e91906121ae565b60405180910390f35b610291600480360381019061028c91906121c7565b6111c1565b60405161029e91906121ae565b60405180910390f35b6102c160048036038101906102bc9190611e36565b6113ee565b6040516102ce9190611e7c565b60405180910390f35b6102df61140b565b005b6102fb60048036038101906102f69190611ec8565b61141e565b60405161030f989796959493929190612242565b60405180910390f35b6103206114b9565b60405161032d91906122be565b60405180910390f35b610350600480360381019061034b9190611ec8565b6114e0565b60405161035d91906122d7565b60405180910390f35b610380600480360381019061037b9190611e36565b6114f5565b60405161038e9291906122f0565b60405180910390f35b6103b160048036038101906103ac9190612341565b611736565b6040516103be91906122be565b60405180910390f35b6103e160048036038101906103dc9190611e36565b611771565b6040516103ee9190612195565b60405180910390f35b6103ff6117ba565b60405161040c9190612195565b60405180910390f35b61042f600480360381019061042a9190611ec8565b6117c0565b60405161043c91906121ae565b60405180910390f35b61045f600480360381019061045a919061236c565b611905565b604051610473989796959493929190612242565b60405180910390f35b61049660048036038101906104919190611e36565b6119ba565b005b6104a0611a3e565b6040516104ad9190612452565b60405180910390f35b5f5f614e20835f0135116104cf575f5f9150915061052f565b61044c8360a0013511156104e8575f5f9150915061052f565b5f614e20845f01356104fa919061249f565b9050614e206127108261050d91906124d2565b6105179190612540565b91506127108211156105295761271091505b60019250505b915091565b5f60035f8373ffffffffffffffffffffffffffffffffffffffff1673ffffffffffffffffffffffffffffffffffffffff1681526020019081526020015f205f9054906101000a900460ff169050919050565b5f60025f8381526020019081526020015f209050806003015f9054906101000a900473ffffffffffffffffffffffffffffffffffffffff1673ffffffffffffffffffffffffffffffffffffffff163373ffffffffffffffffffffffffffffffffffffffff1614806106455750806004015f9054906101000a900473ffffffffffffffffffffffffffffffffffffffff1673ffffffffffffffffffffffffffffffffffffffff163373ffffffffffffffffffffffffffffffffffffffff16145b8061068257506106536114b9565b73ffffffffffffffffffffffffffffffffffffffff163373ffffffffffffffffffffffffffffffffffffffff16145b6106c1576040517f08c379a00000000000000000000000000000000000000000000000000000000081526004016106b8906125ca565b60405180910390fd5b5f816006015f6101000a81548160ff0219169083151502179055505050565b6106e8611ca4565b5f83836040516020016106fc92919061262d565b6040516020818303038152906040528051906020012090505f60045f8381526020019081526020015f2054905060025f8281526020019081526020015f20604051806101000160405290815f82015481526020016001820154815260200160028201548152602001600382015f9054906101000a900473ffffffffffffffffffffffffffffffffffffffff1673ffffffffffffffffffffffffffffffffffffffff1673ffffffffffffffffffffffffffffffffffffffff168152602001600482015f9054906101000a900473ffffffffffffffffffffffffffffffffffffffff1673ffffffffffffffffffffffffffffffffffffffff1673ffffffffffffffffffffffffffffffffffffffff1681526020016004820160149054906101000a900460ff1660ff1660ff16815260200160058201548152602001600682015f9054906101000a900460ff1615151515815250509250505092915050565b610860611ac9565b60018160ff1610158015610878575060038160ff1611155b6108b7576040517f08c379a00000000000000000000000000000000000000000000000000000000081526004016108ae906126a2565b60405180910390fd5b60065f8373ffffffffffffffffffffffffffffffffffffffff1673ffffffffffffffffffffffffffffffffffffffff1681526020019081526020015f205f9054906101000a900460ff1615610941576040517f08c379a00000000000000000000000000000000000000000000000000000000081526004016109389061270a565b60405180910390fd5b8060035f8473ffffffffffffffffffffffffffffffffffffffff1673ffffffffffffffffffffffffffffffffffffffff1681526020019081526020015f205f6101000a81548160ff021916908360ff160217905550600160065f8473ffffffffffffffffffffffffffffffffffffffff1673ffffffffffffffffffffffffffffffffffffffff1681526020019081526020015f205f6101000a81548160ff021916908315150217905550600582908060018154018082558091505060019003905f5260205f20015f9091909190916101000a81548173ffffffffffffffffffffffffffffffffffffffff021916908373ffffffffffffffffffffffffffffffffffffffff1602179055508173ffffffffffffffffffffffffffffffffffffffff167f238e7967f31ca3c1f5404d38c50af64eda069c84124252b2f4fe9be9c1ef3b0982604051610a919190611e7c565b60405180910390a25050565b60065f8673ffffffffffffffffffffffffffffffffffffffff1673ffffffffffffffffffffffffffffffffffffffff1681526020019081526020015f205f9054906101000a900460ff16610b26576040517f08c379a0000000000000000000000000000000000000000000000000000000008152600401610b1d90612772565b60405180910390fd5b60065f8573ffffffffffffffffffffffffffffffffffffffff1673ffffffffffffffffffffffffffffffffffffffff1681526020019081526020015f205f9054906101000a900460ff16610baf576040517f08c379a0000000000000000000000000000000000000000000000000000000008152600401610ba6906127da565b60405180910390fd5b5f60025f8881526020019081526020015f206001015414610c05576040517f08c379a0000000000000000000000000000000000000000000000000000000008152600401610bfc90612842565b60405180910390fd5b5f5f610c118484611b50565b9150915081610c55576040517f08c379a0000000000000000000000000000000000000000000000000000000008152600401610c4c906128aa565b60405180910390fd5b614e208111610c99576040517f08c379a0000000000000000000000000000000000000000000000000000000008152600401610c9090612912565b60405180910390fd5b5f610e1042610ca89190612930565b90505f6040518061010001604052808b81526020014281526020018381526020018a73ffffffffffffffffffffffffffffffffffffffff1681526020018973ffffffffffffffffffffffffffffffffffffffff1681526020018860ff1681526020018787604051610d1a92919061299f565b604051809103902081526020016001151581525090508060025f8c81526020019081526020015f205f820151815f015560208201518160010155604082015181600201556060820151816003015f6101000a81548173ffffffffffffffffffffffffffffffffffffffff021916908373ffffffffffffffffffffffffffffffffffffffff1602179055506080820151816004015f6101000a81548173ffffffffffffffffffffffffffffffffffffffff021916908373ffffffffffffffffffffffffffffffffffffffff16021790555060a08201518160040160146101000a81548160ff021916908360ff16021790555060c0820151816005015560e0820151816006015f6101000a81548160ff02191690831515021790555090505060015f8a73ffffffffffffffffffffffffffffffffffffffff1673ffffffffffffffffffffffffffffffffffffffff1681526020019081526020015f2081908060018154018082558091505060019003905f5260205f2090600702015f909190919091505f820151815f015560208201518160010155604082015181600201556060820151816003015f6101000a81548173ffffffffffffffffffffffffffffffffffffffff021916908373ffffffffffffffffffffffffffffffffffffffff1602179055506080820151816004015f6101000a81548173ffffffffffffffffffffffffffffffffffffffff021916908373ffffffffffffffffffffffffffffffffffffffff16021790555060a08201518160040160146101000a81548160ff021916908360ff16021790555060c0820151816005015560e0820151816006015f6101000a81548160ff021916908315150217905550505060015f8973ffffffffffffffffffffffffffffffffffffffff1673ffffffffffffffffffffffffffffffffffffffff1681526020019081526020015f2081908060018154018082558091505060019003905f5260205f2090600702015f909190919091505f820151815f015560208201518160010155604082015181600201556060820151816003015f6101000a81548173ffffffffffffffffffffffffffffffffffffffff021916908373ffffffffffffffffffffffffffffffffffffffff1602179055506080820151816004015f6101000a81548173ffffffffffffffffffffffffffffffffffffffff021916908373ffffffffffffffffffffffffffffffffffffffff16021790555060a08201518160040160146101000a81548160ff021916908360ff16021790555060c0820151816005015560e0820151816006015f6101000a81548160ff02191690831515021790555050505f89896040516020016110fb92919061262d565b6040516020818303038152906040528051906020012090508a60045f8381526020019081526020015f20819055508873ffffffffffffffffffffffffffffffffffffffff168a73ffffffffffffffffffffffffffffffffffffffff168c7f128b4adfa825a6f03f9b6a8880935c51a9baad580a286070f8fb9fdcd7421c348b886040516111899291906129b7565b60405180910390a45050505050505050505050565b614e2081565b6006602052805f5260405f205f915054906101000a900460ff1681565b5f6020848490501015611209576040517f08c379a000000000000000000000000000000000000000000000000000000000815260040161120090612a28565b60405180910390fd5b5f5f85013590505f60025f8381526020019081526020015f20604051806101000160405290815f82015481526020016001820154815260200160028201548152602001600382015f9054906101000a900473ffffffffffffffffffffffffffffffffffffffff1673ffffffffffffffffffffffffffffffffffffffff1673ffffffffffffffffffffffffffffffffffffffff168152602001600482015f9054906101000a900473ffffffffffffffffffffffffffffffffffffffff1673ffffffffffffffffffffffffffffffffffffffff1673ffffffffffffffffffffffffffffffffffffffff1681526020016004820160149054906101000a900460ff1660ff1660ff16815260200160058201548152602001600682015f9054906101000a900460ff16151515158152505090508060e0015161134b575f925050506113e7565b4281604001511015611361575f925050506113e7565b8373ffffffffffffffffffffffffffffffffffffffff16816060015173ffffffffffffffffffffffffffffffffffffffff16141580156113d157508373ffffffffffffffffffffffffffffffffffffffff16816080015173ffffffffffffffffffffffffffffffffffffffff1614155b156113e0575f925050506113e7565b6001925050505b9392505050565b6003602052805f5260405f205f915054906101000a900460ff1681565b611413611ac9565b61141c5f611bdc565b565b6002602052805f5260405f205f91509050805f015490806001015490806002015490806003015f9054906101000a900473ffffffffffffffffffffffffffffffffffffffff1690806004015f9054906101000a900473ffffffffffffffffffffffffffffffffffffffff16908060040160149054906101000a900460ff1690806005015490806006015f9054906101000a900460ff16905088565b5f5f5f9054906101000a900473ffffffffffffffffffffffffffffffffffffffff16905090565b6004602052805f5260405f205f915090505481565b5f5f5f60015f8573ffffffffffffffffffffffffffffffffffffffff1673ffffffffffffffffffffffffffffffffffffffff1681526020019081526020015f20805480602002602001604051908101604052809291908181526020015f905b8282101561168d578382905f5260205f209060070201604051806101000160405290815f82015481526020016001820154815260200160028201548152602001600382015f9054906101000a900473ffffffffffffffffffffffffffffffffffffffff1673ffffffffffffffffffffffffffffffffffffffff1673ffffffffffffffffffffffffffffffffffffffff168152602001600482015f9054906101000a900473ffffffffffffffffffffffffffffffffffffffff1673ffffffffffffffffffffffffffffffffffffffff1673ffffffffffffffffffffffffffffffffffffffff1681526020016004820160149054906101000a900460ff1660ff1660ff16815260200160058201548152602001600682015f9054906101000a900460ff16151515158152505081526020019060010190611554565b5050505090505f5f90505b8151811015611726578181815181106116b4576116b3612a46565b5b602002602001015160e0015180156116e95750428282815181106116db576116da612a46565b5b602002602001015160400151115b1561171957600182828151811061170357611702612a46565b5b60200260200101515f0151935093505050611731565b8080600101915050611698565b505f5f5f1b92509250505b915091565b60058181548110611745575f80fd5b905f5260205f20015f915054906101000a900473ffffffffffffffffffffffffffffffffffffffff1681565b5f60015f8373ffffffffffffffffffffffffffffffffffffffff1673ffffffffffffffffffffffffffffffffffffffff1681526020019081526020015f20805490509050919050565b61044c81565b5f5f60025f8481526020019081526020015f20604051806101000160405290815f82015481526020016001820154815260200160028201548152602001600382015f9054906101000a900473ffffffffffffffffffffffffffffffffffffffff1673ffffffffffffffffffffffffffffffffffffffff1673ffffffffffffffffffffffffffffffffffffffff168152602001600482015f9054906101000a900473ffffffffffffffffffffffffffffffffffffffff1673ffffffffffffffffffffffffffffffffffffffff1673ffffffffffffffffffffffffffffffffffffffff1681526020016004820160149054906101000a900460ff1660ff1660ff16815260200160058201548152602001600682015f9054906101000a900460ff16151515158152505090508060e0015180156118fd5750428160400151115b915050919050565b6001602052815f5260405f20818154811061191e575f80fd5b905f5260205f2090600702015f9150915050805f015490806001015490806002015490806003015f9054906101000a900473ffffffffffffffffffffffffffffffffffffffff1690806004015f9054906101000a900473ffffffffffffffffffffffffffffffffffffffff16908060040160149054906101000a900460ff1690806005015490806006015f9054906101000a900460ff16905088565b6119c2611ac9565b5f73ffffffffffffffffffffffffffffffffffffffff168173ffffffffffffffffffffffffffffffffffffffff1603611a32575f6040517f1e4fbdf7000000000000000000000000000000000000000000000000000000008152600401611a2991906122be565b60405180910390fd5b611a3b81611bdc565b50565b60606005805480602002602001604051908101604052809291908181526020018280548015611abf57602002820191905f5260205f20905b815f9054906101000a900473ffffffffffffffffffffffffffffffffffffffff1673ffffffffffffffffffffffffffffffffffffffff1681526020019060010190808311611a76575b5050505050905090565b611ad1611c9d565b73ffffffffffffffffffffffffffffffffffffffff16611aef6114b9565b73ffffffffffffffffffffffffffffffffffffffff1614611b4e57611b12611c9d565b6040517f118cdaa7000000000000000000000000000000000000000000000000000000008152600401611b4591906122be565b60405180910390fd5b565b5f5f6040848490501015611b99576040517f08c379a0000000000000000000000000000000000000000000000000000000008152600401611b9090612abd565b60405180910390fd5b5f8401359050602084013561044c811115611bb2575f92505b614e21821015611bc0575f92505b614e21821061044c821017611bd457600192505b509250929050565b5f5f5f9054906101000a900473ffffffffffffffffffffffffffffffffffffffff169050815f5f6101000a81548173ffffffffffffffffffffffffffffffffffffffff021916908373ffffffffffffffffffffffffffffffffffffffff1602179055508173ffffffffffffffffffffffffffffffffffffffff168173ffffffffffffffffffffffffffffffffffffffff167f8be0079c531659141344cd1fd0a4f28419497f9722a3daafe3b4186f6b6457e060405160405180910390a35050565b5f33905090565b6040518061010001604052805f81526020015f81526020015f81526020015f73ffffffffffffffffffffffffffffffffffffffff1681526020015f73ffffffffffffffffffffffffffffffffffffffff1681526020015f60ff1681526020015f81526020015f151581525090565b5f5ffd5b5f5ffd5b5f5ffd5b5f60c08284031215611d3357611d32611d1a565b5b81905092915050565b5f60208284031215611d5157611d50611d12565b5b5f82013567ffffffffffffffff811115611d6e57611d6d611d16565b5b611d7a84828501611d1e565b91505092915050565b5f8115159050919050565b611d9781611d83565b82525050565b5f819050919050565b611daf81611d9d565b82525050565b5f604082019050611dc85f830185611d8e565b611dd56020830184611da6565b9392505050565b5f73ffffffffffffffffffffffffffffffffffffffff82169050919050565b5f611e0582611ddc565b9050919050565b611e1581611dfb565b8114611e1f575f5ffd5b50565b5f81359050611e3081611e0c565b92915050565b5f60208284031215611e4b57611e4a611d12565b5b5f611e5884828501611e22565b91505092915050565b5f60ff82169050919050565b611e7681611e61565b82525050565b5f602082019050611e8f5f830184611e6d565b92915050565b5f819050919050565b611ea781611e95565b8114611eb1575f5ffd5b50565b5f81359050611ec281611e9e565b92915050565b5f60208284031215611edd57611edc611d12565b5b5f611eea84828501611eb4565b91505092915050565b5f5f60408385031215611f0957611f08611d12565b5b5f611f1685828601611e22565b9250506020611f2785828601611e22565b9150509250929050565b611f3a81611e95565b82525050565b611f4981611d9d565b82525050565b611f5881611dfb565b82525050565b611f6781611e61565b82525050565b611f7681611d83565b82525050565b61010082015f820151611f915f850182611f31565b506020820151611fa46020850182611f40565b506040820151611fb76040850182611f40565b506060820151611fca6060850182611f4f565b506080820151611fdd6080850182611f4f565b5060a0820151611ff060a0850182611f5e565b5060c082015161200360c0850182611f31565b5060e082015161201660e0850182611f6d565b50505050565b5f610100820190506120305f830184611f7c565b92915050565b61203f81611e61565b8114612049575f5ffd5b50565b5f8135905061205a81612036565b92915050565b5f5f6040838503121561207657612075611d12565b5b5f61208385828601611e22565b92505060206120948582860161204c565b9150509250929050565b5f5ffd5b5f5ffd5b5f5ffd5b5f5f83601f8401126120bf576120be61209e565b5b8235905067ffffffffffffffff8111156120dc576120db6120a2565b5b6020830191508360018202830111156120f8576120f76120a6565b5b9250929050565b5f5f5f5f5f5f60a0878903121561211957612118611d12565b5b5f61212689828a01611eb4565b965050602061213789828a01611e22565b955050604061214889828a01611e22565b945050606061215989828a0161204c565b935050608087013567ffffffffffffffff81111561217a57612179611d16565b5b61218689828a016120aa565b92509250509295509295509295565b5f6020820190506121a85f830184611da6565b92915050565b5f6020820190506121c15f830184611d8e565b92915050565b5f5f5f604084860312156121de576121dd611d12565b5b5f84013567ffffffffffffffff8111156121fb576121fa611d16565b5b612207868287016120aa565b9350935050602061221a86828701611e22565b9150509250925092565b61222d81611e95565b82525050565b61223c81611dfb565b82525050565b5f610100820190506122565f83018b612224565b612263602083018a611da6565b6122706040830189611da6565b61227d6060830188612233565b61228a6080830187612233565b61229760a0830186611e6d565b6122a460c0830185612224565b6122b160e0830184611d8e565b9998505050505050505050565b5f6020820190506122d15f830184612233565b92915050565b5f6020820190506122ea5f830184612224565b92915050565b5f6040820190506123035f830185611d8e565b6123106020830184612224565b9392505050565b61232081611d9d565b811461232a575f5ffd5b50565b5f8135905061233b81612317565b92915050565b5f6020828403121561235657612355611d12565b5b5f6123638482850161232d565b91505092915050565b5f5f6040838503121561238257612381611d12565b5b5f61238f85828601611e22565b92505060206123a08582860161232d565b9150509250929050565b5f81519050919050565b5f82825260208201905092915050565b5f819050602082019050919050565b5f6123de8383611f4f565b60208301905092915050565b5f602082019050919050565b5f612400826123aa565b61240a81856123b4565b9350612415836123c4565b805f5b8381101561244557815161242c88826123d3565b9750612437836123ea565b925050600181019050612418565b5085935050505092915050565b5f6020820190508181035f83015261246a81846123f6565b905092915050565b7f4e487b71000000000000000000000000000000000000000000000000000000005f52601160045260245ffd5b5f6124a982611d9d565b91506124b483611d9d565b92508282039050818111156124cc576124cb612472565b5b92915050565b5f6124dc82611d9d565b91506124e783611d9d565b92508282026124f581611d9d565b9150828204841483151761250c5761250b612472565b5b5092915050565b7f4e487b71000000000000000000000000000000000000000000000000000000005f52601260045260245ffd5b5f61254a82611d9d565b915061255583611d9d565b92508261256557612564612513565b5b828204905092915050565b5f82825260208201905092915050565b7f4e6f7420617574686f72697a65640000000000000000000000000000000000005f82015250565b5f6125b4600e83612570565b91506125bf82612580565b602082019050919050565b5f6020820190508181035f8301526125e1816125a8565b9050919050565b5f8160601b9050919050565b5f6125fe826125e8565b9050919050565b5f61260f826125f4565b9050919050565b61262761262282611dfb565b612605565b82525050565b5f6126388285612616565b6014820191506126488284612616565b6014820191508190509392505050565b7f496e76616c6964207469657200000000000000000000000000000000000000005f82015250565b5f61268c600c83612570565b915061269782612658565b602082019050919050565b5f6020820190508181035f8301526126b981612680565b9050919050565b7f416c7265616479207265676973746572656400000000000000000000000000005f82015250565b5f6126f4601283612570565b91506126ff826126c0565b602082019050919050565b5f6020820190508181035f830152612721816126e8565b9050919050565b7f416c696365206e6f742076616c696461746f72000000000000000000000000005f82015250565b5f61275c601383612570565b915061276782612728565b602082019050919050565b5f6020820190508181035f83015261278981612750565b9050919050565b7f426f62206e6f742076616c696461746f720000000000000000000000000000005f82015250565b5f6127c4601183612570565b91506127cf82612790565b602082019050919050565b5f6020820190508181035f8301526127f1816127b8565b9050919050565b7f53657373696f6e206578697374730000000000000000000000000000000000005f82015250565b5f61282c600e83612570565b9150612837826127f8565b602082019050919050565b5f6020820190508181035f83015261285981612820565b9050919050565b7f434853482076696f6c6174696f6e206e6f742070726f76656e000000000000005f82015250565b5f612894601983612570565b915061289f82612860565b602082019050919050565b5f6020820190508181035f8301526128c181612888565b9050919050565b7f496e73756666696369656e7420434853482076696f6c6174696f6e00000000005f82015250565b5f6128fc601b83612570565b9150612907826128c8565b602082019050919050565b5f6020820190508181035f830152612929816128f0565b9050919050565b5f61293a82611d9d565b915061294583611d9d565b925082820190508082111561295d5761295c612472565b5b92915050565b5f81905092915050565b828183375f83830152505050565b5f6129868385612963565b935061299383858461296d565b82840190509392505050565b5f6129ab82848661297b565b91508190509392505050565b5f6040820190506129ca5f830185611e6d565b6129d76020830184611da6565b9392505050565b7f496e76616c69642070726f6f6620666f726d61740000000000000000000000005f82015250565b5f612a12601483612570565b9150612a1d826129de565b602082019050919050565b5f6020820190508181035f830152612a3f81612a06565b9050919050565b7f4e487b71000000000000000000000000000000000000000000000000000000005f52603260045260245ffd5b7f50726f6f6620746f6f2073686f727400000000000000000000000000000000005f82015250565b5f612aa7600f83612570565b9150612ab282612a73565b602082019050919050565b5f6020820190508181035f830152612ad481612a9b565b905091905056fea264697066735822122093a57ac05cb8f0249730c6e18ed8c341e3e31ecc3acdb640e556ecf09d6f59ed64736f6c63430008230033","linkReferences":{}},"methodIdentifiers":{"CHSH_THRESHOLD()":"5e49fe4d","MAX_QBER()":"e96ccfa4","activeSessionLookup(bytes32)":"8eaf6af0","closeQKDSession(bytes32)":"2a74bcee","establishQKDSession(bytes32,address,address,uint8,bytes)":"3f876265","getActiveSession(address,address)":"2adf08f9","getAllValidators()":"f3513a37","getQKDTier(address)":"1ebae01a","getValidatorSessionCount(address)":"bbe2bcb8","hasActiveQKD(address)":"93c91597","isRegisteredValidator(address)":"6ed14c27","isSessionActive(bytes32)":"ee8866c1","owner()":"8da5cb5b","registerValidator(address,uint8)":"389e36fb","renounceOwnership()":"715018a6","sessions(bytes32)":"7dbd2832","transferOwnership(address)":"f2fde38b","validatorList(uint256)":"b048e056","validatorSessions(address,uint256)":"f1786c19","validatorTiers(address)":"6f532d8c","verifyCHSHViolation((uint256,uint256[],uint256[],bytes32,bytes32,uint256))":"18bb6c35","verifyQKDProof(bytes,address)":"6edabd2b"},"id":3}