{"abi":[{"type":"constructor","inputs":[{"name":"trustedForwarder_","type":"address","internalType":"address"}],"stateMutability":"nonpayable"},{"type":"function","name":"UPGRADE_INTERFACE_VERSION","inputs":[],"outputs":[{"name":"","type":"string","internalType":"string"}],"stateMutability":"view"},{"type":"function","name":"allowance","inputs":[{"name":"owner","type":"address","internalType":"address"},{"name":"spender","type":"address","internalType":"address"}],"outputs":[{"name":"","type":"uint256","internalType":"uint256"}],"stateMutability":"view"},{"type":"function","name":"approve","inputs":[{"name":"spender","type":"address","internalType":"address"},{"name":"value","type":"uint256","internalType":"uint256"}],"outputs":[{"name":"","type":"bool","internalType":"bool"}],"stateMutability":"nonpayable"},{"type":"function","name":"balanceOf","inputs":[{"name":"account","type":"address","internalType":"address"}],"outputs":[{"name":"","type":"uint256","internalType":"uint256"}],"stateMutability":"view"},{"type":"function","name":"decimals","inputs":[],"outputs":[{"name":"","type":"uint8","internalType":"uint8"}],"stateMutability":"view"},{"type":"function","name":"depositFor","inputs":[{"name":"account","type":"address","internalType":"address"},{"name":"value","type":"uint256","internalType":"uint256"}],"outputs":[{"name":"","type":"bool","internalType":"bool"}],"stateMutability":"nonpayable"},{"type":"function","name":"initialize","inputs":[{"name":"initialOwner","type":"address","internalType":"address"},{"name":"underlyingToken","type":"address","internalType":"contract IERC20"},{"name":"_quantumValidator","type":"address","internalType":"address"}],"outputs":[],"stateMutability":"nonpayable"},{"type":"function","name":"isTrustedForwarder","inputs":[{"name":"forwarder","type":"address","internalType":"address"}],"outputs":[{"name":"","type":"bool","internalType":"bool"}],"stateMutability":"view"},{"type":"function","name":"name","inputs":[],"outputs":[{"name":"","type":"string","internalType":"string"}],"stateMutability":"view"},{"type":"function","name":"owner","inputs":[],"outputs":[{"name":"","type":"address","internalType":"address"}],"stateMutability":"view"},{"type":"function","name":"proxiableUUID","inputs":[],"outputs":[{"name":"","type":"bytes32","internalType":"bytes32"}],"stateMutability":"view"},{"type":"function","name":"quantumValidator","inputs":[],"outputs":[{"name":"","type":"address","internalType":"contract IQuantumValidator"}],"stateMutability":"view"},{"type":"function","name":"renounceOwnership","inputs":[],"outputs":[],"stateMutability":"nonpayable"},{"type":"function","name":"setQuantumValidator","inputs":[{"name":"_quantumValidator","type":"address","internalType":"address"}],"outputs":[],"stateMutability":"nonpayable"},{"type":"function","name":"symbol","inputs":[],"outputs":[{"name":"","type":"string","internalType":"string"}],"stateMutability":"view"},{"type":"function","name":"totalSupply","inputs":[],"outputs":[{"name":"","type":"uint256","internalType":"uint256"}],"stateMutability":"view"},{"type":"function","name":"transfer","inputs":[{"name":"to","type":"address","internalType":"address"},{"name":"value","type":"uint256","internalType":"uint256"}],"outputs":[{"name":"","type":"bool","internalType":"bool"}],"stateMutability":"nonpayable"},{"type":"function","name":"transferFrom","inputs":[{"name":"from","type":"address","internalType":"address"},{"name":"to","type":"address","internalType":"address"},{"name":"value","type":"uint256","internalType":"uint256"}],"outputs":[{"name":"","type":"bool","internalType":"bool"}],"stateMutability":"nonpayable"},{"type":"function","name":"transferOwnership","inputs":[{"name":"newOwner","type":"address","internalType":"address"}],"outputs":[],"stateMutability":"nonpayable"},{"type":"function","name":"trustedForwarder","inputs":[],"outputs":[{"name":"","type":"address","internalType":"address"}],"stateMutability":"view"},{"type":"function","name":"underlying","inputs":[],"outputs":[{"name":"","type":"address","internalType":"contract IERC20"}],"stateMutability":"view"},{"type":"function","name":"upgradeToAndCall","inputs":[{"name":"newImplementation","type":"address","internalType":"address"},{"name":"data","type":"bytes","internalType":"bytes"}],"outputs":[],"stateMutability":"payable"},{"type":"function","name":"withdrawTo","inputs":[{"name":"account","type":"address","internalType":"address"},{"name":"value","type":"uint256","internalType":"uint256"}],"outputs":[{"name":"","type":"bool","internalType":"bool"}],"stateMutability":"nonpayable"},{"type":"event","name":"Approval","inputs":[{"name":"owner","type":"address","indexed":true,"internalType":"address"},{"name":"spender","type":"address","indexed":true,"internalType":"address"},{"name":"value","type":"uint256","indexed":false,"internalType":"uint256"}],"anonymous":false},{"type":"event","name":"Initialized","inputs":[{"name":"version","type":"uint64","indexed":false,"internalType":"uint64"}],"anonymous":false},{"type":"event","name":"OwnershipTransferred","inputs":[{"name":"previousOwner","type":"address","indexed":true,"internalType":"address"},{"name":"newOwner","type":"address","indexed":true,"internalType":"address"}],"anonymous":false},{"type":"event","name":"Transfer","inputs":[{"name":"from","type":"address","indexed":true,"internalType":"address"},{"name":"to","type":"address","indexed":true,"internalType":"address"},{"name":"value","type":"uint256","indexed":false,"internalType":"uint256"}],"anonymous":false},{"type":"event","name":"Upgraded","inputs":[{"name":"implementation","type":"address","indexed":true,"internalType":"address"}],"anonymous":false},{"type":"error","name":"AddressEmptyCode","inputs":[{"name":"target","type":"address","internalType":"address"}]},{"type":"error","name":"ERC1967InvalidImplementation","inputs":[{"name":"implementation","type":"address","internalType":"address"}]},{"type":"error","name":"ERC1967NonPayable","inputs":[]},{"type":"error","name":"ERC20InsufficientAllowance","inputs":[{"name":"spender","type":"address","internalType":"address"},{"name":"allowance","type":"uint256","internalType":"uint256"},{"name":"needed","type":"uint256","internalType":"uint256"}]},{"type":"error","name":"ERC20InsufficientBalance","inputs":[{"name":"sender","type":"address","internalType":"address"},{"name":"balance","type":"uint256","internalType":"uint256"},{"name":"needed","type":"uint256","internalType":"uint256"}]},{"type":"error","name":"ERC20InvalidApprover","inputs":[{"name":"approver","type":"address","internalType":"address"}]},{"type":"error","name":"ERC20InvalidReceiver","inputs":[{"name":"receiver","type":"address","internalType":"address"}]},{"type":"error","name":"ERC20InvalidSender","inputs":[{"name":"sender","type":"address","internalType":"address"}]},{"type":"error","name":"ERC20InvalidSpender","inputs":[{"name":"spender","type":"address","internalType":"address"}]},{"type":"error","name":"ERC20InvalidUnderlying","inputs":[{"name":"token","type":"address","internalType":"address"}]},{"type":"error","name":"FailedCall","inputs":[]},{"type":"error","name":"InvalidInitialization","inputs":[]},{"type":"error","name":"NotInitializing","inputs":[]},{"type":"error","name":"OwnableInvalidOwner","inputs":[{"name":"owner","type":"address","internalType":"address"}]},{"type":"error","name":"OwnableUnauthorizedAccount","inputs":[{"name":"account","type":"address","internalType":"address"}]},{"type":"error","name":"SafeERC20FailedOperation","inputs":[{"name":"token","type":"address","internalType":"address"}]},{"type":"error","name":"UUPSUnauthorizedCallContext","inputs":[]},{"type":"error","name":"UUPSUnsupportedProxiableUUID","inputs":[{"name":"slot","type":"bytes32","internalType":"bytes32"}]}],"bytecode":{"object":"0x60c06040523073ffffffffffffffffffffffffffffffffffffffff1660a09073ffffffffffffffffffffffffffffffffffffffff16815250348015610042575f5ffd5b5060405161350c38038061350c8339818101604052810190610064919061024c565b808073ffffffffffffffffffffffffffffffffffffffff1660808173ffffffffffffffffffffffffffffffffffffffff1681525050506100a86100ae60201b60201c565b506102b2565b5f6100bd6101ac60201b60201c565b9050805f0160089054906101000a900460ff1615610107576040517ff92ee8a900000000000000000000000000000000000000000000000000000000815260040160405180910390fd5b67ffffffffffffffff8016815f015f9054906101000a900467ffffffffffffffff1667ffffffffffffffff16146101a95767ffffffffffffffff815f015f6101000a81548167ffffffffffffffff021916908367ffffffffffffffff1602179055507fc7f505b2f371ae2175ee4913f4499e1f2633a7b5936321eed1cdaeb6115181d267ffffffffffffffff6040516101a09190610299565b60405180910390a15b50565b5f5f6101bc6101c560201b60201c565b90508091505090565b5f7ff0c57e16840df040f15088dc2f81fe391c3923bec73e23a9662efc9c229c6a005f1b905090565b5f5ffd5b5f73ffffffffffffffffffffffffffffffffffffffff82169050919050565b5f61021b826101f2565b9050919050565b61022b81610211565b8114610235575f5ffd5b50565b5f8151905061024681610222565b92915050565b5f60208284031215610261576102606101ee565b5b5f61026e84828501610238565b91505092915050565b5f67ffffffffffffffff82169050919050565b61029381610277565b82525050565b5f6020820190506102ac5f83018461028a565b92915050565b60805160a05161322b6102e15f395f81816113de0152818161143301526115ed01525f610a23015261322b5ff3fe60806040526004361061013f575f3560e01c80636f307dc3116100b5578063a9059cbb1161006e578063a9059cbb14610457578063ad3cb1cc14610493578063c0c53b8b146104bd578063dcd479e6146104e5578063dd62ed3e1461050d578063f2fde38b146105495761013f565b80636f307dc31461035d57806370a0823114610387578063715018a6146103c35780637da0a877146103d95780638da5cb5b1461040357806395d89b411461042d5761013f565b80632f4f21e2116101075780632f4f21e21461024b578063313ce567146102875780634f1ef286146102b157806352d1902d146102cd578063572b6c05146102f75780636ca85755146103335761013f565b806306fdde0314610143578063095ea7b31461016d57806318160ddd146101a9578063205c2878146101d357806323b872dd1461020f575b5f5ffd5b34801561014e575f5ffd5b50610157610571565b604051610164919061252e565b60405180910390f35b348015610178575f5ffd5b50610193600480360381019061018e91906125ec565b61060f565b6040516101a09190612644565b60405180910390f35b3480156101b4575f5ffd5b506101bd610631565b6040516101ca919061266c565b60405180910390f35b3480156101de575f5ffd5b506101f960048036038101906101f491906125ec565b610648565b6040516102069190612644565b60405180910390f35b34801561021a575f5ffd5b5061023560048036038101906102309190612685565b61070d565b6040516102429190612644565b60405180910390f35b348015610256575f5ffd5b50610271600480360381019061026c91906125ec565b61073b565b60405161027e9190612644565b60405180910390f35b348015610292575f5ffd5b5061029b610876565b6040516102a891906126f0565b60405180910390f35b6102cb60048036038101906102c69190612835565b6108d3565b005b3480156102d8575f5ffd5b506102e16108f2565b6040516102ee91906128a7565b60405180910390f35b348015610302575f5ffd5b5061031d600480360381019061031891906128c0565b610923565b60405161032a9190612644565b60405180910390f35b34801561033e575f5ffd5b50610347610961565b6040516103549190612946565b60405180910390f35b348015610368575f5ffd5b50610371610985565b60405161037e919061297f565b60405180910390f35b348015610392575f5ffd5b506103ad60048036038101906103a891906128c0565b6109ba565b6040516103ba919061266c565b60405180910390f35b3480156103ce575f5ffd5b506103d7610a0d565b005b3480156103e4575f5ffd5b506103ed610a20565b6040516103fa91906129a7565b60405180910390f35b34801561040e575f5ffd5b50610417610a47565b60405161042491906129a7565b60405180910390f35b348015610438575f5ffd5b50610441610a7c565b60405161044e919061252e565b60405180910390f35b348015610462575f5ffd5b5061047d600480360381019061047891906125ec565b610b1a565b60405161048a9190612644565b60405180910390f35b34801561049e575f5ffd5b506104a7610b3c565b6040516104b4919061252e565b60405180910390f35b3480156104c8575f5ffd5b506104e360048036038101906104de91906129fb565b610b75565b005b3480156104f0575f5ffd5b5061050b600480360381019061050691906128c0565b610e22565b005b348015610518575f5ffd5b50610533600480360381019061052e9190612a4b565b610eda565b604051610540919061266c565b60405180910390f35b348015610554575f5ffd5b5061056f600480360381019061056a91906128c0565b610f6a565b005b60605f61057c610fee565b905080600301805461058d90612ab6565b80601f01602080910402602001604051908101604052809291908181526020018280546105b990612ab6565b80156106045780601f106105db57610100808354040283529160200191610604565b820191905f5260205f20905b8154815290600101906020018083116105e757829003601f168201915b505050505091505090565b5f5f610619611015565b9050610626818585611023565b600191505092915050565b5f5f61063b610fee565b9050806002015491505090565b5f5f610652611035565b90503073ffffffffffffffffffffffffffffffffffffffff168473ffffffffffffffffffffffffffffffffffffffff16036106c457836040517fec442f050000000000000000000000000000000000000000000000000000000081526004016106bb91906129a7565b60405180910390fd5b6106d56106cf611015565b8461105c565b610702815f015f9054906101000a900473ffffffffffffffffffffffffffffffffffffffff1685856110db565b600191505092915050565b5f5f610717611015565b905061072485828561112e565b61072f8585856111c1565b60019150509392505050565b5f5f610745611035565b90505f610750611015565b90503073ffffffffffffffffffffffffffffffffffffffff168173ffffffffffffffffffffffffffffffffffffffff16036107c257306040517f96c6fd1e0000000000000000000000000000000000000000000000000000000081526004016107b991906129a7565b60405180910390fd5b3073ffffffffffffffffffffffffffffffffffffffff168573ffffffffffffffffffffffffffffffffffffffff160361083257846040517fec442f0500000000000000000000000000000000000000000000000000000000815260040161082991906129a7565b60405180910390fd5b610860825f015f9054906101000a900473ffffffffffffffffffffffffffffffffffffffff168230876112b1565b61086a8585611306565b60019250505092915050565b5f5f610880611035565b90505f5f6108af835f015f9054906101000a900473ffffffffffffffffffffffffffffffffffffffff16611385565b915091506108cb828260ff166108c36113bb565b60ff166113c3565b935050505090565b6108db6113dc565b6108e4826114c2565b6108ee82826114cd565b5050565b5f6108fb6115eb565b7f360894a13ba1a3210667c828492db98dca3e2076cc3735a920a3ca505d382bbc5f1b905090565b5f61092c610a20565b73ffffffffffffffffffffffffffffffffffffffff168273ffffffffffffffffffffffffffffffffffffffff16149050919050565b5f5f9054906101000a900473ffffffffffffffffffffffffffffffffffffffff1681565b5f5f61098f611035565b9050805f015f9054906101000a900473ffffffffffffffffffffffffffffffffffffffff1691505090565b5f5f6109c4610fee565b9050805f015f8473ffffffffffffffffffffffffffffffffffffffff1673ffffffffffffffffffffffffffffffffffffffff1681526020019081526020015f2054915050919050565b610a15611672565b610a1e5f6116f9565b565b5f7f0000000000000000000000000000000000000000000000000000000000000000905090565b5f5f610a516117ca565b9050805f015f9054906101000a900473ffffffffffffffffffffffffffffffffffffffff1691505090565b60605f610a87610fee565b9050806004018054610a9890612ab6565b80601f0160208091040260200160405190810160405280929190818152602001828054610ac490612ab6565b8015610b0f5780601f10610ae657610100808354040283529160200191610b0f565b820191905f5260205f20905b815481529060010190602001808311610af257829003601f168201915b505050505091505090565b5f5f610b24611015565b9050610b318185856111c1565b600191505092915050565b6040518060400160405280600581526020017f352e302e3000000000000000000000000000000000000000000000000000000081525081565b5f610b7e6117f1565b90505f815f0160089054906101000a900460ff161590505f825f015f9054906101000a900467ffffffffffffffff1690505f5f8267ffffffffffffffff16148015610bc65750825b90505f60018367ffffffffffffffff16148015610bf957505f3073ffffffffffffffffffffffffffffffffffffffff163b145b905081158015610c07575080155b15610c3e576040517ff92ee8a900000000000000000000000000000000000000000000000000000000815260040160405180910390fd5b6001855f015f6101000a81548167ffffffffffffffff021916908367ffffffffffffffff1602179055508315610c8b576001855f0160086101000a81548160ff0219169083151502179055505b610cff6040518060400160405280601381526020017f57726170706564205175616e74756d436f696e000000000000000000000000008152506040518060400160405280600681526020017f7771514254430000000000000000000000000000000000000000000000000000815250611804565b610d088761181a565b610d118861182e565b5f73ffffffffffffffffffffffffffffffffffffffff168673ffffffffffffffffffffffffffffffffffffffff1603610d7f576040517f08c379a0000000000000000000000000000000000000000000000000000000008152600401610d7690612b30565b60405180910390fd5b855f5f6101000a81548173ffffffffffffffffffffffffffffffffffffffff021916908373ffffffffffffffffffffffffffffffffffffffff1602179055508315610e18575f855f0160086101000a81548160ff0219169083151502179055507fc7f505b2f371ae2175ee4913f4499e1f2633a7b5936321eed1cdaeb6115181d26001604051610e0f9190612b9a565b60405180910390a15b5050505050505050565b610e2a611672565b5f73ffffffffffffffffffffffffffffffffffffffff168173ffffffffffffffffffffffffffffffffffffffff1603610e98576040517f08c379a0000000000000000000000000000000000000000000000000000000008152600401610e8f90612b30565b60405180910390fd5b805f5f6101000a81548173ffffffffffffffffffffffffffffffffffffffff021916908373ffffffffffffffffffffffffffffffffffffffff16021790555050565b5f5f610ee4610fee565b9050806001015f8573ffffffffffffffffffffffffffffffffffffffff1673ffffffffffffffffffffffffffffffffffffffff1681526020019081526020015f205f8473ffffffffffffffffffffffffffffffffffffffff1673ffffffffffffffffffffffffffffffffffffffff1681526020019081526020015f205491505092915050565b610f72611672565b5f73ffffffffffffffffffffffffffffffffffffffff168173ffffffffffffffffffffffffffffffffffffffff1603610fe2575f6040517f1e4fbdf7000000000000000000000000000000000000000000000000000000008152600401610fd991906129a7565b60405180910390fd5b610feb816116f9565b50565b5f7f52c63247e1f47db19d5ce0460030c497f067ca4cebf71ba98eeadabe20bace00905090565b5f61101e611842565b905090565b61103083838360016118aa565b505050565b5f7f3b5a617e0d4c238430871a64fe18212794b0c8d05a4eac064a8c9039fb5e0700905090565b5f73ffffffffffffffffffffffffffffffffffffffff168273ffffffffffffffffffffffffffffffffffffffff16036110cc575f6040517f96c6fd1e0000000000000000000000000000000000000000000000000000000081526004016110c391906129a7565b60405180910390fd5b6110d7825f83611a87565b5050565b6110e88383836001611c7e565b61112957826040517f5274afe700000000000000000000000000000000000000000000000000000000815260040161112091906129a7565b60405180910390fd5b505050565b5f6111398484610eda565b90507fffffffffffffffffffffffffffffffffffffffffffffffffffffffffffffffff8110156111bb57818110156111ac578281836040517ffb8f41b20000000000000000000000000000000000000000000000000000000081526004016111a393929190612bb3565b60405180910390fd5b6111ba84848484035f6118aa565b5b50505050565b5f73ffffffffffffffffffffffffffffffffffffffff168373ffffffffffffffffffffffffffffffffffffffff1603611231575f6040517f96c6fd1e00000000000000000000000000000000000000000000000000000000815260040161122891906129a7565b60405180910390fd5b5f73ffffffffffffffffffffffffffffffffffffffff168273ffffffffffffffffffffffffffffffffffffffff16036112a1575f6040517fec442f0500000000000000000000000000000000000000000000000000000000815260040161129891906129a7565b60405180910390fd5b6112ac838383611a87565b505050565b6112bf848484846001611ce0565b61130057836040517f5274afe70000000000000000000000000000000000000000000000000000000081526004016112f791906129a7565b60405180910390fd5b50505050565b5f73ffffffffffffffffffffffffffffffffffffffff168273ffffffffffffffffffffffffffffffffffffffff1603611376575f6040517fec442f0500000000000000000000000000000000000000000000000000000000815260040161136d91906129a7565b60405180910390fd5b6113815f8383611a87565b5050565b5f5f5f63313ce56760e01b9050805f5260205f60045f875afa92506101005f5110601f3d1184161692505f518302915050915091565b5f6012905090565b5f6113cd84611d51565b82841802821890509392505050565b7f000000000000000000000000000000000000000000000000000000000000000073ffffffffffffffffffffffffffffffffffffffff163073ffffffffffffffffffffffffffffffffffffffff16148061148957507f000000000000000000000000000000000000000000000000000000000000000073ffffffffffffffffffffffffffffffffffffffff16611470611d5c565b73ffffffffffffffffffffffffffffffffffffffff1614155b156114c0576040517fe07c8dba00000000000000000000000000000000000000000000000000000000815260040160405180910390fd5b565b6114ca611672565b50565b8173ffffffffffffffffffffffffffffffffffffffff166352d1902d6040518163ffffffff1660e01b8152600401602060405180830381865afa92505050801561153557506040513d601f19601f820116820180604052508101906115329190612c12565b60015b61157657816040517f4c9c8ce300000000000000000000000000000000000000000000000000000000815260040161156d91906129a7565b60405180910390fd5b7f360894a13ba1a3210667c828492db98dca3e2076cc3735a920a3ca505d382bbc5f1b81146115dc57806040517faa1d49a40000000000000000000000000000000000000000000000000000000081526004016115d391906128a7565b60405180910390fd5b6115e68383611daf565b505050565b7f000000000000000000000000000000000000000000000000000000000000000073ffffffffffffffffffffffffffffffffffffffff163073ffffffffffffffffffffffffffffffffffffffff1614611670576040517fe07c8dba00000000000000000000000000000000000000000000000000000000815260040160405180910390fd5b565b61167a611015565b73ffffffffffffffffffffffffffffffffffffffff16611698610a47565b73ffffffffffffffffffffffffffffffffffffffff16146116f7576116bb611015565b6040517f118cdaa70000000000000000000000000000000000000000000000000000000081526004016116ee91906129a7565b60405180910390fd5b565b5f6117026117ca565b90505f815f015f9054906101000a900473ffffffffffffffffffffffffffffffffffffffff16905082825f015f6101000a81548173ffffffffffffffffffffffffffffffffffffffff021916908373ffffffffffffffffffffffffffffffffffffffff1602179055508273ffffffffffffffffffffffffffffffffffffffff168173ffffffffffffffffffffffffffffffffffffffff167f8be0079c531659141344cd1fd0a4f28419497f9722a3daafe3b4186f6b6457e060405160405180910390a3505050565b5f7f9016d09d72d40fdae2fd8ceac6b6234c7706214fd39c1cd1e609a0528c199300905090565b5f5f6117fb611e21565b90508091505090565b61180c611e4a565b6118168282611e8a565b5050565b611822611e4a565b61182b81611ec6565b50565b611836611e4a565b61183f81611f8e565b50565b5f5f5f36905090505f611853612012565b905080821015801561186a575061186933610923565b5b1561189a575f3682840390809261188393929190612c45565b9061188e9190612cc0565b60601c925050506118a7565b6118a2612020565b925050505b90565b5f6118b3610fee565b90505f73ffffffffffffffffffffffffffffffffffffffff168573ffffffffffffffffffffffffffffffffffffffff1603611925575f6040517fe602df0500000000000000000000000000000000000000000000000000000000815260040161191c91906129a7565b60405180910390fd5b5f73ffffffffffffffffffffffffffffffffffffffff168473ffffffffffffffffffffffffffffffffffffffff1603611995575f6040517f94280d6200000000000000000000000000000000000000000000000000000000815260040161198c91906129a7565b60405180910390fd5b82816001015f8773ffffffffffffffffffffffffffffffffffffffff1673ffffffffffffffffffffffffffffffffffffffff1681526020019081526020015f205f8673ffffffffffffffffffffffffffffffffffffffff1673ffffffffffffffffffffffffffffffffffffffff1681526020019081526020015f20819055508115611a80578373ffffffffffffffffffffffffffffffffffffffff168573ffffffffffffffffffffffffffffffffffffffff167f8c5be1e5ebec7d5bd14f71427d1e84f3dd0314c0f7b2291e5b200ac8c7c3b92585604051611a77919061266c565b60405180910390a35b5050505050565b5f73ffffffffffffffffffffffffffffffffffffffff168373ffffffffffffffffffffffffffffffffffffffff161480611aec57505f73ffffffffffffffffffffffffffffffffffffffff168273ffffffffffffffffffffffffffffffffffffffff16145b15611c6e575f5f5f5f9054906101000a900473ffffffffffffffffffffffffffffffffffffffff1673ffffffffffffffffffffffffffffffffffffffff166393c91597611b37611015565b6040518263ffffffff1660e01b8152600401611b5391906129a7565b606060405180830381865afa158015611b6e573d5f5f3e3d5ffd5b505050506040513d601f19601f82011682018060405250810190611b929190612d6b565b925050915081611bd7576040517f08c379a0000000000000000000000000000000000000000000000000000000008152600401611bce90612e51565b60405180910390fd5b5f6001811115611bea57611be9612e6f565b5b816001811115611bfd57611bfc612e6f565b5b1480611c2c5750600180811115611c1757611c16612e6f565b5b816001811115611c2a57611c29612e6f565b5b145b611c6b576040517f08c379a0000000000000000000000000000000000000000000000000000000008152600401611c6290612f0c565b60405180910390fd5b50505b611c79838383612027565b505050565b5f5f63a9059cbb60e01b9050604051815f525f1960601c86166004528460245260205f60445f5f8b5af1925060015f51148316611cd2578383151615611cc6573d5f823e3d81fd5b5f873b113d1516831692505b806040525050949350505050565b5f5f6323b872dd60e01b9050604051815f525f1960601c87166004525f1960601c86166024528460445260205f60645f5f8c5af1925060015f51148316611d3e578383151615611d32573d5f823e3d81fd5b5f883b113d1516831692505b806040525f606052505095945050505050565b5f8115159050919050565b5f611d887f360894a13ba1a3210667c828492db98dca3e2076cc3735a920a3ca505d382bbc5f1b612256565b5f015f9054906101000a900473ffffffffffffffffffffffffffffffffffffffff16905090565b611db88261225f565b8173ffffffffffffffffffffffffffffffffffffffff167fbc7cd75a20ee27fd9adebab32041f755214dbc6bffa90cc0225b39da2e5c2d3b60405160405180910390a25f81511115611e1457611e0e8282612328565b50611e1d565b611e1c612419565b5b5050565b5f7ff0c57e16840df040f15088dc2f81fe391c3923bec73e23a9662efc9c229c6a005f1b905090565b611e52612455565b611e88576040517fd7e6bcf800000000000000000000000000000000000000000000000000000000815260040160405180910390fd5b565b611e92611e4a565b5f611e9b610fee565b905082816003019081611eae91906130c6565b5081816004019081611ec091906130c6565b50505050565b611ece611e4a565b5f611ed7611035565b90503073ffffffffffffffffffffffffffffffffffffffff168273ffffffffffffffffffffffffffffffffffffffff1603611f4957306040517f438d6fe3000000000000000000000000000000000000000000000000000000008152600401611f4091906129a7565b60405180910390fd5b81815f015f6101000a81548173ffffffffffffffffffffffffffffffffffffffff021916908373ffffffffffffffffffffffffffffffffffffffff1602179055505050565b611f96611e4a565b5f73ffffffffffffffffffffffffffffffffffffffff168173ffffffffffffffffffffffffffffffffffffffff1603612006575f6040517f1e4fbdf7000000000000000000000000000000000000000000000000000000008152600401611ffd91906129a7565b60405180910390fd5b61200f816116f9565b50565b5f61201b612473565b905090565b5f33905090565b5f612030610fee565b90505f73ffffffffffffffffffffffffffffffffffffffff168473ffffffffffffffffffffffffffffffffffffffff16036120845781816002015f82825461207891906131c2565b92505081905550612156565b5f815f015f8673ffffffffffffffffffffffffffffffffffffffff1673ffffffffffffffffffffffffffffffffffffffff1681526020019081526020015f205490508281101561210f578481846040517fe450d38c00000000000000000000000000000000000000000000000000000000815260040161210693929190612bb3565b60405180910390fd5b828103825f015f8773ffffffffffffffffffffffffffffffffffffffff1673ffffffffffffffffffffffffffffffffffffffff1681526020019081526020015f2081905550505b5f73ffffffffffffffffffffffffffffffffffffffff168373ffffffffffffffffffffffffffffffffffffffff160361219f5781816002015f82825403925050819055506121eb565b81815f015f8573ffffffffffffffffffffffffffffffffffffffff1673ffffffffffffffffffffffffffffffffffffffff1681526020019081526020015f205f82825401925050819055505b8273ffffffffffffffffffffffffffffffffffffffff168473ffffffffffffffffffffffffffffffffffffffff167fddf252ad1be2c89b69c2b068fc378daa952ba7f163c4a11628f55a4df523b3ef84604051612248919061266c565b60405180910390a350505050565b5f819050919050565b5f8173ffffffffffffffffffffffffffffffffffffffff163b036122ba57806040517f4c9c8ce30000000000000000000000000000000000000000000000000000000081526004016122b191906129a7565b60405180910390fd5b806122e67f360894a13ba1a3210667c828492db98dca3e2076cc3735a920a3ca505d382bbc5f1b612256565b5f015f6101000a81548173ffffffffffffffffffffffffffffffffffffffff021916908373ffffffffffffffffffffffffffffffffffffffff16021790555050565b60605f612335848461247b565b905080801561236b57505f61234861248f565b118061236a57505f8473ffffffffffffffffffffffffffffffffffffffff163b115b5b1561238057612378612496565b915050612413565b80156123c357836040517f9996b3150000000000000000000000000000000000000000000000000000000081526004016123ba91906129a7565b60405180910390fd5b5f6123cc61248f565b11156123df576123da6124b3565b612411565b6040517fd6bda27500000000000000000000000000000000000000000000000000000000815260040160405180910390fd5b505b92915050565b5f341115612453576040517fb398979f00000000000000000000000000000000000000000000000000000000815260040160405180910390fd5b565b5f61245e6117f1565b5f0160089054906101000a900460ff16905090565b5f6014905090565b5f5f5f835160208501865af4905092915050565b5f3d905090565b606060405190503d81523d5f602083013e3d602001810160405290565b6040513d5f823e3d81fd5b5f81519050919050565b5f82825260208201905092915050565b8281835e5f83830152505050565b5f601f19601f8301169050919050565b5f612500826124be565b61250a81856124c8565b935061251a8185602086016124d8565b612523816124e6565b840191505092915050565b5f6020820190508181035f83015261254681846124f6565b905092915050565b5f604051905090565b5f5ffd5b5f5ffd5b5f73ffffffffffffffffffffffffffffffffffffffff82169050919050565b5f6125888261255f565b9050919050565b6125988161257e565b81146125a2575f5ffd5b50565b5f813590506125b38161258f565b92915050565b5f819050919050565b6125cb816125b9565b81146125d5575f5ffd5b50565b5f813590506125e6816125c2565b92915050565b5f5f6040838503121561260257612601612557565b5b5f61260f858286016125a5565b9250506020612620858286016125d8565b9150509250929050565b5f8115159050919050565b61263e8161262a565b82525050565b5f6020820190506126575f830184612635565b92915050565b612666816125b9565b82525050565b5f60208201905061267f5f83018461265d565b92915050565b5f5f5f6060848603121561269c5761269b612557565b5b5f6126a9868287016125a5565b93505060206126ba868287016125a5565b92505060406126cb868287016125d8565b9150509250925092565b5f60ff82169050919050565b6126ea816126d5565b82525050565b5f6020820190506127035f8301846126e1565b92915050565b5f5ffd5b5f5ffd5b7f4e487b71000000000000000000000000000000000000000000000000000000005f52604160045260245ffd5b612747826124e6565b810181811067ffffffffffffffff8211171561276657612765612711565b5b80604052505050565b5f61277861254e565b9050612784828261273e565b919050565b5f67ffffffffffffffff8211156127a3576127a2612711565b5b6127ac826124e6565b9050602081019050919050565b828183375f83830152505050565b5f6127d96127d484612789565b61276f565b9050828152602081018484840111156127f5576127f461270d565b5b6128008482856127b9565b509392505050565b5f82601f83011261281c5761281b612709565b5b813561282c8482602086016127c7565b91505092915050565b5f5f6040838503121561284b5761284a612557565b5b5f612858858286016125a5565b925050602083013567ffffffffffffffff8111156128795761287861255b565b5b61288585828601612808565b9150509250929050565b5f819050919050565b6128a18161288f565b82525050565b5f6020820190506128ba5f830184612898565b92915050565b5f602082840312156128d5576128d4612557565b5b5f6128e2848285016125a5565b91505092915050565b5f819050919050565b5f61290e6129096129048461255f565b6128eb565b61255f565b9050919050565b5f61291f826128f4565b9050919050565b5f61293082612915565b9050919050565b61294081612926565b82525050565b5f6020820190506129595f830184612937565b92915050565b5f61296982612915565b9050919050565b6129798161295f565b82525050565b5f6020820190506129925f830184612970565b92915050565b6129a18161257e565b82525050565b5f6020820190506129ba5f830184612998565b92915050565b5f6129ca8261257e565b9050919050565b6129da816129c0565b81146129e4575f5ffd5b50565b5f813590506129f5816129d1565b92915050565b5f5f5f60608486031215612a1257612a11612557565b5b5f612a1f868287016125a5565b9350506020612a30868287016129e7565b9250506040612a41868287016125a5565b9150509250925092565b5f5f60408385031215612a6157612a60612557565b5b5f612a6e858286016125a5565b9250506020612a7f858286016125a5565b9150509250929050565b7f4e487b71000000000000000000000000000000000000000000000000000000005f52602260045260245ffd5b5f6002820490506001821680612acd57607f821691505b602082108103612ae057612adf612a89565b5b50919050565b7f496e76616c69642076616c696461746f722061646472657373000000000000005f82015250565b5f612b1a6019836124c8565b9150612b2582612ae6565b602082019050919050565b5f6020820190508181035f830152612b4781612b0e565b9050919050565b5f819050919050565b5f67ffffffffffffffff82169050919050565b5f612b84612b7f612b7a84612b4e565b6128eb565b612b57565b9050919050565b612b9481612b6a565b82525050565b5f602082019050612bad5f830184612b8b565b92915050565b5f606082019050612bc65f830186612998565b612bd3602083018561265d565b612be0604083018461265d565b949350505050565b612bf18161288f565b8114612bfb575f5ffd5b50565b5f81519050612c0c81612be8565b92915050565b5f60208284031215612c2757612c26612557565b5b5f612c3484828501612bfe565b91505092915050565b5f5ffd5b5f5ffd5b5f5f85851115612c5857612c57612c3d565b5b83861115612c6957612c68612c41565b5b6001850283019150848603905094509492505050565b5f82905092915050565b5f7fffffffffffffffffffffffffffffffffffffffff00000000000000000000000082169050919050565b5f82821b905092915050565b5f612ccb8383612c7f565b82612cd68135612c89565b92506014821015612d1657612d117fffffffffffffffffffffffffffffffffffffffff00000000000000000000000083601403600802612cb4565b831692505b505092915050565b612d278161262a565b8114612d31575f5ffd5b50565b5f81519050612d4281612d1e565b92915050565b60028110612d54575f5ffd5b50565b5f81519050612d6581612d48565b92915050565b5f5f5f60608486031215612d8257612d81612557565b5b5f612d8f86828701612d34565b9350506020612da086828701612bfe565b9250506040612db186828701612d57565b9150509250925092565b7f537472696374205175616e74756d20456e666f7263656d656e743a20427269645f8201527f67652056616c696461746f72206c61636b7320616374697665207175616e747560208201527f6d2073657373696f6e0000000000000000000000000000000000000000000000604082015250565b5f612e3b6049836124c8565b9150612e4682612dbb565b606082019050919050565b5f6020820190508181035f830152612e6881612e2f565b9050919050565b7f4e487b71000000000000000000000000000000000000000000000000000000005f52602160045260245ffd5b7f537472696374205175616e74756d20456e666f7263656d656e743a20496e76615f8201527f6c6964204272696467652073657373696f6e2074797065000000000000000000602082015250565b5f612ef66037836124c8565b9150612f0182612e9c565b604082019050919050565b5f6020820190508181035f830152612f2381612eea565b9050919050565b5f819050815f5260205f209050919050565b5f6020601f8301049050919050565b5f60088302612f7a7fffffffffffffffffffffffffffffffffffffffffffffffffffffffffffffffff82612cb4565b612f848683612cb4565b95508019841693508086168417925050509392505050565b5f612fb6612fb1612fac846125b9565b6128eb565b6125b9565b9050919050565b5f819050919050565b612fcf83612f9c565b612fe3612fdb82612fbd565b848454612f4b565b825550505050565b5f5f905090565b612ffa612feb565b613005818484612fc6565b505050565b5f5b8281101561302b576130205f828401612ff2565b60018101905061300c565b505050565b601f82111561307e578282111561307d5761304a81612f2a565b61305383612f3c565b61305c85612f3c565b6020861015613069575f90505b8083016130788284038261300a565b505050505b5b505050565b5f82821c905092915050565b5f61309e5f1984600802613083565b1980831691505092915050565b5f6130b6838361308f565b9150826002028217905092915050565b6130cf826124be565b67ffffffffffffffff8111156130e8576130e7612711565b5b6130f28254612ab6565b6130fd828285613030565b5f60209050601f83116001811461312e575f841561311c578287015190505b61312685826130ab565b86555061318d565b601f19841661313c86612f2a565b5f5b828110156131635784890151825560018201915060208501945060208101905061313e565b86831015613180578489015161317c601f89168261308f565b8355505b6001600288020188555050505b505050505050565b7f4e487b71000000000000000000000000000000000000000000000000000000005f52601160045260245ffd5b5f6131cc826125b9565b91506131d7836125b9565b92508282019050808211156131ef576131ee613195565b5b9291505056fea2646970667358221220bc89987646d28ac30598ab125a9c7da349a3240f413db3815907272b10b2045e64736f6c63430008230033","linkReferences":{}},"methodIdentifiers":{"UPGRADE_INTERFACE_VERSION()":"ad3cb1cc","allowance(address,address)":"dd62ed3e","approve(address,uint256)":"095ea7b3","balanceOf(address)":"70a08231","decimals()":"313ce567","depositFor(address,uint256)":"2f4f21e2","initialize(address,address,address)":"c0c53b8b","isTrustedForwarder(address)":"572b6c05","name()":"06fdde03","owner()":"8da5cb5b","proxiableUUID()":"52d1902d","quantumValidator()":"6ca85755","renounceOwnership()":"715018a6","setQuantumValidator(address)":"dcd479e6","symbol()":"95d89b41","totalSupply()":"18160ddd","transfer(address,uint256)":"a9059cbb","transferFrom(address,address,uint256)":"23b872dd","transferOwnership(address)":"f2fde38b","trustedForwarder()":"7da0a877","underlying()":"6f307dc3","upgradeToAndCall(address,bytes)":"4f1ef286","withdrawTo(address,uint256)":"205c2878"},"id":2}