{
  "_format": "hh-sol-artifact-1",
  "contractName": "WrappedQuantumCoin",
  "sourceName": "contracts/WrappedQuantumCoin.sol",
  "abi": [
    {
      "inputs": [
        {
          "internalType": "address",
          "name": "trustedForwarder_",
          "type": "address"
        }
      ],
      "stateMutability": "nonpayable",
      "type": "constructor"
    },
    {
      "inputs": [
        {
          "internalType": "address",
          "name": "target",
          "type": "address"
        }
      ],
      "name": "AddressEmptyCode",
      "type": "error"
    },
    {
      "inputs": [
        {
          "internalType": "address",
          "name": "implementation",
          "type": "address"
        }
      ],
      "name": "ERC1967InvalidImplementation",
      "type": "error"
    },
    {
      "inputs": [],
      "name": "ERC1967NonPayable",
      "type": "error"
    },
    {
      "inputs": [
        {
          "internalType": "address",
          "name": "spender",
          "type": "address"
        },
        {
          "internalType": "uint256",
          "name": "allowance",
          "type": "uint256"
        },
        {
          "internalType": "uint256",
          "name": "needed",
          "type": "uint256"
        }
      ],
      "name": "ERC20InsufficientAllowance",
      "type": "error"
    },
    {
      "inputs": [
        {
          "internalType": "address",
          "name": "sender",
          "type": "address"
        },
        {
          "internalType": "uint256",
          "name": "balance",
          "type": "uint256"
        },
        {
          "internalType": "uint256",
          "name": "needed",
          "type": "uint256"
        }
      ],
      "name": "ERC20InsufficientBalance",
      "type": "error"
    },
    {
      "inputs": [
        {
          "internalType": "address",
          "name": "approver",
          "type": "address"
        }
      ],
      "name": "ERC20InvalidApprover",
      "type": "error"
    },
    {
      "inputs": [
        {
          "internalType": "address",
          "name": "receiver",
          "type": "address"
        }
      ],
      "name": "ERC20InvalidReceiver",
      "type": "error"
    },
    {
      "inputs": [
        {
          "internalType": "address",
          "name": "sender",
          "type": "address"
        }
      ],
      "name": "ERC20InvalidSender",
      "type": "error"
    },
    {
      "inputs": [
        {
          "internalType": "address",
          "name": "spender",
          "type": "address"
        }
      ],
      "name": "ERC20InvalidSpender",
      "type": "error"
    },
    {
      "inputs": [
        {
          "internalType": "address",
          "name": "token",
          "type": "address"
        }
      ],
      "name": "ERC20InvalidUnderlying",
      "type": "error"
    },
    {
      "inputs": [],
      "name": "FailedCall",
      "type": "error"
    },
    {
      "inputs": [],
      "name": "InvalidInitialization",
      "type": "error"
    },
    {
      "inputs": [],
      "name": "NotInitializing",
      "type": "error"
    },
    {
      "inputs": [
        {
          "internalType": "address",
          "name": "owner",
          "type": "address"
        }
      ],
      "name": "OwnableInvalidOwner",
      "type": "error"
    },
    {
      "inputs": [
        {
          "internalType": "address",
          "name": "account",
          "type": "address"
        }
      ],
      "name": "OwnableUnauthorizedAccount",
      "type": "error"
    },
    {
      "inputs": [
        {
          "internalType": "address",
          "name": "token",
          "type": "address"
        }
      ],
      "name": "SafeERC20FailedOperation",
      "type": "error"
    },
    {
      "inputs": [],
      "name": "UUPSUnauthorizedCallContext",
      "type": "error"
    },
    {
      "inputs": [
        {
          "internalType": "bytes32",
          "name": "slot",
          "type": "bytes32"
        }
      ],
      "name": "UUPSUnsupportedProxiableUUID",
      "type": "error"
    },
    {
      "anonymous": false,
      "inputs": [
        {
          "indexed": true,
          "internalType": "address",
          "name": "owner",
          "type": "address"
        },
        {
          "indexed": true,
          "internalType": "address",
          "name": "spender",
          "type": "address"
        },
        {
          "indexed": false,
          "internalType": "uint256",
          "name": "value",
          "type": "uint256"
        }
      ],
      "name": "Approval",
      "type": "event"
    },
    {
      "anonymous": false,
      "inputs": [
        {
          "indexed": false,
          "internalType": "uint64",
          "name": "version",
          "type": "uint64"
        }
      ],
      "name": "Initialized",
      "type": "event"
    },
    {
      "anonymous": false,
      "inputs": [
        {
          "indexed": true,
          "internalType": "address",
          "name": "previousOwner",
          "type": "address"
        },
        {
          "indexed": true,
          "internalType": "address",
          "name": "newOwner",
          "type": "address"
        }
      ],
      "name": "OwnershipTransferred",
      "type": "event"
    },
    {
      "anonymous": false,
      "inputs": [
        {
          "indexed": true,
          "internalType": "address",
          "name": "from",
          "type": "address"
        },
        {
          "indexed": true,
          "internalType": "address",
          "name": "to",
          "type": "address"
        },
        {
          "indexed": false,
          "internalType": "uint256",
          "name": "value",
          "type": "uint256"
        }
      ],
      "name": "Transfer",
      "type": "event"
    },
    {
      "anonymous": false,
      "inputs": [
        {
          "indexed": true,
          "internalType": "address",
          "name": "implementation",
          "type": "address"
        }
      ],
      "name": "Upgraded",
      "type": "event"
    },
    {
      "inputs": [],
      "name": "UPGRADE_INTERFACE_VERSION",
      "outputs": [
        {
          "internalType": "string",
          "name": "",
          "type": "string"
        }
      ],
      "stateMutability": "view",
      "type": "function"
    },
    {
      "inputs": [
        {
          "internalType": "address",
          "name": "owner",
          "type": "address"
        },
        {
          "internalType": "address",
          "name": "spender",
          "type": "address"
        }
      ],
      "name": "allowance",
      "outputs": [
        {
          "internalType": "uint256",
          "name": "",
          "type": "uint256"
        }
      ],
      "stateMutability": "view",
      "type": "function"
    },
    {
      "inputs": [
        {
          "internalType": "address",
          "name": "spender",
          "type": "address"
        },
        {
          "internalType": "uint256",
          "name": "value",
          "type": "uint256"
        }
      ],
      "name": "approve",
      "outputs": [
        {
          "internalType": "bool",
          "name": "",
          "type": "bool"
        }
      ],
      "stateMutability": "nonpayable",
      "type": "function"
    },
    {
      "inputs": [
        {
          "internalType": "address",
          "name": "account",
          "type": "address"
        }
      ],
      "name": "balanceOf",
      "outputs": [
        {
          "internalType": "uint256",
          "name": "",
          "type": "uint256"
        }
      ],
      "stateMutability": "view",
      "type": "function"
    },
    {
      "inputs": [],
      "name": "decimals",
      "outputs": [
        {
          "internalType": "uint8",
          "name": "",
          "type": "uint8"
        }
      ],
      "stateMutability": "view",
      "type": "function"
    },
    {
      "inputs": [
        {
          "internalType": "address",
          "name": "account",
          "type": "address"
        },
        {
          "internalType": "uint256",
          "name": "value",
          "type": "uint256"
        }
      ],
      "name": "depositFor",
      "outputs": [
        {
          "internalType": "bool",
          "name": "",
          "type": "bool"
        }
      ],
      "stateMutability": "nonpayable",
      "type": "function"
    },
    {
      "inputs": [
        {
          "internalType": "address",
          "name": "initialOwner",
          "type": "address"
        },
        {
          "internalType": "contract IERC20",
          "name": "underlyingToken",
          "type": "address"
        },
        {
          "internalType": "address",
          "name": "_quantumValidator",
          "type": "address"
        }
      ],
      "name": "initialize",
      "outputs": [],
      "stateMutability": "nonpayable",
      "type": "function"
    },
    {
      "inputs": [
        {
          "internalType": "address",
          "name": "forwarder",
          "type": "address"
        }
      ],
      "name": "isTrustedForwarder",
      "outputs": [
        {
          "internalType": "bool",
          "name": "",
          "type": "bool"
        }
      ],
      "stateMutability": "view",
      "type": "function"
    },
    {
      "inputs": [],
      "name": "name",
      "outputs": [
        {
          "internalType": "string",
          "name": "",
          "type": "string"
        }
      ],
      "stateMutability": "view",
      "type": "function"
    },
    {
      "inputs": [],
      "name": "owner",
      "outputs": [
        {
          "internalType": "address",
          "name": "",
          "type": "address"
        }
      ],
      "stateMutability": "view",
      "type": "function"
    },
    {
      "inputs": [],
      "name": "proxiableUUID",
      "outputs": [
        {
          "internalType": "bytes32",
          "name": "",
          "type": "bytes32"
        }
      ],
      "stateMutability": "view",
      "type": "function"
    },
    {
      "inputs": [],
      "name": "quantumValidator",
      "outputs": [
        {
          "internalType": "contract IQuantumValidator",
          "name": "",
          "type": "address"
        }
      ],
      "stateMutability": "view",
      "type": "function"
    },
    {
      "inputs": [],
      "name": "renounceOwnership",
      "outputs": [],
      "stateMutability": "nonpayable",
      "type": "function"
    },
    {
      "inputs": [
        {
          "internalType": "address",
          "name": "_quantumValidator",
          "type": "address"
        }
      ],
      "name": "setQuantumValidator",
      "outputs": [],
      "stateMutability": "nonpayable",
      "type": "function"
    },
    {
      "inputs": [],
      "name": "symbol",
      "outputs": [
        {
          "internalType": "string",
          "name": "",
          "type": "string"
        }
      ],
      "stateMutability": "view",
      "type": "function"
    },
    {
      "inputs": [],
      "name": "totalSupply",
      "outputs": [
        {
          "internalType": "uint256",
          "name": "",
          "type": "uint256"
        }
      ],
      "stateMutability": "view",
      "type": "function"
    },
    {
      "inputs": [
        {
          "internalType": "address",
          "name": "to",
          "type": "address"
        },
        {
          "internalType": "uint256",
          "name": "value",
          "type": "uint256"
        }
      ],
      "name": "transfer",
      "outputs": [
        {
          "internalType": "bool",
          "name": "",
          "type": "bool"
        }
      ],
      "stateMutability": "nonpayable",
      "type": "function"
    },
    {
      "inputs": [
        {
          "internalType": "address",
          "name": "from",
          "type": "address"
        },
        {
          "internalType": "address",
          "name": "to",
          "type": "address"
        },
        {
          "internalType": "uint256",
          "name": "value",
          "type": "uint256"
        }
      ],
      "name": "transferFrom",
      "outputs": [
        {
          "internalType": "bool",
          "name": "",
          "type": "bool"
        }
      ],
      "stateMutability": "nonpayable",
      "type": "function"
    },
    {
      "inputs": [
        {
          "internalType": "address",
          "name": "newOwner",
          "type": "address"
        }
      ],
      "name": "transferOwnership",
      "outputs": [],
      "stateMutability": "nonpayable",
      "type": "function"
    },
    {
      "inputs": [],
      "name": "trustedForwarder",
      "outputs": [
        {
          "internalType": "address",
          "name": "",
          "type": "address"
        }
      ],
      "stateMutability": "view",
      "type": "function"
    },
    {
      "inputs": [],
      "name": "underlying",
      "outputs": [
        {
          "internalType": "contract IERC20",
          "name": "",
          "type": "address"
        }
      ],
      "stateMutability": "view",
      "type": "function"
    },
    {
      "inputs": [
        {
          "internalType": "address",
          "name": "newImplementation",
          "type": "address"
        },
        {
          "internalType": "bytes",
          "name": "data",
          "type": "bytes"
        }
      ],
      "name": "upgradeToAndCall",
      "outputs": [],
      "stateMutability": "payable",
      "type": "function"
    },
    {
      "inputs": [
        {
          "internalType": "address",
          "name": "account",
          "type": "address"
        },
        {
          "internalType": "uint256",
          "name": "value",
          "type": "uint256"
        }
      ],
      "name": "withdrawTo",
      "outputs": [
        {
          "internalType": "bool",
          "name": "",
          "type": "bool"
        }
      ],
      "stateMutability": "nonpayable",
      "type": "function"
    }
  ],
  "bytecode": "0x60c06040523060a05234801562000014575f80fd5b5060405162001d8838038062001d88833981016040819052620000379162000109565b6001600160a01b0381166080526200004e62000055565b5062000138565b7ff0c57e16840df040f15088dc2f81fe391c3923bec73e23a9662efc9c229c6a00805468010000000000000000900460ff1615620000a65760405163f92ee8a960e01b815260040160405180910390fd5b80546001600160401b0390811614620001065780546001600160401b0319166001600160401b0390811782556040519081527fc7f505b2f371ae2175ee4913f4499e1f2633a7b5936321eed1cdaeb6115181d29060200160405180910390a15b50565b5f602082840312156200011a575f80fd5b81516001600160a01b038116811462000131575f80fd5b9392505050565b60805160a051611c12620001765f395f8181610c9601528181610cbf0152610dfe01525f818161029e0152818161037a0152610f6d0152611c125ff3fe60806040526004361061013c575f3560e01c80636f307dc3116100b3578063a9059cbb1161006d578063a9059cbb146103c6578063ad3cb1cc146103e5578063c0c53b8b14610415578063dcd479e614610434578063dd62ed3e14610453578063f2fde38b14610472575f80fd5b80636f307dc31461030457806370a0823114610318578063715018a6146103585780637da0a8771461036c5780638da5cb5b1461039e57806395d89b41146103b2575f80fd5b80632f4f21e2116101045780632f4f21e214610214578063313ce567146102335780634f1ef2861461025957806352d1902d1461026e578063572b6c05146102825780636ca85755146102ce575f80fd5b806306fdde0314610140578063095ea7b31461016a57806318160ddd14610199578063205c2878146101d657806323b872dd146101f5575b5f80fd5b34801561014b575f80fd5b50610154610491565b6040516101619190611703565b60405180910390f35b348015610175575f80fd5b50610189610184366004611763565b610551565b6040519015158152602001610161565b3480156101a4575f80fd5b507f52c63247e1f47db19d5ce0460030c497f067ca4cebf71ba98eeadabe20bace02545b604051908152602001610161565b3480156101e1575f80fd5b506101896101f0366004611763565b610574565b348015610200575f80fd5b5061018961020f36600461178d565b6105e3565b34801561021f575f80fd5b5061018961022e366004611763565b610610565b34801561023e575f80fd5b506102476106aa565b60405160ff9091168152602001610161565b61026c6102673660046117df565b610729565b005b348015610279575f80fd5b506101c8610748565b34801561028d575f80fd5b5061018961029c36600461189d565b7f00000000000000000000000000000000000000000000000000000000000000006001600160a01b0390811691161490565b3480156102d9575f80fd5b505f546102ec906001600160a01b031681565b6040516001600160a01b039091168152602001610161565b34801561030f575f80fd5b506102ec610763565b348015610323575f80fd5b506101c861033236600461189d565b6001600160a01b03165f9081525f80516020611b7d833981519152602052604090205490565b348015610363575f80fd5b5061026c610784565b348015610377575f80fd5b507f00000000000000000000000000000000000000000000000000000000000000006102ec565b3480156103a9575f80fd5b506102ec610797565b3480156103bd575f80fd5b506101546107bf565b3480156103d1575f80fd5b506101896103e0366004611763565b6107fd565b3480156103f0575f80fd5b50610154604051806040016040528060058152602001640352e302e360dc1b81525081565b348015610420575f80fd5b5061026c61042f3660046118bf565b610814565b34801561043f575f80fd5b5061026c61044e36600461189d565b6109d6565b34801561045e575f80fd5b506101c861046d366004611907565b610a51565b34801561047d575f80fd5b5061026c61048c36600461189d565b610a9a565b7f52c63247e1f47db19d5ce0460030c497f067ca4cebf71ba98eeadabe20bace0380546060915f80516020611b7d833981519152916104cf9061193e565b80601f01602080910402602001604051908101604052809291908181526020018280546104fb9061193e565b80156105465780601f1061051d57610100808354040283529160200191610546565b820191905f5260205f20905b81548152906001019060200180831161052957829003601f168201915b505050505091505090565b5f8061055b610ad7565b9050610568818585610ae5565b60019150505b92915050565b5f5f80516020611b9d833981519152306001600160a01b038516036105bc5760405163ec442f0560e01b81526001600160a01b03851660048201526024015b60405180910390fd5b6105cd6105c7610ad7565b84610af7565b8054610568906001600160a01b03168585610b2b565b5f806105ed610ad7565b90506105fa858285610b60565b610605858585610bc4565b506001949350505050565b5f5f80516020611b9d83398151915281610628610ad7565b9050306001600160a01b0382160361065557604051634b637e8f60e11b81523060048201526024016105b3565b306001600160a01b038616036106895760405163ec442f0560e01b81526001600160a01b03861660048201526024016105b3565b81546106a0906001600160a01b0316823087610c21565b6106058585610c57565b5f80516020611b9d83398151915280546040805163313ce56760e01b815290515f93926001600160a01b03169163313ce5679160048083019260209291908290030181865afa92505050801561071d575060408051601f3d908101601f1916820190925261071a91810190611976565b60015b61056e57601291505090565b610731610c8b565b61073a82610d2f565b6107448282610d37565b5050565b5f610751610df3565b505f80516020611bbd83398151915290565b5f805f80516020611b9d8339815191525b546001600160a01b031692915050565b61078c610e3c565b6107955f610e90565b565b5f807f9016d09d72d40fdae2fd8ceac6b6234c7706214fd39c1cd1e609a0528c199300610774565b7f52c63247e1f47db19d5ce0460030c497f067ca4cebf71ba98eeadabe20bace0480546060915f80516020611b7d833981519152916104cf9061193e565b5f80610807610ad7565b9050610568818585610bc4565b5f61081d610f00565b805490915060ff600160401b820416159067ffffffffffffffff165f811580156108445750825b90505f8267ffffffffffffffff1660011480156108605750303b155b90508115801561086e575080155b1561088c5760405163f92ee8a960e01b815260040160405180910390fd5b845467ffffffffffffffff1916600117855583156108b657845460ff60401b1916600160401b1785555b610908604051806040016040528060138152602001722bb930b83832b21028bab0b73a3ab6a1b7b4b760691b81525060405180604001604052806005815260200164777151424360d81b815250610f28565b61091187610f3a565b61091a88610f4b565b6001600160a01b03861661096c5760405162461bcd60e51b8152602060048201526019602482015278496e76616c69642076616c696461746f72206164647265737360381b60448201526064016105b3565b5f80546001600160a01b0319166001600160a01b03881617905583156109cc57845460ff60401b19168555604051600181527fc7f505b2f371ae2175ee4913f4499e1f2633a7b5936321eed1cdaeb6115181d29060200160405180910390a15b5050505050505050565b6109de610e3c565b6001600160a01b038116610a305760405162461bcd60e51b8152602060048201526019602482015278496e76616c69642076616c696461746f72206164647265737360381b60448201526064016105b3565b5f80546001600160a01b0319166001600160a01b0392909216919091179055565b6001600160a01b039182165f9081527f52c63247e1f47db19d5ce0460030c497f067ca4cebf71ba98eeadabe20bace016020908152604080832093909416825291909152205490565b610aa2610e3c565b6001600160a01b038116610acb57604051631e4fbdf760e01b81525f60048201526024016105b3565b610ad481610e90565b50565b5f610ae0610f5c565b905090565b610af28383836001610fc6565b505050565b6001600160a01b038216610b2057604051634b637e8f60e11b81525f60048201526024016105b3565b610744825f836110aa565b610b388383836001611256565b610af257604051635274afe760e01b81526001600160a01b03841660048201526024016105b3565b5f610b6b8484610a51565b90505f19811015610bbe5781811015610bb057604051637dc7a0d960e11b81526001600160a01b038416600482015260248101829052604481018390526064016105b3565b610bbe84848484035f610fc6565b50505050565b6001600160a01b038316610bed57604051634b637e8f60e11b81525f60048201526024016105b3565b6001600160a01b038216610c165760405163ec442f0560e01b81525f60048201526024016105b3565b610af28383836110aa565b610c2f8484848460016112b8565b610bbe57604051635274afe760e01b81526001600160a01b03851660048201526024016105b3565b6001600160a01b038216610c805760405163ec442f0560e01b81525f60048201526024016105b3565b6107445f83836110aa565b306001600160a01b037f0000000000000000000000000000000000000000000000000000000000000000161480610d1157507f00000000000000000000000000000000000000000000000000000000000000006001600160a01b0316610d055f80516020611bbd833981519152546001600160a01b031690565b6001600160a01b031614155b156107955760405163703e46dd60e11b815260040160405180910390fd5b610ad4610e3c565b816001600160a01b03166352d1902d6040518163ffffffff1660e01b8152600401602060405180830381865afa925050508015610d91575060408051601f3d908101601f19168201909252610d8e91810190611996565b60015b610db957604051634c9c8ce360e01b81526001600160a01b03831660048201526024016105b3565b5f80516020611bbd8339815191528114610de957604051632a87526960e21b8152600481018290526024016105b3565b610af28383611325565b306001600160a01b037f000000000000000000000000000000000000000000000000000000000000000016146107955760405163703e46dd60e11b815260040160405180910390fd5b610e44610ad7565b6001600160a01b0316610e55610797565b6001600160a01b03161461079557610e6b610ad7565b60405163118cdaa760e01b81526001600160a01b0390911660048201526024016105b3565b7f9016d09d72d40fdae2fd8ceac6b6234c7706214fd39c1cd1e609a0528c19930080546001600160a01b031981166001600160a01b03848116918217845560405192169182907f8be0079c531659141344cd1fd0a4f28419497f9722a3daafe3b4186f6b6457e0905f90a3505050565b5f807ff0c57e16840df040f15088dc2f81fe391c3923bec73e23a9662efc9c229c6a0061056e565b610f3061137a565b610744828261139f565b610f4261137a565b610ad4816113ef565b610f5361137a565b610ad481611450565b5f366014808210801590610f9857507f00000000000000000000000000000000000000000000000000000000000000006001600160a01b031633145b15610fbe57610fab36828403815f6119ad565b610fb4916119d4565b60601c9250505090565b339250505090565b5f80516020611b7d8339815191526001600160a01b038516610ffd5760405163e602df0560e01b81525f60048201526024016105b3565b6001600160a01b03841661102657604051634a1406b160e11b81525f60048201526024016105b3565b6001600160a01b038086165f908152600183016020908152604080832093881683529290522083905581156110a357836001600160a01b0316856001600160a01b03167f8c5be1e5ebec7d5bd14f71427d1e84f3dd0314c0f7b2291e5b200ac8c7c3b9258560405161109a91815260200190565b60405180910390a35b5050505050565b6001600160a01b038316158015906110ca57506001600160a01b03821615155b1561124b575f80546040516393c9159760e01b815233600482015282916001600160a01b0316906393c9159790602401606060405180830381865afa158015611115573d5f803e3d5ffd5b505050506040513d601f19601f820116820180604052508101906111399190611a09565b9250509150816111b3576040805162461bcd60e51b81526020600482015260248101919091527f537472696374205175616e74756d20456e666f7263656d656e743a2052656c6160448201527f796572206c61636b7320616374697665207175616e74756d2073657373696f6e60648201526084016105b3565b5f8160018111156111c6576111c6611a45565b14806111e3575060018160018111156111e1576111e1611a45565b145b6112485760405162461bcd60e51b815260206004820152603060248201527f537472696374205175616e74756d20456e666f7263656d656e743a20496e766160448201526f6c69642073657373696f6e207479706560801b60648201526084016105b3565b50505b610af2838383611458565b60405163a9059cbb60e01b5f8181526001600160a01b038616600452602485905291602083604481808b5af1925060015f511483166112ac5783831516156112a0573d5f823e3d81fd5b5f873b113d1516831692505b60405250949350505050565b6040516323b872dd60e01b5f8181526001600160a01b038781166004528616602452604485905291602083606481808c5af1925060015f51148316611314578383151615611308573d5f823e3d81fd5b5f883b113d1516831692505b604052505f60605295945050505050565b61132e82611591565b6040516001600160a01b038316907fbc7cd75a20ee27fd9adebab32041f755214dbc6bffa90cc0225b39da2e5c2d3b905f90a280511561137257610af282826115f4565b610744611694565b6113826116b3565b61079557604051631afcd79f60e31b815260040160405180910390fd5b6113a761137a565b5f80516020611b7d8339815191527f52c63247e1f47db19d5ce0460030c497f067ca4cebf71ba98eeadabe20bace036113e08482611a9d565b5060048101610bbe8382611a9d565b6113f761137a565b5f80516020611b9d833981519152306001600160a01b038316036114305760405163438d6fe360e01b81523060048201526024016105b3565b80546001600160a01b0319166001600160a01b0392909216919091179055565b610aa261137a565b5f80516020611b7d8339815191526001600160a01b0384166114925781816002015f8282546114879190611b5d565b909155506115029050565b6001600160a01b0384165f90815260208290526040902054828110156114e45760405163391434e360e21b81526001600160a01b038616600482015260248101829052604481018490526064016105b3565b6001600160a01b0385165f9081526020839052604090209083900390555b6001600160a01b03831661152057600281018054839003905561153e565b6001600160a01b0383165f9081526020829052604090208054830190555b826001600160a01b0316846001600160a01b03167fddf252ad1be2c89b69c2b068fc378daa952ba7f163c4a11628f55a4df523b3ef8460405161158391815260200190565b60405180910390a350505050565b806001600160a01b03163b5f036115c657604051634c9c8ce360e01b81526001600160a01b03821660048201526024016105b3565b5f80516020611bbd83398151915280546001600160a01b0319166001600160a01b0392909216919091179055565b60605f61160184846116cc565b905080801561162257505f3d118061162257505f846001600160a01b03163b115b156116375761162f6116df565b91505061056e565b801561166157604051639996b31560e01b81526001600160a01b03851660048201526024016105b3565b3d156116745761166f6116f8565b61168d565b60405163d6bda27560e01b815260040160405180910390fd5b5092915050565b34156107955760405163b398979f60e01b815260040160405180910390fd5b5f6116bc610f00565b54600160401b900460ff16919050565b5f805f835160208501865af49392505050565b6040513d81523d5f602083013e3d602001810160405290565b6040513d5f823e3d81fd5b5f602080835283518060208501525f5b8181101561172f57858101830151858201604001528201611713565b505f604082860101526040601f19601f8301168501019250505092915050565b6001600160a01b0381168114610ad4575f80fd5b5f8060408385031215611774575f80fd5b823561177f8161174f565b946020939093013593505050565b5f805f6060848603121561179f575f80fd5b83356117aa8161174f565b925060208401356117ba8161174f565b929592945050506040919091013590565b634e487b7160e01b5f52604160045260245ffd5b5f80604083850312156117f0575f80fd5b82356117fb8161174f565b9150602083013567ffffffffffffffff80821115611817575f80fd5b818501915085601f83011261182a575f80fd5b81358181111561183c5761183c6117cb565b604051601f8201601f19908116603f01168101908382118183101715611864576118646117cb565b8160405282815288602084870101111561187c575f80fd5b826020860160208301375f6020848301015280955050505050509250929050565b5f602082840312156118ad575f80fd5b81356118b88161174f565b9392505050565b5f805f606084860312156118d1575f80fd5b83356118dc8161174f565b925060208401356118ec8161174f565b915060408401356118fc8161174f565b809150509250925092565b5f8060408385031215611918575f80fd5b82356119238161174f565b915060208301356119338161174f565b809150509250929050565b600181811c9082168061195257607f821691505b60208210810361197057634e487b7160e01b5f52602260045260245ffd5b50919050565b5f60208284031215611986575f80fd5b815160ff811681146118b8575f80fd5b5f602082840312156119a6575f80fd5b5051919050565b5f80858511156119bb575f80fd5b838611156119c7575f80fd5b5050820193919092039150565b6bffffffffffffffffffffffff198135818116916014851015611a015780818660140360031b1b83161692505b505092915050565b5f805f60608486031215611a1b575f80fd5b83518015158114611a2a575f80fd5b602085015160408601519194509250600281106118fc575f80fd5b634e487b7160e01b5f52602160045260245ffd5b601f821115610af257805f5260205f20601f840160051c81016020851015611a7e5750805b601f840160051c820191505b818110156110a3575f8155600101611a8a565b815167ffffffffffffffff811115611ab757611ab76117cb565b611acb81611ac5845461193e565b84611a59565b602080601f831160018114611afe575f8415611ae75750858301515b5f19600386901b1c1916600185901b178555611b55565b5f85815260208120601f198616915b82811015611b2c57888601518255948401946001909101908401611b0d565b5085821015611b4957878501515f19600388901b60f8161c191681555b505060018460011b0185555b505050505050565b8082018082111561056e57634e487b7160e01b5f52601160045260245ffdfe52c63247e1f47db19d5ce0460030c497f067ca4cebf71ba98eeadabe20bace003b5a617e0d4c238430871a64fe18212794b0c8d05a4eac064a8c9039fb5e0700360894a13ba1a3210667c828492db98dca3e2076cc3735a920a3ca505d382bbca2646970667358221220c1d50a039ef43d20af4734d625b0300c12ca85060541da8a32f428cb1ba4bf0564736f6c63430008180033",
  "linkReferences": {},
  "deployedLinkReferences": {}
}