{
  "_format": "hh-sol-artifact-1",
  "contractName": "QuantumValidator",
  "sourceName": "contracts/QuantumValidator.sol",
  "abi": [
    {
      "inputs": [],
      "stateMutability": "nonpayable",
      "type": "constructor"
    },
    {
      "inputs": [
        {
          "internalType": "address",
          "name": "owner",
          "type": "address"
        }
      ],
      "name": "OwnableInvalidOwner",
      "type": "error"
    },
    {
      "inputs": [
        {
          "internalType": "address",
          "name": "account",
          "type": "address"
        }
      ],
      "name": "OwnableUnauthorizedAccount",
      "type": "error"
    },
    {
      "anonymous": false,
      "inputs": [
        {
          "indexed": true,
          "internalType": "bytes32",
          "name": "sessionKeyHash",
          "type": "bytes32"
        },
        {
          "indexed": false,
          "internalType": "uint256",
          "name": "S",
          "type": "uint256"
        },
        {
          "indexed": false,
          "internalType": "uint256",
          "name": "qber",
          "type": "uint256"
        },
        {
          "indexed": false,
          "internalType": "bool",
          "name": "valid",
          "type": "bool"
        }
      ],
      "name": "CHSHVerified",
      "type": "event"
    },
    {
      "anonymous": false,
      "inputs": [
        {
          "indexed": true,
          "internalType": "address",
          "name": "previousOwner",
          "type": "address"
        },
        {
          "indexed": true,
          "internalType": "address",
          "name": "newOwner",
          "type": "address"
        }
      ],
      "name": "OwnershipTransferred",
      "type": "event"
    },
    {
      "anonymous": false,
      "inputs": [
        {
          "indexed": true,
          "internalType": "bytes32",
          "name": "sessionKeyHash",
          "type": "bytes32"
        },
        {
          "indexed": true,
          "internalType": "address",
          "name": "alice",
          "type": "address"
        },
        {
          "indexed": true,
          "internalType": "address",
          "name": "bob",
          "type": "address"
        },
        {
          "indexed": false,
          "internalType": "uint8",
          "name": "tier",
          "type": "uint8"
        },
        {
          "indexed": false,
          "internalType": "uint256",
          "name": "chshS",
          "type": "uint256"
        }
      ],
      "name": "QKDSessionEstablished",
      "type": "event"
    },
    {
      "anonymous": false,
      "inputs": [
        {
          "indexed": true,
          "internalType": "address",
          "name": "validator",
          "type": "address"
        },
        {
          "indexed": false,
          "internalType": "uint8",
          "name": "tier",
          "type": "uint8"
        }
      ],
      "name": "ValidatorRegistered",
      "type": "event"
    },
    {
      "inputs": [],
      "name": "CHSH_THRESHOLD",
      "outputs": [
        {
          "internalType": "uint256",
          "name": "",
          "type": "uint256"
        }
      ],
      "stateMutability": "view",
      "type": "function"
    },
    {
      "inputs": [],
      "name": "MAX_QBER",
      "outputs": [
        {
          "internalType": "uint256",
          "name": "",
          "type": "uint256"
        }
      ],
      "stateMutability": "view",
      "type": "function"
    },
    {
      "inputs": [
        {
          "internalType": "bytes32",
          "name": "",
          "type": "bytes32"
        }
      ],
      "name": "activeSessionLookup",
      "outputs": [
        {
          "internalType": "bytes32",
          "name": "",
          "type": "bytes32"
        }
      ],
      "stateMutability": "view",
      "type": "function"
    },
    {
      "inputs": [
        {
          "internalType": "bytes32",
          "name": "sessionKeyHash",
          "type": "bytes32"
        }
      ],
      "name": "closeQKDSession",
      "outputs": [],
      "stateMutability": "nonpayable",
      "type": "function"
    },
    {
      "inputs": [
        {
          "internalType": "bytes32",
          "name": "sessionKeyHash",
          "type": "bytes32"
        },
        {
          "internalType": "address",
          "name": "alice",
          "type": "address"
        },
        {
          "internalType": "address",
          "name": "bob",
          "type": "address"
        },
        {
          "internalType": "bytes",
          "name": "pqcSignature",
          "type": "bytes"
        }
      ],
      "name": "establishPQCFallbackSession",
      "outputs": [],
      "stateMutability": "nonpayable",
      "type": "function"
    },
    {
      "inputs": [
        {
          "internalType": "bytes32",
          "name": "sessionKeyHash",
          "type": "bytes32"
        },
        {
          "internalType": "address",
          "name": "alice",
          "type": "address"
        },
        {
          "internalType": "address",
          "name": "bob",
          "type": "address"
        },
        {
          "internalType": "uint8",
          "name": "tier",
          "type": "uint8"
        },
        {
          "internalType": "bytes",
          "name": "chshProof",
          "type": "bytes"
        }
      ],
      "name": "establishQKDSession",
      "outputs": [],
      "stateMutability": "nonpayable",
      "type": "function"
    },
    {
      "inputs": [
        {
          "internalType": "address",
          "name": "alice",
          "type": "address"
        },
        {
          "internalType": "address",
          "name": "bob",
          "type": "address"
        }
      ],
      "name": "getActiveSession",
      "outputs": [
        {
          "components": [
            {
              "internalType": "bytes32",
              "name": "sessionKeyHash",
              "type": "bytes32"
            },
            {
              "internalType": "uint256",
              "name": "startTime",
              "type": "uint256"
            },
            {
              "internalType": "uint256",
              "name": "expiryTime",
              "type": "uint256"
            },
            {
              "internalType": "address",
              "name": "alice",
              "type": "address"
            },
            {
              "internalType": "address",
              "name": "bob",
              "type": "address"
            },
            {
              "internalType": "uint8",
              "name": "tier",
              "type": "uint8"
            },
            {
              "internalType": "bytes32",
              "name": "chshViolation",
              "type": "bytes32"
            },
            {
              "internalType": "enum IQuantumValidator.SessionType",
              "name": "sessionType",
              "type": "uint8"
            },
            {
              "internalType": "bool",
              "name": "active",
              "type": "bool"
            }
          ],
          "internalType": "struct IQuantumValidator.QKDSession",
          "name": "session",
          "type": "tuple"
        }
      ],
      "stateMutability": "view",
      "type": "function"
    },
    {
      "inputs": [],
      "name": "getAllValidators",
      "outputs": [
        {
          "internalType": "address[]",
          "name": "",
          "type": "address[]"
        }
      ],
      "stateMutability": "view",
      "type": "function"
    },
    {
      "inputs": [
        {
          "internalType": "address",
          "name": "validator",
          "type": "address"
        }
      ],
      "name": "getQKDTier",
      "outputs": [
        {
          "internalType": "uint8",
          "name": "tier",
          "type": "uint8"
        }
      ],
      "stateMutability": "view",
      "type": "function"
    },
    {
      "inputs": [
        {
          "internalType": "address",
          "name": "validator",
          "type": "address"
        }
      ],
      "name": "getValidatorSessionCount",
      "outputs": [
        {
          "internalType": "uint256",
          "name": "",
          "type": "uint256"
        }
      ],
      "stateMutability": "view",
      "type": "function"
    },
    {
      "inputs": [
        {
          "internalType": "address",
          "name": "validator",
          "type": "address"
        }
      ],
      "name": "hasActiveQKD",
      "outputs": [
        {
          "internalType": "bool",
          "name": "hasActive",
          "type": "bool"
        },
        {
          "internalType": "bytes32",
          "name": "sessionKeyHash",
          "type": "bytes32"
        },
        {
          "internalType": "enum IQuantumValidator.SessionType",
          "name": "sessionType",
          "type": "uint8"
        }
      ],
      "stateMutability": "view",
      "type": "function"
    },
    {
      "inputs": [
        {
          "internalType": "address",
          "name": "",
          "type": "address"
        }
      ],
      "name": "isRegisteredValidator",
      "outputs": [
        {
          "internalType": "bool",
          "name": "",
          "type": "bool"
        }
      ],
      "stateMutability": "view",
      "type": "function"
    },
    {
      "inputs": [
        {
          "internalType": "bytes32",
          "name": "sessionKeyHash",
          "type": "bytes32"
        }
      ],
      "name": "isSessionActive",
      "outputs": [
        {
          "internalType": "bool",
          "name": "",
          "type": "bool"
        }
      ],
      "stateMutability": "view",
      "type": "function"
    },
    {
      "inputs": [],
      "name": "owner",
      "outputs": [
        {
          "internalType": "address",
          "name": "",
          "type": "address"
        }
      ],
      "stateMutability": "view",
      "type": "function"
    },
    {
      "inputs": [
        {
          "internalType": "address",
          "name": "validator",
          "type": "address"
        },
        {
          "internalType": "uint8",
          "name": "tier",
          "type": "uint8"
        }
      ],
      "name": "registerValidator",
      "outputs": [],
      "stateMutability": "nonpayable",
      "type": "function"
    },
    {
      "inputs": [],
      "name": "renounceOwnership",
      "outputs": [],
      "stateMutability": "nonpayable",
      "type": "function"
    },
    {
      "inputs": [
        {
          "internalType": "bytes32",
          "name": "",
          "type": "bytes32"
        }
      ],
      "name": "sessions",
      "outputs": [
        {
          "internalType": "bytes32",
          "name": "sessionKeyHash",
          "type": "bytes32"
        },
        {
          "internalType": "uint256",
          "name": "startTime",
          "type": "uint256"
        },
        {
          "internalType": "uint256",
          "name": "expiryTime",
          "type": "uint256"
        },
        {
          "internalType": "address",
          "name": "alice",
          "type": "address"
        },
        {
          "internalType": "address",
          "name": "bob",
          "type": "address"
        },
        {
          "internalType": "uint8",
          "name": "tier",
          "type": "uint8"
        },
        {
          "internalType": "bytes32",
          "name": "chshViolation",
          "type": "bytes32"
        },
        {
          "internalType": "enum IQuantumValidator.SessionType",
          "name": "sessionType",
          "type": "uint8"
        },
        {
          "internalType": "bool",
          "name": "active",
          "type": "bool"
        }
      ],
      "stateMutability": "view",
      "type": "function"
    },
    {
      "inputs": [
        {
          "internalType": "address",
          "name": "newOwner",
          "type": "address"
        }
      ],
      "name": "transferOwnership",
      "outputs": [],
      "stateMutability": "nonpayable",
      "type": "function"
    },
    {
      "inputs": [
        {
          "internalType": "uint256",
          "name": "",
          "type": "uint256"
        }
      ],
      "name": "validatorList",
      "outputs": [
        {
          "internalType": "address",
          "name": "",
          "type": "address"
        }
      ],
      "stateMutability": "view",
      "type": "function"
    },
    {
      "inputs": [
        {
          "internalType": "address",
          "name": "",
          "type": "address"
        },
        {
          "internalType": "uint256",
          "name": "",
          "type": "uint256"
        }
      ],
      "name": "validatorSessions",
      "outputs": [
        {
          "internalType": "bytes32",
          "name": "sessionKeyHash",
          "type": "bytes32"
        },
        {
          "internalType": "uint256",
          "name": "startTime",
          "type": "uint256"
        },
        {
          "internalType": "uint256",
          "name": "expiryTime",
          "type": "uint256"
        },
        {
          "internalType": "address",
          "name": "alice",
          "type": "address"
        },
        {
          "internalType": "address",
          "name": "bob",
          "type": "address"
        },
        {
          "internalType": "uint8",
          "name": "tier",
          "type": "uint8"
        },
        {
          "internalType": "bytes32",
          "name": "chshViolation",
          "type": "bytes32"
        },
        {
          "internalType": "enum IQuantumValidator.SessionType",
          "name": "sessionType",
          "type": "uint8"
        },
        {
          "internalType": "bool",
          "name": "active",
          "type": "bool"
        }
      ],
      "stateMutability": "view",
      "type": "function"
    },
    {
      "inputs": [
        {
          "internalType": "address",
          "name": "",
          "type": "address"
        }
      ],
      "name": "validatorTiers",
      "outputs": [
        {
          "internalType": "uint8",
          "name": "",
          "type": "uint8"
        }
      ],
      "stateMutability": "view",
      "type": "function"
    },
    {
      "inputs": [
        {
          "components": [
            {
              "internalType": "uint256",
              "name": "S",
              "type": "uint256"
            },
            {
              "internalType": "uint256[]",
              "name": "outcomesA",
              "type": "uint256[]"
            },
            {
              "internalType": "uint256[]",
              "name": "outcomesB",
              "type": "uint256[]"
            },
            {
              "internalType": "bytes32",
              "name": "basisChoicesA",
              "type": "bytes32"
            },
            {
              "internalType": "bytes32",
              "name": "basisChoicesB",
              "type": "bytes32"
            },
            {
              "internalType": "uint256",
              "name": "qber",
              "type": "uint256"
            }
          ],
          "internalType": "struct IQuantumValidator.CHSHProof",
          "name": "chshProof",
          "type": "tuple"
        }
      ],
      "name": "verifyCHSHViolation",
      "outputs": [
        {
          "internalType": "bool",
          "name": "valid",
          "type": "bool"
        },
        {
          "internalType": "uint256",
          "name": "confidence",
          "type": "uint256"
        }
      ],
      "stateMutability": "pure",
      "type": "function"
    },
    {
      "inputs": [
        {
          "internalType": "bytes",
          "name": "proof",
          "type": "bytes"
        },
        {
          "internalType": "address",
          "name": "validator",
          "type": "address"
        }
      ],
      "name": "verifyQKDProof",
      "outputs": [
        {
          "internalType": "bool",
          "name": "valid",
          "type": "bool"
        }
      ],
      "stateMutability": "view",
      "type": "function"
    }
  ],
  "bytecode": "0x608060405234801561000f575f80fd5b50338061003557604051631e4fbdf760e01b81525f600482015260240160405180910390fd5b61003e81610044565b50610093565b5f80546001600160a01b038381166001600160a01b0319831681178455604051919092169283917f8be0079c531659141344cd1fd0a4f28419497f9722a3daafe3b4186f6b6457e09190a35050565b611db0806100a05f395ff3fe608060405234801561000f575f80fd5b5060043610610148575f3560e01c8063715018a6116100bf578063bbe2bcb811610079578063bbe2bcb8146103a9578063e96ccfa4146103d1578063ee8866c1146103da578063f1786c19146103ed578063f2fde38b14610400578063f3513a3714610413575f80fd5b8063715018a6146102a45780637dbd2832146102ac5780638da5cb5b146103315780638eaf6af01461035557806393c9159714610374578063b048e05614610396575f80fd5b80633f876265116101105780633f876265146102005780635e49fe4d146102135780636cc36bb41461022a5780636ed14c271461023d5780636edabd2b1461026f5780636f532d8c14610282575f80fd5b806318bb6c351461014c5780631ebae01a1461017b5780632a74bcee146101b85780632adf08f9146101cd578063389e36fb146101ed575b5f80fd5b61015f61015a3660046118b0565b610428565b6040805192151583526020830191909152015b60405180910390f35b6101a6610189366004611902565b6001600160a01b03165f9081526003602052604090205460ff1690565b60405160ff9091168152602001610172565b6101cb6101c636600461191b565b61049b565b005b6101e06101db366004611932565b610534565b6040516101729190611997565b6101cb6101fb366004611a2c565b61067a565b6101cb61020e366004611a92565b6107e4565b61021c614e2081565b604051908152602001610172565b6101cb610238366004611b0c565b610d51565b61025f61024b366004611902565b60066020525f908152604090205460ff1681565b6040519015158152602001610172565b61025f61027d366004611b76565b61120c565b6101a6610290366004611902565b60036020525f908152604090205460ff1681565b6101cb61139d565b61031c6102ba36600461191b565b600260208190525f9182526040909120805460018201549282015460038301546004840154600585015460069095015493959492936001600160a01b03928316939282169260ff600160a01b9093048316929091808216916101009091041689565b60405161017299989796959493929190611bc6565b5f546001600160a01b03165b6040516001600160a01b039091168152602001610172565b61021c61036336600461191b565b60046020525f908152604090205481565b610387610382366004611902565b6113b0565b60405161017293929190611c27565b61033d6103a436600461191b565b611590565b61021c6103b7366004611902565b6001600160a01b03165f9081526001602052604090205490565b61021c61044c81565b61025f6103e836600461191b565b6115b8565b61031c6103fb366004611c4c565b611696565b6101cb61040e366004611902565b611712565b61041b61174f565b6040516101729190611c74565b5f80614e2083351161043e57505f928392509050565b61044c8360a00135111561045657505f928392509050565b5f610464614e208535611cd4565b9050614e2061047582612710611ce7565b61047f9190611cfe565b91506127108211156104915761271091505b6001925050915091565b5f81815260026020526040902060038101546001600160a01b03163314806104cf575060048101546001600160a01b031633145b806104e357505f546001600160a01b031633145b6105255760405162461bcd60e51b815260206004820152600e60248201526d139bdd08185d5d1a1bdc9a5e995960921b60448201526064015b60405180910390fd5b600601805461ff001916905550565b60408051610120810182525f80825260208201819052918101829052606081018290526080810182905260a0810182905260c0810182905260e081018290526101008101919091525f8383604051602001610590929190611d1d565b60408051601f1981840301815282825280516020918201205f818152600480845284822054808352600280865292869020610120880187528054885260018082015496890196909652928301549587019590955260038201546001600160a01b03908116606088015290820154908116608087015260ff600160a01b909104811660a0870152600582015460c08701526006820154929650939493909260e08501929091169081111561064557610645611963565b600181111561065657610656611963565b815260069190910154610100900460ff161515602090910152925050505b92915050565b6106826117af565b60018160ff161015801561069a575060038160ff1611155b6106d55760405162461bcd60e51b815260206004820152600c60248201526b24b73b30b634b2103a34b2b960a11b604482015260640161051c565b6001600160a01b0382165f9081526006602052604090205460ff16156107325760405162461bcd60e51b8152602060048201526012602482015271105b1c9958591e481c9959da5cdd195c995960721b604482015260640161051c565b6001600160a01b0382165f818152600360209081526040808320805460ff871660ff19918216811790925560068452828520805490911660019081179091556005805491820181559094527f036b6384b5eca791c62761152d0c79bb0604c104a5fb6f4eb0703f3154bb3db090930180546001600160a01b03191685179055519182527f238e7967f31ca3c1f5404d38c50af64eda069c84124252b2f4fe9be9c1ef3b09910160405180910390a25050565b6001600160a01b0385165f9081526006602052604090205460ff166108415760405162461bcd60e51b815260206004820152601360248201527220b634b1b2903737ba103b30b634b230ba37b960691b604482015260640161051c565b6001600160a01b0384165f9081526006602052604090205460ff1661089c5760405162461bcd60e51b81526020600482015260116024820152702137b1103737ba103b30b634b230ba37b960791b604482015260640161051c565b5f86815260026020526040902060010154156108eb5760405162461bcd60e51b815260206004820152600e60248201526d53657373696f6e2065786973747360901b604482015260640161051c565b5f806108f784846117db565b91509150816109485760405162461bcd60e51b815260206004820152601960248201527f434853482076696f6c6174696f6e206e6f742070726f76656e00000000000000604482015260640161051c565b614e2081116109995760405162461bcd60e51b815260206004820152601b60248201527f496e73756666696369656e7420434853482076696f6c6174696f6e0000000000604482015260640161051c565b5f6109a642610e10611d44565b90505f6040518061012001604052808b81526020014281526020018381526020018a6001600160a01b03168152602001896001600160a01b031681526020018860ff16815260200187876040516109fe929190611d57565b60405190819003902081526020015f8152600160209182018190525f8d81526002808452604091829020855181559385015184840155908401519083015560608301516003830180546001600160a01b039283166001600160a01b0319909116179055608084015160048401805460a087015160ff16600160a01b026001600160a81b0319909116929093169190911791909117905560c0830151600583015560e083015160068301805494955085949192909160ff1916908381811115610ac857610ac8611963565b0217905550610100918201516006918201805461ff001916911515909302179091556001600160a01b038a81165f908152600160208181526040808420805480850182559085529382902087516007909502019384559086015183830155850151600283015560608501516003830180546001600160a01b031916918516919091179055608085015160048301805460a0880151929095166001600160a81b031990951694909417600160a01b60ff909216919091021790925560c0840151600582015560e084015192810180548594929360ff19909116908381811115610bb257610bb2611963565b0217905550610100918201516006918201805461ff001916911515909302179091556001600160a01b038981165f908152600160208181526040808420805480850182559085529382902087516007909502019384559086015183830155850151600283015560608501516003830180546001600160a01b031916918516919091179055608085015160048301805460a0880151929095166001600160a81b031990951694909417600160a01b60ff909216919091021790925560c0840151600582015560e084015192810180548594929360ff19909116908381811115610c9c57610c9c611963565b021790555061010091820151600691909101805461ff0019169115159092021790556040515f90610cd3908b908b90602001611d1d565b60408051601f1981840301815282825280516020918201205f818152600483528390208f905560ff8c16845290830187905292506001600160a01b03808c1692908d16918e917f128b4adfa825a6f03f9b6a8880935c51a9baad580a286070f8fb9fdcd7421c34910160405180910390a45050505050505050505050565b6001600160a01b0384165f9081526006602052604090205460ff16610dae5760405162461bcd60e51b815260206004820152601360248201527220b634b1b2903737ba103b30b634b230ba37b960691b604482015260640161051c565b6001600160a01b0383165f9081526006602052604090205460ff16610e095760405162461bcd60e51b81526020600482015260116024820152702137b1103737ba103b30b634b230ba37b960791b604482015260640161051c565b5f8581526002602052604090206001015415610e585760405162461bcd60e51b815260206004820152600e60248201526d53657373696f6e2065786973747360901b604482015260640161051c565b5f610e6542610e10611d44565b90505f604051806101200160405280888152602001428152602001838152602001876001600160a01b03168152602001866001600160a01b031681526020015f60ff1681526020018585604051610ebd929190611d57565b604051908190039020815260200160018152600160209182018190525f8a81526002808452604091829020855181559385015184840155908401519083015560608301516003830180546001600160a01b039283166001600160a01b0319909116179055608084015160048401805460a087015160ff16600160a01b026001600160a81b0319909116929093169190911791909117905560c0830151600583015560e083015160068301805494955085949192909160ff1916908381811115610f8857610f88611963565b0217905550610100918201516006918201805461ff001916911515909302179091556001600160a01b038781165f908152600160208181526040808420805480850182559085529382902087516007909502019384559086015183830155850151600283015560608501516003830180546001600160a01b031916918516919091179055608085015160048301805460a0880151929095166001600160a81b031990951694909417600160a01b60ff909216919091021790925560c0840151600582015560e084015192810180548594929360ff1990911690838181111561107257611072611963565b0217905550610100918201516006918201805461ff001916911515909302179091556001600160a01b038681165f908152600160208181526040808420805480850182559085529382902087516007909502019384559086015183830155850151600283015560608501516003830180546001600160a01b031916918516919091179055608085015160048301805460a0880151929095166001600160a81b031990951694909417600160a01b60ff909216919091021790925560c0840151600582015560e084015192810180548594929360ff1990911690838181111561115c5761115c611963565b021790555061010091820151600691909101805461ff0019169115159092021790556040515f906111939088908890602001611d1d565b60408051808303601f1901815282825280516020918201205f818152600483528381208d90558085529184019190915292506001600160a01b0388811692908a16918b917f128b4adfa825a6f03f9b6a8880935c51a9baad580a286070f8fb9fdcd7421c34910160405180910390a45050505050505050565b5f60208310156112555760405162461bcd60e51b8152602060048201526014602482015273125b9d985b1a59081c1c9bdbd988199bdc9b585d60621b604482015260640161051c565b83355f8181526002602081815260408084208151610120810183528154815260018083015494820194909452938101549184019190915260038101546001600160a01b0390811660608501526004820154908116608085015260ff600160a01b909104811660a0850152600582015460c08501526006820154919260e0850192909116908111156112e8576112e8611963565b60018111156112f9576112f9611963565b81526020016006820160019054906101000a900460ff161515151581525050905080610100015161132e575f92505050611396565b4281604001511015611344575f92505050611396565b836001600160a01b031681606001516001600160a01b0316141580156113805750836001600160a01b031681608001516001600160a01b031614155b1561138f575f92505050611396565b6001925050505b9392505050565b6113a56117af565b6113ae5f611861565b565b5f805f8060015f866001600160a01b03166001600160a01b031681526020019081526020015f20805480602002602001604051908101604052809291908181526020015f905b828210156114ce575f848152602090819020604080516101208101825260078602909201805483526001808201549484019490945260028101549183019190915260038101546001600160a01b0390811660608401526004820154908116608084015260ff600160a01b909104811660a0840152600582015460c084015260068201549293919260e085019291169081111561149457611494611963565b60018111156114a5576114a5611963565b815260069190910154610100900460ff16151560209182015290825260019290920191016113f6565b5050505090505f5b815181101561157d578181815181106114f1576114f1611d66565b60200260200101516101000151801561152657504282828151811061151857611518611d66565b602002602001015160400151115b1561157557600182828151811061153f5761153f611d66565b60200260200101515f015183838151811061155c5761155c611d66565b602002602001015160e001519450945094505050611589565b6001016114d6565b505f9350839250829150505b9193909250565b6005818154811061159f575f80fd5b5f918252602090912001546001600160a01b0316905081565b5f8181526002602081815260408084208151610120810183528154815260018083015494820194909452938101549184019190915260038101546001600160a01b0390811660608501526004820154908116608085015260ff600160a01b909104811660a0850152600582015460c0850152600682015485949360e0850192919091169081111561164b5761164b611963565b600181111561165c5761165c611963565b81526020016006820160019054906101000a900460ff16151515158152505090508061010001518015611396575060400151421092915050565b6001602052815f5260405f2081815481106116af575f80fd5b5f918252602090912060079091020180546001820154600283015460038401546004850154600586015460069096015494975092955090936001600160a01b03918216939183169260ff600160a01b909104811692808216916101009091041689565b61171a6117af565b6001600160a01b03811661174357604051631e4fbdf760e01b81525f600482015260240161051c565b61174c81611861565b50565b606060058054806020026020016040519081016040528092919081815260200182805480156117a557602002820191905f5260205f20905b81546001600160a01b03168152600190910190602001808311611787575b5050505050905090565b5f546001600160a01b031633146113ae5760405163118cdaa760e01b815233600482015260240161051c565b5f8060408310156118205760405162461bcd60e51b815260206004820152600f60248201526e141c9bdbd9881d1bdbc81cda1bdc9d608a1b604482015260640161051c565b508235602084013561044c811115611836575f92505b614e21821015611844575f92505b614e21821061044c82101761185857600192505b505b9250929050565b5f80546001600160a01b038381166001600160a01b0319831681178455604051919092169283917f8be0079c531659141344cd1fd0a4f28419497f9722a3daafe3b4186f6b6457e09190a35050565b5f602082840312156118c0575f80fd5b813567ffffffffffffffff8111156118d6575f80fd5b820160c08185031215611396575f80fd5b80356001600160a01b03811681146118fd575f80fd5b919050565b5f60208284031215611912575f80fd5b611396826118e7565b5f6020828403121561192b575f80fd5b5035919050565b5f8060408385031215611943575f80fd5b61194c836118e7565b915061195a602084016118e7565b90509250929050565b634e487b7160e01b5f52602160045260245ffd5b6002811061199357634e487b7160e01b5f52602160045260245ffd5b9052565b5f61012082019050825182526020830151602083015260408301516040830152606083015160018060a01b038082166060850152806080860151166080850152505060a08301516119ed60a084018260ff169052565b5060c083015160c083015260e0830151611a0a60e0840182611977565b50610100928301511515919092015290565b803560ff811681146118fd575f80fd5b5f8060408385031215611a3d575f80fd5b611a46836118e7565b915061195a60208401611a1c565b5f8083601f840112611a64575f80fd5b50813567ffffffffffffffff811115611a7b575f80fd5b60208301915083602082850101111561185a575f80fd5b5f805f805f8060a08789031215611aa7575f80fd5b86359550611ab7602088016118e7565b9450611ac5604088016118e7565b9350611ad360608801611a1c565b9250608087013567ffffffffffffffff811115611aee575f80fd5b611afa89828a01611a54565b979a9699509497509295939492505050565b5f805f805f60808688031215611b20575f80fd5b85359450611b30602087016118e7565b9350611b3e604087016118e7565b9250606086013567ffffffffffffffff811115611b59575f80fd5b611b6588828901611a54565b969995985093965092949392505050565b5f805f60408486031215611b88575f80fd5b833567ffffffffffffffff811115611b9e575f80fd5b611baa86828701611a54565b9094509250611bbd9050602085016118e7565b90509250925092565b89815260208101899052604081018890526001600160a01b0387811660608301528616608082015260ff851660a082015260c081018490526101208101611c1060e0830185611977565b8215156101008301529a9950505050505050505050565b83151581526020810183905260608101611c446040830184611977565b949350505050565b5f8060408385031215611c5d575f80fd5b611c66836118e7565b946020939093013593505050565b602080825282518282018190525f9190848201906040850190845b81811015611cb45783516001600160a01b031683529284019291840191600101611c8f565b50909695505050505050565b634e487b7160e01b5f52601160045260245ffd5b8181038181111561067457610674611cc0565b808202811582820484141761067457610674611cc0565b5f82611d1857634e487b7160e01b5f52601260045260245ffd5b500490565b6bffffffffffffffffffffffff19606093841b811682529190921b16601482015260280190565b8082018082111561067457610674611cc0565b818382375f9101908152919050565b634e487b7160e01b5f52603260045260245ffdfea264697066735822122029c3d18b48478b47698205adb38c5080da7d60b33c3c2a3ee7e4af3ee465895b64736f6c63430008180033",
  "linkReferences": {},
  "deployedLinkReferences": {}
}