{
  "_format": "hh-sol-artifact-1",
  "contractName": "QuantumValidator",
  "sourceName": "contracts/QuantumValidator.sol",
  "abi": [
    {
      "inputs": [],
      "stateMutability": "nonpayable",
      "type": "constructor"
    },
    {
      "inputs": [
        {
          "internalType": "address",
          "name": "owner",
          "type": "address"
        }
      ],
      "name": "OwnableInvalidOwner",
      "type": "error"
    },
    {
      "inputs": [
        {
          "internalType": "address",
          "name": "account",
          "type": "address"
        }
      ],
      "name": "OwnableUnauthorizedAccount",
      "type": "error"
    },
    {
      "anonymous": false,
      "inputs": [
        {
          "indexed": true,
          "internalType": "bytes32",
          "name": "sessionKeyHash",
          "type": "bytes32"
        },
        {
          "indexed": false,
          "internalType": "uint256",
          "name": "S",
          "type": "uint256"
        },
        {
          "indexed": false,
          "internalType": "uint256",
          "name": "qber",
          "type": "uint256"
        },
        {
          "indexed": false,
          "internalType": "bool",
          "name": "valid",
          "type": "bool"
        }
      ],
      "name": "CHSHVerified",
      "type": "event"
    },
    {
      "anonymous": false,
      "inputs": [
        {
          "indexed": true,
          "internalType": "address",
          "name": "previousOwner",
          "type": "address"
        },
        {
          "indexed": true,
          "internalType": "address",
          "name": "newOwner",
          "type": "address"
        }
      ],
      "name": "OwnershipTransferred",
      "type": "event"
    },
    {
      "anonymous": false,
      "inputs": [
        {
          "indexed": true,
          "internalType": "bytes32",
          "name": "sessionKeyHash",
          "type": "bytes32"
        },
        {
          "indexed": true,
          "internalType": "address",
          "name": "alice",
          "type": "address"
        },
        {
          "indexed": true,
          "internalType": "address",
          "name": "bob",
          "type": "address"
        },
        {
          "indexed": false,
          "internalType": "uint8",
          "name": "tier",
          "type": "uint8"
        },
        {
          "indexed": false,
          "internalType": "uint256",
          "name": "chshS",
          "type": "uint256"
        }
      ],
      "name": "QKDSessionEstablished",
      "type": "event"
    },
    {
      "anonymous": false,
      "inputs": [
        {
          "indexed": true,
          "internalType": "address",
          "name": "validator",
          "type": "address"
        },
        {
          "indexed": false,
          "internalType": "uint8",
          "name": "tier",
          "type": "uint8"
        }
      ],
      "name": "ValidatorRegistered",
      "type": "event"
    },
    {
      "inputs": [],
      "name": "CHSH_THRESHOLD",
      "outputs": [
        {
          "internalType": "uint256",
          "name": "",
          "type": "uint256"
        }
      ],
      "stateMutability": "view",
      "type": "function"
    },
    {
      "inputs": [],
      "name": "MAX_QBER",
      "outputs": [
        {
          "internalType": "uint256",
          "name": "",
          "type": "uint256"
        }
      ],
      "stateMutability": "view",
      "type": "function"
    },
    {
      "inputs": [
        {
          "internalType": "bytes32",
          "name": "",
          "type": "bytes32"
        }
      ],
      "name": "activeSessionLookup",
      "outputs": [
        {
          "internalType": "bytes32",
          "name": "",
          "type": "bytes32"
        }
      ],
      "stateMutability": "view",
      "type": "function"
    },
    {
      "inputs": [
        {
          "internalType": "bytes32",
          "name": "sessionKeyHash",
          "type": "bytes32"
        }
      ],
      "name": "closeQKDSession",
      "outputs": [],
      "stateMutability": "nonpayable",
      "type": "function"
    },
    {
      "inputs": [
        {
          "internalType": "bytes32",
          "name": "sessionKeyHash",
          "type": "bytes32"
        },
        {
          "internalType": "address",
          "name": "alice",
          "type": "address"
        },
        {
          "internalType": "address",
          "name": "bob",
          "type": "address"
        },
        {
          "internalType": "uint8",
          "name": "tier",
          "type": "uint8"
        },
        {
          "internalType": "bytes",
          "name": "chshProof",
          "type": "bytes"
        }
      ],
      "name": "establishQKDSession",
      "outputs": [],
      "stateMutability": "nonpayable",
      "type": "function"
    },
    {
      "inputs": [
        {
          "internalType": "address",
          "name": "alice",
          "type": "address"
        },
        {
          "internalType": "address",
          "name": "bob",
          "type": "address"
        }
      ],
      "name": "getActiveSession",
      "outputs": [
        {
          "components": [
            {
              "internalType": "bytes32",
              "name": "sessionKeyHash",
              "type": "bytes32"
            },
            {
              "internalType": "uint256",
              "name": "startTime",
              "type": "uint256"
            },
            {
              "internalType": "uint256",
              "name": "expiryTime",
              "type": "uint256"
            },
            {
              "internalType": "address",
              "name": "alice",
              "type": "address"
            },
            {
              "internalType": "address",
              "name": "bob",
              "type": "address"
            },
            {
              "internalType": "uint8",
              "name": "tier",
              "type": "uint8"
            },
            {
              "internalType": "bytes32",
              "name": "chshViolation",
              "type": "bytes32"
            },
            {
              "internalType": "bool",
              "name": "active",
              "type": "bool"
            }
          ],
          "internalType": "struct IQuantumValidator.QKDSession",
          "name": "session",
          "type": "tuple"
        }
      ],
      "stateMutability": "view",
      "type": "function"
    },
    {
      "inputs": [],
      "name": "getAllValidators",
      "outputs": [
        {
          "internalType": "address[]",
          "name": "",
          "type": "address[]"
        }
      ],
      "stateMutability": "view",
      "type": "function"
    },
    {
      "inputs": [
        {
          "internalType": "address",
          "name": "validator",
          "type": "address"
        }
      ],
      "name": "getQKDTier",
      "outputs": [
        {
          "internalType": "uint8",
          "name": "tier",
          "type": "uint8"
        }
      ],
      "stateMutability": "view",
      "type": "function"
    },
    {
      "inputs": [
        {
          "internalType": "address",
          "name": "validator",
          "type": "address"
        }
      ],
      "name": "getValidatorSessionCount",
      "outputs": [
        {
          "internalType": "uint256",
          "name": "",
          "type": "uint256"
        }
      ],
      "stateMutability": "view",
      "type": "function"
    },
    {
      "inputs": [
        {
          "internalType": "address",
          "name": "validator",
          "type": "address"
        }
      ],
      "name": "hasActiveQKD",
      "outputs": [
        {
          "internalType": "bool",
          "name": "hasActive",
          "type": "bool"
        },
        {
          "internalType": "bytes32",
          "name": "sessionKeyHash",
          "type": "bytes32"
        }
      ],
      "stateMutability": "view",
      "type": "function"
    },
    {
      "inputs": [
        {
          "internalType": "address",
          "name": "",
          "type": "address"
        }
      ],
      "name": "isRegisteredValidator",
      "outputs": [
        {
          "internalType": "bool",
          "name": "",
          "type": "bool"
        }
      ],
      "stateMutability": "view",
      "type": "function"
    },
    {
      "inputs": [
        {
          "internalType": "bytes32",
          "name": "sessionKeyHash",
          "type": "bytes32"
        }
      ],
      "name": "isSessionActive",
      "outputs": [
        {
          "internalType": "bool",
          "name": "",
          "type": "bool"
        }
      ],
      "stateMutability": "view",
      "type": "function"
    },
    {
      "inputs": [],
      "name": "owner",
      "outputs": [
        {
          "internalType": "address",
          "name": "",
          "type": "address"
        }
      ],
      "stateMutability": "view",
      "type": "function"
    },
    {
      "inputs": [
        {
          "internalType": "address",
          "name": "validator",
          "type": "address"
        },
        {
          "internalType": "uint8",
          "name": "tier",
          "type": "uint8"
        }
      ],
      "name": "registerValidator",
      "outputs": [],
      "stateMutability": "nonpayable",
      "type": "function"
    },
    {
      "inputs": [],
      "name": "renounceOwnership",
      "outputs": [],
      "stateMutability": "nonpayable",
      "type": "function"
    },
    {
      "inputs": [
        {
          "internalType": "bytes32",
          "name": "",
          "type": "bytes32"
        }
      ],
      "name": "sessions",
      "outputs": [
        {
          "internalType": "bytes32",
          "name": "sessionKeyHash",
          "type": "bytes32"
        },
        {
          "internalType": "uint256",
          "name": "startTime",
          "type": "uint256"
        },
        {
          "internalType": "uint256",
          "name": "expiryTime",
          "type": "uint256"
        },
        {
          "internalType": "address",
          "name": "alice",
          "type": "address"
        },
        {
          "internalType": "address",
          "name": "bob",
          "type": "address"
        },
        {
          "internalType": "uint8",
          "name": "tier",
          "type": "uint8"
        },
        {
          "internalType": "bytes32",
          "name": "chshViolation",
          "type": "bytes32"
        },
        {
          "internalType": "bool",
          "name": "active",
          "type": "bool"
        }
      ],
      "stateMutability": "view",
      "type": "function"
    },
    {
      "inputs": [
        {
          "internalType": "address",
          "name": "newOwner",
          "type": "address"
        }
      ],
      "name": "transferOwnership",
      "outputs": [],
      "stateMutability": "nonpayable",
      "type": "function"
    },
    {
      "inputs": [
        {
          "internalType": "uint256",
          "name": "",
          "type": "uint256"
        }
      ],
      "name": "validatorList",
      "outputs": [
        {
          "internalType": "address",
          "name": "",
          "type": "address"
        }
      ],
      "stateMutability": "view",
      "type": "function"
    },
    {
      "inputs": [
        {
          "internalType": "address",
          "name": "",
          "type": "address"
        },
        {
          "internalType": "uint256",
          "name": "",
          "type": "uint256"
        }
      ],
      "name": "validatorSessions",
      "outputs": [
        {
          "internalType": "bytes32",
          "name": "sessionKeyHash",
          "type": "bytes32"
        },
        {
          "internalType": "uint256",
          "name": "startTime",
          "type": "uint256"
        },
        {
          "internalType": "uint256",
          "name": "expiryTime",
          "type": "uint256"
        },
        {
          "internalType": "address",
          "name": "alice",
          "type": "address"
        },
        {
          "internalType": "address",
          "name": "bob",
          "type": "address"
        },
        {
          "internalType": "uint8",
          "name": "tier",
          "type": "uint8"
        },
        {
          "internalType": "bytes32",
          "name": "chshViolation",
          "type": "bytes32"
        },
        {
          "internalType": "bool",
          "name": "active",
          "type": "bool"
        }
      ],
      "stateMutability": "view",
      "type": "function"
    },
    {
      "inputs": [
        {
          "internalType": "address",
          "name": "",
          "type": "address"
        }
      ],
      "name": "validatorTiers",
      "outputs": [
        {
          "internalType": "uint8",
          "name": "",
          "type": "uint8"
        }
      ],
      "stateMutability": "view",
      "type": "function"
    },
    {
      "inputs": [
        {
          "components": [
            {
              "internalType": "uint256",
              "name": "S",
              "type": "uint256"
            },
            {
              "internalType": "uint256[]",
              "name": "outcomesA",
              "type": "uint256[]"
            },
            {
              "internalType": "uint256[]",
              "name": "outcomesB",
              "type": "uint256[]"
            },
            {
              "internalType": "bytes32",
              "name": "basisChoicesA",
              "type": "bytes32"
            },
            {
              "internalType": "bytes32",
              "name": "basisChoicesB",
              "type": "bytes32"
            },
            {
              "internalType": "uint256",
              "name": "qber",
              "type": "uint256"
            }
          ],
          "internalType": "struct IQuantumValidator.CHSHProof",
          "name": "chshProof",
          "type": "tuple"
        }
      ],
      "name": "verifyCHSHViolation",
      "outputs": [
        {
          "internalType": "bool",
          "name": "valid",
          "type": "bool"
        },
        {
          "internalType": "uint256",
          "name": "confidence",
          "type": "uint256"
        }
      ],
      "stateMutability": "pure",
      "type": "function"
    },
    {
      "inputs": [
        {
          "internalType": "bytes",
          "name": "proof",
          "type": "bytes"
        },
        {
          "internalType": "address",
          "name": "validator",
          "type": "address"
        }
      ],
      "name": "verifyQKDProof",
      "outputs": [
        {
          "internalType": "bool",
          "name": "valid",
          "type": "bool"
        }
      ],
      "stateMutability": "view",
      "type": "function"
    }
  ],
  "bytecode": "0x608060405234801561001057600080fd5b50338061003757604051631e4fbdf760e01b81526000600482015260240160405180910390fd5b61004081610046565b50610096565b600080546001600160a01b038381166001600160a01b0319831681178455604051919092169283917f8be0079c531659141344cd1fd0a4f28419497f9722a3daafe3b4186f6b6457e09190a35050565b61173a806100a56000396000f3fe608060405234801561001057600080fd5b50600436106101425760003560e01c80637dbd2832116100b8578063bbe2bcb81161007c578063bbe2bcb81461041a578063e96ccfa414610443578063ee8866c11461044c578063f1786c191461045f578063f2fde38b14610472578063f3513a371461048557600080fd5b80637dbd2832146102fe5780638da5cb5b146103af5780638eaf6af0146103d457806393c91597146103f4578063b048e0561461040757600080fd5b80633f8762651161010a5780633f876265146102635780635e49fe4d146102765780636ed14c271461028d5780636edabd2b146102c05780636f532d8c146102d3578063715018a6146102f657600080fd5b806318bb6c35146101475780631ebae01a146101765780632a74bcee146101b45780632adf08f9146101c9578063389e36fb14610250575b600080fd5b61015a6101553660046113cb565b61049a565b6040805192151583526020830191909152015b60405180910390f35b6101a2610184366004611422565b6001600160a01b031660009081526003602052604090205460ff1690565b60405160ff909116815260200161016d565b6101c76101c236600461143d565b610511565b005b6101dc6101d7366004611456565b6105ab565b60405161016d9190600061010082019050825182526020830151602083015260408301516040830152606083015160018060a01b038082166060850152806080860151166080850152505060ff60a08401511660a083015260c083015160c083015260e0830151151560e083015292915050565b6101c761025e36600461149a565b6106bd565b6101c7610271366004611506565b610829565b61027f614e2081565b60405190815260200161016d565b6102b061029b366004611422565b60066020526000908152604090205460ff1681565b604051901515815260200161016d565b6102b06102ce366004611585565b610e18565b6101a26102e1366004611422565b60036020526000908152604090205460ff1681565b6101c7610f67565b61036561030c36600461143d565b6002602081905260009182526040909120805460018201549282015460038301546004840154600585015460069095015493959492936001600160a01b03928316939282169260ff600160a01b90930483169290911688565b604080519889526020890197909752958701949094526001600160a01b0392831660608701529116608085015260ff1660a084015260c0830152151560e08201526101000161016d565b6000546001600160a01b03165b6040516001600160a01b03909116815260200161016d565b61027f6103e236600461143d565b60046020526000908152604090205481565b61015a610402366004611422565b610f7b565b6103bc61041536600461143d565b6110f1565b61027f610428366004611422565b6001600160a01b031660009081526001602052604090205490565b61027f61044c81565b6102b061045a36600461143d565b61111b565b61036561046d3660046115d9565b6111af565b6101c7610480366004611422565b611225565b61048d611263565b60405161016d9190611603565b600080614e208335116104b257506000928392509050565b61044c8360a0013511156104cb57506000928392509050565b60006104da614e208535611666565b9050614e206104eb82612710611679565b6104f59190611690565b91506127108211156105075761271091505b6001925050915091565b600081815260026020526040902060038101546001600160a01b0316331480610546575060048101546001600160a01b031633145b8061055b57506000546001600160a01b031633145b61059d5760405162461bcd60e51b815260206004820152600e60248201526d139bdd08185d5d1a1bdc9a5e995960921b60448201526064015b60405180910390fd5b600601805460ff1916905550565b6040805161010081018252600080825260208201819052918101829052606081018290526080810182905260a0810182905260c0810182905260e08101919091526040516bffffffffffffffffffffffff19606085811b8216602084015284901b16603482015260009060480160408051601f198184030181528282528051602091820120600090815260048083528382205482526002808452918490206101008601855280548652600181015493860193909352908201549284019290925260038101546001600160a01b03908116606085015291810154918216608084015260ff600160a01b909204821660a0840152600581015460c08401526006015416151560e08201529150505b92915050565b6106c56112c5565b60018160ff16101580156106dd575060038160ff1611155b6107185760405162461bcd60e51b815260206004820152600c60248201526b24b73b30b634b2103a34b2b960a11b6044820152606401610594565b6001600160a01b03821660009081526006602052604090205460ff16156107765760405162461bcd60e51b8152602060048201526012602482015271105b1c9958591e481c9959da5cdd195c995960721b6044820152606401610594565b6001600160a01b0382166000818152600360209081526040808320805460ff871660ff19918216811790925560068452828520805490911660019081179091556005805491820181559094527f036b6384b5eca791c62761152d0c79bb0604c104a5fb6f4eb0703f3154bb3db090930180546001600160a01b03191685179055519182527f238e7967f31ca3c1f5404d38c50af64eda069c84124252b2f4fe9be9c1ef3b09910160405180910390a25050565b6001600160a01b03851660009081526006602052604090205460ff166108875760405162461bcd60e51b815260206004820152601360248201527220b634b1b2903737ba103b30b634b230ba37b960691b6044820152606401610594565b6001600160a01b03841660009081526006602052604090205460ff166108e35760405162461bcd60e51b81526020600482015260116024820152702137b1103737ba103b30b634b230ba37b960791b6044820152606401610594565b600086815260026020526040902060010154156109335760405162461bcd60e51b815260206004820152600e60248201526d53657373696f6e2065786973747360901b6044820152606401610594565b60008061094084846112f2565b91509150816109915760405162461bcd60e51b815260206004820152601960248201527f434853482076696f6c6174696f6e206e6f742070726f76656e000000000000006044820152606401610594565b614e2081116109e25760405162461bcd60e51b815260206004820152601b60248201527f496e73756666696369656e7420434853482076696f6c6174696f6e00000000006044820152606401610594565b60006109f042610e106116b2565b905060006040518061010001604052808b81526020014281526020018381526020018a6001600160a01b03168152602001896001600160a01b031681526020018860ff1681526020018787604051610a499291906116c5565b6040518091039020815260200160011515815250905080600260008c815260200190815260200160002060008201518160000155602082015181600101556040820151816002015560608201518160030160006101000a8154816001600160a01b0302191690836001600160a01b0316021790555060808201518160040160006101000a8154816001600160a01b0302191690836001600160a01b0316021790555060a08201518160040160146101000a81548160ff021916908360ff16021790555060c0820151816005015560e08201518160060160006101000a81548160ff021916908315150217905550905050600160008a6001600160a01b03166001600160a01b0316815260200190815260200160002081908060018154018082558091505060019003906000526020600020906007020160009091909190915060008201518160000155602082015181600101556040820151816002015560608201518160030160006101000a8154816001600160a01b0302191690836001600160a01b0316021790555060808201518160040160006101000a8154816001600160a01b0302191690836001600160a01b0316021790555060a08201518160040160146101000a81548160ff021916908360ff16021790555060c0820151816005015560e08201518160060160006101000a81548160ff021916908315150217905550505060016000896001600160a01b03166001600160a01b0316815260200190815260200160002081908060018154018082558091505060019003906000526020600020906007020160009091909190915060008201518160000155602082015181600101556040820151816002015560608201518160030160006101000a8154816001600160a01b0302191690836001600160a01b0316021790555060808201518160040160006101000a8154816001600160a01b0302191690836001600160a01b0316021790555060a08201518160040160146101000a81548160ff021916908360ff16021790555060c0820151816005015560e08201518160060160006101000a81548160ff021916908315150217905550505060008989604051602001610d99929190606092831b6bffffffffffffffffffffffff1990811682529190921b16601482015260280190565b60408051601f1981840301815282825280516020918201206000818152600483528390208f905560ff8c16845290830187905292506001600160a01b03808c1692908d16918e917f128b4adfa825a6f03f9b6a8880935c51a9baad580a286070f8fb9fdcd7421c34910160405180910390a45050505050505050505050565b60006020831015610e625760405162461bcd60e51b8152602060048201526014602482015273125b9d985b1a59081c1c9bdbd988199bdc9b585d60621b6044820152606401610594565b833560008181526002602081815260409283902083516101008101855281548152600182015492810192909252918201549281019290925260038101546001600160a01b0390811660608401526004820154908116608084015260ff600160a01b909104811660a0840152600582015460c084015260069091015416151560e08201819052610ef657600092505050610f60565b4281604001511015610f0d57600092505050610f60565b836001600160a01b031681606001516001600160a01b031614158015610f495750836001600160a01b031681608001516001600160a01b031614155b15610f5957600092505050610f60565b6001925050505b9392505050565b610f6f6112c5565b610f79600061137b565b565b6001600160a01b0381166000908152600160209081526040808320805482518185028101850190935280835284938493929190849084015b8282101561104a576000848152602090819020604080516101008101825260078602909201805483526001808201548486015260028201549284019290925260038101546001600160a01b0390811660608501526004820154908116608085015260ff600160a01b909104811660a0850152600582015460c085015260069091015416151560e08301529083529092019101610fb3565b50505050905060005b81518110156110e45781818151811061106e5761106e6116d5565b602002602001015160e0015180156110a2575042828281518110611094576110946116d5565b602002602001015160400151115b156110d25760018282815181106110bb576110bb6116d5565b602002602001015160000151935093505050915091565b806110dc816116eb565b915050611053565b5060009485945092505050565b6005818154811061110157600080fd5b6000918252602090912001546001600160a01b0316905081565b600081815260026020818152604080842081516101008101835281548152600182015493810193909352928301549082015260038201546001600160a01b0390811660608301526004830154908116608083015260ff600160a01b909104811660a0830152600583015460c083015260069092015490911615801560e0830181905290610f60575060400151421092915050565b600160205281600052604060002081815481106111cb57600080fd5b6000918252602090912060079091020180546001820154600283015460038401546004850154600586015460069096015494975092955090936001600160a01b03918216939183169260ff600160a01b9091048116921688565b61122d6112c5565b6001600160a01b03811661125757604051631e4fbdf760e01b815260006004820152602401610594565b6112608161137b565b50565b606060058054806020026020016040519081016040528092919081815260200182805480156112bb57602002820191906000526020600020905b81546001600160a01b0316815260019091019060200180831161129d575b5050505050905090565b6000546001600160a01b03163314610f795760405163118cdaa760e01b8152336004820152602401610594565b60008060408310156113385760405162461bcd60e51b815260206004820152600f60248201526e141c9bdbd9881d1bdbc81cda1bdc9d608a1b6044820152606401610594565b508235602084013561044c81111561134f57600092505b614e2182101561135e57600092505b614e21821061044c82101761137257600192505b505b9250929050565b600080546001600160a01b038381166001600160a01b0319831681178455604051919092169283917f8be0079c531659141344cd1fd0a4f28419497f9722a3daafe3b4186f6b6457e09190a35050565b6000602082840312156113dd57600080fd5b813567ffffffffffffffff8111156113f457600080fd5b820160c08185031215610f6057600080fd5b80356001600160a01b038116811461141d57600080fd5b919050565b60006020828403121561143457600080fd5b610f6082611406565b60006020828403121561144f57600080fd5b5035919050565b6000806040838503121561146957600080fd5b61147283611406565b915061148060208401611406565b90509250929050565b803560ff8116811461141d57600080fd5b600080604083850312156114ad57600080fd5b6114b683611406565b915061148060208401611489565b60008083601f8401126114d657600080fd5b50813567ffffffffffffffff8111156114ee57600080fd5b60208301915083602082850101111561137457600080fd5b60008060008060008060a0878903121561151f57600080fd5b8635955061152f60208801611406565b945061153d60408801611406565b935061154b60608801611489565b9250608087013567ffffffffffffffff81111561156757600080fd5b61157389828a016114c4565b979a9699509497509295939492505050565b60008060006040848603121561159a57600080fd5b833567ffffffffffffffff8111156115b157600080fd5b6115bd868287016114c4565b90945092506115d0905060208501611406565b90509250925092565b600080604083850312156115ec57600080fd5b6115f583611406565b946020939093013593505050565b6020808252825182820181905260009190848201906040850190845b818110156116445783516001600160a01b03168352928401929184019160010161161f565b50909695505050505050565b634e487b7160e01b600052601160045260246000fd5b818103818111156106b7576106b7611650565b80820281158282048414176106b7576106b7611650565b6000826116ad57634e487b7160e01b600052601260045260246000fd5b500490565b808201808211156106b7576106b7611650565b8183823760009101908152919050565b634e487b7160e01b600052603260045260246000fd5b6000600182016116fd576116fd611650565b506001019056fea2646970667358221220b609da9d5beed9c22184395b3ec22b8f4acc5162938865f32abd3243ab08520b64736f6c63430008140033",
  "linkReferences": {},
  "deployedLinkReferences": {}
}