{
  "_format": "hh-sol-artifact-1",
  "contractName": "QLinkBridge",
  "sourceName": "contracts/QLinkBridge.sol",
  "abi": [
    {
      "inputs": [
        {
          "internalType": "address",
          "name": "_pqcVerifier",
          "type": "address"
        },
        {
          "internalType": "address",
          "name": "_quantumValidator",
          "type": "address"
        }
      ],
      "stateMutability": "nonpayable",
      "type": "constructor"
    },
    {
      "inputs": [
        {
          "internalType": "uint256",
          "name": "chainId",
          "type": "uint256"
        }
      ],
      "name": "ChainNotSupported",
      "type": "error"
    },
    {
      "inputs": [
        {
          "internalType": "bytes32",
          "name": "sessionKey",
          "type": "bytes32"
        }
      ],
      "name": "ExpiredQKDSession",
      "type": "error"
    },
    {
      "inputs": [
        {
          "internalType": "bytes32",
          "name": "transferId",
          "type": "bytes32"
        }
      ],
      "name": "InsufficientProofs",
      "type": "error"
    },
    {
      "inputs": [
        {
          "internalType": "bytes32",
          "name": "transferId",
          "type": "bytes32"
        },
        {
          "internalType": "uint256",
          "name": "validatorId",
          "type": "uint256"
        }
      ],
      "name": "InvalidPQCProof",
      "type": "error"
    },
    {
      "inputs": [],
      "name": "InvalidTransfer",
      "type": "error"
    },
    {
      "inputs": [
        {
          "internalType": "address",
          "name": "owner",
          "type": "address"
        }
      ],
      "name": "OwnableInvalidOwner",
      "type": "error"
    },
    {
      "inputs": [
        {
          "internalType": "address",
          "name": "account",
          "type": "address"
        }
      ],
      "name": "OwnableUnauthorizedAccount",
      "type": "error"
    },
    {
      "inputs": [
        {
          "internalType": "bytes32",
          "name": "transferId",
          "type": "bytes32"
        },
        {
          "internalType": "uint256",
          "name": "validatorId",
          "type": "uint256"
        }
      ],
      "name": "ProofAlreadySubmitted",
      "type": "error"
    },
    {
      "inputs": [],
      "name": "ReentrancyGuardReentrantCall",
      "type": "error"
    },
    {
      "inputs": [
        {
          "internalType": "address",
          "name": "token",
          "type": "address"
        }
      ],
      "name": "SafeERC20FailedOperation",
      "type": "error"
    },
    {
      "inputs": [
        {
          "internalType": "address",
          "name": "token",
          "type": "address"
        }
      ],
      "name": "TokenNotSupported",
      "type": "error"
    },
    {
      "inputs": [
        {
          "internalType": "bytes32",
          "name": "transferId",
          "type": "bytes32"
        }
      ],
      "name": "TransferAlreadyExecuted",
      "type": "error"
    },
    {
      "inputs": [
        {
          "internalType": "address",
          "name": "validator",
          "type": "address"
        }
      ],
      "name": "ValidatorNotAuthorized",
      "type": "error"
    },
    {
      "anonymous": false,
      "inputs": [
        {
          "indexed": true,
          "internalType": "uint256",
          "name": "chainId",
          "type": "uint256"
        }
      ],
      "name": "ChainSupported",
      "type": "event"
    },
    {
      "anonymous": false,
      "inputs": [
        {
          "indexed": true,
          "internalType": "uint256",
          "name": "chainId",
          "type": "uint256"
        }
      ],
      "name": "ChainUnsupported",
      "type": "event"
    },
    {
      "anonymous": false,
      "inputs": [
        {
          "indexed": true,
          "internalType": "address",
          "name": "previousOwner",
          "type": "address"
        },
        {
          "indexed": true,
          "internalType": "address",
          "name": "newOwner",
          "type": "address"
        }
      ],
      "name": "OwnershipTransferred",
      "type": "event"
    },
    {
      "anonymous": false,
      "inputs": [
        {
          "indexed": true,
          "internalType": "bytes32",
          "name": "transferId",
          "type": "bytes32"
        },
        {
          "indexed": true,
          "internalType": "uint256",
          "name": "validatorId",
          "type": "uint256"
        },
        {
          "indexed": false,
          "internalType": "bytes32",
          "name": "qkdSessionKey",
          "type": "bytes32"
        },
        {
          "indexed": false,
          "internalType": "uint256",
          "name": "timestamp",
          "type": "uint256"
        }
      ],
      "name": "ProofSubmitted",
      "type": "event"
    },
    {
      "anonymous": false,
      "inputs": [
        {
          "indexed": true,
          "internalType": "bytes32",
          "name": "transferId",
          "type": "bytes32"
        },
        {
          "indexed": true,
          "internalType": "address",
          "name": "recipient",
          "type": "address"
        },
        {
          "indexed": false,
          "internalType": "uint256",
          "name": "amount",
          "type": "uint256"
        },
        {
          "indexed": false,
          "internalType": "uint256",
          "name": "proofCount",
          "type": "uint256"
        }
      ],
      "name": "TransferExecuted",
      "type": "event"
    },
    {
      "anonymous": false,
      "inputs": [
        {
          "indexed": true,
          "internalType": "bytes32",
          "name": "transferId",
          "type": "bytes32"
        },
        {
          "indexed": true,
          "internalType": "address",
          "name": "sender",
          "type": "address"
        },
        {
          "indexed": true,
          "internalType": "address",
          "name": "recipient",
          "type": "address"
        },
        {
          "indexed": false,
          "internalType": "address",
          "name": "token",
          "type": "address"
        },
        {
          "indexed": false,
          "internalType": "uint256",
          "name": "amount",
          "type": "uint256"
        },
        {
          "indexed": false,
          "internalType": "uint256",
          "name": "sourceChainId",
          "type": "uint256"
        },
        {
          "indexed": false,
          "internalType": "uint256",
          "name": "destChainId",
          "type": "uint256"
        }
      ],
      "name": "TransferInitiated",
      "type": "event"
    },
    {
      "anonymous": false,
      "inputs": [
        {
          "indexed": true,
          "internalType": "uint256",
          "name": "validatorId",
          "type": "uint256"
        },
        {
          "indexed": false,
          "internalType": "address",
          "name": "validator",
          "type": "address"
        }
      ],
      "name": "ValidatorAdded",
      "type": "event"
    },
    {
      "anonymous": false,
      "inputs": [
        {
          "indexed": true,
          "internalType": "uint256",
          "name": "validatorId",
          "type": "uint256"
        },
        {
          "indexed": false,
          "internalType": "address",
          "name": "validator",
          "type": "address"
        }
      ],
      "name": "ValidatorRemoved",
      "type": "event"
    },
    {
      "inputs": [],
      "name": "MIN_VALIDATORS",
      "outputs": [
        {
          "internalType": "uint256",
          "name": "",
          "type": "uint256"
        }
      ],
      "stateMutability": "view",
      "type": "function"
    },
    {
      "inputs": [],
      "name": "PROOF_THRESHOLD",
      "outputs": [
        {
          "internalType": "uint256",
          "name": "",
          "type": "uint256"
        }
      ],
      "stateMutability": "view",
      "type": "function"
    },
    {
      "inputs": [],
      "name": "QKD_SESSION_DURATION",
      "outputs": [
        {
          "internalType": "uint256",
          "name": "",
          "type": "uint256"
        }
      ],
      "stateMutability": "view",
      "type": "function"
    },
    {
      "inputs": [
        {
          "internalType": "address",
          "name": "validator",
          "type": "address"
        }
      ],
      "name": "addValidator",
      "outputs": [],
      "stateMutability": "nonpayable",
      "type": "function"
    },
    {
      "inputs": [
        {
          "internalType": "bytes32",
          "name": "transferId",
          "type": "bytes32"
        }
      ],
      "name": "executeTransfer",
      "outputs": [],
      "stateMutability": "nonpayable",
      "type": "function"
    },
    {
      "inputs": [
        {
          "internalType": "bytes32",
          "name": "transferId",
          "type": "bytes32"
        }
      ],
      "name": "getTransferStatus",
      "outputs": [
        {
          "internalType": "bool",
          "name": "exists",
          "type": "bool"
        },
        {
          "internalType": "bool",
          "name": "executed",
          "type": "bool"
        },
        {
          "internalType": "uint256",
          "name": "proofs",
          "type": "uint256"
        },
        {
          "internalType": "uint256",
          "name": "required",
          "type": "uint256"
        }
      ],
      "stateMutability": "view",
      "type": "function"
    },
    {
      "inputs": [
        {
          "internalType": "address",
          "name": "validator",
          "type": "address"
        }
      ],
      "name": "getValidatorId",
      "outputs": [
        {
          "internalType": "uint256",
          "name": "",
          "type": "uint256"
        }
      ],
      "stateMutability": "view",
      "type": "function"
    },
    {
      "inputs": [
        {
          "internalType": "address",
          "name": "token",
          "type": "address"
        },
        {
          "internalType": "uint256",
          "name": "amount",
          "type": "uint256"
        },
        {
          "internalType": "address",
          "name": "recipient",
          "type": "address"
        },
        {
          "internalType": "uint256",
          "name": "destChainId",
          "type": "uint256"
        }
      ],
      "name": "initiateTransfer",
      "outputs": [
        {
          "internalType": "bytes32",
          "name": "",
          "type": "bytes32"
        }
      ],
      "stateMutability": "nonpayable",
      "type": "function"
    },
    {
      "inputs": [
        {
          "internalType": "bytes32",
          "name": "sessionKey",
          "type": "bytes32"
        }
      ],
      "name": "isQKDSessionValid",
      "outputs": [
        {
          "internalType": "bool",
          "name": "",
          "type": "bool"
        }
      ],
      "stateMutability": "view",
      "type": "function"
    },
    {
      "inputs": [
        {
          "internalType": "address",
          "name": "",
          "type": "address"
        }
      ],
      "name": "isValidator",
      "outputs": [
        {
          "internalType": "bool",
          "name": "",
          "type": "bool"
        }
      ],
      "stateMutability": "view",
      "type": "function"
    },
    {
      "inputs": [],
      "name": "owner",
      "outputs": [
        {
          "internalType": "address",
          "name": "",
          "type": "address"
        }
      ],
      "stateMutability": "view",
      "type": "function"
    },
    {
      "inputs": [],
      "name": "pqcVerifier",
      "outputs": [
        {
          "internalType": "contract IPQCSignature",
          "name": "",
          "type": "address"
        }
      ],
      "stateMutability": "view",
      "type": "function"
    },
    {
      "inputs": [
        {
          "internalType": "bytes32",
          "name": "",
          "type": "bytes32"
        }
      ],
      "name": "proofCount",
      "outputs": [
        {
          "internalType": "uint256",
          "name": "",
          "type": "uint256"
        }
      ],
      "stateMutability": "view",
      "type": "function"
    },
    {
      "inputs": [
        {
          "internalType": "bytes32",
          "name": "",
          "type": "bytes32"
        },
        {
          "internalType": "uint256",
          "name": "",
          "type": "uint256"
        }
      ],
      "name": "proofs",
      "outputs": [
        {
          "internalType": "bytes32",
          "name": "transferId",
          "type": "bytes32"
        },
        {
          "internalType": "bytes",
          "name": "pqcSignature",
          "type": "bytes"
        },
        {
          "internalType": "bytes32",
          "name": "qkdSessionKey",
          "type": "bytes32"
        },
        {
          "internalType": "uint256",
          "name": "validatorId",
          "type": "uint256"
        },
        {
          "internalType": "uint256",
          "name": "timestamp",
          "type": "uint256"
        }
      ],
      "stateMutability": "view",
      "type": "function"
    },
    {
      "inputs": [
        {
          "internalType": "bytes32",
          "name": "",
          "type": "bytes32"
        }
      ],
      "name": "qkdSessionExpiry",
      "outputs": [
        {
          "internalType": "uint256",
          "name": "",
          "type": "uint256"
        }
      ],
      "stateMutability": "view",
      "type": "function"
    },
    {
      "inputs": [],
      "name": "quantumValidator",
      "outputs": [
        {
          "internalType": "contract IQuantumValidator",
          "name": "",
          "type": "address"
        }
      ],
      "stateMutability": "view",
      "type": "function"
    },
    {
      "inputs": [
        {
          "internalType": "bytes32",
          "name": "sessionKeyHash",
          "type": "bytes32"
        },
        {
          "internalType": "bytes",
          "name": "qkdProof",
          "type": "bytes"
        }
      ],
      "name": "registerQKDSession",
      "outputs": [],
      "stateMutability": "nonpayable",
      "type": "function"
    },
    {
      "inputs": [
        {
          "internalType": "address",
          "name": "validator",
          "type": "address"
        }
      ],
      "name": "removeValidator",
      "outputs": [],
      "stateMutability": "nonpayable",
      "type": "function"
    },
    {
      "inputs": [],
      "name": "renounceOwnership",
      "outputs": [],
      "stateMutability": "nonpayable",
      "type": "function"
    },
    {
      "inputs": [
        {
          "internalType": "address",
          "name": "_pqcVerifier",
          "type": "address"
        }
      ],
      "name": "setPQCVerifier",
      "outputs": [],
      "stateMutability": "nonpayable",
      "type": "function"
    },
    {
      "inputs": [
        {
          "internalType": "address",
          "name": "_quantumValidator",
          "type": "address"
        }
      ],
      "name": "setQuantumValidator",
      "outputs": [],
      "stateMutability": "nonpayable",
      "type": "function"
    },
    {
      "inputs": [
        {
          "internalType": "bytes32",
          "name": "transferId",
          "type": "bytes32"
        },
        {
          "internalType": "bytes",
          "name": "pqcSignature",
          "type": "bytes"
        },
        {
          "internalType": "bytes32",
          "name": "qkdSessionKey",
          "type": "bytes32"
        }
      ],
      "name": "submitProof",
      "outputs": [],
      "stateMutability": "nonpayable",
      "type": "function"
    },
    {
      "inputs": [
        {
          "internalType": "uint256",
          "name": "chainId",
          "type": "uint256"
        }
      ],
      "name": "supportChain",
      "outputs": [],
      "stateMutability": "nonpayable",
      "type": "function"
    },
    {
      "inputs": [
        {
          "internalType": "address",
          "name": "token",
          "type": "address"
        }
      ],
      "name": "supportToken",
      "outputs": [],
      "stateMutability": "nonpayable",
      "type": "function"
    },
    {
      "inputs": [
        {
          "internalType": "uint256",
          "name": "",
          "type": "uint256"
        }
      ],
      "name": "supportedChains",
      "outputs": [
        {
          "internalType": "bool",
          "name": "",
          "type": "bool"
        }
      ],
      "stateMutability": "view",
      "type": "function"
    },
    {
      "inputs": [
        {
          "internalType": "address",
          "name": "",
          "type": "address"
        }
      ],
      "name": "supportedTokens",
      "outputs": [
        {
          "internalType": "bool",
          "name": "",
          "type": "bool"
        }
      ],
      "stateMutability": "view",
      "type": "function"
    },
    {
      "inputs": [
        {
          "internalType": "address",
          "name": "newOwner",
          "type": "address"
        }
      ],
      "name": "transferOwnership",
      "outputs": [],
      "stateMutability": "nonpayable",
      "type": "function"
    },
    {
      "inputs": [
        {
          "internalType": "bytes32",
          "name": "",
          "type": "bytes32"
        }
      ],
      "name": "transfers",
      "outputs": [
        {
          "internalType": "bytes32",
          "name": "transferId",
          "type": "bytes32"
        },
        {
          "internalType": "address",
          "name": "sourceToken",
          "type": "address"
        },
        {
          "internalType": "address",
          "name": "destToken",
          "type": "address"
        },
        {
          "internalType": "uint256",
          "name": "amount",
          "type": "uint256"
        },
        {
          "internalType": "address",
          "name": "sender",
          "type": "address"
        },
        {
          "internalType": "address",
          "name": "recipient",
          "type": "address"
        },
        {
          "internalType": "uint256",
          "name": "sourceChainId",
          "type": "uint256"
        },
        {
          "internalType": "uint256",
          "name": "destChainId",
          "type": "uint256"
        },
        {
          "internalType": "uint256",
          "name": "timestamp",
          "type": "uint256"
        },
        {
          "internalType": "bool",
          "name": "executed",
          "type": "bool"
        }
      ],
      "stateMutability": "view",
      "type": "function"
    },
    {
      "inputs": [
        {
          "internalType": "uint256",
          "name": "chainId",
          "type": "uint256"
        }
      ],
      "name": "unsupportChain",
      "outputs": [],
      "stateMutability": "nonpayable",
      "type": "function"
    },
    {
      "inputs": [],
      "name": "validatorCount",
      "outputs": [
        {
          "internalType": "uint256",
          "name": "",
          "type": "uint256"
        }
      ],
      "stateMutability": "view",
      "type": "function"
    },
    {
      "inputs": [
        {
          "internalType": "uint256",
          "name": "",
          "type": "uint256"
        }
      ],
      "name": "validators",
      "outputs": [
        {
          "internalType": "address",
          "name": "",
          "type": "address"
        }
      ],
      "stateMutability": "view",
      "type": "function"
    }
  ],
  "bytecode": "0x60806040523480156200001157600080fd5b50604051620019f2380380620019f283398101604081905262000034916200012a565b60017f9b779b17422d0df92223018b32b4d1fa46e071723d6817e2486d003becc55f005533806200007f57604051631e4fbdf760e01b81526000600482015260240160405180910390fd5b6200008a81620000bd565b50600980546001600160a01b039384166001600160a01b031991821617909155600a805492909316911617905562000162565b600080546001600160a01b038381166001600160a01b0319831681178455604051919092169283917f8be0079c531659141344cd1fd0a4f28419497f9722a3daafe3b4186f6b6457e09190a35050565b80516001600160a01b03811681146200012557600080fd5b919050565b600080604083850312156200013e57600080fd5b62000149836200010d565b915062000159602084016200010d565b90509250929050565b61188080620001726000396000f3fe608060405234801561001057600080fd5b50600436106101e55760003560e01c80636a62a4c01161010f578063c704babe116100a2578063ed56d73f11610071578063ed56d73f14610524578063f1b075ef14610588578063f2fde38b1461059b578063facd743b146105ae57600080fd5b8063c704babe146104d5578063dcd479e6146104de578063e27eef23146104f1578063ea2979ee1461051157600080fd5b80638da5cb5b116100de5780638da5cb5b1461048b57806396c4ca721461049c578063bdf8f103146104af578063bf9270b0146104c257600080fd5b80636a62a4c01461043d5780636c0fed24146104505780636ca8575514610470578063715018a61461048357600080fd5b80633c64f04b116101875780635d5f426d116101565780635d5f426d146103ec5780635ed1f963146103ff5780636201a6771461040757806368c4ac261461041a57600080fd5b80633c64f04b146102ce57806340a141ff146103a35780634d238c8e146103b6578063548d496f146103c957600080fd5b8063174e6832116101c3578063174e6832146102415780632093c15b146102545780632a4f16211461027857806335aa2e441461028d57600080fd5b80630f3799be146101ea5780630f43a6771461022257806310fbee2814610239575b600080fd5b61020d6101f83660046113b2565b60009081526008602052604090205442111590565b60405190151581526020015b60405180910390f35b61022b600b5481565b604051908152602001610219565b61022b600281565b61022b61024f3660046113e7565b6105d1565b610267610262366004611409565b610621565b60405161021995949392919061142b565b61028b6102863660046113e7565b6106e3565b005b6102b661029b3660046113b2565b6006602052600090815260409020546001600160a01b031681565b6040516001600160a01b039091168152602001610219565b6103416102dc3660046113b2565b600160208190526000918252604090912080549181015460028201546003830154600484015460058501546006860154600787015460088801546009909801546001600160a01b03978816989688169795969486169590931693919290919060ff168a565b604080519a8b526001600160a01b03998a1660208c0152978916978a019790975260608901959095529286166080880152941660a086015260c085019390935260e0840192909252610100830191909152151561012082015261014001610219565b61028b6103b13660046113e7565b61070f565b61028b6103c43660046113e7565b6107f0565b61020d6103d73660046113b2565b60046020526000908152604090205460ff1681565b61028b6103fa3660046113b2565b6108e0565b61022b600381565b61028b6104153660046114df565b610928565b61020d6104283660046113e7565b60056020526000908152604090205460ff1681565b61028b61044b3660046113e7565b610c14565b61022b61045e3660046113b2565b60036020526000908152604090205481565b600a546102b6906001600160a01b031681565b61028b610c3e565b6000546001600160a01b03166102b6565b61028b6104aa366004611532565b610c52565b61028b6104bd3660046113b2565b610d3c565b61022b6104d036600461157e565b610e39565b61022b610e1081565b61028b6104ec3660046113e7565b611191565b61022b6104ff3660046113b2565b60086020526000908152604090205481565b61028b61051f3660046113b2565b6111bb565b6105666105323660046113b2565b6000908152600160209081526040808320600881015460099091015460039093529220549115159260ff9091169190600290565b6040805194151585529215156020850152918301526060820152608001610219565b6009546102b6906001600160a01b031681565b61028b6105a93660046113e7565b611206565b61020d6105bc3660046113e7565b60076020526000908152604090205460ff1681565b600060015b600b548111610618576000818152600660205260409020546001600160a01b038085169116036106065792915050565b80610610816115d8565b9150506105d6565b50600092915050565b60026020908152600092835260408084209091529082529020805460018201805491929161064e906115f1565b80601f016020809104026020016040519081016040528092919081815260200182805461067a906115f1565b80156106c75780601f1061069c576101008083540402835291602001916106c7565b820191906000526020600020905b8154815290600101906020018083116106aa57829003601f168201915b5050505050908060020154908060030154908060040154905085565b6106eb611241565b6001600160a01b03166000908152600560205260409020805460ff19166001179055565b610717611241565b6001600160a01b03811660009081526007602052604090205460ff166107745760405162461bcd60e51b815260206004820152600d60248201526c2737ba103b30b634b230ba37b960991b60448201526064015b60405180910390fd5b6001600160a01b0381166000908152600760205260408120805460ff19169055600b8054916107a28361162b565b91905055506107b0816105d1565b6040516001600160a01b03831681527f7126bef88d1149ccdff9681ed5aecd3ba5ae70c96517551de250af09cebd1a0b906020015b60405180910390a250565b6107f8611241565b6001600160a01b03811660009081526007602052604090205460ff16156108555760405162461bcd60e51b815260206004820152601160248201527020b63932b0b23c903b30b634b230ba37b960791b604482015260640161076b565b600b8054906000610865836115d8565b9091555050600b8054600090815260066020908152604080832080546001600160a01b0319166001600160a01b0387169081179091558084526007835292819020805460ff19166001179055925492519182527f7429a06e9412e469f0d64f9d222640b0af359f556b709e2913588c227851b88d91016107e5565b6108e8611241565b600081815260046020526040808220805460ff191690555182917fe08f91ec8619571a39cbfb365381d99e9458bab131f0bed3e4eeb1a76d608a3691a250565b3360009081526007602052604090205460ff1661095a576040516380281c7960e01b815233600482015260240161076b565b61096261126e565b6000848152600160205260409020600981015460ff16156109995760405163846380d560e01b81526004810186905260240161076b565b6000828152600860205260409020544211156109cb57604051637c06448760e11b81526004810183905260240161076b565b60006109d6336105d1565b600087815260026020908152604080832084845290915290206004015490915015610a1e5760405163b17770b360e01b8152600481018790526024810182905260440161076b565b604080516020808201899052818301869052825180830384018152606083019384905280519101206009546359e410fb60e11b909352916001600160a01b03169063b3c821f690610a799084908a908a90339060640161166b565b602060405180830381865afa158015610a96573d6000803e3d6000fd5b505050506040513d601f19601f82011682018060405250810190610aba919061169e565b610ae157604051630ce8625b60e11b8152600481018890526024810183905260440161076b565b6040518060a0016040528088815260200187878080601f016020809104026020016040519081016040528093929190818152602001838380828437600092018290525093855250505060208083018890526040808401879052426060909401939093528a825260028152828220868352815291902082518155908201516001820190610b6d9082611725565b50604082015181600201556060820151816003015560808201518160040155905050600360008881526020019081526020016000206000815480929190610bb3906115d8565b909155505060408051858152426020820152839189917fcdcc0bfb0506c954f9d9cc31e7f010b28d519d401eac9fad226a8910a39fe330910160405180910390a3505050610c0e600160008051602061182b83398151915255565b50505050565b610c1c611241565b600980546001600160a01b0319166001600160a01b0392909216919091179055565b610c46611241565b610c50600061128a565b565b3360009081526007602052604090205460ff16610c84576040516380281c7960e01b815233600482015260240161076b565b600a54604051636edabd2b60e01b81526001600160a01b0390911690636edabd2b90610cb8908590859033906004016117e5565b602060405180830381865afa158015610cd5573d6000803e3d6000fd5b505050506040513d601f19601f82011682018060405250810190610cf9919061169e565b610d1957604051637c06448760e11b81526004810184905260240161076b565b610d25610e1042611811565b600093845260086020526040909320929092555050565b610d4461126e565b6000818152600160205260409020600981015460ff1615610d7b5760405163846380d560e01b81526004810183905260240161076b565b60008281526003602052604090205460021115610dae5760405163c82531a760e01b81526004810183905260240161076b565b60098101805460ff19166001179055600581015460038083015460008581526020928352604090819020548151928352928201929092526001600160a01b039092169184917f706d19a0419829f5b040af42eceaa508d974f5d02cd30b93ec3d2c9a02b95815910160405180910390a350610e36600160008051602061182b83398151915255565b50565b6000610e4361126e565b6001600160a01b038516600090815260056020526040902054859060ff16610e89576040516306439c6b60e01b81526001600160a01b038216600482015260240161076b565b600083815260046020526040902054839060ff16610ebd5760405163264e42cf60e01b81526004810182905260240161076b565b851580610ed157506001600160a01b038516155b15610eef57604051632f35253160e01b815260040160405180910390fd5b6040516bffffffffffffffffffffffff1933606090811b8216602084015289811b821660348401526048830189905287901b166068820152607c810185905242609c8201524460bc82015260009060dc0160408051601f1981840301815291905280516020909101209050610f6f6001600160a01b03891633308a6112da565b604051806101400160405280828152602001896001600160a01b0316815260200160006001600160a01b03168152602001888152602001336001600160a01b03168152602001876001600160a01b0316815260200146815260200186815260200142815260200160001515815250600160008381526020019081526020016000206000820151816000015560208201518160010160006101000a8154816001600160a01b0302191690836001600160a01b0316021790555060408201518160020160006101000a8154816001600160a01b0302191690836001600160a01b031602179055506060820151816003015560808201518160040160006101000a8154816001600160a01b0302191690836001600160a01b0316021790555060a08201518160050160006101000a8154816001600160a01b0302191690836001600160a01b0316021790555060c0820151816006015560e0820151816007015561010082015181600801556101208201518160090160006101000a81548160ff021916908315150217905550905050856001600160a01b0316336001600160a01b0316827f443062962fd8af89b585d9aea366f1a96e0417141a41713894aa626d3b5217148b8b468b60405161116694939291906001600160a01b0394909416845260208401929092526040830152606082015260800190565b60405180910390a492505050611189600160008051602061182b83398151915255565b949350505050565b611199611241565b600a80546001600160a01b0319166001600160a01b0392909216919091179055565b6111c3611241565b600081815260046020526040808220805460ff191660011790555182917f57186b2755d8bf6e82203d992be82e3f9be370e95c5362833d84c7abd94b430991a250565b61120e611241565b6001600160a01b03811661123857604051631e4fbdf760e01b81526000600482015260240161076b565b610e368161128a565b6000546001600160a01b03163314610c505760405163118cdaa760e01b815233600482015260240161076b565b611276611310565b600260008051602061182b83398151915255565b600080546001600160a01b038381166001600160a01b0319831681178455604051919092169283917f8be0079c531659141344cd1fd0a4f28419497f9722a3daafe3b4186f6b6457e09190a35050565b6112e8848484846001611340565b610c0e57604051635274afe760e01b81526001600160a01b038516600482015260240161076b565b60008051602061182b83398151915254600203610c5057604051633ee5aeb560e01b815260040160405180910390fd5b6040516323b872dd60e01b60008181526001600160a01b038781166004528616602452604485905291602083606481808c5af1925060016000511483166113a0578383151615611393573d6000823e3d81fd5b6000883b113d1516831692505b60405250600060605295945050505050565b6000602082840312156113c457600080fd5b5035919050565b80356001600160a01b03811681146113e257600080fd5b919050565b6000602082840312156113f957600080fd5b611402826113cb565b9392505050565b6000806040838503121561141c57600080fd5b50508035926020909101359150565b8581526000602060a08184015286518060a085015260005b8181101561145f5788810183015185820160c001528201611443565b50600060c0828601015260c0601f19601f830116850101925050508460408301528360608301528260808301529695505050505050565b60008083601f8401126114a857600080fd5b50813567ffffffffffffffff8111156114c057600080fd5b6020830191508360208285010111156114d857600080fd5b9250929050565b600080600080606085870312156114f557600080fd5b84359350602085013567ffffffffffffffff81111561151357600080fd5b61151f87828801611496565b9598909750949560400135949350505050565b60008060006040848603121561154757600080fd5b83359250602084013567ffffffffffffffff81111561156557600080fd5b61157186828701611496565b9497909650939450505050565b6000806000806080858703121561159457600080fd5b61159d856113cb565b9350602085013592506115b2604086016113cb565b9396929550929360600135925050565b634e487b7160e01b600052601160045260246000fd5b6000600182016115ea576115ea6115c2565b5060010190565b600181811c9082168061160557607f821691505b60208210810361162557634e487b7160e01b600052602260045260246000fd5b50919050565b60008161163a5761163a6115c2565b506000190190565b81835281816020850137506000828201602090810191909152601f909101601f19169091010190565b848152606060208201526000611685606083018587611642565b905060018060a01b038316604083015295945050505050565b6000602082840312156116b057600080fd5b8151801515811461140257600080fd5b634e487b7160e01b600052604160045260246000fd5b601f82111561172057600081815260208120601f850160051c810160208610156116fd5750805b601f850160051c820191505b8181101561171c57828155600101611709565b5050505b505050565b815167ffffffffffffffff81111561173f5761173f6116c0565b6117538161174d84546115f1565b846116d6565b602080601f83116001811461178857600084156117705750858301515b600019600386901b1c1916600185901b17855561171c565b600085815260208120601f198616915b828110156117b757888601518255948401946001909101908401611798565b50858210156117d55787850151600019600388901b60f8161c191681555b5050505050600190811b01905550565b6040815260006117f9604083018587611642565b905060018060a01b0383166020830152949350505050565b80820180821115611824576118246115c2565b9291505056fe9b779b17422d0df92223018b32b4d1fa46e071723d6817e2486d003becc55f00a264697066735822122046bb28114aa5c23fdfc9eb12dc9cba6d6dd162f13ae85f82ad2d3b34fe38e80164736f6c63430008140033",
  "linkReferences": {},
  "deployedLinkReferences": {}
}