{
  "_format": "hh-sol-artifact-1",
  "contractName": "QubitPayloadContract",
  "sourceName": "contracts/QubitPayloadContract.sol",
  "abi": [
    {
      "inputs": [],
      "name": "NoMessageFound",
      "type": "error"
    },
    {
      "inputs": [],
      "name": "NoPendingMessage",
      "type": "error"
    },
    {
      "anonymous": false,
      "inputs": [
        {
          "indexed": true,
          "internalType": "address",
          "name": "receiver",
          "type": "address"
        },
        {
          "indexed": true,
          "internalType": "address",
          "name": "sender",
          "type": "address"
        },
        {
          "indexed": false,
          "internalType": "TrimmedAmount",
          "name": "amount",
          "type": "uint64"
        },
        {
          "indexed": false,
          "internalType": "uint8",
          "name": "amlRiskScore",
          "type": "uint8"
        },
        {
          "indexed": false,
          "internalType": "string",
          "name": "businessData",
          "type": "string"
        },
        {
          "indexed": false,
          "internalType": "uint48",
          "name": "timestamp",
          "type": "uint48"
        }
      ],
      "name": "ReceivedReputationMessage",
      "type": "event"
    },
    {
      "inputs": [
        {
          "internalType": "address",
          "name": "",
          "type": "address"
        },
        {
          "internalType": "uint256",
          "name": "",
          "type": "uint256"
        }
      ],
      "name": "messages",
      "outputs": [
        {
          "internalType": "uint16",
          "name": "sourceChainId",
          "type": "uint16"
        },
        {
          "internalType": "uint16",
          "name": "targetChainId",
          "type": "uint16"
        },
        {
          "internalType": "address",
          "name": "sender",
          "type": "address"
        },
        {
          "internalType": "address",
          "name": "recipient",
          "type": "address"
        },
        {
          "internalType": "TrimmedAmount",
          "name": "amount",
          "type": "uint64"
        },
        {
          "internalType": "uint8",
          "name": "status",
          "type": "uint8"
        },
        {
          "internalType": "uint48",
          "name": "timestamp",
          "type": "uint48"
        },
        {
          "internalType": "uint8",
          "name": "amlRiskScore",
          "type": "uint8"
        },
        {
          "internalType": "string",
          "name": "businessData",
          "type": "string"
        }
      ],
      "stateMutability": "view",
      "type": "function"
    },
    {
      "inputs": [
        {
          "internalType": "bytes",
          "name": "payload",
          "type": "bytes"
        }
      ],
      "name": "receiveReputationMessage",
      "outputs": [],
      "stateMutability": "nonpayable",
      "type": "function"
    },
    {
      "inputs": [
        {
          "internalType": "uint16",
          "name": "sourceChainId",
          "type": "uint16"
        },
        {
          "internalType": "address",
          "name": "sender",
          "type": "address"
        },
        {
          "internalType": "TrimmedAmount",
          "name": "amount",
          "type": "uint64"
        },
        {
          "internalType": "uint16",
          "name": "targetChainId",
          "type": "uint16"
        },
        {
          "internalType": "address",
          "name": "recipient",
          "type": "address"
        }
      ],
      "name": "sendReputationMessage",
      "outputs": [
        {
          "internalType": "bytes",
          "name": "",
          "type": "bytes"
        }
      ],
      "stateMutability": "nonpayable",
      "type": "function"
    },
    {
      "inputs": [
        {
          "internalType": "uint8",
          "name": "_amlRiskScore",
          "type": "uint8"
        },
        {
          "internalType": "string",
          "name": "_businessData",
          "type": "string"
        }
      ],
      "name": "setReputationMessage",
      "outputs": [],
      "stateMutability": "nonpayable",
      "type": "function"
    }
  ],
  "bytecode": "0x608060405234801561000f575f80fd5b50610e758061001d5f395ff3fe608060405234801561000f575f80fd5b506004361061004a575f3560e01c8063aa29d4531461004e578063c45d9bea14610063578063c4ed360914610094578063cdfab1f6146100a7575b5f80fd5b61006161005c366004610783565b6100c7565b005b6100766100713660046107f6565b61021c565b60405161008b9998979695949392919061086d565b60405180910390f35b6100616100a23660046108ea565b61033c565b6100ba6100b5366004610959565b6104e6565b60405161008b91906109c6565b335f90815260208181526040808320815161012081018352848152808401858152928101858152606082018681526080830187815260a0840188815260c0850189815260ff8c811660e0880190815261010088018d8152895460018181018c559a8e529b909c2088516004909c020180549a5197516001600160a01b0390811664010000000002640100000000600160c01b031961ffff9a8b16620100000263ffffffff19909e169e909a169d909d179b909b17979097169a909a17865593519685018054935192518516600160e01b0260ff60e01b196001600160401b0394909416600160a01b026001600160e01b0319909516989099169790971792909217169590951790935592516002840180549551909316600160301b0266ffffffffffffff1990951665ffffffffffff9190911617939093179055915190919060038201906102159082610a60565b5050505050565b5f602052815f5260405f208181548110610234575f80fd5b5f918252602090912060049091020180546001820154600283015460038401805461ffff80861698506201000086041696506001600160a01b03640100000000909504851695948416946001600160401b03600160a01b8604169460ff600160e01b90910481169465ffffffffffff811694600160301b909104909116926102bb906109df565b80601f01602080910402602001604051908101604052809291908181526020018280546102e7906109df565b80156103325780601f1061030957610100808354040283529160200191610332565b820191905f5260205f20905b81548152906001019060200180831161031557829003601f168201915b5050505050905089565b5f818060200190518101906103519190610ba7565b6060810180516001600160a01b039081165f9081526020818152604080832080546001818101835591855293839020875160049095020180549388015192880151861664010000000002640100000000600160c01b031961ffff948516620100000263ffffffff199096169490961693909317939093179390931617815592519083018054608086015160a087015160ff908116600160e01b0260ff60e01b196001600160401b03909316600160a01b026001600160e01b0319909416959096169490941791909117169290921790915560c083015160028301805460e0860151909316600160301b0266ffffffffffffff1990931665ffffffffffff90921691909117919091179055610100820151919250829160038201906104759082610a60565b50505080604001516001600160a01b031681606001516001600160a01b03167f2ebb0b17e4cc038baca311169639871352f54e9e4ffccb3b9e178b3fca7bf35883608001518460e001518561010001518660c001516040516104da9493929190610c9b565b60405180910390a35050565b6001600160a01b0384165f90815260208190526040812080546060928190036105225760405163f2e425e160e01b815260040160405180910390fd5b5f8261052f600184610cde565b8154811061053f5761053f610d03565b5f91825260209091206004909102016001810154909150600160e01b900460ff161561057e576040516349b4442960e01b815260040160405180910390fd5b600181600101601c6101000a81548160ff021916908360ff16021790555088815f015f6101000a81548161ffff021916908361ffff16021790555085815f0160026101000a81548161ffff021916908361ffff16021790555087815f0160046101000a8154816001600160a01b0302191690836001600160a01b0316021790555084816001015f6101000a8154816001600160a01b0302191690836001600160a01b03160217905550868160010160146101000a8154816001600160401b0302191690836001600160401b0316021790555042816002015f6101000a81548165ffffffffffff021916908365ffffffffffff160217905550806040516020016106879190610d90565b604051602081830303815290604052935050505095945050505050565b60ff811681146106b2575f80fd5b50565b634e487b7160e01b5f52604160045260245ffd5b60405161012081016001600160401b03811182821017156106ec576106ec6106b5565b60405290565b604051601f8201601f191681016001600160401b038111828210171561071a5761071a6106b5565b604052919050565b5f6001600160401b0382111561073a5761073a6106b5565b50601f01601f191660200190565b5f61075a61075584610722565b6106f2565b905082815283838301111561076d575f80fd5b828260208301375f602084830101529392505050565b5f8060408385031215610794575f80fd5b823561079f816106a4565b915060208301356001600160401b038111156107b9575f80fd5b8301601f810185136107c9575f80fd5b6107d885823560208401610748565b9150509250929050565b6001600160a01b03811681146106b2575f80fd5b5f8060408385031215610807575f80fd5b8235610812816107e2565b946020939093013593505050565b5f5b8381101561083a578181015183820152602001610822565b50505f910152565b5f8151808452610859816020860160208601610820565b601f01601f19169290920160200192915050565b61ffff8a81168252891660208201526001600160a01b038881166040830152871660608201526001600160401b038616608082015260ff85811660a083015265ffffffffffff851660c0830152831660e082015261012061010082018190525f906108da83820185610842565b9c9b505050505050505050505050565b5f602082840312156108fa575f80fd5b81356001600160401b0381111561090f575f80fd5b8201601f8101841361091f575f80fd5b61092e84823560208401610748565b949350505050565b61ffff811681146106b2575f80fd5b6001600160401b03811681146106b2575f80fd5b5f805f805f60a0868803121561096d575f80fd5b853561097881610936565b94506020860135610988816107e2565b9350604086013561099881610945565b925060608601356109a881610936565b915060808601356109b8816107e2565b809150509295509295909350565b602081525f6109d86020830184610842565b9392505050565b600181811c908216806109f357607f821691505b602082108103610a1157634e487b7160e01b5f52602260045260245ffd5b50919050565b601f821115610a5b57805f5260205f20601f840160051c81016020851015610a3c5750805b601f840160051c820191505b81811015610215575f8155600101610a48565b505050565b81516001600160401b03811115610a7957610a796106b5565b610a8d81610a8784546109df565b84610a17565b602080601f831160018114610ac0575f8415610aa95750858301515b5f19600386901b1c1916600185901b178555610b17565b5f85815260208120601f198616915b82811015610aee57888601518255948401946001909101908401610acf565b5085821015610b0b57878501515f19600388901b60f8161c191681555b505060018460011b0185555b505050505050565b8051610b2a81610936565b919050565b8051610b2a816107e2565b8051610b2a81610945565b8051610b2a816106a4565b805165ffffffffffff81168114610b2a575f80fd5b5f82601f830112610b74575f80fd5b8151610b8261075582610722565b818152846020838601011115610b96575f80fd5b61092e826020830160208701610820565b5f60208284031215610bb7575f80fd5b81516001600160401b0380821115610bcd575f80fd5b908301906101208286031215610be1575f80fd5b610be96106c9565b610bf283610b1f565b8152610c0060208401610b1f565b6020820152610c1160408401610b2f565b6040820152610c2260608401610b2f565b6060820152610c3360808401610b3a565b6080820152610c4460a08401610b45565b60a0820152610c5560c08401610b50565b60c0820152610c6660e08401610b45565b60e08201526101008084015183811115610c7e575f80fd5b610c8a88828701610b65565b918301919091525095945050505050565b6001600160401b038516815260ff84166020820152608060408201525f610cc56080830185610842565b905065ffffffffffff8316606083015295945050505050565b81810381811115610cfd57634e487b7160e01b5f52601160045260245ffd5b92915050565b634e487b7160e01b5f52603260045260245ffd5b5f8154610d23816109df565b808552602060018381168015610d405760018114610d5a57610d85565b60ff1985168884015283151560051b880183019550610d85565b865f52825f205f5b85811015610d7d5781548a8201860152908301908401610d62565b890184019650505b505050505092915050565b602081525f825461ffff610dac6020850182841661ffff169052565b610dc160408501828460101c1661ffff169052565b5060201c6001600160a01b039081166060840152600184015490811660808401526001600160401b0360a082811c919091169084015260ff60e091821c811660c0850152600285015465ffffffffffff81169285019290925260309190911c16610100830152610120808301526109d8610140830160038501610d1756fea26469706673582212209fbeed53595f69f51003354fd173b9b5acf99752ce28342c19b8ab5a289d218a64736f6c63430008180033",
  "linkReferences": {},
  "deployedLinkReferences": {}
}