{"abi":[{"type":"constructor","inputs":[],"stateMutability":"nonpayable"},{"type":"function","name":"DOMAIN_SEPARATOR","inputs":[],"outputs":[{"name":"","type":"bytes32","internalType":"bytes32"}],"stateMutability":"view"},{"type":"function","name":"UPGRADE_INTERFACE_VERSION","inputs":[],"outputs":[{"name":"","type":"string","internalType":"string"}],"stateMutability":"view"},{"type":"function","name":"allowance","inputs":[{"name":"owner","type":"address","internalType":"address"},{"name":"spender","type":"address","internalType":"address"}],"outputs":[{"name":"","type":"uint256","internalType":"uint256"}],"stateMutability":"view"},{"type":"function","name":"approve","inputs":[{"name":"spender","type":"address","internalType":"address"},{"name":"value","type":"uint256","internalType":"uint256"}],"outputs":[{"name":"","type":"bool","internalType":"bool"}],"stateMutability":"nonpayable"},{"type":"function","name":"balanceOf","inputs":[{"name":"account","type":"address","internalType":"address"}],"outputs":[{"name":"","type":"uint256","internalType":"uint256"}],"stateMutability":"view"},{"type":"function","name":"blocklist","inputs":[{"name":"account","type":"address","internalType":"address"}],"outputs":[],"stateMutability":"nonpayable"},{"type":"function","name":"burn","inputs":[{"name":"value","type":"uint256","internalType":"uint256"}],"outputs":[],"stateMutability":"nonpayable"},{"type":"function","name":"burn","inputs":[{"name":"account","type":"address","internalType":"address"},{"name":"amount","type":"uint256","internalType":"uint256"}],"outputs":[],"stateMutability":"nonpayable"},{"type":"function","name":"burnFrom","inputs":[{"name":"account","type":"address","internalType":"address"},{"name":"value","type":"uint256","internalType":"uint256"}],"outputs":[],"stateMutability":"nonpayable"},{"type":"function","name":"decimals","inputs":[],"outputs":[{"name":"","type":"uint8","internalType":"uint8"}],"stateMutability":"view"},{"type":"function","name":"eip712Domain","inputs":[],"outputs":[{"name":"fields","type":"bytes1","internalType":"bytes1"},{"name":"name","type":"string","internalType":"string"},{"name":"version","type":"string","internalType":"string"},{"name":"chainId","type":"uint256","internalType":"uint256"},{"name":"verifyingContract","type":"address","internalType":"address"},{"name":"salt","type":"bytes32","internalType":"bytes32"},{"name":"extensions","type":"uint256[]","internalType":"uint256[]"}],"stateMutability":"view"},{"type":"function","name":"initialize","inputs":[{"name":"initialOwner","type":"address","internalType":"address"},{"name":"initialReserveManager","type":"address","internalType":"address"}],"outputs":[],"stateMutability":"nonpayable"},{"type":"function","name":"isBlocklisted","inputs":[{"name":"account","type":"address","internalType":"address"}],"outputs":[{"name":"","type":"bool","internalType":"bool"}],"stateMutability":"view"},{"type":"function","name":"mint","inputs":[{"name":"account","type":"address","internalType":"address"},{"name":"amount","type":"uint256","internalType":"uint256"}],"outputs":[],"stateMutability":"nonpayable"},{"type":"function","name":"name","inputs":[],"outputs":[{"name":"","type":"string","internalType":"string"}],"stateMutability":"view"},{"type":"function","name":"nonces","inputs":[{"name":"owner","type":"address","internalType":"address"}],"outputs":[{"name":"","type":"uint256","internalType":"uint256"}],"stateMutability":"view"},{"type":"function","name":"nttManager","inputs":[],"outputs":[{"name":"","type":"address","internalType":"address"}],"stateMutability":"view"},{"type":"function","name":"owner","inputs":[],"outputs":[{"name":"","type":"address","internalType":"address"}],"stateMutability":"view"},{"type":"function","name":"pause","inputs":[],"outputs":[],"stateMutability":"nonpayable"},{"type":"function","name":"paused","inputs":[],"outputs":[{"name":"","type":"bool","internalType":"bool"}],"stateMutability":"view"},{"type":"function","name":"permit","inputs":[{"name":"owner","type":"address","internalType":"address"},{"name":"spender","type":"address","internalType":"address"},{"name":"value","type":"uint256","internalType":"uint256"},{"name":"deadline","type":"uint256","internalType":"uint256"},{"name":"v","type":"uint8","internalType":"uint8"},{"name":"r","type":"bytes32","internalType":"bytes32"},{"name":"s","type":"bytes32","internalType":"bytes32"}],"outputs":[],"stateMutability":"nonpayable"},{"type":"function","name":"proxiableUUID","inputs":[],"outputs":[{"name":"","type":"bytes32","internalType":"bytes32"}],"stateMutability":"view"},{"type":"function","name":"renounceOwnership","inputs":[],"outputs":[],"stateMutability":"nonpayable"},{"type":"function","name":"reserveManager","inputs":[],"outputs":[{"name":"","type":"address","internalType":"address"}],"stateMutability":"view"},{"type":"function","name":"setMinter","inputs":[{"name":"newNttManager","type":"address","internalType":"address"}],"outputs":[],"stateMutability":"nonpayable"},{"type":"function","name":"setReserveManager","inputs":[{"name":"newReserveManager","type":"address","internalType":"address"}],"outputs":[],"stateMutability":"nonpayable"},{"type":"function","name":"symbol","inputs":[],"outputs":[{"name":"","type":"string","internalType":"string"}],"stateMutability":"view"},{"type":"function","name":"totalSupply","inputs":[],"outputs":[{"name":"","type":"uint256","internalType":"uint256"}],"stateMutability":"view"},{"type":"function","name":"transfer","inputs":[{"name":"to","type":"address","internalType":"address"},{"name":"value","type":"uint256","internalType":"uint256"}],"outputs":[{"name":"","type":"bool","internalType":"bool"}],"stateMutability":"nonpayable"},{"type":"function","name":"transferFrom","inputs":[{"name":"from","type":"address","internalType":"address"},{"name":"to","type":"address","internalType":"address"},{"name":"value","type":"uint256","internalType":"uint256"}],"outputs":[{"name":"","type":"bool","internalType":"bool"}],"stateMutability":"nonpayable"},{"type":"function","name":"transferOwnership","inputs":[{"name":"newOwner","type":"address","internalType":"address"}],"outputs":[],"stateMutability":"nonpayable"},{"type":"function","name":"transferWithMemo","inputs":[{"name":"to","type":"address","internalType":"address"},{"name":"amount","type":"uint256","internalType":"uint256"},{"name":"memo","type":"bytes32","internalType":"bytes32"}],"outputs":[{"name":"","type":"bool","internalType":"bool"}],"stateMutability":"nonpayable"},{"type":"function","name":"unblocklist","inputs":[{"name":"account","type":"address","internalType":"address"}],"outputs":[],"stateMutability":"nonpayable"},{"type":"function","name":"unpause","inputs":[],"outputs":[],"stateMutability":"nonpayable"},{"type":"function","name":"upgradeToAndCall","inputs":[{"name":"newImplementation","type":"address","internalType":"address"},{"name":"data","type":"bytes","internalType":"bytes"}],"outputs":[],"stateMutability":"payable"},{"type":"event","name":"Approval","inputs":[{"name":"owner","type":"address","indexed":true,"internalType":"address"},{"name":"spender","type":"address","indexed":true,"internalType":"address"},{"name":"value","type":"uint256","indexed":false,"internalType":"uint256"}],"anonymous":false},{"type":"event","name":"BlocklistStatusUpdated","inputs":[{"name":"account","type":"address","indexed":true,"internalType":"address"},{"name":"blocklisted","type":"bool","indexed":false,"internalType":"bool"}],"anonymous":false},{"type":"event","name":"EIP712DomainChanged","inputs":[],"anonymous":false},{"type":"event","name":"Initialized","inputs":[{"name":"version","type":"uint64","indexed":false,"internalType":"uint64"}],"anonymous":false},{"type":"event","name":"Memo","inputs":[{"name":"memo","type":"bytes32","indexed":true,"internalType":"bytes32"}],"anonymous":false},{"type":"event","name":"NewNttManager","inputs":[{"name":"nttManager","type":"address","indexed":false,"internalType":"address"}],"anonymous":false},{"type":"event","name":"NewReserveManager","inputs":[{"name":"reserveManager","type":"address","indexed":false,"internalType":"address"}],"anonymous":false},{"type":"event","name":"OwnershipTransferred","inputs":[{"name":"previousOwner","type":"address","indexed":true,"internalType":"address"},{"name":"newOwner","type":"address","indexed":true,"internalType":"address"}],"anonymous":false},{"type":"event","name":"Paused","inputs":[{"name":"account","type":"address","indexed":false,"internalType":"address"}],"anonymous":false},{"type":"event","name":"Transfer","inputs":[{"name":"from","type":"address","indexed":true,"internalType":"address"},{"name":"to","type":"address","indexed":true,"internalType":"address"},{"name":"value","type":"uint256","indexed":false,"internalType":"uint256"}],"anonymous":false},{"type":"event","name":"Unpaused","inputs":[{"name":"account","type":"address","indexed":false,"internalType":"address"}],"anonymous":false},{"type":"event","name":"Upgraded","inputs":[{"name":"implementation","type":"address","indexed":true,"internalType":"address"}],"anonymous":false},{"type":"error","name":"AddressBlocklisted","inputs":[{"name":"account","type":"address","internalType":"address"}]},{"type":"error","name":"AddressEmptyCode","inputs":[{"name":"target","type":"address","internalType":"address"}]},{"type":"error","name":"CallerNotMinterOrReserveManager","inputs":[{"name":"caller","type":"address","internalType":"address"}]},{"type":"error","name":"ECDSAInvalidSignature","inputs":[]},{"type":"error","name":"ECDSAInvalidSignatureLength","inputs":[{"name":"length","type":"uint256","internalType":"uint256"}]},{"type":"error","name":"ECDSAInvalidSignatureS","inputs":[{"name":"s","type":"bytes32","internalType":"bytes32"}]},{"type":"error","name":"ERC1967InvalidImplementation","inputs":[{"name":"implementation","type":"address","internalType":"address"}]},{"type":"error","name":"ERC1967NonPayable","inputs":[]},{"type":"error","name":"ERC20InsufficientAllowance","inputs":[{"name":"spender","type":"address","internalType":"address"},{"name":"allowance","type":"uint256","internalType":"uint256"},{"name":"needed","type":"uint256","internalType":"uint256"}]},{"type":"error","name":"ERC20InsufficientBalance","inputs":[{"name":"sender","type":"address","internalType":"address"},{"name":"balance","type":"uint256","internalType":"uint256"},{"name":"needed","type":"uint256","internalType":"uint256"}]},{"type":"error","name":"ERC20InvalidApprover","inputs":[{"name":"approver","type":"address","internalType":"address"}]},{"type":"error","name":"ERC20InvalidReceiver","inputs":[{"name":"receiver","type":"address","internalType":"address"}]},{"type":"error","name":"ERC20InvalidSender","inputs":[{"name":"sender","type":"address","internalType":"address"}]},{"type":"error","name":"ERC20InvalidSpender","inputs":[{"name":"spender","type":"address","internalType":"address"}]},{"type":"error","name":"ERC2612ExpiredSignature","inputs":[{"name":"deadline","type":"uint256","internalType":"uint256"}]},{"type":"error","name":"ERC2612InvalidSigner","inputs":[{"name":"signer","type":"address","internalType":"address"},{"name":"owner","type":"address","internalType":"address"}]},{"type":"error","name":"EnforcedPause","inputs":[]},{"type":"error","name":"ExpectedPause","inputs":[]},{"type":"error","name":"FailedCall","inputs":[]},{"type":"error","name":"InvalidAccountNonce","inputs":[{"name":"account","type":"address","internalType":"address"},{"name":"currentNonce","type":"uint256","internalType":"uint256"}]},{"type":"error","name":"InvalidInitialization","inputs":[]},{"type":"error","name":"InvalidZeroAddress","inputs":[]},{"type":"error","name":"NotInitializing","inputs":[]},{"type":"error","name":"OwnableInvalidOwner","inputs":[{"name":"owner","type":"address","internalType":"address"}]},{"type":"error","name":"OwnableUnauthorizedAccount","inputs":[{"name":"account","type":"address","internalType":"address"}]},{"type":"error","name":"UUPSUnauthorizedCallContext","inputs":[]},{"type":"error","name":"UUPSUnsupportedProxiableUUID","inputs":[{"name":"slot","type":"bytes32","internalType":"bytes32"}]}],"bytecode":{"object":"0x60a06040523073ffffffffffffffffffffffffffffffffffffffff1660809073ffffffffffffffffffffffffffffffffffffffff16815250348015610042575f5ffd5b5061005161005660201b60201c565b6101d1565b5f61006561015460201b60201c565b9050805f0160089054906101000a900460ff16156100af576040517ff92ee8a900000000000000000000000000000000000000000000000000000000815260040160405180910390fd5b67ffffffffffffffff8016815f015f9054906101000a900467ffffffffffffffff1667ffffffffffffffff16146101515767ffffffffffffffff815f015f6101000a81548167ffffffffffffffff021916908367ffffffffffffffff1602179055507fc7f505b2f371ae2175ee4913f4499e1f2633a7b5936321eed1cdaeb6115181d267ffffffffffffffff60405161014891906101b8565b60405180910390a15b50565b5f5f61016461016d60201b60201c565b90508091505090565b5f7ff0c57e16840df040f15088dc2f81fe391c3923bec73e23a9662efc9c229c6a005f1b905090565b5f67ffffffffffffffff82169050919050565b6101b281610196565b82525050565b5f6020820190506101cb5f8301846101a9565b92915050565b608051613e856101f75f395f8181611d0501528181611d5a0152611f140152613e855ff3fe608060405260043610610203575f3560e01c80637ecebe0011610117578063ad3cb1cc1161009f578063dd62ed3e1161006e578063dd62ed3e1461071f578063df7da7541461075b578063e5c7160b14610783578063f2fde38b146107ab578063fca3b5aa146107d357610203565b8063ad3cb1cc1461067b578063ae0905ef146106a5578063bb004abc146106cd578063d505accf146106f757610203565b80638e204c43116100e65780638e204c431461057557806395777d59146105b157806395d89b41146105ed5780639dc29fac14610617578063a9059cbb1461063f57610203565b80637ecebe00146104c95780638456cb591461050557806384b0196e1461051b5780638da5cb5b1461054b57610203565b806340c10f191161019a57806352d1902d1161016957806352d1902d146103fb5780635c975abb1461042557806370a082311461044f578063715018a61461048b57806379cc6790146104a157610203565b806340c10f191461036757806342966c681461038f578063485cc955146103b75780634f1ef286146103df57610203565b806324fb21db116101d657806324fb21db146102d3578063313ce567146102fd5780633644e515146103275780633f4ba83a1461035157610203565b806306fdde0314610207578063095ea7b31461023157806318160ddd1461026d57806323b872dd14610297575b5f5ffd5b348015610212575f5ffd5b5061021b6107fb565b60405161022891906131f0565b60405180910390f35b34801561023c575f5ffd5b50610257600480360381019061025291906132ae565b610899565b6040516102649190613306565b60405180910390f35b348015610278575f5ffd5b506102816108bb565b60405161028e919061332e565b60405180910390f35b3480156102a2575f5ffd5b506102bd60048036038101906102b89190613347565b6108d2565b6040516102ca9190613306565b60405180910390f35b3480156102de575f5ffd5b506102e7610900565b6040516102f491906133a6565b60405180910390f35b348015610308575f5ffd5b50610311610924565b60405161031e91906133da565b60405180910390f35b348015610332575f5ffd5b5061033b61092c565b604051610348919061340b565b60405180910390f35b34801561035c575f5ffd5b5061036561093a565b005b348015610372575f5ffd5b5061038d600480360381019061038891906132ae565b61094c565b005b34801561039a575f5ffd5b506103b560048036038101906103b09190613424565b610b12565b005b3480156103c2575f5ffd5b506103dd60048036038101906103d8919061344f565b610b26565b005b6103f960048036038101906103f491906135b9565b610daa565b005b348015610406575f5ffd5b5061040f610dc9565b60405161041c919061340b565b60405180910390f35b348015610430575f5ffd5b50610439610dfa565b6040516104469190613306565b60405180910390f35b34801561045a575f5ffd5b5061047560048036038101906104709190613613565b610e1c565b604051610482919061332e565b60405180910390f35b348015610496575f5ffd5b5061049f610e6f565b005b3480156104ac575f5ffd5b506104c760048036038101906104c291906132ae565b610e82565b005b3480156104d4575f5ffd5b506104ef60048036038101906104ea9190613613565b610ea2565b6040516104fc919061332e565b60405180910390f35b348015610510575f5ffd5b50610519610eb3565b005b348015610526575f5ffd5b5061052f610ec5565b604051610542979695949392919061372f565b60405180910390f35b348015610556575f5ffd5b5061055f610f6a565b60405161056c91906133a6565b60405180910390f35b348015610580575f5ffd5b5061059b60048036038101906105969190613613565b610f9f565b6040516105a89190613306565b60405180910390f35b3480156105bc575f5ffd5b506105d760048036038101906105d291906137db565b610ff1565b6040516105e49190613306565b60405180910390f35b3480156105f8575f5ffd5b5061060161103e565b60405161060e91906131f0565b60405180910390f35b348015610622575f5ffd5b5061063d600480360381019061063891906132ae565b6110dc565b005b34801561064a575f5ffd5b50610665600480360381019061066091906132ae565b6112a2565b6040516106729190613306565b60405180910390f35b348015610686575f5ffd5b5061068f6112c4565b60405161069c91906131f0565b60405180910390f35b3480156106b0575f5ffd5b506106cb60048036038101906106c69190613613565b6112fd565b005b3480156106d8575f5ffd5b506106e16113aa565b6040516106ee91906133a6565b60405180910390f35b348015610702575f5ffd5b5061071d60048036038101906107189190613855565b6113cf565b005b34801561072a575f5ffd5b506107456004803603810190610740919061344f565b611514565b604051610752919061332e565b60405180910390f35b348015610766575f5ffd5b50610781600480360381019061077c9190613613565b6115a4565b005b34801561078e575f5ffd5b506107a960048036038101906107a49190613613565b61168b565b005b3480156107b6575f5ffd5b506107d160048036038101906107cc9190613613565b61173a565b005b3480156107de575f5ffd5b506107f960048036038101906107f49190613613565b6117be565b005b60605f6108066118a4565b90508060030180546108179061391f565b80601f01602080910402602001604051908101604052809291908181526020018280546108439061391f565b801561088e5780601f106108655761010080835404028352916020019161088e565b820191905f5260205f20905b81548152906001019060200180831161087157829003601f168201915b505050505091505090565b5f5f6108a36118cb565b90506108b08185856118d2565b600191505092915050565b5f5f6108c56118a4565b9050806002015491505090565b5f5f6108dc6118cb565b90506108e98582856118e4565b6108f4858585611977565b60019150509392505050565b5f5f9054906101000a900473ffffffffffffffffffffffffffffffffffffffff1681565b5f6012905090565b5f610935611a67565b905090565b610942611a75565b61094a611afc565b565b5f5f9054906101000a900473ffffffffffffffffffffffffffffffffffffffff1673ffffffffffffffffffffffffffffffffffffffff163373ffffffffffffffffffffffffffffffffffffffff16141580156109f5575060015f9054906101000a900473ffffffffffffffffffffffffffffffffffffffff1673ffffffffffffffffffffffffffffffffffffffff163373ffffffffffffffffffffffffffffffffffffffff1614155b8015610a345750610a04610f6a565b73ffffffffffffffffffffffffffffffffffffffff163373ffffffffffffffffffffffffffffffffffffffff1614155b15610a7657336040517fc43e497a000000000000000000000000000000000000000000000000000000008152600401610a6d91906133a6565b60405180910390fd5b8160025f8273ffffffffffffffffffffffffffffffffffffffff1673ffffffffffffffffffffffffffffffffffffffff1681526020019081526020015f205f9054906101000a900460ff1615610b0357806040517fdb9ecf68000000000000000000000000000000000000000000000000000000008152600401610afa91906133a6565b60405180910390fd5b610b0d8383611b6a565b505050565b610b23610b1d6118cb565b82611be9565b50565b5f610b2f611c68565b90505f815f0160089054906101000a900460ff161590505f825f015f9054906101000a900467ffffffffffffffff1690505f5f8267ffffffffffffffff16148015610b775750825b90505f60018367ffffffffffffffff16148015610baa57505f3073ffffffffffffffffffffffffffffffffffffffff163b145b905081158015610bb8575080155b15610bef576040517ff92ee8a900000000000000000000000000000000000000000000000000000000815260040160405180910390fd5b6001855f015f6101000a81548167ffffffffffffffff021916908367ffffffffffffffff1602179055508315610c3c576001855f0160086101000a81548160ff0219169083151502179055505b610cb06040518060400160405280600b81526020017f5175616e74756d436f696e0000000000000000000000000000000000000000008152506040518060400160405280600381526020017f5142430000000000000000000000000000000000000000000000000000000000815250611c7b565b610cb8611c91565b610cc0611c9b565b610cfe6040518060400160405280600b81526020017f5175616e74756d436f696e000000000000000000000000000000000000000000815250611ca5565b610d0787611cef565b8560015f6101000a81548173ffffffffffffffffffffffffffffffffffffffff021916908373ffffffffffffffffffffffffffffffffffffffff1602179055508315610da1575f855f0160086101000a81548160ff0219169083151502179055507fc7f505b2f371ae2175ee4913f4499e1f2633a7b5936321eed1cdaeb6115181d26001604051610d9891906139a4565b60405180910390a15b50505050505050565b610db2611d03565b610dbb82611de9565b610dc58282611df4565b5050565b5f610dd2611f12565b7f360894a13ba1a3210667c828492db98dca3e2076cc3735a920a3ca505d382bbc5f1b905090565b5f5f610e04611f99565b9050805f015f9054906101000a900460ff1691505090565b5f5f610e266118a4565b9050805f015f8473ffffffffffffffffffffffffffffffffffffffff1673ffffffffffffffffffffffffffffffffffffffff1681526020019081526020015f2054915050919050565b610e77611a75565b610e805f611fc0565b565b610e9482610e8e6118cb565b836118e4565b610e9e8282611be9565b5050565b5f610eac82612091565b9050919050565b610ebb611a75565b610ec36120e4565b565b5f6060805f5f5f6060610ed6612153565b610ede6121f1565b46305f5f1b5f67ffffffffffffffff811115610efd57610efc613495565b5b604051908082528060200260200182016040528015610f2b5781602001602082028036833780820191505090505b507f0f00000000000000000000000000000000000000000000000000000000000000959493929190965096509650965096509650965090919293949596565b5f5f610f7461228f565b9050805f015f9054906101000a900473ffffffffffffffffffffffffffffffffffffffff1691505090565b5f60025f8373ffffffffffffffffffffffffffffffffffffffff1673ffffffffffffffffffffffffffffffffffffffff1681526020019081526020015f205f9054906101000a900460ff169050919050565b5f5f610ffd85856112a2565b9050801561103357827f8751b2deae6b931d081b852087a006c58bdee395b751d53f0f60993af9ec8f6f60405160405180910390a25b809150509392505050565b60605f6110496118a4565b905080600401805461105a9061391f565b80601f01602080910402602001604051908101604052809291908181526020018280546110869061391f565b80156110d15780601f106110a8576101008083540402835291602001916110d1565b820191905f5260205f20905b8154815290600101906020018083116110b457829003601f168201915b505050505091505090565b5f5f9054906101000a900473ffffffffffffffffffffffffffffffffffffffff1673ffffffffffffffffffffffffffffffffffffffff163373ffffffffffffffffffffffffffffffffffffffff1614158015611185575060015f9054906101000a900473ffffffffffffffffffffffffffffffffffffffff1673ffffffffffffffffffffffffffffffffffffffff163373ffffffffffffffffffffffffffffffffffffffff1614155b80156111c45750611194610f6a565b73ffffffffffffffffffffffffffffffffffffffff163373ffffffffffffffffffffffffffffffffffffffff1614155b1561120657336040517fc43e497a0000000000000000000000000000000000000000000000000000000081526004016111fd91906133a6565b60405180910390fd5b8160025f8273ffffffffffffffffffffffffffffffffffffffff1673ffffffffffffffffffffffffffffffffffffffff1681526020019081526020015f205f9054906101000a900460ff161561129357806040517fdb9ecf6800000000000000000000000000000000000000000000000000000000815260040161128a91906133a6565b60405180910390fd5b61129d8383611be9565b505050565b5f5f6112ac6118cb565b90506112b9818585611977565b600191505092915050565b6040518060400160405280600581526020017f352e302e3000000000000000000000000000000000000000000000000000000081525081565b611305611a75565b5f60025f8373ffffffffffffffffffffffffffffffffffffffff1673ffffffffffffffffffffffffffffffffffffffff1681526020019081526020015f205f6101000a81548160ff0219169083151502179055508073ffffffffffffffffffffffffffffffffffffffff167f285d30726c52fa6d937c831072c13afa1e31b5ec0c0c2c7ed72f48b59fa95e605f60405161139f9190613306565b60405180910390a250565b60015f9054906101000a900473ffffffffffffffffffffffffffffffffffffffff1681565b8342111561141457836040517f6279130200000000000000000000000000000000000000000000000000000000815260040161140b919061332e565b60405180910390fd5b5f7f6e71edae12b1b97f4d1f60370fef10105fa2faae0126114a169c64845d6126c98888886114428c6122b6565b89604051602001611458969594939291906139bd565b6040516020818303038152906040528051906020012090505f61147a82612316565b90505f6114898287878761232f565b90508973ffffffffffffffffffffffffffffffffffffffff168173ffffffffffffffffffffffffffffffffffffffff16146114fd57808a6040517f4b800e460000000000000000000000000000000000000000000000000000000081526004016114f4929190613a1c565b60405180910390fd5b6115088a8a8a6118d2565b50505050505050505050565b5f5f61151e6118a4565b9050806001015f8573ffffffffffffffffffffffffffffffffffffffff1673ffffffffffffffffffffffffffffffffffffffff1681526020019081526020015f205f8473ffffffffffffffffffffffffffffffffffffffff1673ffffffffffffffffffffffffffffffffffffffff1681526020019081526020015f205491505092915050565b6115ac611a75565b5f73ffffffffffffffffffffffffffffffffffffffff168173ffffffffffffffffffffffffffffffffffffffff1603611611576040517ff6b2911f00000000000000000000000000000000000000000000000000000000815260040160405180910390fd5b8060015f6101000a81548173ffffffffffffffffffffffffffffffffffffffff021916908373ffffffffffffffffffffffffffffffffffffffff1602179055507f2e435ba5b382a86d185a3fc42e5a5f5a0d3e3371d63b354027ee0a68181693fd8160405161168091906133a6565b60405180910390a150565b611693611a75565b600160025f8373ffffffffffffffffffffffffffffffffffffffff1673ffffffffffffffffffffffffffffffffffffffff1681526020019081526020015f205f6101000a81548160ff0219169083151502179055508073ffffffffffffffffffffffffffffffffffffffff167f285d30726c52fa6d937c831072c13afa1e31b5ec0c0c2c7ed72f48b59fa95e60600160405161172f9190613306565b60405180910390a250565b611742611a75565b5f73ffffffffffffffffffffffffffffffffffffffff168173ffffffffffffffffffffffffffffffffffffffff16036117b2575f6040517f1e4fbdf70000000000000000000000000000000000000000000000000000000081526004016117a991906133a6565b60405180910390fd5b6117bb81611fc0565b50565b6117c6611a75565b5f73ffffffffffffffffffffffffffffffffffffffff168173ffffffffffffffffffffffffffffffffffffffff160361182b576040517ff6b2911f00000000000000000000000000000000000000000000000000000000815260040160405180910390fd5b805f5f6101000a81548173ffffffffffffffffffffffffffffffffffffffff021916908373ffffffffffffffffffffffffffffffffffffffff1602179055507fb928f86cbc52bff95b684109790c5413e8a778b9ba8936806f6e26351e495e9f8160405161189991906133a6565b60405180910390a150565b5f7f52c63247e1f47db19d5ce0460030c497f067ca4cebf71ba98eeadabe20bace00905090565b5f33905090565b6118df838383600161235d565b505050565b5f6118ef8484611514565b90507fffffffffffffffffffffffffffffffffffffffffffffffffffffffffffffffff8110156119715781811015611962578281836040517ffb8f41b200000000000000000000000000000000000000000000000000000000815260040161195993929190613a43565b60405180910390fd5b61197084848484035f61235d565b5b50505050565b5f73ffffffffffffffffffffffffffffffffffffffff168373ffffffffffffffffffffffffffffffffffffffff16036119e7575f6040517f96c6fd1e0000000000000000000000000000000000000000000000000000000081526004016119de91906133a6565b60405180910390fd5b5f73ffffffffffffffffffffffffffffffffffffffff168273ffffffffffffffffffffffffffffffffffffffff1603611a57575f6040517fec442f05000000000000000000000000000000000000000000000000000000008152600401611a4e91906133a6565b60405180910390fd5b611a6283838361253a565b505050565b5f611a706126ca565b905090565b611a7d6118cb565b73ffffffffffffffffffffffffffffffffffffffff16611a9b610f6a565b73ffffffffffffffffffffffffffffffffffffffff1614611afa57611abe6118cb565b6040517f118cdaa7000000000000000000000000000000000000000000000000000000008152600401611af191906133a6565b60405180910390fd5b565b611b0461272d565b5f611b0d611f99565b90505f815f015f6101000a81548160ff0219169083151502179055507f5db9ee0a495bf2e6ff9c91a7834c1ba4fdd244a5e8aa4e537bd38aeae4b073aa611b526118cb565b604051611b5f91906133a6565b60405180910390a150565b5f73ffffffffffffffffffffffffffffffffffffffff168273ffffffffffffffffffffffffffffffffffffffff1603611bda575f6040517fec442f05000000000000000000000000000000000000000000000000000000008152600401611bd191906133a6565b60405180910390fd5b611be55f838361253a565b5050565b5f73ffffffffffffffffffffffffffffffffffffffff168273ffffffffffffffffffffffffffffffffffffffff1603611c59575f6040517f96c6fd1e000000000000000000000000000000000000000000000000000000008152600401611c5091906133a6565b60405180910390fd5b611c64825f8361253a565b5050565b5f5f611c7261276d565b90508091505090565b611c83612796565b611c8d82826127d6565b5050565b611c99612796565b565b611ca3612796565b565b611cad612796565b611cec816040518060400160405280600181526020017f3100000000000000000000000000000000000000000000000000000000000000815250612812565b50565b611cf7612796565b611d008161284e565b50565b7f000000000000000000000000000000000000000000000000000000000000000073ffffffffffffffffffffffffffffffffffffffff163073ffffffffffffffffffffffffffffffffffffffff161480611db057507f000000000000000000000000000000000000000000000000000000000000000073ffffffffffffffffffffffffffffffffffffffff16611d976128d2565b73ffffffffffffffffffffffffffffffffffffffff1614155b15611de7576040517fe07c8dba00000000000000000000000000000000000000000000000000000000815260040160405180910390fd5b565b611df1611a75565b50565b8173ffffffffffffffffffffffffffffffffffffffff166352d1902d6040518163ffffffff1660e01b8152600401602060405180830381865afa925050508015611e5c57506040513d601f19601f82011682018060405250810190611e599190613a8c565b60015b611e9d57816040517f4c9c8ce3000000000000000000000000000000000000000000000000000000008152600401611e9491906133a6565b60405180910390fd5b7f360894a13ba1a3210667c828492db98dca3e2076cc3735a920a3ca505d382bbc5f1b8114611f0357806040517faa1d49a4000000000000000000000000000000000000000000000000000000008152600401611efa919061340b565b60405180910390fd5b611f0d8383612925565b505050565b7f000000000000000000000000000000000000000000000000000000000000000073ffffffffffffffffffffffffffffffffffffffff163073ffffffffffffffffffffffffffffffffffffffff1614611f97576040517fe07c8dba00000000000000000000000000000000000000000000000000000000815260040160405180910390fd5b565b5f7fcd5ed15c6e187e77e9aee88184c21f4f2182ab5827cb3b7e07fbedcd63f03300905090565b5f611fc961228f565b90505f815f015f9054906101000a900473ffffffffffffffffffffffffffffffffffffffff16905082825f015f6101000a81548173ffffffffffffffffffffffffffffffffffffffff021916908373ffffffffffffffffffffffffffffffffffffffff1602179055508273ffffffffffffffffffffffffffffffffffffffff168173ffffffffffffffffffffffffffffffffffffffff167f8be0079c531659141344cd1fd0a4f28419497f9722a3daafe3b4186f6b6457e060405160405180910390a3505050565b5f5f61209b612997565b9050805f015f8473ffffffffffffffffffffffffffffffffffffffff1673ffffffffffffffffffffffffffffffffffffffff1681526020019081526020015f2054915050919050565b6120ec6129be565b5f6120f5611f99565b90506001815f015f6101000a81548160ff0219169083151502179055507f62e78cea01bee320cd4e420270b5ea74000d11b0c9f74754ebdbfc544b05a25861213b6118cb565b60405161214891906133a6565b60405180910390a150565b60605f61215e6129ff565b905080600201805461216f9061391f565b80601f016020809104026020016040519081016040528092919081815260200182805461219b9061391f565b80156121e65780601f106121bd576101008083540402835291602001916121e6565b820191905f5260205f20905b8154815290600101906020018083116121c957829003601f168201915b505050505091505090565b60605f6121fc6129ff565b905080600301805461220d9061391f565b80601f01602080910402602001604051908101604052809291908181526020018280546122399061391f565b80156122845780601f1061225b57610100808354040283529160200191612284565b820191905f5260205f20905b81548152906001019060200180831161226757829003601f168201915b505050505091505090565b5f7f9016d09d72d40fdae2fd8ceac6b6234c7706214fd39c1cd1e609a0528c199300905090565b5f5f6122c0612997565b9050805f015f8473ffffffffffffffffffffffffffffffffffffffff1673ffffffffffffffffffffffffffffffffffffffff1681526020019081526020015f205f81548092919060010191905055915050919050565b5f612328612322611a67565b83612a26565b9050919050565b5f5f5f5f61233f88888888612a66565b92509250925061234f8282612b4d565b829350505050949350505050565b5f6123666118a4565b90505f73ffffffffffffffffffffffffffffffffffffffff168573ffffffffffffffffffffffffffffffffffffffff16036123d8575f6040517fe602df050000000000000000000000000000000000000000000000000000000081526004016123cf91906133a6565b60405180910390fd5b5f73ffffffffffffffffffffffffffffffffffffffff168473ffffffffffffffffffffffffffffffffffffffff1603612448575f6040517f94280d6200000000000000000000000000000000000000000000000000000000815260040161243f91906133a6565b60405180910390fd5b82816001015f8773ffffffffffffffffffffffffffffffffffffffff1673ffffffffffffffffffffffffffffffffffffffff1681526020019081526020015f205f8673ffffffffffffffffffffffffffffffffffffffff1673ffffffffffffffffffffffffffffffffffffffff1681526020019081526020015f20819055508115612533578373ffffffffffffffffffffffffffffffffffffffff168573ffffffffffffffffffffffffffffffffffffffff167f8c5be1e5ebec7d5bd14f71427d1e84f3dd0314c0f7b2291e5b200ac8c7c3b9258560405161252a919061332e565b60405180910390a35b5050505050565b5f73ffffffffffffffffffffffffffffffffffffffff168373ffffffffffffffffffffffffffffffffffffffff16146125fa5760025f8473ffffffffffffffffffffffffffffffffffffffff1673ffffffffffffffffffffffffffffffffffffffff1681526020019081526020015f205f9054906101000a900460ff16156125f957826040517fdb9ecf680000000000000000000000000000000000000000000000000000000081526004016125f091906133a6565b60405180910390fd5b5b5f73ffffffffffffffffffffffffffffffffffffffff168273ffffffffffffffffffffffffffffffffffffffff16146126ba5760025f8373ffffffffffffffffffffffffffffffffffffffff1673ffffffffffffffffffffffffffffffffffffffff1681526020019081526020015f205f9054906101000a900460ff16156126b957816040517fdb9ecf680000000000000000000000000000000000000000000000000000000081526004016126b091906133a6565b60405180910390fd5b5b6126c5838383612caf565b505050565b5f7f8b73c3c69bb8fe3d512ecc4cf759cc79239f7b179b0ffacaa9a75d522b39400f6126f4612cc7565b6126fc612cdc565b4630604051602001612712959493929190613ab7565b60405160208183030381529060405280519060200120905090565b612735610dfa565b61276b576040517f8dfc202b00000000000000000000000000000000000000000000000000000000815260040160405180910390fd5b565b5f7ff0c57e16840df040f15088dc2f81fe391c3923bec73e23a9662efc9c229c6a005f1b905090565b61279e612cf1565b6127d4576040517fd7e6bcf800000000000000000000000000000000000000000000000000000000815260040160405180910390fd5b565b6127de612796565b5f6127e76118a4565b9050828160030190816127fa9190613cb0565b508181600401908161280c9190613cb0565b50505050565b61281a612796565b5f6128236129ff565b9050828160020190816128369190613cb0565b50818160030190816128489190613cb0565b50505050565b612856612796565b5f73ffffffffffffffffffffffffffffffffffffffff168173ffffffffffffffffffffffffffffffffffffffff16036128c6575f6040517f1e4fbdf70000000000000000000000000000000000000000000000000000000081526004016128bd91906133a6565b60405180910390fd5b6128cf81611fc0565b50565b5f6128fe7f360894a13ba1a3210667c828492db98dca3e2076cc3735a920a3ca505d382bbc5f1b612d0f565b5f015f9054906101000a900473ffffffffffffffffffffffffffffffffffffffff16905090565b61292e82612d18565b8173ffffffffffffffffffffffffffffffffffffffff167fbc7cd75a20ee27fd9adebab32041f755214dbc6bffa90cc0225b39da2e5c2d3b60405160405180910390a25f8151111561298a576129848282612de1565b50612993565b612992612ed2565b5b5050565b5f7f5ab42ced628888259c08ac98db1eb0cf702fc1501344311d8b100cd1bfe4bb00905090565b6129c6610dfa565b156129fd576040517fd93c066500000000000000000000000000000000000000000000000000000000815260040160405180910390fd5b565b5f7fa16a46d94261c7517cc8ff89f61c0ce93598e3c849801011dee649a6a557d100905090565b5f6040517f190100000000000000000000000000000000000000000000000000000000000081528360028201528260228201526042812091505092915050565b5f5f5f7f7fffffffffffffffffffffffffffffff5d576e7357a4501ddfe92f46681b20a0845f1c1115612aa2575f600385925092509250612b43565b5f6001888888886040515f8152602001604052604051612ac59493929190613d7f565b6020604051602081039080840390855afa158015612ae5573d5f5f3e3d5ffd5b5050506020604051035190505f73ffffffffffffffffffffffffffffffffffffffff168173ffffffffffffffffffffffffffffffffffffffff1603612b36575f60015f5f1b93509350935050612b43565b805f5f5f1b935093509350505b9450945094915050565b5f6003811115612b6057612b5f613dc2565b5b826003811115612b7357612b72613dc2565b5b0315612cab5760016003811115612b8d57612b8c613dc2565b5b826003811115612ba057612b9f613dc2565b5b03612bd7576040517ff645eedf00000000000000000000000000000000000000000000000000000000815260040160405180910390fd5b60026003811115612beb57612bea613dc2565b5b826003811115612bfe57612bfd613dc2565b5b03612c4257805f1c6040517ffce698f7000000000000000000000000000000000000000000000000000000008152600401612c39919061332e565b60405180910390fd5b600380811115612c5557612c54613dc2565b5b826003811115612c6857612c67613dc2565b5b03612caa57806040517fd78bce0c000000000000000000000000000000000000000000000000000000008152600401612ca1919061340b565b60405180910390fd5b5b5050565b612cb76129be565b612cc2838383612f0e565b505050565b5f612cd0612153565b80519060200120905090565b5f612ce56121f1565b80519060200120905090565b5f612cfa611c68565b5f0160089054906101000a900460ff16905090565b5f819050919050565b5f8173ffffffffffffffffffffffffffffffffffffffff163b03612d7357806040517f4c9c8ce3000000000000000000000000000000000000000000000000000000008152600401612d6a91906133a6565b60405180910390fd5b80612d9f7f360894a13ba1a3210667c828492db98dca3e2076cc3735a920a3ca505d382bbc5f1b612d0f565b5f015f6101000a81548173ffffffffffffffffffffffffffffffffffffffff021916908373ffffffffffffffffffffffffffffffffffffffff16021790555050565b60605f612dee848461313d565b9050808015612e2457505f612e01613151565b1180612e2357505f8473ffffffffffffffffffffffffffffffffffffffff163b115b5b15612e3957612e31613158565b915050612ecc565b8015612e7c57836040517f9996b315000000000000000000000000000000000000000000000000000000008152600401612e7391906133a6565b60405180910390fd5b5f612e85613151565b1115612e9857612e93613175565b612eca565b6040517fd6bda27500000000000000000000000000000000000000000000000000000000815260040160405180910390fd5b505b92915050565b5f341115612f0c576040517fb398979f00000000000000000000000000000000000000000000000000000000815260040160405180910390fd5b565b5f612f176118a4565b90505f73ffffffffffffffffffffffffffffffffffffffff168473ffffffffffffffffffffffffffffffffffffffff1603612f6b5781816002015f828254612f5f9190613e1c565b9250508190555061303d565b5f815f015f8673ffffffffffffffffffffffffffffffffffffffff1673ffffffffffffffffffffffffffffffffffffffff1681526020019081526020015f2054905082811015612ff6578481846040517fe450d38c000000000000000000000000000000000000000000000000000000008152600401612fed93929190613a43565b60405180910390fd5b828103825f015f8773ffffffffffffffffffffffffffffffffffffffff1673ffffffffffffffffffffffffffffffffffffffff1681526020019081526020015f2081905550505b5f73ffffffffffffffffffffffffffffffffffffffff168373ffffffffffffffffffffffffffffffffffffffff16036130865781816002015f82825403925050819055506130d2565b81815f015f8573ffffffffffffffffffffffffffffffffffffffff1673ffffffffffffffffffffffffffffffffffffffff1681526020019081526020015f205f82825401925050819055505b8273ffffffffffffffffffffffffffffffffffffffff168473ffffffffffffffffffffffffffffffffffffffff167fddf252ad1be2c89b69c2b068fc378daa952ba7f163c4a11628f55a4df523b3ef8460405161312f919061332e565b60405180910390a350505050565b5f5f5f835160208501865af4905092915050565b5f3d905090565b606060405190503d81523d5f602083013e3d602001810160405290565b6040513d5f823e3d81fd5b5f81519050919050565b5f82825260208201905092915050565b8281835e5f83830152505050565b5f601f19601f8301169050919050565b5f6131c282613180565b6131cc818561318a565b93506131dc81856020860161319a565b6131e5816131a8565b840191505092915050565b5f6020820190508181035f83015261320881846131b8565b905092915050565b5f604051905090565b5f5ffd5b5f5ffd5b5f73ffffffffffffffffffffffffffffffffffffffff82169050919050565b5f61324a82613221565b9050919050565b61325a81613240565b8114613264575f5ffd5b50565b5f8135905061327581613251565b92915050565b5f819050919050565b61328d8161327b565b8114613297575f5ffd5b50565b5f813590506132a881613284565b92915050565b5f5f604083850312156132c4576132c3613219565b5b5f6132d185828601613267565b92505060206132e28582860161329a565b9150509250929050565b5f8115159050919050565b613300816132ec565b82525050565b5f6020820190506133195f8301846132f7565b92915050565b6133288161327b565b82525050565b5f6020820190506133415f83018461331f565b92915050565b5f5f5f6060848603121561335e5761335d613219565b5b5f61336b86828701613267565b935050602061337c86828701613267565b925050604061338d8682870161329a565b9150509250925092565b6133a081613240565b82525050565b5f6020820190506133b95f830184613397565b92915050565b5f60ff82169050919050565b6133d4816133bf565b82525050565b5f6020820190506133ed5f8301846133cb565b92915050565b5f819050919050565b613405816133f3565b82525050565b5f60208201905061341e5f8301846133fc565b92915050565b5f6020828403121561343957613438613219565b5b5f6134468482850161329a565b91505092915050565b5f5f6040838503121561346557613464613219565b5b5f61347285828601613267565b925050602061348385828601613267565b9150509250929050565b5f5ffd5b5f5ffd5b7f4e487b71000000000000000000000000000000000000000000000000000000005f52604160045260245ffd5b6134cb826131a8565b810181811067ffffffffffffffff821117156134ea576134e9613495565b5b80604052505050565b5f6134fc613210565b905061350882826134c2565b919050565b5f67ffffffffffffffff82111561352757613526613495565b5b613530826131a8565b9050602081019050919050565b828183375f83830152505050565b5f61355d6135588461350d565b6134f3565b90508281526020810184848401111561357957613578613491565b5b61358484828561353d565b509392505050565b5f82601f8301126135a05761359f61348d565b5b81356135b084826020860161354b565b91505092915050565b5f5f604083850312156135cf576135ce613219565b5b5f6135dc85828601613267565b925050602083013567ffffffffffffffff8111156135fd576135fc61321d565b5b6136098582860161358c565b9150509250929050565b5f6020828403121561362857613627613219565b5b5f61363584828501613267565b91505092915050565b5f7fff0000000000000000000000000000000000000000000000000000000000000082169050919050565b6136728161363e565b82525050565b5f81519050919050565b5f82825260208201905092915050565b5f819050602082019050919050565b6136aa8161327b565b82525050565b5f6136bb83836136a1565b60208301905092915050565b5f602082019050919050565b5f6136dd82613678565b6136e78185613682565b93506136f283613692565b805f5b8381101561372257815161370988826136b0565b9750613714836136c7565b9250506001810190506136f5565b5085935050505092915050565b5f60e0820190506137425f83018a613669565b818103602083015261375481896131b8565b9050818103604083015261376881886131b8565b9050613777606083018761331f565b6137846080830186613397565b61379160a08301856133fc565b81810360c08301526137a381846136d3565b905098975050505050505050565b6137ba816133f3565b81146137c4575f5ffd5b50565b5f813590506137d5816137b1565b92915050565b5f5f5f606084860312156137f2576137f1613219565b5b5f6137ff86828701613267565b93505060206138108682870161329a565b9250506040613821868287016137c7565b9150509250925092565b613834816133bf565b811461383e575f5ffd5b50565b5f8135905061384f8161382b565b92915050565b5f5f5f5f5f5f5f60e0888a0312156138705761386f613219565b5b5f61387d8a828b01613267565b975050602061388e8a828b01613267565b965050604061389f8a828b0161329a565b95505060606138b08a828b0161329a565b94505060806138c18a828b01613841565b93505060a06138d28a828b016137c7565b92505060c06138e38a828b016137c7565b91505092959891949750929550565b7f4e487b71000000000000000000000000000000000000000000000000000000005f52602260045260245ffd5b5f600282049050600182168061393657607f821691505b602082108103613949576139486138f2565b5b50919050565b5f819050919050565b5f67ffffffffffffffff82169050919050565b5f819050919050565b5f61398e6139896139848461394f565b61396b565b613958565b9050919050565b61399e81613974565b82525050565b5f6020820190506139b75f830184613995565b92915050565b5f60c0820190506139d05f8301896133fc565b6139dd6020830188613397565b6139ea6040830187613397565b6139f7606083018661331f565b613a04608083018561331f565b613a1160a083018461331f565b979650505050505050565b5f604082019050613a2f5f830185613397565b613a3c6020830184613397565b9392505050565b5f606082019050613a565f830186613397565b613a63602083018561331f565b613a70604083018461331f565b949350505050565b5f81519050613a86816137b1565b92915050565b5f60208284031215613aa157613aa0613219565b5b5f613aae84828501613a78565b91505092915050565b5f60a082019050613aca5f8301886133fc565b613ad760208301876133fc565b613ae460408301866133fc565b613af1606083018561331f565b613afe6080830184613397565b9695505050505050565b5f819050815f5260205f209050919050565b5f6020601f8301049050919050565b5f82821b905092915050565b5f60088302613b647fffffffffffffffffffffffffffffffffffffffffffffffffffffffffffffffff82613b29565b613b6e8683613b29565b95508019841693508086168417925050509392505050565b5f613ba0613b9b613b968461327b565b61396b565b61327b565b9050919050565b5f819050919050565b613bb983613b86565b613bcd613bc582613ba7565b848454613b35565b825550505050565b5f5f905090565b613be4613bd5565b613bef818484613bb0565b505050565b5f5b82811015613c1557613c0a5f828401613bdc565b600181019050613bf6565b505050565b601f821115613c685782821115613c6757613c3481613b08565b613c3d83613b1a565b613c4685613b1a565b6020861015613c53575f90505b808301613c6282840382613bf4565b505050505b5b505050565b5f82821c905092915050565b5f613c885f1984600802613c6d565b1980831691505092915050565b5f613ca08383613c79565b9150826002028217905092915050565b613cb982613180565b67ffffffffffffffff811115613cd257613cd1613495565b5b613cdc825461391f565b613ce7828285613c1a565b5f60209050601f831160018114613d18575f8415613d06578287015190505b613d108582613c95565b865550613d77565b601f198416613d2686613b08565b5f5b82811015613d4d57848901518255600182019150602085019450602081019050613d28565b86831015613d6a5784890151613d66601f891682613c79565b8355505b6001600288020188555050505b505050505050565b5f608082019050613d925f8301876133fc565b613d9f60208301866133cb565b613dac60408301856133fc565b613db960608301846133fc565b95945050505050565b7f4e487b71000000000000000000000000000000000000000000000000000000005f52602160045260245ffd5b7f4e487b71000000000000000000000000000000000000000000000000000000005f52601160045260245ffd5b5f613e268261327b565b9150613e318361327b565b9250828201905080821115613e4957613e48613def565b5b9291505056fea26469706673582212207d16bbe63b9f7565c25fc9e19ecf9b086ed3a97e228a0a2ccd61c2294797828164736f6c63430008230033","linkReferences":{}},"methodIdentifiers":{"DOMAIN_SEPARATOR()":"3644e515","UPGRADE_INTERFACE_VERSION()":"ad3cb1cc","allowance(address,address)":"dd62ed3e","approve(address,uint256)":"095ea7b3","balanceOf(address)":"70a08231","blocklist(address)":"e5c7160b","burn(address,uint256)":"9dc29fac","burn(uint256)":"42966c68","burnFrom(address,uint256)":"79cc6790","decimals()":"313ce567","eip712Domain()":"84b0196e","initialize(address,address)":"485cc955","isBlocklisted(address)":"8e204c43","mint(address,uint256)":"40c10f19","name()":"06fdde03","nonces(address)":"7ecebe00","nttManager()":"24fb21db","owner()":"8da5cb5b","pause()":"8456cb59","paused()":"5c975abb","permit(address,address,uint256,uint256,uint8,bytes32,bytes32)":"d505accf","proxiableUUID()":"52d1902d","renounceOwnership()":"715018a6","reserveManager()":"bb004abc","setMinter(address)":"fca3b5aa","setReserveManager(address)":"df7da754","symbol()":"95d89b41","totalSupply()":"18160ddd","transfer(address,uint256)":"a9059cbb","transferFrom(address,address,uint256)":"23b872dd","transferOwnership(address)":"f2fde38b","transferWithMemo(address,uint256,bytes32)":"95777d59","unblocklist(address)":"ae0905ef","unpause()":"3f4ba83a","upgradeToAndCall(address,bytes)":"4f1ef286"},"id":4}