{"abi":[{"type":"function","name":"messages","inputs":[{"name":"","type":"address","internalType":"address"},{"name":"","type":"uint256","internalType":"uint256"}],"outputs":[{"name":"sourceChainId","type":"uint16","internalType":"uint16"},{"name":"targetChainId","type":"uint16","internalType":"uint16"},{"name":"sender","type":"address","internalType":"address"},{"name":"recipient","type":"address","internalType":"address"},{"name":"amount","type":"uint64","internalType":"TrimmedAmount"},{"name":"status","type":"uint8","internalType":"uint8"},{"name":"timestamp","type":"uint48","internalType":"uint48"},{"name":"amlRiskScore","type":"uint8","internalType":"uint8"},{"name":"businessData","type":"string","internalType":"string"}],"stateMutability":"view"},{"type":"function","name":"receiveReputationMessage","inputs":[{"name":"payload","type":"bytes","internalType":"bytes"}],"outputs":[],"stateMutability":"nonpayable"},{"type":"function","name":"sendReputationMessage","inputs":[{"name":"sourceChainId","type":"uint16","internalType":"uint16"},{"name":"sender","type":"address","internalType":"address"},{"name":"amount","type":"uint64","internalType":"TrimmedAmount"},{"name":"targetChainId","type":"uint16","internalType":"uint16"},{"name":"recipient","type":"address","internalType":"address"}],"outputs":[{"name":"","type":"bytes","internalType":"bytes"}],"stateMutability":"nonpayable"},{"type":"function","name":"setReputationMessage","inputs":[{"name":"_amlRiskScore","type":"uint8","internalType":"uint8"},{"name":"_businessData","type":"string","internalType":"string"}],"outputs":[],"stateMutability":"nonpayable"},{"type":"event","name":"ReceivedReputationMessage","inputs":[{"name":"receiver","type":"address","indexed":true,"internalType":"address"},{"name":"sender","type":"address","indexed":true,"internalType":"address"},{"name":"amount","type":"uint64","indexed":false,"internalType":"TrimmedAmount"},{"name":"amlRiskScore","type":"uint8","indexed":false,"internalType":"uint8"},{"name":"businessData","type":"string","indexed":false,"internalType":"string"},{"name":"timestamp","type":"uint48","indexed":false,"internalType":"uint48"}],"anonymous":false},{"type":"error","name":"NoMessageFound","inputs":[]},{"type":"error","name":"NoPendingMessage","inputs":[]}],"bytecode":{"object":"0x6080604052348015600e575f5ffd5b506119948061001c5f395ff3fe608060405234801561000f575f5ffd5b506004361061004a575f3560e01c8063aa29d4531461004e578063c45d9bea1461006a578063c4ed3609146100a2578063cdfab1f6146100be575b5f5ffd5b61006860048036038101906100639190610b46565b6100ee565b005b610084600480360381019061007f9190610c2d565b610362565b60405161009999989796959493929190610d71565b60405180910390f35b6100bc60048036038101906100b79190610ea1565b6104e2565b005b6100d860048036038101906100d39190610f3c565b61076a565b6040516100e59190611005565b60405180910390f35b5f5f3373ffffffffffffffffffffffffffffffffffffffff1673ffffffffffffffffffffffffffffffffffffffff1681526020019081526020015f206040518061012001604052805f61ffff1681526020015f61ffff1681526020015f73ffffffffffffffffffffffffffffffffffffffff1681526020015f73ffffffffffffffffffffffffffffffffffffffff1681526020015f67ffffffffffffffff1681526020015f60ff1681526020015f65ffffffffffff1681526020018460ff16815260200183815250908060018154018082558091505060019003905f5260205f2090600402015f909190919091505f820151815f015f6101000a81548161ffff021916908361ffff1602179055506020820151815f0160026101000a81548161ffff021916908361ffff1602179055506040820151815f0160046101000a81548173ffffffffffffffffffffffffffffffffffffffff021916908373ffffffffffffffffffffffffffffffffffffffff1602179055506060820151816001015f6101000a81548173ffffffffffffffffffffffffffffffffffffffff021916908373ffffffffffffffffffffffffffffffffffffffff16021790555060808201518160010160146101000a81548167ffffffffffffffff021916908367ffffffffffffffff16021790555060a082015181600101601c6101000a81548160ff021916908360ff16021790555060c0820151816002015f6101000a81548165ffffffffffff021916908365ffffffffffff16021790555060e08201518160020160066101000a81548160ff021916908360ff16021790555061010082015181600301908161035b919061122a565b5050505050565b5f602052815f5260405f20818154811061037a575f80fd5b905f5260205f2090600402015f9150915050805f015f9054906101000a900461ffff1690805f0160029054906101000a900461ffff1690805f0160049054906101000a900473ffffffffffffffffffffffffffffffffffffffff1690806001015f9054906101000a900473ffffffffffffffffffffffffffffffffffffffff16908060010160149054906101000a900467ffffffffffffffff169080600101601c9054906101000a900460ff1690806002015f9054906101000a900465ffffffffffff16908060020160069054906101000a900460ff169080600301805461046190611052565b80601f016020809104026020016040519081016040528092919081815260200182805461048d90611052565b80156104d85780601f106104af576101008083540402835291602001916104d8565b820191905f5260205f20905b8154815290600101906020018083116104bb57829003601f168201915b5050505050905089565b5f818060200190518101906104f791906114e2565b90505f5f826060015173ffffffffffffffffffffffffffffffffffffffff1673ffffffffffffffffffffffffffffffffffffffff1681526020019081526020015f2081908060018154018082558091505060019003905f5260205f2090600402015f909190919091505f820151815f015f6101000a81548161ffff021916908361ffff1602179055506020820151815f0160026101000a81548161ffff021916908361ffff1602179055506040820151815f0160046101000a81548173ffffffffffffffffffffffffffffffffffffffff021916908373ffffffffffffffffffffffffffffffffffffffff1602179055506060820151816001015f6101000a81548173ffffffffffffffffffffffffffffffffffffffff021916908373ffffffffffffffffffffffffffffffffffffffff16021790555060808201518160010160146101000a81548167ffffffffffffffff021916908367ffffffffffffffff16021790555060a082015181600101601c6101000a81548160ff021916908360ff16021790555060c0820151816002015f6101000a81548165ffffffffffff021916908365ffffffffffff16021790555060e08201518160020160066101000a81548160ff021916908360ff1602179055506101008201518160030190816106df919061122a565b505050806040015173ffffffffffffffffffffffffffffffffffffffff16816060015173ffffffffffffffffffffffffffffffffffffffff167f2ebb0b17e4cc038baca311169639871352f54e9e4ffccb3b9e178b3fca7bf35883608001518460e001518561010001518660c0015160405161075e9493929190611529565b60405180910390a35050565b60605f5f5f8773ffffffffffffffffffffffffffffffffffffffff1673ffffffffffffffffffffffffffffffffffffffff1681526020019081526020015f2090505f818054905090505f81036107ec576040517ff2e425e100000000000000000000000000000000000000000000000000000000815260040160405180910390fd5b5f826001836107fb91906115a0565b8154811061080c5761080b6115d3565b5b905f5260205f20906004020190505f81600101601c9054906101000a900460ff1660ff1614610867576040517f49b4442900000000000000000000000000000000000000000000000000000000815260040160405180910390fd5b600181600101601c6101000a81548160ff021916908360ff16021790555088815f015f6101000a81548161ffff021916908361ffff16021790555085815f0160026101000a81548161ffff021916908361ffff16021790555087815f0160046101000a81548173ffffffffffffffffffffffffffffffffffffffff021916908373ffffffffffffffffffffffffffffffffffffffff16021790555084816001015f6101000a81548173ffffffffffffffffffffffffffffffffffffffff021916908373ffffffffffffffffffffffffffffffffffffffff160217905550868160010160146101000a81548167ffffffffffffffff021916908367ffffffffffffffff16021790555042816002015f6101000a81548165ffffffffffff021916908365ffffffffffff160217905550806040516020016109a6919061193e565b604051602081830303815290604052935050505095945050505050565b5f604051905090565b5f5ffd5b5f5ffd5b5f60ff82169050919050565b6109e9816109d4565b81146109f3575f5ffd5b50565b5f81359050610a04816109e0565b92915050565b5f5ffd5b5f5ffd5b5f601f19601f8301169050919050565b7f4e487b71000000000000000000000000000000000000000000000000000000005f52604160045260245ffd5b610a5882610a12565b810181811067ffffffffffffffff82111715610a7757610a76610a22565b5b80604052505050565b5f610a896109c3565b9050610a958282610a4f565b919050565b5f67ffffffffffffffff821115610ab457610ab3610a22565b5b610abd82610a12565b9050602081019050919050565b828183375f83830152505050565b5f610aea610ae584610a9a565b610a80565b905082815260208101848484011115610b0657610b05610a0e565b5b610b11848285610aca565b509392505050565b5f82601f830112610b2d57610b2c610a0a565b5b8135610b3d848260208601610ad8565b91505092915050565b5f5f60408385031215610b5c57610b5b6109cc565b5b5f610b69858286016109f6565b925050602083013567ffffffffffffffff811115610b8a57610b896109d0565b5b610b9685828601610b19565b9150509250929050565b5f73ffffffffffffffffffffffffffffffffffffffff82169050919050565b5f610bc982610ba0565b9050919050565b610bd981610bbf565b8114610be3575f5ffd5b50565b5f81359050610bf481610bd0565b92915050565b5f819050919050565b610c0c81610bfa565b8114610c16575f5ffd5b50565b5f81359050610c2781610c03565b92915050565b5f5f60408385031215610c4357610c426109cc565b5b5f610c5085828601610be6565b9250506020610c6185828601610c19565b9150509250929050565b5f61ffff82169050919050565b610c8181610c6b565b82525050565b610c9081610bbf565b82525050565b5f67ffffffffffffffff82169050919050565b5f819050919050565b5f610ccc610cc7610cc284610c96565b610ca9565b610c96565b9050919050565b610cdc81610cb2565b82525050565b610ceb816109d4565b82525050565b5f65ffffffffffff82169050919050565b610d0b81610cf1565b82525050565b5f81519050919050565b5f82825260208201905092915050565b8281835e5f83830152505050565b5f610d4382610d11565b610d4d8185610d1b565b9350610d5d818560208601610d2b565b610d6681610a12565b840191505092915050565b5f61012082019050610d855f83018c610c78565b610d92602083018b610c78565b610d9f604083018a610c87565b610dac6060830189610c87565b610db96080830188610cd3565b610dc660a0830187610ce2565b610dd360c0830186610d02565b610de060e0830185610ce2565b818103610100830152610df38184610d39565b90509a9950505050505050505050565b5f67ffffffffffffffff821115610e1d57610e1c610a22565b5b610e2682610a12565b9050602081019050919050565b5f610e45610e4084610e03565b610a80565b905082815260208101848484011115610e6157610e60610a0e565b5b610e6c848285610aca565b509392505050565b5f82601f830112610e8857610e87610a0a565b5b8135610e98848260208601610e33565b91505092915050565b5f60208284031215610eb657610eb56109cc565b5b5f82013567ffffffffffffffff811115610ed357610ed26109d0565b5b610edf84828501610e74565b91505092915050565b610ef181610c6b565b8114610efb575f5ffd5b50565b5f81359050610f0c81610ee8565b92915050565b610f1b81610c96565b8114610f25575f5ffd5b50565b5f81359050610f3681610f12565b92915050565b5f5f5f5f5f60a08688031215610f5557610f546109cc565b5b5f610f6288828901610efe565b9550506020610f7388828901610be6565b9450506040610f8488828901610f28565b9350506060610f9588828901610efe565b9250506080610fa688828901610be6565b9150509295509295909350565b5f81519050919050565b5f82825260208201905092915050565b5f610fd782610fb3565b610fe18185610fbd565b9350610ff1818560208601610d2b565b610ffa81610a12565b840191505092915050565b5f6020820190508181035f83015261101d8184610fcd565b905092915050565b7f4e487b71000000000000000000000000000000000000000000000000000000005f52602260045260245ffd5b5f600282049050600182168061106957607f821691505b60208210810361107c5761107b611025565b5b50919050565b5f819050815f5260205f209050919050565b5f6020601f8301049050919050565b5f82821b905092915050565b5f600883026110de7fffffffffffffffffffffffffffffffffffffffffffffffffffffffffffffffff826110a3565b6110e886836110a3565b95508019841693508086168417925050509392505050565b5f61111a61111561111084610bfa565b610ca9565b610bfa565b9050919050565b5f819050919050565b61113383611100565b61114761113f82611121565b8484546110af565b825550505050565b5f5f905090565b61115e61114f565b61116981848461112a565b505050565b5f5b8281101561118f576111845f828401611156565b600181019050611170565b505050565b601f8211156111e257828211156111e1576111ae81611082565b6111b783611094565b6111c085611094565b60208610156111cd575f90505b8083016111dc8284038261116e565b505050505b5b505050565b5f82821c905092915050565b5f6112025f19846008026111e7565b1980831691505092915050565b5f61121a83836111f3565b9150826002028217905092915050565b61123382610d11565b67ffffffffffffffff81111561124c5761124b610a22565b5b6112568254611052565b611261828285611194565b5f60209050601f831160018114611292575f8415611280578287015190505b61128a858261120f565b8655506112f1565b601f1984166112a086611082565b5f5b828110156112c7578489015182556001820191506020850194506020810190506112a2565b868310156112e457848901516112e0601f8916826111f3565b8355505b6001600288020188555050505b505050505050565b5f5ffd5b5f5ffd5b5f8151905061130f81610ee8565b92915050565b5f8151905061132381610bd0565b92915050565b5f8151905061133781610f12565b92915050565b5f8151905061134b816109e0565b92915050565b61135a81610cf1565b8114611364575f5ffd5b50565b5f8151905061137581611351565b92915050565b5f61138d61138884610a9a565b610a80565b9050828152602081018484840111156113a9576113a8610a0e565b5b6113b4848285610d2b565b509392505050565b5f82601f8301126113d0576113cf610a0a565b5b81516113e084826020860161137b565b91505092915050565b5f61012082840312156113ff576113fe6112f9565b5b61140a610120610a80565b90505f61141984828501611301565b5f83015250602061142c84828501611301565b602083015250604061144084828501611315565b604083015250606061145484828501611315565b606083015250608061146884828501611329565b60808301525060a061147c8482850161133d565b60a08301525060c061149084828501611367565b60c08301525060e06114a48482850161133d565b60e08301525061010082015167ffffffffffffffff8111156114c9576114c86112fd565b5b6114d5848285016113bc565b6101008301525092915050565b5f602082840312156114f7576114f66109cc565b5b5f82015167ffffffffffffffff811115611514576115136109d0565b5b611520848285016113e9565b91505092915050565b5f60808201905061153c5f830187610cd3565b6115496020830186610ce2565b818103604083015261155b8185610d39565b905061156a6060830184610d02565b95945050505050565b7f4e487b71000000000000000000000000000000000000000000000000000000005f52601160045260245ffd5b5f6115aa82610bfa565b91506115b583610bfa565b92508282039050818111156115cd576115cc611573565b5b92915050565b7f4e487b71000000000000000000000000000000000000000000000000000000005f52603260045260245ffd5b5f815f1c9050919050565b5f61ffff82169050919050565b5f61162a61162583611600565b61160b565b9050919050565b61163a81610c6b565b82525050565b5f8160101c9050919050565b5f61165e61165983611640565b61160b565b9050919050565b5f8160201c9050919050565b5f73ffffffffffffffffffffffffffffffffffffffff82169050919050565b5f6116a261169d83611665565b611671565b9050919050565b6116b281610bbf565b82525050565b5f6116ca6116c583611600565b611671565b9050919050565b5f8160a01c9050919050565b5f67ffffffffffffffff82169050919050565b5f6117026116fd836116d1565b6116dd565b9050919050565b61171281610cb2565b82525050565b5f8160e01c9050919050565b5f60ff82169050919050565b5f61174261173d83611718565b611724565b9050919050565b611752816109d4565b82525050565b5f65ffffffffffff82169050919050565b5f61177b61177683611600565b611758565b9050919050565b61178b81610cf1565b82525050565b5f8160301c9050919050565b5f6117af6117aa83611791565b611724565b9050919050565b5f82825260208201905092915050565b5f81546117d281611052565b6117dc81866117b6565b9450600182165f81146117f6576001811461180c5761183e565b60ff19831686528115156020028601935061183e565b61181585611082565b5f5b8381101561183657815481890152600182019150602081019050611817565b808801955050505b50505092915050565b5f61012083015f5f840154905061185d81611618565b6118695f870182611631565b506118738161164c565b6118806020870182611631565b5061188a81611690565b61189760408701826116a9565b50600184015490506118a8816116b8565b6118b560608701826116a9565b506118bf816116f0565b6118cc6080870182611709565b506118d681611730565b6118e360a0870182611749565b50600284015490506118f481611769565b61190160c0870182611782565b5061190b8161179d565b61191860e0870182611749565b506003840185830361010087015261193083826117c6565b925050819250505092915050565b5f6020820190508181035f8301526119568184611847565b90509291505056fea2646970667358221220aae97fa02425476561866b1674c7e03ef1208fa6d8022505946734fb921c223764736f6c63430008230033","linkReferences":{}},"methodIdentifiers":{"messages(address,uint256)":"c45d9bea","receiveReputationMessage(bytes)":"c4ed3609","sendReputationMessage(uint16,address,uint64,uint16,address)":"cdfab1f6","setReputationMessage(uint8,string)":"aa29d453"},"id":5}